:100000000C9426060C944E060C944E060C944E0648
:100010000C944E060C944E060C944E060C944E0610
:100020000C94D9120C944E060C944E060C944E0669
:100030000C944E060C944E060C944E060C944E06F0
:100040000C944E060C944E060C94D24E0C944E0614
:100050000C94C6500C9454510C944E060C944E06BD
:100060000C944E060C944E060C949A6B0C944E060F
:100070000C94FB500C948F510C944E064E5450200F
:1000800053796E63696E672E2E2E005D0D0A002C6B
:1000900000222C00302C22002C002C005B002E743F
:1000A000787400446574656374696E6720755344A1
:1000B0002E2E2E00302E2054657374202831206D92
:1000C000696E29002E20002000486F6C64204233A6
:1000D00020746F20737461727400436C69636B20C9
:1000E000423320746F206C6973740052756E206106
:1000F0002050726F6772616D3A00286C73776329C4
:100100000028656970290020286F73697029003AFA
:10011000002867776970290066777600747A006E28
:100120007470006468637000697031006970320037
:100130006970330069703400677731006777320087
:10014000677733006777340068703000687031007B
:1001500068777600657874005F00736474006D6181
:1001600073006D746F6E006D746F6600757273004E
:1001700072736F00776C0064656E00697061730064
:10018000646576696400636F6E006C69740064690D
:100190006D005F00757774006E747031006E74705E
:1001A00032006E747033006E747034006C67006DD2
:1001B000617332006D746F6E32006D746F66320061
:1001C00072657365740046573A00545A6F6E653A0B
:1001D000004E54503F00444843503F004F532E6957
:1001E00070313A002E6970323A002E6970333A004D
:1001F0002E6970343A0047572E6970313A002E69E3
:1002000070323A002E6970333A002E6970343A0029
:10021000506F72743A000048573A20004578702EAB
:1002200020626F6172643A000053746E2064656CE2
:1002300061793A004D6173313A004D61733120208C
:100240006F6E2061646A3A004D617331206F66669B
:100250002061646A3A005261696E2073656E736F43
:10026000723A004E6F726D616C6C79206F70656EC2
:100270003F0025205761746572696E673A004465D6
:10028000762E20656E61626C653F0049676E207056
:1002900077643F004465762E2049443A004C43443D
:1002A00020636F6E2E3A004C4344206C69742E3AE2
:1002B000004C43442064696D2E3A0000557365205C
:1002C000776561746865723F004E54502E697031D5
:1002D0003A002E6970323A002E6970333A002E6966
:1002E00070343A004C6F673F004D6173323A004DF5
:1002F00061733220206F6E2061646A3A004D617331
:1003000032206F66662061646A3A005265736574D4
:1003100020616C6C3F004D6F6E0054756500576531
:100320006400546875004672690053617400537527
:100330006E00207365630025004E6F0059657300E1
:100340002B002B0020474D54003030003A002D0088
:100350002B000020202020002D44697361626C6511
:1003600064212D003A0045004D433A0020284D41BC
:100370004329002D002E002D0020002020003A00EF
:100380002000486F6C6420423320746F20736176C4
:10039000650042312F42323A2B2F2D2C2042333A26
:1003A0002D3E003D3D536574204F7074696F6E7330
:1003B0003D3D00506C6561736520576169742E2E58
:1003C0002E00526573657474696E672E2E2E00437D
:1003D0006F6E6E656374696E672E2E2E0050726F9D
:1003E0006772616D20006C6F630077746B657900D4
:1003F000747474006376006A630064700063700054
:100400006372007570006A7000636F006A6F00733A
:1004100070006A7300636D006373006A6E006A6C3B
:1004200000646C007375006375003C7363726970DF
:10043000743E77696E646F772E6C6F636174696F59
:100440006E3D222F223B3C2F7363726970743E0A0B
:10045000007B22726573756C74223A24447D007BA4
:1004600022726573756C74223A24447D0024460020
:10047000222446223A24447D00485454502F312EE1
:100480003120323030204F4B0D0A004361636865E4
:100490002D436F6E74726F6C3A206D61782D6167B9
:1004A000653D3630343830302C207075626C6963AD
:1004B0000D0A00436F6E74656E742D547970653A41
:1004C00020746578742F6373733B6368617273651E
:1004D000743D7574662D380D0A436F6E74656E74C5
:1004E0002D456E636F64696E673A20677A69700D97
:1004F0000A00436F6E74656E742D547970653A20EE
:10050000746578742F6A6176617363726970743B85
:10051000636861727365743D7574662D380D0A43A6
:100520006F6E74656E742D456E636F64696E673AA5
:1005300020677A69700D0A000D0A002446002446DF
:10054000002446244600646179005D002C24530099
:100550002453005B007479706500656E64007374E9
:100560006172740068697374007400656E00736969
:1005700064005D2C226E73746174696F6E73223A2D
:1005800024447D002C0024440022736E223A5B0038
:10059000637077006E7077007474740077746B65A5
:1005A00079006C6F63006A737000726400656E009E
:1005B0007262740072736E003C6D657461206E61CE
:1005C0006D653D2276696577706F72742220636F66
:1005D0006E74656E743D2277696474683D646576F7
:1005E0006963652D77696474682C696E69746961E3
:1005F0006C2D7363616C653D312E302C6D696E69B5
:100600006D756D2D7363616C653D312E302C757386
:1006100065722D7363616C61626C653D6E6F223E25
:100620000D0A003C736372697074207372633D221B
:1006300024452F686F6D652E6A73223E3C2F7363CD
:10064000726970743E0A3C2F626F64793E0A3C2FD7
:1006500068746D6C3E00766172207665723D24444C
:100660002C697061733D24443B3C2F736372697045
:10067000743E0A003C21444F43545950452068744D
:100680006D6C3E0A3C68746D6C3E0A3C6865616442
:100690003E0A24463C2F686561643E0A3C626F64F2
:1006A000793E0A3C7363726970743E005B302C3093
:1006B0005D5D2C226C72756E223A5B24442C2444BE
:1006C0002C24442C244C5D7D005B24442C244C2C95
:1006D000244C5D2C00305D2C227073223A5B002488
:1006E000442C002264657674223A244C2C226E62DB
:1006F0007264223A24442C22656E223A24442C222D
:100700007264223A24442C227273223A24442C220A
:1007100072647374223A244C2C226C6F63223A2246
:100720002445222C2277746B6579223A22244522B3
:100730002C2273756E72697365223A24442C2273DD
:10074000756E736574223A24442C22656970223ACE
:10075000244C2C226C7763223A244C2C226C737725
:1007600063223A244C2C227362697473223A5B0030
:100770003C6872202F3E3C666F726D206E616D6525
:100780003D6F6620616374696F6E3D6375206D65B2
:1007900074686F643D6765743E3C703E3C623E53D6
:1007A00063726970742055524C3A3C2F623E3C692A
:1007B0006E70757420747970653D746578742073FB
:1007C000697A653D3332206D61786C656E67746857
:1007D0003D3132372076616C75653D2224452220FB
:1007E0006E616D653D6A73703E3C2F703E3C703E9D
:1007F00044656661756C742069732024533C627291
:10080000202F3E4966206C6F63616C206F6E2075EF
:10081000534420636172642C20757365202E2F3C35
:100820002F703E3C703E3C623E50617373776F7236
:10083000643A3C2F623E3C696E7075742074797026
:10084000653D70617373776F72642073697A653D7B
:100850003332206E616D653D70773E3C696E707518
:100860007420747970653D7375626D69743E3C2FB8
:10087000703E3C6872202F3E3C2F666F726D3E3C8E
:10088000736372697074207372633D6874747073FB
:100890003A2F2F75692E6F70656E737072696E6B6B
:1008A0006C65722E636F6D2F6A732F686173686554
:1008B000722E6A733E3C2F7363726970743E005DE2
:1008C0007D00225D00225D2C00245300244C5D2C11
:1008D0002200244C2C0024445D2C5B0024442C007A
:1008E0005B24442C24442C24442C5B00226E707224
:1008F0006F6773223A24442C226E626F61726473B4
:10090000223A24442C226D6E70223A24442C226D0B
:100910006E7374223A24442C22706E73697A6522B5
:100920003A24442C227064223A5B002C22646578BD
:1009300070223A24442C226D657870223A24447D3A
:10094000002C00222446223A2444006E616D65008A
:100950007069640070696400706964005D2C226DC8
:1009600061786C656E223A24447D002C0022245369
:10097000220022736E616D6573223A5B0073746EA0
:100980005F73657100726673746E0073746E5F647A
:100990006973006D61736F70320069676E6F7265A5
:1009A0005F7261696E006D61736F70005D2C002C69
:1009B00000244400222446223A5B00707700436FF3
:1009C0006E74656E742D547970653A206170706C28
:1009D00069636174696F6E2F6A736F6E0D0A436F7E
:1009E0006E6E656374696F6E3A20636C6F73650D2C
:1009F0000A004163636573732D436F6E74726F6C8D
:100A00002D416C6C6F772D4F726967696E3A202AA1
:100A10000D0A0043616368652D436F6E74726F6CDD
:100A20003A206D61782D6167653D302C206E6F2D09
:100A300063616368652C206E6F2D73746F72652C13
:100A4000206D7573742D726576616C69646174656F
:100A50000D0A0024462446244624460D0A7B002421
:100A6000462446244624460D0A00436F6E74656E84
:100A7000742D547970653A20746578742F68746D9C
:100A80006C0D0A0024462446244624460D0A000024
:100A9000010800060400014500008200004000201B
:100AA00000504F535420244620485454502F312E88
:100AB000300D0A486F73743A2024460D0A244624E8
:100AC000534163636570743A202A2F2A0D0A436FDD
:100AD0006E74656E742D4C656E6774683A2024449C
:100AE0000D0A436F6E74656E742D547970653A20EB
:100AF0006170706C69636174696F6E2F782D7777A0
:100B0000772D666F726D2D75726C656E636F64659F
:100B1000640D0A0D0A2453004745542024462453EB
:100B200020485454502F312E300D0A486F73743AB8
:100B30002024460D0A24460D0A0D0A004163636510
:100B400070743A20746578742F68746D6C00E300DB
:100B500004FA000100000001776561746865722E77
:100B60006F70656E737072696E6B6C65722E636FF9
:100B70006D002F776561746865720024442E70796A
:100B80003F6C6F633D2445266B65793D24452666A1
:100B900077763D24440065697000747A0073636160
:100BA0006C650073756E7365740073756E7269732E
:100BB000650000002100240027002A000000220018
:100BC000250028002B00000020002300260029001B
:100BD00002020202020202020404040404040404E5
:100BE00003030303030303030101010101010101E5
:100BF00001020408102040800102040810204080F7
:100C000001020408102040808040201008040201E6
:100C100000000001020000000000000004030706BD
:100C200000000000000000000000000000000000C4
:100C30007C3C3E5E2B3D3F2F5B5D3B2C2A225C00C3
:100C4000160D09137D1F6F526E545A6711241FBE73
:100C5000CFEFD0E1DEBFCDBF13E0A0E0B1E0EEE228
:100C6000FCED02C005900D92A438B107D9F71EE043
:100C7000A4E8B3E001C01D92A43DB107E1F71CE078
:100C8000CCE4DCE004C02297FE010E94116EC03467
:100C9000D107C9F70E9405530C9495060C940000E7
:100CA000FC0188279927E89421912032E9F3293023
:100CB00010F02E30C8F32B3241F02D3239F4689405
:100CC00004C00E947807820F911D219120532A3081
:100CD000C0F31EF4909581959F4F08951F93FC01DA
:100CE00099278827BC01E89411911032E9F3193053
:100CF00010F01E30C8F31B3251F01D3249F46894D5
:100D000006C00E946307610F711D811D911D119125
:100D100010531A30B0F33EF490958095709561951C
:100D20007F4F8F4F9F4F1F910895F8940C94156E2D
:100D3000FB01DC0102C005900D9241505040D8F7F4
:100D40000895FB01DC010D900020E9F71197059053
:100D50000D920020E1F70895FB01DC0105900D9252
:100D60000020E1F70895FB01DC0104C08D910190A2
:100D7000801921F441505040C8F7881B990B089501
:100D8000FB01DC0102C001900D9241505040D8F7A8
:100D90000895DC0101C06D9341505040E0F7089583
:100DA000FB01DC010D900020E9F7119701900D92F5
:100DB0000020E1F70895FC018191861721F0882336
:100DC000D9F7992708953197CF010895FB01DC01E8
:100DD00001900D920020E1F70895FB01DC014150E4
:100DE000504030F08D910190801919F40020B9F72E
:100DF000881B990B0895FB01DC014150504048F0DD
:100E000001900D920020C9F701C01D924150504041
:100E1000E0F70895A0E0B0E0E0E1F7E00C94E26DC7
:100E20007C01EB018A01690109C0CE012196F6011E
:100E30000995F70181937F010150104001151105BB
:100E4000A1F7CDB7DEB7E8E00C94FE6DA0E0B0E00E
:100E5000ECE2F7E00C94E26DEC017B018A016901A0
:100E600009C0CE012196F70161917F01F601099534
:100E70000150104001151105A1F7CDB7DEB7E8E02C
:100E80000C94FE6DFB019F01E8944230C4F04532A2
:100E9000B4F44A3029F497FB1EF4909581959F4F46
:100EA000642F77270E94746D805D8A330CF0895D12
:100EB0008193CB010097A1F716F45DE25193108264
:100EC000C9010C94A507592F482F372F262F660FDD
:100ED000771F881F991F660F771F881F991F620F42
:100EE000731F841F951F660F771F881F991F089512
:100EF0007AE0979F902D879F802D910D1124089562
:100F0000FA01CF93FF93EF932230CCF02532BCF45B
:100F1000C22F2C2F332744275527FF93EF930E948E
:100F20009B6DEF91FF91605D6A330CF0695D619399
:100F3000B901CA01605070408040904051F7108262
:100F40008F919F91CF910C94A507DC01FC01672F35
:100F500071917723E1F7329704C07C916D93708390
:100F60006291AE17BF07C8F30895DF93CF9300D007
:100F700000D000D0CDB7DEB7DE011196E8EFF2E089
:100F800086E001900D928150E1F786E191E0EAEE72
:100F9000F3E0DF019C011D9221503040E1F7809188
:100FA0008403833019F46AED73E003C0BE016F5F00
:100FB0007F4F84E490E043E450E00E94AD42809192
:100FC0008403833039F08AEE93E0BE016F5F7F4F78
:100FD0000E94364E81E0809314048093150486E0CD
:100FE000809316048091910390919203A0919303B2
:100FF000B09194038093180490931904A0931A0459
:10100000B0931B0480918403833039F484E194E02D
:101010000C966AEC73E00E943E4E80E394E064EC30
:1010200073E00E94364EA0E0B5E0EDE8F1E002C0CA
:1010300081918D9331E0E339F307D1F790918403E7
:10104000992311F083E001C081E0809306058DE3D0
:101050008093070587E08093080581E08093090568
:10106000AAE0B5E0E4ECF3E002C081918D9383E067
:10107000EA3CF807D1F78CE08093100585E0809377
:101080001105E7E8F1E0A2E1B5E002C081918D939E
:1010900021E0EC38F207D1F727E135E030939903EE
:1010A00020939803913069F582E38093170584E0DB
:1010B00080931805D9011296EAECF3E002C0819101
:1010C0008D9333E0EE3CF307D1F786E380931D0563
:1010D00084E080931E058FE195E0909399038093BF
:1010E0009803DC01EAEDF3E002C081918D9383E087
:1010F000EE3DF807D1F783E295E090939903809352
:10110000980320919703222311F094E001C093E00B
:10111000A0919803B0919903FD0187E38193119603
:101120009C93DF01119681E08183FD01319683E07C
:1011300011968C93DF01119686E08183CD01019693
:101140009093990380939803222339F011962C935E
:1011500001969093990380939803E0919803F091FE
:1011600099038FEF8193F0939903E0939803CF0154
:10117000845194400E949C4426960FB6F894DEBF9A
:101180000FBECDBFCF91DF910895EF92FF920F93E5
:101190001F93CF93DF938C0180918403823009F4F5
:1011A000F8C0833030F4882351F1813009F066C1F2
:1011B0004BC0833021F0843009F060C1EAC00E9446
:1011C0001A4F2091890330918A0340918B035091EB
:1011D0008C03E0908503F0908603009187031091C3
:1011E00088032E0D3F1D401F511F62177307840790
:1011F000950708F443C10E94B50784E018C00E9417
:101200001A4F60939103709392038093930390938A
:1012100094031092CA031092CB031092CC03109245
:10122000CD030E94B50781E00E94B80D81E0809354
:1012300084030E941A4F60938D0370938E038093F2
:101240008F03909390031AC10634110508F4D5C09A
:1012500080910D04833409F0D0C02091180430919E
:10126000190440911A0450911B04809191039091AC
:101270009203A0919303B0919403281739074A076A
:101280005B0709F0BAC0C4E0D5E0FE01A8014651F1
:101290005C4FDF01119691819D012F5F3F4F80814F
:1012A000853329F411968C91823009F4C5C0F90177
:1012B000E90FF11DE417F50760F39FC0FE0191915E
:1012C000E980EF0121969333D9F0943340F49330C1
:1012D00089F0963091F0913009F046C008C09A33F9
:1012E00079F09F3F09F451C09633F1F537C08EEC89
:1012F00093E036C086ED93E033C08EED93E030C0CE
:10130000618170E080E090E0982F872F762F66272C
:101310002981620F711D811D911D982F872F762FB6
:1013200066272A81620F711D811D911D982F872FBD
:10133000762F66272B81620F711D811D911D28EE6E
:1013400033E040E050E00E94496D60938903709360
:101350008A0380938B0390938C0389C08AED93E07A
:10136000BE010E943E4E83C0E0919503F09196032A
:10137000309709F47CC080919703981709F077C0E3
:10138000892FBE014E2D099572C00E94B50782E0DB
:101390004ECF0634110588F180910D04833469F530
:1013A000209118043091190440911A0450911B04A3
:1013B0008091910390919203A0919303B091940333
:1013C000281739074A075B07C1F4E4E0F5E0A801F4
:1013D00046515C4FDF01119691819D012F5F3F4F78
:1013E0008081853321F411968C91853071F1F9015A
:1013F000E90FF11DE417F50768F30E941A4F2091D9
:101400008D0330918E0340918F0350919003205FA4
:10141000384D4F4F5F4F261737074807590748F099
:101420002DC086ED93E00E94134383E080938403F4
:1014300025C01092840322C08AEC93E064E274E039
:101440000E943E4E06511C4F39CF81E00E94A70DED
:101450000E941A4F609385037093860380938703DD
:10146000909388038091D6038823F9F2DACFCE0DCA
:10147000D11DC017D10708F421CF87CFDF91CF91BD
:101480001F910F91FF90EF900895CF93DF9381E02C
:101490008093E6039091C903892F82958F70805DB8
:1014A00080938A019F70905D90938B0110928403CA
:1014B0000E941A4FEB0104C00E94080E0E94C5084A
:1014C00080918403833061F00E941A4F6C1B7D0B66
:1014D0006053754728F40E94C90D882389F3ECCF27
:1014E0000E9429421092E9031092E80390E0809153
:1014F0008403833009F491E0892FDF91CF9108951F
:10150000FF920F931F93CF93DF938C01F62E0E94CF
:101510001A4FEB010CC00E94080E0E9469450E9400
:101520001A4F6C1B7D0B6053754708F0EFC00E948B
:10153000C90D882381F30E941A4FEB010CC00E9451
:10154000080E0E9469450E941A4F6C1B7D0B605368
:10155000754708F0DBC00E942342882381F7109270
:10156000E2031092E3031092E4031092E5038091EA
:101570009A038F5F80939A038091DE03882361F43E
:1015800088E098E0A8E0B8E08093DE039093DF0362
:10159000A093E003B093E10380919A0390E0906EF2
:1015A0006EED73E045E350E00E94AD42E4E1F4E00B
:1015B0008CE0DF011D928A95E9F7DF011C9690E02F
:1015C000FF2019F0F801808102C0F80184910F5FBB
:1015D0001F4F8E3241F0882331F09F5FFD01E90FEC
:1015E000F11D8083EDCFFD019193DF01A90FB11DA6
:1015F000882329F7FD01119211961C92DF011196A3
:1016000041E04183FD01319611961C92418386EDA4
:101610002AEE33E0821B32968E0F80931404909151
:101620009A0390931504409316044093190490E094
:101630000E949C440E941A4F8B0161C00E941A4F65
:10164000601B710B6053754708F060C00E94080E64
:10165000EC01009709F453C00E946945892B09F0F9
:101660004EC0C634D10508F44AC080910D048533BC
:1016700009F045C080910E04803E09F040C0909171
:101680000F0480919A039817D1F58091150489175A
:10169000B1F58091170490E08F709070892BB1F5AF
:1016A00080911404E82FF0E0EC5EFB4F9E01265180
:1016B0003C4F8081807C39F0329609C0808188233C
:1016C00011F4319604C03196E217F307B8F3CF0155
:1016D0000E962817390798F08181813051F4818561
:1016E000843039F43A9682EE93E0BF010E943E4E78
:1016F00006C0818590E00A96E80FF91FDACF809145
:10170000E203882309F49ACF81E001C080E0DF91F1
:10171000CF911F910F91FF900895482F6AE00E948A
:10172000686D282F30E084E0220F331F8A95E1F79F
:10173000842F0E94686D892F820F0895CF93DF93C5
:10174000EC0180919B0390919C038836910559F59B
:1017500085E49CE068E670E00E94345485E49CE0F7
:1017600060E00E94B65488810E948D0B682F70E063
:101770006F77707085E49CE00E94B65489810E9466
:101780008D0B682F85E49CE00E94B6548A810E94EC
:101790008D0B682F85E49CE00E94B6548B810E94DB
:1017A0008D0B682F2DC08F36910509F04AC085E456
:1017B0009CE06FE670E00E94345485E49CE060E0B9
:1017C0000E94B65488810E948D0B682F606885E462
:1017D0009CE00E94B65489810E948D0B682F85E49D
:1017E0009CE00E94B6548A810E948D0B682F85E48C
:1017F0009CE00E94B6548B810E948D0B682F68601C
:1018000085E49CE00E94B6548C810E948D0B682F69
:1018100085E49CE00E94B6548D810E948D0B682F58
:1018200085E49CE00E94B6548E818E510E948D0BFF
:10183000682F85E49CE00E94B65485E49CE00E94F9
:10184000F954DF91CF91089588E690E090939C033E
:1018500080939B0385E49CE068E670E00E9434542A
:1018600085E49CE060E00E94B65485E49CE00E9420
:10187000F9548823D9F08FE690E090939C038093ED
:101880009B0385E49CE06FE670E00E94345485E49D
:101890009CE060E00E94B65485E49CE00E94F9540C
:1018A000882321F010929C0310929B0308951F93AC
:1018B000CF93DF93EC0160919B0370919C036115C2
:1018C000710509F46FC085E49CE00E94345485E4FE
:1018D0009CE060E00E94B65485E49CE00E94F954CC
:1018E00060919B0370919C0385E49CE047E050E08D
:1018F0000E940A5585E49CE00E944754282F2F77C8
:1019000022952F701AE0219F900111248F70820F71
:10191000888385E49CE00E944754282F22952F70ED
:10192000219F900111248F70820F898385E49CE0B0
:101930000E944754282F2F7322952F70219F9001CA
:1019400011248F70820F8A8385E49CE00E944754A3
:1019500087708B8385E49CE00E944754282F229552
:101960002F70219F900111248F70820F8C8385E44A
:101970009CE00E944754282F22952F70219F9001B0
:1019800011248F70820F8D8385E49CE00E94475460
:10199000282F2F70225E82958F70819FC0011124A5
:1019A000280F2E83DF91CF911F9108950F931F93DE
:1019B000DF93CF93CDB7DEB727970FB6F894DEBF8E
:1019C0000FBECDBF8E010F5F1F4FA8010E94FD48C3
:1019D000C8010E949E0B27960FB6F894DEBF0FBE7B
:1019E000CDBFCF91DF911F910F9108950F931F935A
:1019F000DF93CF93CDB7DEB727970FB6F894DEBF4E
:101A00000FBECDBF8E010F5F1F4FC8010E94570C44
:101A1000C8010E94434A27960FB6F894DEBF0FBE56
:101A2000CDBFCF91DF911F910F91089585E49CE088
:101A30000E940E5508958091A00361E00E941E50FF
:101A400078940895FF920F931F93082F162FF42E6A
:101A5000F8948091A00360E00E941E501F71102B2B
:101A60001EBD0DB407FEFDCFFEBC0DB407FEFDCFBD
:101A70000E941B0D1F910F91FF9008951F93182F27
:101A8000282F30E0207630708091A10390E0281755
:101A9000390799F080EA6FE143E00E94220D412F5F
:101AA00040764093A10350E085E0559547958A958F
:101AB000E1F780E86FE10E94220D1F9108950F93D6
:101AC0001F93182F062F0E943E0D80E4612F402F98
:101AD0000E94220D1F910F9108950F931F93182FAD
:101AE000072F0E945F0D812F8F5F602F0E945F0D77
:101AF0001F910F9108950F931F93182F062FF8949D
:101B00008091A00360E00E941E50802F8F71812B76
:101B10008EBD0DB407FEFDCF1EBC0DB407FEFDCF7C
:101B200007FF04C01EBC0DB407FEFDCF1EB50E940A
:101B30001B0D812F1F910F9108951F93182F0E9445
:101B40003E0D80E0612F0E947B0D1F910895882338
:101B500011F410929F0380919F03882341F488E33E
:101B60000E949D0D682F6E7F88E30E945F0D08958F
:101B70001F93182F88E30E949D0D682F616088E3F2
:101B80000E945F0D112319F481E080939F031F9140
:101B9000089584ED61E10E945F0D82ED61E00E9495
:101BA0005F0D8AEE0E949D0D80FDFBCF82ED60E00F
:101BB0000E945F0D89ED0E949D0D90E0969587959E
:101BC00096958795817008950F931F93CF93DF9318
:101BD000EC018B01F8948091A00360E00E941E50FC
:101BE0008AE38EBD0DB407FEFDCF09C01EBC0DB447
:101BF00007FEFDCF8EB5F80181938F0121972097C5
:101C0000A9F70E941B0DDF91CF911F910F910895AD
:101C10000F931F93DF93CF9300D000D000D0CDB7A8
:101C2000DEB789E30E949D0D882319F400E010E0DF
:101C300048C06091A2037091A30380E00E946D0DE3
:101C400086E090E0BE016F5F7F4F0E94E40D8981C6
:101C50009A819093A3038093A2032B813C81E0910E
:101C60009D03F0919E038D8187FD03C000E010E08D
:101C70000EC0245030408F01015010402017310712
:101C800008F48901C8016AEE73E00E94E40DF801CE
:101C9000E651FC4F10826091A2037091A3038CE087
:101CA0006130780724F08CE06FEF7BE003C0615077
:101CB00070408CE00E946D0D80E86EE140E40E946F
:101CC000220DC80126960FB6F894DEBF0FBECDBF19
:101CD000CF91DF911F910F9108950F931F93CF9391
:101CE000DF938C01EB01F8948091A00360E00E94E7
:101CF0001E508AE78EBD0DB407FEFDCF08C0888157
:101D00008EBD0DB407FEFDCF219601501040011588
:101D10001105A9F70E941B0DDF91CF911F910F9123
:101D20000895CF93DF93EC018CE10E949D0D81FF1C
:101D30000FC080E86FE140E80E94220D80EA6FE169
:101D400040E80E94220D80EA6CE142E00E94220DF0
:101D500082E060E07CE00E946D0DBE016050744F37
:101D600086E00E946D0D8AE760E040E00E94220D4F
:101D7000CE016AEE73E00E946D0E80E86FE148E0EC
:101D80000E94220DDF91CF91089584E061E00E94CE
:101D9000DF4F84E061E00E941E5085E061E00E9418
:101DA000DF4F87E061E00E94DF4F86E060E00E9445
:101DB000DF4F85E061E00E941E5085E060E00E94F8
:101DC0001E5087E060E00E941E5080E58CBD8DB5FE
:101DD00081608DBD08951F93CF93DF93EB01142F86
:101DE00090939E0380939D030CB406FC02C00E9456
:101DF000C50E1093A003812F61E00E94DF4F0E9467
:101E00001B0D8FEF60E04FEF0E94220D62E070E04B
:101E100080E090E00E94284F80E06DE10E947B0D01
:101E20008823D1F31092A3031092A20388E060E00C
:101E300070E00E946D0D8CE060E070E00E946D0D1E
:101E40008AE06FEF7BE00E946D0D84E060E07CE053
:101E50000E946D0D86E06FEF71E10E946D0D80E0D4
:101E60000E94B80D88E26FE370E30E946D0D80E37D
:101E700069EF77EF0E946D0D80EC6DE00E945F0DC1
:101E800081EC60E00E945F0D80E862EC42E30E941A
:101E9000220D86EC62E17CE00E946D0D84EC62E133
:101EA0000E945F0D8AEC6AEE75E00E946D0D84EE73
:101EB00068810E945F0D85EE69810E945F0D82EE50
:101EC0006A810E945F0D83EE6B810E945F0D80EE40
:101ED0006C810E945F0D81EE6D810E945F0D84ED2B
:101EE00060E10E945F0D86ED60E071E00E946D0D83
:101EF0008AEE0E949D0D80FDFBCF8FE10E943E0D7A
:101F000080E86BE140EC0E94220D80E86FE144E044
:101F10000E94220D82E70E949D0D863008F08F5F9F
:101F2000DF91CF911F910895EF92FF920F931F932E
:101F3000CF93DF93FC01EB018A0179011092E60354
:101F4000009729F08AEC93E0BF010E943E4E209753
:101F500019F0CE010E9413430115110529F08EEDF1
:101F600093E0B8010E943E4EE114F10429F08EEC9A
:101F700093E0B7010E943E4E0E9429421092E9036D
:101F80001092E80381E0DF91CF911F910F91FF90B4
:101F9000EF900895AF92BF92CF92DF92FF920F938E
:101FA0001F93CF93DF938C01EB01F42E1092E60385
:101FB00038E341E050E060E070E018C0832F90E02B
:101FC000FC01B3E0F595E795BA95E1F7EC55FC4FC8
:101FD000877090705A016B0104C0AA0CBB1CCC1C0A
:101FE000DD1C8A95D2F720812A292083315031F7D0
:101FF00084EC93E0BE010E94364EC80164EC73E0AD
:102000004F2D0E94EB0EDF91CF911F910F91FF900A
:10201000DF90CF90BF90AF900895CF92DF92EF9274
:10202000FF920F931F93DF93CF93CDB7DEB7EB846F
:10203000FC84CD84DE84DE011F9601C0D801F60148
:102040008491882309F4BCC00894C11CD11C84323B
:1020500009F099C0F6010894C11CD11C8491863402
:1020600009F45FC0873434F4843469F0853409F0AE
:102070008AC06EC08C34C9F1833509F445C08834F8
:1020800009F081C00DC08D010E5F1F4FF701668101
:1020900077818D919C914AE050E00E9442077EC07A
:1020A0002C91822F992787FD909514E0959587951F
:1020B0001A95E1F78F702F702A300CF0295F8A3063
:1020C0000CF0895F8D010E5F1F4FF701A681B7816C
:1020D000805DFD018193205D11962C933196D7018F
:1020E0001796FC93EE931697A9CF8D010C5F1F4FA7
:1020F0006D917D918D919C91F701468157812AE0E8
:1021000030E00E9480074AC08D010E5F1F4F6D9125
:102110007C91D70116968D919C9117970E94E606A7
:102120003DC08D010E5F1F4F2D913C910AC0D7011C
:102130001696ED91FC91179781931796FC93EE9369
:102140001697F9012F5F3F4F8491882381F776CF4F
:102150008D010E5F1F4F2D913C910AC0D70116963D
:10216000ED91FC91179781931796FC93EE93169738
:10217000F999FECF32BD21BDF89A80B52F5F3F4F50
:10218000882361F75BCFF70126813781F9018193BD
:102190009F01F701378326838D0150CFD701169613
:1021A0008D919C911797FC0101900020E9F73197E0
:1021B000E81BF90B8E0F9F1FF701978386833ECF95
:1021C000CF91DF911F910F91FF90EF90DF90CF9013
:1021D00008950F931F938C01FC01868160E00E949B
:1021E0001E5081E090E00E94984FF801868161E0E6
:1021F0000E941E5081E090E00E94984FF801868175
:1022000060E00E941E5084E690E00E94984F1F916B
:102210000F910895CF92DF92EF92FF920F931F9349
:10222000CF93DF93D82EC92E282F392FC9018C01C7
:10223000C0E0D0E0E62EFF24F801878161E00E9433
:10224000DF4FB7010C2E02C0759567950A94E2F72F
:102250006170F80187810E941E5021960F5F1F4F09
:10226000C830D10549F78D2D9C2D0E94E910DF91D2
:10227000CF911F910F91FF90EF90DF90CF90089535
:10228000CF92DF92EF92FF920F931F93CF93DF9342
:10229000D82EC92E282F392FC9018C01C0E0D0E0DB
:1022A000E62EFF24F801878161E00E94DF4FB7012D
:1022B0000C2E02C0759567950A94E2F76170F801DB
:1022C00087810E941E5021960F5F1F4FC430D10599
:1022D00049F78D2D9C2D0E94E910DF91CF911F9120
:1022E0000F91FF90EF90DF90CF9008951F93CF93C1
:1022F000DF93EC01162F8C81642F0E941E508D817C
:102300008F3F19F060E00E941E508F8584FF05C04A
:10231000CE01612F0E940A110EC0612F70E084E08F
:10232000759567958A95E1F7CE010E944011CE011F
:10233000612F0E944011DF91CF911F91089541E0DC
:102340000E94761181E090E0089540E00E947611AD
:102350000895EF92FF920F931F93CF93DF938C0119
:102360007A016770660F660F660F60640E94A511A0
:10237000C0E0D0E0D801ED91FC91D701AC0FBD1FBA
:102380000190F081E02DC8016C9109952196C8302B
:10239000D10581F7DF91CF911F910F91FF90EF90C1
:1023A0000895FC0160896E7F608B68600E94A511B2
:1023B0000895FC016089862F8460808B6C60CF015A
:1023C0000E94A5110895DF93CF93CDB7DEB728976C
:1023D0000FB6F894DEBF0FBECDBF9C01FE01319653
:1023E000A6E0B3E088E00D9001928150E1F7F90199
:1023F0008389481710F0482F4150E42FF0E0EE0F8A
:10240000FF1FEC0FFD1F8181680F6068C9010E94EA
:10241000A51128960FB6F894DEBF0FBECDBFCF91A1
:10242000DF91089561E00E94A51180ED97E00E9480
:10243000984F0895CF93DF93EC01423018F08F85C9
:1024400088608F874B8B1C8A222329F0413019F436
:102450008F8584608F8780E593EC0E94984F8C81F4
:1024600060E00E941E508E8160E00E941E508D81AF
:102470008F3F19F060E00E941E506F8564FD1DC003
:10248000CE0163E00E94401184E991E10E94984FDF
:10249000CE0163E00E94401184E991E10E94984FCF
:1024A000CE0163E00E94401186E990E00E94984FBF
:1024B000CE0162E00E94401116C06062CE010E940F
:1024C000A51184E991E10E94984F6F856062CE0169
:1024D0000E94A51186E990E00E94984F6F85606286
:1024E000CE010E94A5116F856062CE010E94A511E8
:1024F00084E0888BCE010E94D911CE010E94121275
:1025000082E0898BCE0166E00E94A511DF91CF9118
:1025100008956F927F928F92AF92CF92EF920F9326
:102520001F93DF93CF93CDB7DEB73C01162F842FD7
:10253000F301448325830683E782C086A1868286D1
:102540009D8593879E8594879F8595879889968793
:1025500061E00E94DF4FF30185818F3F19F061E058
:102560000E94DF4FF301868161E00E94DF4F11235B
:1025700019F0F301178603C080E1F3018787C301D7
:1025800060E141E020E00E941A12CF91DF911F919B
:102590000F91EF90CF90AF908F907F906F900895B4
:1025A000FC01A681B7816D93B783A68381E090E09B
:1025B00008951F920F920FB60F9211242F933F93FD
:1025C0004F935F936F937F938F939F93AF93BF933B
:1025D000EF93FF9380917F078F5F80937F078091B8
:1025E0007F07803128F0E0917D07F0917E07099503
:1025F000FF91EF91BF91AF919F918F917F916F91DB
:102600005F914F913F912F910F900FBE0F901F90B0
:10261000189589E180933D07109240071092540766
:1026200010925B0710925D0710927807109277075F
:1026300082E193E0909376078093750708950E9456
:102640006129AB01BC019091A20720E014C0A22F28
:10265000B0E0FD01EC5FF54F8081882359F0AA0FAF
:10266000BB1FAA0FBB1FAC5BB64F4D935D936D9321
:102670007C9313972F5F291750F30895EF92FF92E1
:102680000F931F938091B001882309F44FC080916C
:102690009A0782958F7009F049C08091990783FD50
:1026A00045C08091D9079091DA07A091DB07B091DE
:1026B000DC070097A105B10599F00E9461292091DE
:1026C000D9073091DA074091DB075091DC07621B94
:1026D000730B840B950B645871458140904030F129
:1026E0000E9461296093D9077093DA078093DB0712
:1026F0009093DC0780918007882329F48CE790E091
:1027000061E00E94E8200E94942E7B018C016115FB
:1027100071058105910551F00E94234B8091990725
:1027200084FF04C0C801B7010E94D60C1F910F910D
:10273000FF90EF900895AF92BF92CF92DF92EF9209
:10274000FF920F931F938091990783FDBDC08091E5
:10275000E5079091E607A091E707B091E807009799
:10276000A105B10511F40E94212A80919A07829552
:102770008F7091E0E92EF12C02C0EE0CFF1C8A95BF
:10278000E2F70027F7FC0095102F0E94504B5B01E9
:102790006C018091E5079091E607A091E707B09161
:1027A000E807A81AB90ACA0ADB0AC801B70125E373
:1027B00030E040E050E00E94496D6A157B058C05D1
:1027C0009D0508F081C080918007882359F48BE62D
:1027D00098E06FE041E00E94E3118BE698E064E04E
:1027E0000E949F110E94504B6093E5077093E6078B
:1027F0008093E7079093E80786ED93E00E941C45DD
:102800000E941A4F7B018C010E94080E0E946945AC
:1028100086ED93E00E94DE47882361F40E941A4F00
:102820006E197F09800B910B683C7105810591053C
:1028300058F336C080919A078F7002C08F708066FF
:1028400080939A0780919A0782958F7090E0039702
:102850009CF40E94504B2091E9073091EA07409187
:10286000EB075091EC07621B730B840B950B6259BD
:1028700071458140904040F10E94504B6093E907C0
:102880007093EA078093EB079093EC070E94212A4C
:102890008823D1F080919A078F7080939A0714C093
:1028A00080919A07282F22952F702F5F2F70922FDB
:1028B0009295907F8F70892B80939A0730E0273014
:1028C00031050CF0BBCFBECF1F910F91FF90EF9061
:1028D000DF90CF90BF90AF900895EF92FF920F934B
:1028E0001F938C018CE397E060E071E040E00E9470
:1028F0004B6220E6E22E28E0F22EC701B8010E94CA
:10290000E60602EF17E0C80165E971E00E94E606FD
:10291000C801B7010E94D006C8016EE970E00E94AC
:10292000A1061F910F91FF90EF900895CF93DF9331
:10293000EC0180917C02882361F18091990785FFE9
:1029400028C0CE0162E071E043E050E00E94ED0655
:10295000009771F48CE397E065E971E040E00E9434
:102960004B628823B1F08BE597E00E94F75A11C0C3
:10297000CE010E946D148CE397E062EF77E00E9435
:102980004762882331F08CE397E062EF77E00E94A2
:102990002462DF91CF9108958F929F92AF92BF9260
:1029A000CF92DF92EF92FF920F931F93DF93CF931B
:1029B000CDB7DEB76E970FB6F894DEBF0FBECDBFB2
:1029C000E82E4A015B0180917C02882309F416C13C
:1029D000CB01BA0120E831E541E050E00E949B6D57
:1029E000CA01B90142EF57E02AE030E00E948007B7
:1029F00082EF97E00E946D148091990785FFFEC0D9
:102A00008CE397E060E071E040E00E944B628CE371
:102A100097E065E971E040E00E944B62882351F441
:102A20008CE397E065E971E041E00E942862882329
:102A300009F4E4C01D821F821C821B8287E793E099
:102A40009A8389838E010B5F1F4F42EFC42E47E0AC
:102A5000D42EC801B60142E40E948F60F82E4F893F
:102A6000588D698D7A8DC8010E941656FF2009F491
:102A7000C5C0C6016CE970E00E94AC06EE20D1F53D
:102A8000F60101900020E9F73197EC19FD09EC0DF2
:102A9000FD1D8091350A90E0BF014AE050E00E94A0
:102AA0004207C6016AE970E00E94A106F6010190A2
:102AB0000020E9F73197EC19FD09EC0DFD1D80911F
:102AC000340A90E0BF014AE050E00E944207C6018C
:102AD00068E970E00E94A106F60101900020E9F784
:102AE0003197EC19FD09EC0DFD1D8091360A90918E
:102AF000370A5AC0C60164E970E00E94A106EE2DB3
:102B0000F0E0EE0FFF1FE456FE4F60817181C601B9
:102B10000E94D006C60161E970E00E94A10622E091
:102B2000E216B9F033E0E31699F141E0E41609F05A
:102B300040C0F60101900020E9F73197E25FF740CD
:102B40008091CD079091CE07A091CF07B091D0078B
:102B50000FC0F60101900020E9F73197E25FF740DE
:102B60008091D1079091D207A091D307B091D4075B
:102B7000A5019401281B390B4A0B5B0BCA01B90153
:102B8000EE50F84FAF012AE030E00E94800711C0FC
:102B9000F60101900020E9F73197E25FF740EE502F
:102BA000F84F8091F10790E0BF014AE050E00E94A9
:102BB000420702EF17E0C8016FE870E00E94A1062B
:102BC000F80101900020E9F73197E01BF10BE00FCD
:102BD000F11FC501B401AF012AE030E00E94800777
:102BE000C8016BE870E00E94A106CE010196B80111
:102BF0000E94EC62CE0105960E947E586E960FB63A
:102C0000F894DEBF0FBECDBFCF91DF911F910F9122
:102C1000FF90EF90DF90CF90BF90AF909F908F90FC
:102C20000895CF92DF92EF92FF921F936B017C0188
:102C30008091810790918207A0918307B0918407CA
:102C4000A7019601281B390B4A0B5B0BDA01C9015E
:102C500085589340A040B04078F1C0928107D0924F
:102C60008207E0928307F09284072091F10730E019
:102C700040E050E010918507612F70E080E090E027
:102C80000E94496D20912E02620F711D811D911DC0
:102C90001F5F10938507212F30E040E050E00E9435
:102CA0009B6D2093F107103639F483E0B701A6013C
:102CB0000E94CC14109285071F91FF90EF90DF9037
:102CC000CF9008950E94701F0E94EF270E94122B40
:102CD00008952F923F924F925F926F927F928F92C0
:102CE0009F92AF92BF92CF92DF92EF92FF920F939B
:102CF0001F93DF93CF93CDB7DEB72C970FB6F89421
:102D0000DEBF0FBECDBF7B018C014B015C0108947F
:102D1000811C911CA11CB11C80910A020E94D34C01
:102D20006C0120913C0A30913D0A40913E0A50913D
:102D30003F0AE216F3060407150718F0850174012F
:102D400009C07C010027F7FC0095102FE20EF31E4E
:102D5000041F151F4090A20780919B07282F30E089
:102D60003A83298380919C07282E33246091990708
:102D70006695669566956170552481E0682E712C84
:102D8000C601AA2797FDA095BA2F8B839C83AD839C
:102D9000BE8380C0E52DF0E0A981BA81A615B705F4
:102DA00009F474C02614370409F470C0CF01880FE9
:102DB000991F880F991FA4E4CA2EA9E0DA2EC80E25
:102DC000D91ED6012D913D914D915C912115310572
:102DD0004105510509F45AC0DC01AC57B74FB8871B
:102DE000AF838D919D910D90BC91A02D0097A10571
:102DF000B10509F04BC0DF0173E0B695A7957A9550
:102E0000E1F7752D7770FD01ED55F84F808190E069
:102E1000072E02C0959587950A94E2F780FD36C08B
:102E2000A953B84F8C9190E002C0959587957A95FB
:102E3000E2F780FF1AC0EF81F885E082F182028319
:102E40001383DA01C9018E0D9F1DA01FB11FF6016A
:102E500080839183A283B383EB80FC800D811E81EC
:102E6000E80EF91E0A1F1B1F10C0AF81B8858D9296
:102E70009D92AD92BC921397280D391D4A1D5B1D82
:102E8000F601208331834283538361E05394089495
:102E9000611C711C541408F47DCF6170660F660FBD
:102EA000660F80919907877F862B809399072C96D0
:102EB0000FB6F894DEBF0FBECDBFCF91DF911F914B
:102EC0000F91FF90EF90DF90CF90BF90AF909F90C9
:102ED0008F907F906F905F904F903F902F900895CC
:102EE000AF92BF92CF92DF92EF92FF920F931F9318
:102EF000DF93CF93CDB7DEB7C754D0400FB6F89469
:102F0000DEBF0FBECDBFE82E0E9462168E2D81500F
:102F10008E3F28F4BE016F5F7F4F0E940A2DDD2493
:102F2000FF244EEFC42E3CE0A32EB12CAC0EBD1EF0
:102F300041C00F2D10E08FEFE81629F442E050E079
:102F400060E070E012C0EE2009F440C0F501E00F2F
:102F5000F11F80810E94634C0E94904CAB01BC0128
:102F6000411551056105710521F1F80123E0F69540
:102F7000E7952A95E1F7E554F84F808190E02F2DF1
:102F8000277002C0959587952A95E2F780FD11C0BC
:102F9000F801EE0FFF1FEE0FFF1FEC5BF64F4083B3
:102FA0005183628373830C5F154FF801C082DD2467
:102FB000D394F3948091A207F81608F4BACFDD20D9
:102FC00051F00E9461290E94691605C04CE350E04F
:102FD00060E070E0CACFC95BDF4F0FB6F894DEBF88
:102FE0000FBECDBFCF91DF911F910F91FF90EF905A
:102FF000DF90CF90BF90AF900895DF92EF92FF9255
:103000000F931F93CF93DF93D82E7A018B01C82F94
:10301000D0E060E00E944C1FFE01EE0FFF1FEE0F9C
:10302000FF1FEC57F74F20813181428153812115D9
:1030300031054105510509F45EC02E153F054007D5
:10304000510708F042C0BE016F5F7F4F80919B0720
:1030500090E08617970711F180919C0790E0861702
:103060009707E1F0D092340AFE01EC5FF54F8081C2
:103070008093350AC701821B930B9093370A809384
:10308000360AE092380AF092390A00933A0A10930D
:103090003B0A80E0B801A7010E94CC14FE0163E066
:1030A000F695E7956A95E1F7EF53F84F808190E048
:1030B0002D2D277002C0959587952A95E2F780FF00
:1030C00004C08D2D60E00E948727FE01EE0FFF1FD8
:1030D000EE0FFF1FDF01AC57B74F1D921D921D92DF
:1030E0001C921397EC5BF64F1082118212821382AE
:1030F000CC5FD54F1882DF91CF911F910F91FF9038
:10310000EF90DF9008954F925F926F927F928F922F
:103110009F92AF92BF92CF92DF92EF92FF920F9366
:103120001F93CF93DF935B016C0190919907442427
:103130004394492291FD0CC080912202882311F40E
:10314000FF2408C0F92EF694F69481E0F82211F0DD
:10315000FF24F394EE2459C08E2D90E0FC01E1553C
:10316000F84F3081FC01ED55F84F20815E2C550C55
:10317000550C550C00E010E0622E7724832E992424
:10318000252D200FC22FD0E0FE01EC5FF54FE0812E
:10319000E336A0F5442059F0FF2081F1C401002E50
:1031A00002C0959587950A94E2F780FD27C0C30178
:1031B000002E02C0959587950A94E2F780FF06C01D
:1031C000822FB601A5010E94FD1718C0EE23B1F0B1
:1031D000FE01EE0FFF1FEE0FFF1FDF01AC57B74FD1
:1031E0001D921D921D921C921397EC5BF64F10825C
:1031F000118212821382CC5FD54F18820F5F1F4F4E
:103200000830110509F0BCCFE3948091A107E816BE
:1032100008F4A2CFDF91CF911F910F91FF90EF9013
:10322000DF90CF90BF90AF909F908F907F906F90E6
:103230005F904F900895EF92FF920F931F938091AC
:103240009A0782958F7009F04BC08091990783FD92
:1032500047C00E9461299B01AC018091E1079091D8
:10326000E207A091E307B091E4070097A105B1053B
:10327000B1F079018A01E81AF90A0A0B1B0BD8018F
:10328000C701825A9145A140B04048F01092E5072D
:103290001092E6071092E7071092E80721C080918C
:1032A000DD079091DE07A091DF07B091E00700975E
:1032B000A105B10549F0281B390B4A0B5B0B2A50BD
:1032C00037404040504060F00E9461296093DD0724
:1032D0007093DE078093DF079093E0070E94E84C2D
:1032E0001F910F91FF90EF90089584B7877F84BF5F
:1032F0000E9430280E94A8250E94E82A6CE370E012
:1033000080E090E00E941A4B8091990784FD03C0F1
:1033100080E090E002C086EF9CE00E94C34B64EF27
:1033200071E080E090E00E94284F0E9461290E9495
:103330009B298091600088618093600081E2809386
:1033400060008091600080648093600083EA90E078
:1033500061E00E94E8208CE397E060E044E00E9496
:10336000A762882329F0809199078062809399074A
:103370000E94212A882321F080919A078F7004C02F
:1033800080919A078F70806180939A0764EF71E053
:1033900080E090E00E94284F0E94EF270E94504B4F
:1033A0006093D5077093D6078093D7079093D8077B
:1033B0000895EF92FF920F931F93DF93CF93CDB7B2
:1033C000DEB7C754D0400FB6F894DEBF0FBECDBFF6
:1033D000E090D507F090D6070091D7071091D80755
:1033E000E114F1040105110511F10E94504B2FE089
:1033F00030E040E050E0E20EF31E041F151FE61619
:10340000F7060807190798F4809152026FEF70E0F1
:10341000681B71098CE00E94724E1092D5071092C1
:10342000D6071092D7071092D8071092800782E033
:103430000E94DC1FF82E082F10E086FF1CC10E949E
:10344000504B6093D5077093D6078093D70790931E
:10345000D80780914C026FEF70E0681B71098CE017
:103460000E94724E80918007833020F4813008F0F2
:10347000BEC004C0833009F0FEC0ADC0C8018F706B
:1034800090708230910509F449C08430910509F4A7
:1034900083C0019709F0EFC0F7FE1FC08DE10E94C5
:1034A0007250892B21F48FEF0E947017E4C08EE1D7
:1034B0000E947250892B71F486ED93E060E00E94C7
:1034C000E8228BE698E060E041E00E94E31181E1B0
:1034D00091E01EC00E941F13CEC08AEC93E060E012
:1034E0000E94E8228BE698E060E041E00E94E31150
:1034F0008FE091E00E949620609193017091940179
:103500008BE698E04AE050E00E94CD5387E091E0DE
:103510000E94962081E080938007ADC0F7FE32C004
:103520008FE10E947250892B71F48DEE97E061E07B
:103530000E94E8228BE698E060E041E00E94E311FF
:1035400081E091E0E5CF8DE10E947250892BB9F4C2
:103550008BE698E00E9412126091E1077091E207F9
:103560008091E3079091E4070E949B298BE698E005
:1035700060E041E00E94E3118AEF90E0C9CF0E9431
:10358000241F79C08BE698E00E94121284EC93E02D
:103590000E94A62082E0BFCFF7FE0CC08BEE90E029
:1035A00060E00E94E8208AED90E061E00E94E8205F
:1035B00083E0B1CF20919A07822F8F7090E06091C5
:1035C000A107019670E00E94886D8F70207F282BE4
:1035D00020939A0750C00F7010700430110509F045
:1035E0004AC0F7FE07C0809190070E9470171092A2
:1035F000800741C08091900790E06091830870E05F
:103600006F5F7F4F01960E94886D8093900789ECD1
:1036100090E060E00E94E82080919007882331F1DB
:103620008150BE016F5F7F4F0E940A2D87EC90E0B2
:1036300061E00E94E8208BE698E060E041E00E94B3
:10364000E311609190078BE698E070E04AE050E06B
:103650000E941E5484EC90E00E9496208BE698E035
:10366000BE01645C7F4F0E94315405C084EB90E042
:1036700061E00E94E820C95BDF4F0FB6F894DEBF1F
:103680000FBECDBFCF91DF911F910F91FF90EF90B3
:1036900008952F923F924F925F926F927F928F92F6
:1036A0009F92AF92BF92CF92DF92EF92FF920F93D1
:1036B0001F93DF93CF93CDB7DEB7C854D0400FB67A
:1036C000F894DEBF0FBECDBF8091100280939B07A0
:1036D0008091820280939C070E9461294B015C01CA
:1036E0000E94080E0E946945909387078093860781
:1036F000009721F086519C4F0E947839A89510922E
:103700007F070E94D91980918C0790918D07A09115
:103710008E07B0918F0788159905AA05BB0509F496
:1037200064C380928C0790928D07A0928E07B0920E
:103730008F0780918007882321F40E9461290E94CD
:103740009B298091990781FF10C0809195079091E6
:103750009607A0919707B091980788169906AA0630
:10376000BB0690F00E942E240FC080919507909187
:103770009607A0919707B091980788169906AA0610
:10378000BB0610F40E943E240E94252090919907C8
:103790009695917080919D07869581708917C9F0E3
:1037A000992349F08092D1079092D207A092D30733
:1037B000B092D40705C082E0B501A4010E94CC14E8
:1037C00090919907927080919D078D7F892B8093AE
:1037D0009D079091990796959695917080919D0778
:1037E0008695869581708917C9F0992349F0809252
:1037F000CD079092CE07A092CF07B092D00705C018
:1038000081E0B501A4010E94CC14909199079470B5
:1038100080919D078B7F892B80939D07C501B40103
:103820002CE330E040E050E00E949B6D79018A017A
:103830008091880790918907A0918A07B0918B07A2
:10384000E816F9060A071B0709F4C5C0E0928807C5
:10385000F092890700938A0710938B07552444241C
:103860001E010894211C311CABC0852DB1010E94A2
:103870000A2DC101B501A4010E941A2C882309F464
:103880009EC000E0852D8F5F29968FAF299792C04B
:10389000602E772493012F5F3F4F80919B0790E02C
:1038A0008217930709F485C080919C0790E08217E6
:1038B000930709F47EC0D30113E0B695A7951A9536
:1038C000E1F7202F2770FD01ED55F84F808190E042
:1038D000022E02C0959587950A94E2F780FD69C093
:1038E000A554B84F8C9190E002C0959587952A9584
:1038F000E2F780FD5EC0ECE0F0E0EC0FFD1FE60DAE
:10390000F71D2081222309F454C0F301EE0FFF1F9D
:10391000EE0FFF1FEC5BF64F80819181A281B38196
:103920000097A105B10509F044C0822F0E94634CA5
:103930000E94904C6B017C01898181FF1FC0109116
:103940002E02212F30E040E050E0C701B6010E9476
:10395000496D24E630E040E050E00E949B6DC901D3
:10396000DA016C017D01143148F49AE0C916D104E2
:10397000E104F10418F4CC24DD247601F301EE0F08
:10398000FF1FEE0FFF1FEC5BF64FC082D182E28279
:10399000F382C114D104E104F10459F0E4E0FAE047
:1039A0006E0E7F1E29968FAD2997F30180834424E4
:1039B00043940F5F8091A207081708F469CF5394CE
:1039C00080918308581608F450CF442021F0C50197
:1039D000B4010E9469168091990783FFF7C077248C
:1039E00086C0872D90E0FC01ED55F84F2081672CB3
:1039F000660C660C660CEE24FF24222E332461EC48
:103A0000462E67E0562E480E591ED62CDE0C0D2D84
:103A100010E098012F5F3F4F80919B0790E0821745
:103A2000930709F45BC080919C0790E0821793078D
:103A300009F454C0F801EC5FF54F80818823A9F0A8
:103A4000F801EE0FFF1FEE0FFF1FEC5BF64F8081BA
:103A50009181A281B38188169906AA06BB0628F037
:103A60008D2DB501A4010E94FD17C1010E2C02C0CD
:103A7000959587950A94E2F780FD30C09801220F52
:103A8000331F220F331FF901EC57F74F80819181CB
:103A9000A281B38188169906AA06BB06F8F02C5BB2
:103AA000364FF90180819181A281B38188169906F0
:103AB000AA06BB0698F48D2D61E00E944C1FF2010E
:103AC000808190E00E2C02C0959587950A94E2F7CC
:103AD00080FF04C08D2D61E00E9487270894E11CBF
:103AE000F11CF8E0EF16F10409F08FCF7394809188
:103AF000A107781608F475CFC501B4010E94831898
:103B00000E94EF2710923C0A10923D0A10923E0A42
:103B100010923F0A7091A20760E080E03FC0A62F9C
:103B2000B0E0FD01EE0FFF1FEE0FFF1FEC5BF64F45
:103B3000E080F180028113818E149F04A006B106FB
:103B400060F593E0B695A7959A95E1F7A953B84F1C
:103B50008C9190E0262F277002C0959587952A9525
:103B6000E2F780FF19C020913C0A30913D0A409154
:103B70003E0A50913F0AD801C701E216F306040736
:103B8000150710F4DA01C90180933C0A90933D0AAD
:103B9000A0933E0AB0933F0A81E06F5F671708F475
:103BA000BECF882399F40E94701F0E94EF270E94C5
:103BB000122B80919907877F80939907809110023B
:103BC00080939B078091820280939C07D0909B07F3
:103BD000DD2009F470C08091160290911C02C09003
:103BE000A207FF2401E010E02D2C3324482E552499
:103BF00066247724492F50E060E070E04C53504039
:103C00006040704050C02F2D30E02016310609F47E
:103C100047C0D90183E0B695A7958A95E1F7F7E00B
:103C2000EF2EEF20FD01ED55F84F808190E00E2C36
:103C300002C0959587950A94E2F780FF31C0A75599
:103C4000B84F8C9190E002C095958795EA94E2F781
:103C500080FF26C0220F331F220F331FF901EC57BC
:103C6000F74F80819181A281B381840D951DA61D9E
:103C7000B71D88169906AA06BB0690F02C5B364F36
:103C8000F90180819181A281B381840F951FA61FC4
:103C9000B71F88159905AA05BB0510F061E007C09C
:103CA000F3940F5F1F4FFC1408F4ADCF60E08D2D2F
:103CB00081500E944C1FD0909C07DD2009F470C0F9
:103CC0008091880290918E02C090A207FF2401E0AB
:103CD00010E02D2C3324482E552466247724492FB8
:103CE00050E060E070E04C5350406040704050C085
:103CF0002F2D30E02016310609F447C0D90193E09A
:103D0000B695A7959A95E1F787E0E82EEF20FD019B
:103D1000ED55F84F808190E00E2C02C09595879567
:103D20000A94E2F780FF31C0AB54B84F8C9190E019
:103D300002C095958795EA94E2F780FF26C0220F8E
:103D4000331F220F331FF901EC57F74F8081918108
:103D5000A281B381840D951DA61DB71D88169906F5
:103D6000AA06BB0690F02C5B364FF9018081918149
:103D7000A281B381840F951FA61FB71F88159905CF
:103D8000AA05BB0510F061E007C0F3940F5F1F4F59
:103D9000FC1408F4ADCF60E08D2D81500E944C1FC3
:103DA000C501B4010E9483180E94EF27809180070B
:103DB000882389F4C501B40123E030E040E050E0FD
:103DC0000E949B6D9B01AC012A5E3C4F81E0F90192
:103DD00060810E944E220E943E130E949B130E940B
:103DE0001B19C501B4010E941116C85BDF4F0FB645
:103DF000F894DEBF0FBECDBFCF91DF911F910F9121
:103E0000FF90EF90DF90CF90BF90AF909F908F90FA
:103E10007F906F905F904F903F902F9008959C01FE
:103E2000F999FECF32BD21BDF89A80B508959C0165
:103E3000F999FECF1FBA32BD21BD60BD0FB6F8940F
:103E4000FA9AF99A0FBE0895E0918008F0918108DE
:103E500009950895FC0124EF33E084E0243138070C
:103E600011F440E009C0F999FECFC901019632BDB5
:103E700021BDF89A40B59C019081442331F09923EB
:103E800049F0491739F43196E8CF80E0992319F4C5
:103E900081E0089580E00895282F27708695869503
:103EA000869590E0662369F0FC01ED55F84F81E0BE
:103EB00090E002C0880F991F2A95E2F72081282BF5
:103EC0000DC0FC01ED55F84F81E090E002C0880F75
:103ED000991F2A95E2F78095208128232083089551
:103EE0001092A3071092A4071092A5071092A6079C
:103EF0001092A7071092A807089510926E081092CA
:103F00006D0882E093E090936C0880936B080895AD
:103F100080914C026FEF70E0681B71098CE00E9489
:103F2000724E0895609146028DE070E00E94724EDC
:103F30000895EF92FF920F931F93CF93DF93E82E94
:103F4000162F042FF22E662321F0623081F42223F3
:103F500071F08E2D0E947250892B11F000E024C068
:103F6000FF2011F480E001C080E8082B1DC0C0E0F4
:103F7000D0E08E2D0E947250892B81F4113031F0E7
:103F8000123061F483E0C83ED80744F461E070E089
:103F900080E090E00E94284F2196EBCFFF2019F49B
:103FA000C85ED3400CF00068802FDF91CF911F9145
:103FB0000F91FF90EF9008950F931F93082F10918A
:103FC0008208107861E070E080E090E00E94284F65
:103FD0008FE10E947250892B21F48FE1602F41E024
:103FE00013C08EE10E947250892B21F48EE1602F64
:103FF00042E00AC08DE10E947250892B11F040E02E
:1040000007C08DE1602F44E0212F0E94991F482FA7
:104010008091820890E08F709070242F30E0892B7F
:1040200039F42F703070232B71F0842F806406C018
:104030002F703070232B39F4842F806240938208D4
:104040001F910F910895842FF9CF8BE00E94725039
:1040500040E02091280230E08217930709F041E008
:10406000440F440F809199078B7F842B809399078D
:1040700008951F93182F843690F064E60E94686DAF
:10408000682F8BE698E070E04AE050E00E941E54F2
:104090008BE698E060E171E00E94315402C08A3002
:1040A000A0F0812F6AE00E94686D0E94686D692F00
:1040B0008BE698E070E04AE050E00E941E548BE6E8
:1040C00098E060E171E00E943154812F6AE00E9423
:1040D000686D692F8BE698E070E04AE050E00E943E
:1040E0001E541F910895EF92FF920F931F938C011E
:1040F0008BE6E82E88E0F82EC8016AE070E00E94A6
:10410000886DC7014AE050E00E941E54C8016AE071
:1041100070E00E94886DBC01C7014AE050E00E9437
:104120001E541F910F91FF90EF900895CF93DF934E
:10413000EC0104C08BE698E00E943E53FE012196FC
:1041400064916623B9F7DF91CF9108950F931F9380
:10415000CF93DF93182F092F8BE698E060E040E0C3
:104160000E94E311212F302FC901EC0110E005C09E
:1041700083E793E00E9496202196688170E094E0A6
:10418000759567959A95E1F78BE698E040E150E0E8
:104190000E941E54688170E06F7070708BE698E02A
:1041A00040E150E00E941E54143031F48BE698E058
:1041B00060E041E00E94E3111F5F1630C9F68CE613
:1041C00093E00E949620DF91CF911F910F91089567
:1041D0000F931F93CF93DF938C01462F8BE698E0CC
:1041E00060E00E94E311E80104C08BE698E00E94C1
:1041F0003E539E01201B822FFE012196649166236F
:10420000A1F7992787FD9095C0E1D0E0C81BD90B95
:1042100005C080E893E00E9496202197D7FFF9CF50
:10422000DF91CF911F910F9108950F931F93CF931B
:10423000DF938C01FC01EE0FFF1FE80FF91FEE0F5B
:10424000FF1FEA55FE4F8081918160E00E94E820C7
:1042500082E593E061E00E94E8208BE698E060E070
:1042600041E00E94E3110331110509F487C00431D4
:104270001105BCF40C30110509F4AFC00D30110567
:1042800044F40115110561F10130110509F0CCC0AC
:1042900034C00E301105F1F00131110509F0C4C030
:1042A000AAC00C31110509F4BAC00D3111054CF446
:1042B0000431110509F471C00B31110509F0B4C0C6
:1042C000A2C00632110509F459C00732110509F0E0
:1042D000ABC063C08BE698E062E171E00E943154AC
:1042E000F801EE0FFF1FE00FF11FEE0FFF1FEC555F
:1042F000FE4F80810E943920B5C08091AA01C82F4D
:10430000D0E0E097D7FD05C080E593E00E949620BD
:1043100007C08EE493E00E949620D095C195DF4FB0
:10432000CE0164E070E00E94886D8BE698E04AE080
:1043300050E00E941E548CE493E00E949620CE012F
:1043400064E070E00E94886D9C01BC0184E0660F0F
:10435000771F8A95E1F7621B730B29F489E493E0D8
:104360000E94962006C08BE698E04AE050E00E944A
:104370001E5484E493E00E9496207AC082E493E085
:104380000E949620F801EE0FFF1FE00FF11FEE0FC5
:10439000FF1FEC55FE4F60815EC0F801EE0FFF1F5E
:1043A000E00FF11FEE0FFF1FEC55FE4F80818C33A5
:1043B00020F080E493E00E949620F801EE0FFF1FAA
:1043C000E00FF11FEE0FFF1FEC55FE4F608170E014
:1043D0006C5370408BE698E041C07091F20160E050
:1043E0008091EC01680F711D8BE698E04AE050E087
:1043F0000E94CD533DC080910A020E94D34CBC0163
:104400008BE698E007C00E94921F609146028BE6FF
:1044100098E070E04AE050E00E941E5429C00E94DB
:10442000881F60914C02F3CFF801EE0FFF1FE00FE1
:10443000F11FEE0FFF1FEC55FE4F8181608181302F
:1044400051F4662319F489E393E002C08CE393E00E
:104450000E94962007C08BE698E070E04AE050E0AA
:104460000E941E540731110519F487E393E00FC031
:10447000C8014397029748F00632110531F0073220
:10448000110519F00131110521F482E393E00E9436
:104490009620DF91CF911F910F910895FF920F9376
:1044A0001F93482FF62E8BE698E060E00E94E31100
:1044B00080919A078F7019F488E693E010C086E621
:1044C00093E00E94962060919A076F708BE698E0C7
:1044D00070E04AE050E00E941E5484E693E00E949F
:1044E00096208091990780FD06C088E593E061E001
:1044F0000E94E8202EC0E0919A07EF70F0E0ED55A1
:10450000F84F008110E090919A079F70990F990FD2
:10451000990F9F5F910F80911002981721F400FD71
:104520000EC06DE40DC080918202981721F400FD49
:1045300006C06EE405C000FD02C06FE501C06F2D2E
:104540008BE698E00E943E531F5F183011F00695ED
:10455000DACF83E593E00E9496208BE698E06DE049
:1045600041E00E94E3118091990781FD06C082FF1E
:1045700009C080912202882329F08BE698E063E04D
:104580000E949F118BE698E06EE041E00E94E311EB
:104590008091990785FF05C08BE698E062E00E9454
:1045A0009F118BE698E06FE041E00E94E31160E02C
:1045B00080919A0782958F7090E003970CF061E0EC
:1045C0008BE698E00E949F111F910F91FF90089534
:1045D000DF92EF92FF920F931F93CF93DF937C01B3
:1045E000D62E8BE698E00E9412128BE698E060E0EF
:1045F00040E00E94E3118701C0E0D0E0DD2019F027
:10460000F801638104C0F701EC0FFD1F60818BE6A8
:1046100098E070E04AE050E00E941E54C33021F060
:1046200085E793E00E949620219601501040C43007
:10463000D10521F7DF91CF911F910F91FF90EF905E
:10464000DF900895E4E9F2E0AAE1B8E080818C937C
:104650003697119781E0EE39F807C1F782EC97E0C1
:1046600062EF77E049E250E027E13FE10E94260750
:104670008091FE018F5F8093A10790E053E0880F47
:10468000991F5A95E1F78093A20790913402917097
:10469000809199078E7F892B8093990708950F93B6
:1046A0001F93CF93DF93EC010AEA82E00E94DC1FA4
:1046B000482F50E09A012F7030702230310541F1BF
:1046C0002430310509F443C02130310509F093C08D
:1046D000209709F493C0CE30D10509F48FC0CC30B7
:1046E000D10509F48BC0CD30D10509F487C0FE0196
:1046F000EE0FFF1FEC0FFD1FEE0FFF1FEC55FE4FDF
:1047000090818181891709F479C09F5F908376C079
:10471000209709F470C0CE30D10509F46CC0CC30BC
:10472000D10509F468C0CD30D10509F464C0FE019B
:10473000EE0FFF1FEC0FFD1FEE0FFF1FEC55FE4F9E
:104740009081992309F457C09150908354C086FFFB
:1047500052C087FF0AC080919402882311F0009311
:1047600094020E94222311E04AC0C330D10539F4DB
:104770008091B601882339F1CCE0D0E02BC0CC3059
:10478000D10519F4CEE0D0E025C0C531D10539F40A
:10479000809122028823B9F4C7E1D0E01BC0C23166
:1047A000D10539F480911002882369F4C5E1D0E085
:1047B00011C0C532D10539F480918202882319F4E1
:1047C000C8E2D0E007C0CE01019669E270E00E9425
:1047D000886DEC01FE01EE0FFF1FEC0FFD1FEE0FC9
:1047E000FF1FEC55FE4F0480F581E02DE491EF357D
:1047F00029F4219603C0882309F457CF10E0CE0195
:104800000E941521112309F450CF8BE698E00E94F5
:10481000D111DF91CF911F910F9108958091990748
:104820008E7F80939907109234020E94222308956C
:104830008091990781608093990781E08093340289
:104840000E94222308958CEE93E061E977E048E02E
:1048500050E027E13FE10E942607089580919907E3
:104860008D7F80939907109295071092960710926A
:104870009707109298070E94232408958091990722
:104880008260809399070E942324089546E050E0B7
:1048900027E13FE10E9426070895FB01108A90E07E
:1048A00024E0880F991F2A95E1F78C559B4F40E132
:1048B00050E027E13FE10E942607089582EF97E04C
:1048C00062EC77E049E250E02FE03FE10E940A0706
:1048D000A2EFB7E0E4EAF1E08D918083369688E0BC
:1048E000AB31B807C9F78091FE018F5F8093A107B4
:1048F00090E033E0880F991F3A95E1F78093A20783
:10490000909134029170809199078E7F892B8093CA
:104910009907089581E997E06CEE73E048E050E074
:104920002FE03FE10E940A078091990790919A0732
:10493000A0919B07B0919C0780939D0790939E0741
:10494000A0939F07B093A00708959C01CB01B901E4
:1049500046E050E02FE03FE10E940A070895FB0186
:10496000108A682F70E044E0660F771F4A95E1F7E0
:104970006C557B4FCF0140E150E02FE03FE10E94BA
:104980000A070895DF92EF92FF920F931F939C0105
:10499000D62E82EF97E0B9014D2D50E02FE03FE198
:1049A0000E940A07E2EFF7E020E030E040E050E04C
:1049B00060E038C0908179018A0154E0EE0CFF1C60
:1049C000001F111F5A95D1F7892F80538A3030F478
:1049D000892F992787FD9095C09719C0892F8154F9
:1049E000863030F4892F992787FD9095C7970FC09F
:1049F000892F8156863028F020E030E040E050E0FA
:104A000013C0892F992787FD9095875590409C0169
:104A1000442737FD4095542F2E0D3F1D401F511F39
:104A20006F5F31966D1530F2B901CA011F910F9178
:104A3000FF90EF90DF900895EF92FF920F931F93F6
:104A4000CF93DF938B017A01C82FD0E064E0CC0FC5
:104A5000DD1F6A95E1F7CC55DB4FCE0166E00E9481
:104A6000C224611571058105910521F1011511051A
:104A700029F0F8016083718382839383CE010696C7
:104A800066E00E94C224611571058105910591F0CF
:104A9000E114F10429F0F701608371838283938329
:104AA000CE010C9664E00E94C22461157105810557
:104AB000910511F460E070E0CB01DF91CF911F917F
:104AC0000F91FF90EF900895AF92BF92DF92EF9217
:104AD000FF920F931F93CF93DF9301EC17E0EE2427
:104AE000FF2471E0A72EB12CF8011082DE2CDD0C22
:104AF000DD0CDD0CC0E0D0E08D2D8C2B60E070E093
:104B000040E050E00E941C25892B59F095010C2EA5
:104B100002C0220F331F0A94E2F7F8018081822B32
:104B200080832196C830D10539F70894E11CF11C27
:104B30000F5F1F4FF6E0EF16F104B1F6DF91CF9152
:104B40001F910F91FF90EF90DF90BF90AF9008956D
:104B5000EF92FF920F931F93CF93DF9364EF71E077
:104B600080E090E00E94284FF999FECF82EC97E018
:104B700092BD81BDF89A80B5863D59F4F999FECF72
:104B80008AEE97E092BD81BDF89A80B58A3A09F025
:104B9000B4C082EC93E060E00E94E82083EB93E0F5
:104BA00061E00E94E820E2EFF7E0119288E0EA3647
:104BB000F807D9F7C0E0D0E000E018E0A8014C1BEE
:104BC0005D0B4937510514F048E750E0CE0162EF24
:104BD00077E027E13FE10E942607C858DF4F88E0D1
:104BE000C037D80759F70E94232484EF93E064E18B
:104BF00071E049E050E027E13FE10E94260784E1AF
:104C000094E06DE171E04AE050E027E13FE10E946D
:104C1000260784E494E067E271E040E250E027E197
:104C20003FE10E94260784E894E067E471E041E0F8
:104C300050E027E13FE10E94260783E58093F207D9
:104C40001092F50704EA14E0C1E0D0E0E2EFEE2EA6
:104C5000E7E0FE2ECE016AE070E00E94886D605DA4
:104C60006093F307CE016AE070E00E94886D805D7A
:104C70008093F407F70101900020E9F7E25FF74025
:104C8000C80162EF77E0AF0127E13FE10E9426070C
:104C9000005F1F4F219687E0043A1807D9F68FEF7F
:104CA0008093F2078093F3078093F4078093F507CE
:104CB0008093F6078093F70784EA97E062EF77E046
:104CC00046E050E027E13FE10E9426078CEB97E0A9
:104CD00062EF77E046E050E027E13FE10E942607DF
:104CE0000E94222364EF71E080E090E00E94284F50
:104CF000E0918008F091810809950E945E2484EA81
:104D000097E069EA77E00E94A5248AEA97E06FEAD3
:104D100077E00E94A52480EB97E065EB77E00E94A6
:104D2000A52486EB97E06BEB77E00E94A5248CEB43
:104D300097E067EC77E00E94A5240E9464250E941A
:104D40008A2480E00E94DC1F90E08F709070813098
:104D5000910519F0049779F503C088E290E020C02E
:104D600083EA93E060E00E94E82060ED77E080E075
:104D700090E00E94284F82E993E060E00E94E820E2
:104D800082E893E061E00E94E82080E00E94DC1F5E
:104D900086FFFBCF8BE698E00E94121280E090E045
:104DA0000E944F2380919402882329F0E09180088B
:104DB000F091810809958CE061E00E94DF4F8DE061
:104DC00061E00E94DF4F0E94881F0E94921FDF91C6
:104DD000CF911F910F91FF90EF900895EF92FF9266
:104DE0000F931F93DC01CB0179018A01139A0E9472
:104DF000984F1398C7010E94984F1F910F91FF90F1
:104E0000EF9008952F923F924F925F926F927F9210
:104E10008F929F92AF92BF92CF92DF92EF92FF92CA
:104E20000F931F93DF93CF9300D00F92CDB7DEB7D0
:104E30004B015C0179018A01DA01C901880F991FD0
:104E4000AA1FBB1F8E0D9F1DA01FB11F582E692EBC
:104E50007A2ECB2ED801C701F5E0880F991FAA1F23
:104E6000BB1FFA95D1F78E199F09A00BB10B89834F
:104E7000292E3A2E4B2EDD242FC0D501C4010A80E5
:104E800004C0B695A795979587950A94D2F780FFA9
:104E900007C0652D762D872D9C2DA801970106C092
:104EA000C801B701252D362D472D5C2D0E94EE2619
:104EB0008A819B8101979B838A838F5F9F4FE9F64D
:104EC000C801B7012981322D432D542D0E94EE26B1
:104ED000D394F8E1DF1629F087E190E09B838A8381
:104EE000CCCF0F900F900F90CF91DF911F910F912A
:104EF000FF90EF90DF90CF90BF90AF909F908F90FA
:104F00007F906F905F904F903F902F9008951F93E8
:104F1000DF93CF93CDB7DEB728970FB6F894DEBFF7
:104F20000FBECDBF162FBE016F5F7F4FAE014B5F2F
:104F30005F4F0E941C25AC01112329F069817A8101
:104F40008B819C8104C06D817E818F8198859A01BF
:104F5000369527955695479556954795240F351FB5
:104F600040E050E00E94022728960FB6F894DEBF7A
:104F70000FBECDBFCF91DF911F91089584E00E94B5
:104F8000504E9C0183E02E3B380718F020E030E0C3
:104F900024C083E02734380718F021E030E01DC03A
:104FA00082E02B3E380718F022E030E016C082E0A5
:104FB000223A380718F023E030E00FC082E02536AF
:104FC000380718F024E030E008C02353324018F0CE
:104FD00025E030E002C02FEF3FEFC9010895EF92C6
:104FE000FF920F931F93CF93DF9383E060E00E94C3
:104FF0001E5008EA17E08091990780FD02C060E02A
:1050000002C0F8016081C7E0D0E0E62EFF2486E10F
:1050100060E00E941E50B7010C2E02C07595679586
:105020000A94E2F7617085E10E941E5086E161E01A
:105030000E941E502197FFEFCF3FDF0741F701503D
:10504000104087E0023A1807B1F683E061E00E9461
:105050001E50DF91CF911F910F91FF90EF90089517
:105060008F92AF92CF92EF920F931F93DF93CF93D4
:10507000CDB7DEB7A0970FB6F894DEBF0FBECDBF99
:1050800081E061E00E94DF4F81E061E00E941E50FC
:1050900083E061E00E94DF4F83E061E00E941E50E8
:1050A00086E161E00E94DF4F85E161E00E94DF4F11
:1050B0001092A3071092A4071092A5071092A607BA
:1050C0001092A7071092A8070E94EF2781E060E0E6
:1050D0000E941E508BE060E00E94DF4F8BE061E099
:1050E0000E941E508091990781608093990780915A
:1050F000990790919A07A0919B07B0919C07809384
:105100009D0790939E07A0939F07B093A00788E602
:1051100091E0909392078093910788E394E09093B5
:1051200094078093930711E01093A10788E0809380
:10513000A2078CE161E00E94DF4F8CE160E00E94F9
:105140001E5080E061E00E94DF4F80E061E00E943D
:105150001E50109381008CE061E00E94DF4F8DE0D3
:1051600061E00E94DF4F0E94881F0E94921F00D0C2
:1051700000D0EDB7FEB73196ADB7BEB711961C9211
:105180001182128213828BE698E061E043E12FEFF7
:1051900002E134E1E32E15E1C12EB6E1AB2EA7E129
:1051A0008A2E0E9489120F900F900F900F908BE61D
:1051B00098E060E142E020E00E941A1285E49CE061
:1051C0000E940E55DE011196E1E3F3E088E00190C4
:1051D0000D928150E1F7DE011996E9E2F3E088E0F3
:1051E00001900D928150E1F7DE015196E1E2F3E08A
:1051F00088E001900D928150E1F7DE015996E9E1D6
:10520000F3E088E001900D928150E1F78BE698E0A1
:1052100061E08E010F5F1F4FA8010E94A9111A8241
:105220001B8281E08C838BE698E060E0A8010E94FD
:10523000A9118BE698E062E0AE01475F5F4F0E94E4
:10524000A9118BE698E063E0AE014F5E5F4F0E94CC
:10525000A9118BE698E064E0AE01475E5F4F0E94C3
:10526000A9118FE160E00E94DF4F8EE160E00E94B3
:10527000DF4F8DE160E00E94DF4F8FE161E00E942F
:105280001E508EE161E00E941E508DE161E00E949F
:105290001E500E94240C882329F480919907806174
:1052A00080939907A0960FB6F894DEBF0FBECDBFCE
:1052B000CF91DF911F910F91EF90CF90AF908F9092
:1052C0000895EF92FF920F931F930E94504B7B0122
:1052D0008C016091AA0170E080E090E024E833E066
:1052E00040E050E00E94496D9B01AC01205C384ACF
:1052F000404050402E0D3F1D401F511FB901CA01B3
:105300001F910F91FF90EF9008950E94612920E86E
:1053100031E541E050E00E949B6D2D5F3F4F4F4FC4
:105320005F4FCA01B90127E030E040E050E00E9441
:105330009B6D862F0895EF92FF920F931F937B0131
:105340008C018BE698E060E040E00E94E311C80128
:10535000B7010E943D4A0E9473208EE793E00E94AD
:105360009620C801B7010E94374A0E9473208BE73C
:1053700093E00E9496200E948529E82FF0E0EE0F2E
:10538000FF1FE656FD4F808191810E94962089E79C
:1053900093E00E949620C801B7010E94254A0E940E
:1053A000732087E793E00E949620C801B7010E940E
:1053B000314A0E9473201F910F91FF90EF90089542
:1053C000CF93DF9385E49CE060E570E00E94345465
:1053D00085E49CE060E00E94B65485E49CE00E9475
:1053E000F954882311F080E029C085E49CE060E551
:1053F00070E00E94345485E49CE06AEF0E94B65449
:1054000085E49CE00E94F95485E49CE060E570E04E
:1054100046E050E00E940A5585E49CE00E943E541C
:10542000892BD1F3C2EFD7E085E49CE00E9447547A
:10543000899387E0C83FD807B9F781E0DF91CF9122
:105440000895DF93CF93CDB7DEB728970FB6F894C2
:10545000DEBF0FBECDBF8FEC93E061E00E94E8207D
:105460000E94504B6093E5077093E6078093E7072F
:105470009093E8076093E9077093EA078093EB073E
:105480009093EC070E94E029882391F41092F20790
:1054900089E68093F3078093F4078DE28093F50704
:1054A00081E38093F607809140028093F70705C05F
:1054B0008091990780688093990782E593E062EF75
:1054C00077E044E00E94CA0F882309F461C09091FC
:1054D000F20180E02091EC01820F911D90939401E4
:1054E000809393018091B601882349F10E94450A77
:1054F000882309F44DC08091CA038093BC01809138
:10550000CB038093C2018091CC038093C80180912A
:10551000CD038093CE018091D6038093D4018091F6
:10552000D7038093DA018091D8038093E0018091C2
:10553000D9038093E6010E94222391E02AC0809142
:10554000BC0189838091C2018A838091C8018B83C9
:105550008091CE018C838091D4018D838091DA017A
:105560008E838091E0018F838091E6018887AE0170
:105570004B5F5F4FCE010196BA0120E030E00E9400
:10558000940F90E0882309F491E081E0982701C00E
:1055900090E0892F28960FB6F894DEBF0FBECDBFDE
:1055A000CF91DF9108959C01F999FECF32BD21BDC5
:1055B000F89A80B508959C01F999FECF1FBA32BDC3
:1055C00021BD60BD0FB6F894FA9AF99A0FBE0895FE
:1055D000A4E0BAE080E090E0FC01EC57F74F1082C5
:1055E000118212821382FC01EC5BF64F1082118251
:1055F000128213821D920496803C910569F71092E5
:105600003C0A10923D0A10923E0A10923F0AF99904
:10561000FECF89E090E092BD81BDF89A80B580937D
:1056200083080895A4E0BAE080E090E0FC01EC5724
:10563000F74F1082118212821382FC01EC5BF64F4D
:1056400010821182128213821D920496803C910571
:1056500069F710923C0A10923D0A10923E0A10928D
:105660003F0A089510928308F999FECF1FBA89E086
:1056700090E092BD81BD10BC0FB6F894FA9AF99AE9
:105680000FBE0895982F80918308981708F041C0A5
:10569000992309F43EC0892F90E0019727E430E078
:1056A000AC01429FC001439F900D529F900D112469
:1056B0009C01265F3F4F8F5A9F4F24C0F999FECF20
:1056C00032BD21BDF89A50B5F999FECF72BD61BDCA
:1056D000F89A40B5F999FECF1FBA32BD21BD40BD41
:1056E0000FB6F894FA9AF99A0FBEF999FECF1FBA3D
:1056F00072BD61BD50BD0FB6F894FA9AF99A0FBE0B
:105700002F5F3F4FB901695B7F4F2817390709F0B9
:10571000D5CF089577FF03C06FEF7FEF22C0CB0195
:10572000977074FF03C0909581959F4F76FF0BC0D3
:105730006091910770919207680F791F77FF11C0F0
:1057400060E070E00EC075FF0CC06091930770912F
:105750009407680F791F85E0603A780714F06FE9C5
:1057600075E0CB010895BF92CF92DF92EF92FF9246
:105770000F931F936C01FC01B080E1800E946129AE
:1057800020E831E541E050E00E949B6D2B0D311D7A
:10579000411D511DFF2400E010E0CA01B901A8011C
:1057A00097010E949B6DF60160831F910F91FF90FE
:1057B000EF90DF90CF90BF9008958F929F92AF921D
:1057C000BF92CF92DF92EF92FF920F931F934C0103
:1057D000FC01A180E080FF24EA0CF11C0027F7FC0B
:1057E0000095102F0E946129BB24CC24DD2420E8E1
:1057F00031E541E050E00E949B6DCA01B901A6016C
:1058000095010E949B6DE61AF70A080B190BC80157
:10581000B701A60195010E949B6DF40160831F9161
:105820000F91FF90EF90DF90CF90BF90AF909F903F
:105830008F9008957F928F929F92AF92BF92CF9256
:10584000DF92EF92FF920F931F93CF93DF936C0140
:105850007A018B01CB01BA010E943D4A4C01C8017B
:10586000B7010E94374AEC01C801B7010E942B4AD8
:10587000A82EC801B7010E94314AB82EC801B7014D
:105880000E94254A782ED6018C9180FFB4C0829563
:10589000837090E082309105B9F08330910509F171
:1058A000892BE1F5F601218130E08A2D90E0059603
:1058B00067E070E00E94886D02C0359527958A9553
:1058C000E2F720FD2BC097C02B2D30E0D6011196BA
:1058D0008C9190E08F7190702817390709F08BC078
:1058E0001DC0C801B70120E831E541E050E00E9449
:1058F0009B6DCA01B901F601228130E040E050E021
:105900000E949B6DD60111962C9130E040E050E052
:10591000621773078407950709F06DC0F60180814F
:10592000869586958370A1F0823019F4B0FE10C080
:1059300062C0813069F4FFE1BF1609F45CC08DE1FB
:10594000B81621F492E0791609F455C0B0FE53C0A0
:105950008CE390E0889E8001899E100D989E100D2A
:1059600011240C0F1D1FD6018C9186FD30C013969B
:105970006D917C911497C6010E948A2BF601C58116
:10598000D6810780F085E02D9C010817190798F152
:10599000209729F480E00217130771F526C030978D
:1059A00051F1C801821B930B9C01BF010E94746DD1
:1059B0006E9FC0016F9F900D7E9F900D11248217E6
:1059C0009307C9F480E0C617D707B4F00EC0E6010C
:1059D00088E0E82EF12CEC0CFD1C6B817C81C6016B
:1059E0000E948A2B0817190711F481E005C022963E
:1059F000CE15DF0591F780E0DF91CF911F910F91D8
:105A0000FF90EF90DF90CF90BF90AF909F908F90DE
:105A10007F900895982F9B0180918308981768F4D0
:105A200067E4969FB0011124665F7F4FC90147E488
:105A300050E023ED3AE20E940A070895DF92EF92C8
:105A4000FF920F931F93DF93CF93CDB7DEB7C75469
:105A5000D0400FB6F894DEBF0FBECDBF20918308B3
:105A6000821708F046C0222309F443C090E0019653
:105A700027E430E0829F8001839F100D929F100DDC
:105A80001124065F1F4F97E4D92E7E010894E11C74
:105A9000F11C14C0C701B80147E450E023ED3AE21D
:105AA0000E940A07C80187549040B70147E450E0BC
:105AB0002BED3AE20E942607095B1F4F20918308D5
:105AC0002D9DC00111240A960817190718F32150BB
:105AD00020938308F999FECF1FBA89E090E092BD28
