:100000000C94EE050C9419060C9419060C94190620
:100010000C9419060C9419060C9419060C941906E4
:100020000C9462130C9419060C9419060C9419067E
:100030000C9419060C9419060C9419060C941906C4
:100040000C9419060C9419060C948D500C941906F6
:100050000C946F520C9405530C9419060C941906C9
:100060000C9419060C9419060C94476D0C941906FF
:100070000C94A8520C9444530C9419060C94190631
:100080000C9419060C9419060C9419064E54502021
:1000900053796E63696E672E2E2E005D0D0A002C5B
:1000A00000222C00302C22002C002C005B002E742F
:1000B000787400302E2054657374202831206D69C7
:1000C0006E29002E20002000486F6C6420423320EF
:1000D000746F20737461727400436C69636B2042A7
:1000E0003320746F206C6973740052756E20612028
:1000F00050726F6772616D3A00286C7377632900E4
:1001000028656970290020286F73697029003A00FA
:100110002867776970290077746F7074732E74780C
:100120007400207365630025004E6F0059657300ED
:10013000206D73002B002B0020474D540030300001
:100140003A002D002B000020202020002D44697350
:1001500061626C6564212D003A0045004D433A0010
:1001600020284D414329002D002E002D0020002085
:1001700020003A00200020414300204C4100204450
:1001800043004857207600204F70656E53707269A7
:100190006E6B6C657200486F6C6420423320746F24
:1001A00020736176650042312F42323A2B2F2D2C7D
:1001B0002042333A2D3E003D3D536574204F70740C
:1001C000696F6E733D3D00506C65617365205761CA
:1001D00069742E2E2E00526573657474696E672ED5
:1001E0002E2E00436F6E6E656374696E672E2E2E21
:1001F0000046573A0066777600545A6F6E653A00AB
:10020000747A004E54503F006E747000444843505E
:100210003F0064686370004F532E6970313A006983
:100220007031002E6970323A00697032002E6970A8
:10023000333A00697033002E6970343A00697034C3
:100240000047572E6970313A00677731002E697088
:10025000323A00677732002E6970333A006777339D
:10026000002E6970343A0067773400506F72743A28
:100270000068703000006870310048573A2000680C
:100280007776004578702E20626F6172643A00655F
:1002900078740053746E2064656C61793A007364FD
:1002A00074004D6173313A006D6173004D617331BB
:1002B00020206F6E2061646A3A006D746F6E004D8D
:1002C000617331206F66662061646A3A006D746FF5
:1002D00066005261696E2073656E736F723A0075C5
:1002E0007273004E6F726D616C6C79206F70656E09
:1002F0003F0072736F0025205761746572696E67E5
:100300003A00776C004465762E20656E61626C65FC
:100310003F0064656E0049676E207077643F006936
:10032000706173004465762E2049443A0064657616
:100330006964004C434420636F6E2E3A00636F6E15
:10034000004C4344206C69742E3A006C6974004C74
:1003500043442064696D2E3A0064696D00426F6FFA
:1003600073743A0062737400557365207765617425
:100370006865723F00757774004E54502E69703175
:100380003A006E747031002E6970323A006E7470EB
:1003900032002E6970333A006E747033002E69702B
:1003A000343A006E747034004C6F673F006C670025
:1003B0004D6173323A006D617332004D61733220CA
:1003C000206F6E2061646A3A006D746F6E32004D6A
:1003D000617332206F66662061646A3A006D746FE3
:1003E00066320046576D3A0066776D005265736558
:1003F0007420616C6C3F007265736574004D6F6EA4
:10040000005475650057656400546875004672694C
:10041000005361740053756E0050726F6772616DA6
:1004200020006376006A630064700063700063728A
:10043000007570006A7000636F006A6F007370006F
:100440006A7300636D006373006A6E006A6C006417
:100450006C007375006375003C7363726970743E61
:1004600077696E646F772E6C6F636174696F6E3D30
:10047000222F223B3C2F7363726970743E0A007B0B
:1004800022726573756C74223A24447D007B22725B
:100490006573756C74223A24447D0024460022243E
:1004A00046223A24447D00646179005D002C245387
:1004B000002453005B007479706500656E640073FE
:1004C000746172740068697374007400656E0073FF
:1004D0006964005D2C226E73746174696F6E73229F
:1004E0003A24447D002C0024440022736E223A5B9F
:1004F00000637077006E70770077746F00747474A7
:100500000077746B6579006C6F63006A73700072BA
:100510006400656E007262740072736E003C6D65FB
:100520007461206E616D653D2276696577706F72CA
:10053000742220636F6E74656E743D2277696474F3
:10054000683D6465766963652D77696474682C69B4
:100550006E697469616C2D7363616C653D312E3019
:100560002C6D696E696D756D2D7363616C653D31C0
:100570002E302C757365722D7363616C61626C65CE
:100580003D6E6F223E0D0A003C73637269707420E9
:100590007372633D2224452F686F6D652E6A732246
:1005A0003E3C2F7363726970743E0A3C2F626F6425
:1005B000793E0A3C2F68746D6C3E0076617220763D
:1005C00065723D24442C697061733D24443B3C2F8B
:1005D0007363726970743E0A003C21444F4354595E
:1005E00050452068746D6C3E0A3C68746D6C3E0A20
:1005F0003C686561643E0A24463C2F686561643E40
:100600000A3C626F64793E0A3C7363726970743E9F
:10061000007D002C2277746F223A7B24537D005D8D
:10062000002C005B24442C244C2C244C5D00305DB9
:100630002C227073223A5B0024442C0022646576DD
:1006400074223A244C2C226E627264223A24442C86
:1006500022656E223A24442C227264223A24442CCD
:10066000227273223A24442C2272647374223A2434
:100670004C2C226C6F63223A222445222C22777460
:100680006B6579223A222445222C2273756E726999
:100690007365223A24442C2273756E736574223A72
:1006A00024442C22656970223A244C2C226C7763F6
:1006B000223A244C2C226C737763223A244C2C224D
:1006C0006C72756E223A5B24442C24442C24442CF6
:1006D000244C5D2C227362697473223A5B003C687F
:1006E00072202F3E3C666F726D206E616D653D6FAE
:1006F0006620616374696F6E3D6375206D65746813
:100700006F643D6765743E3C703E3C623E5363726D
:100710006970742055524C3A3C2F623E3C696E70B1
:10072000757420747970653D746578742073697A86
:10073000653D3332206D61786C656E6774683D315C
:1007400032372076616C75653D22244522206E612A
:100750006D653D6A73703E3C2F703E3C703E446553
:100760006661756C742069732024533C6272202F7B
:100770003E4966206C6F63616C206F6E2075534438
:1007800020636172642C20757365202E2F3C2F70BE
:100790003E3C703E3C623E50617373776F72643AC8
:1007A0003C2F623E3C696E70757420747970653DB3
:1007B00070617373776F72642073697A653D333249
:1007C000206E616D653D70773E3C696E707574207A
:1007D000747970653D7375626D69743E3C2F703E2F
:1007E0003C6872202F3E3C2F666F726D3E3C7363F7
:1007F00072697074207372633D68747470733A2FF9
:100800002F75692E6F70656E737072696E6B6C6593
:10081000722E636F6D2F6A732F6861736865722E15
:100820006A733E3C2F7363726970743E005D7D0095
:10083000225D00225D2C00245300244C5D2C2200FC
:10084000244C2C0024445D2C5B0024442C005B24AD
:10085000442C24442C24442C5B00226E70726F675D
:1008600073223A24442C226E626F61726473223ABE
:1008700024442C226D6E70223A24442C226D6E7317
:1008800074223A24442C22706E73697A65223A24C9
:10089000442C227064223A5B002C2264657870221A
:1008A0003A24442C226D657870223A24442C226824
:1008B0007774223A24447D002C00222446223A24D4
:1008C00044006E616D650070696400706964007059
:1008D0006964005D2C226D61786C656E223A244457
:1008E0007D002C00222453220022736E616D6573FB
:1008F000223A5B0073746E5F736571007266737485
:100900006E0073746E5F646973006D61736F703233
:100910000069676E6F72655F7261696E006D617309
:100920006F70005D2C002C00244400222446223AE3
:100930005B00707700485454502F312E31203230F4
:1009400030204F4B0D0A00436F6E74656E742D544A
:100950007970653A206170706C69636174696F6E5B
:100960002F6A736F6E0D0A436F6E6E656374696FE5
:100970006E3A20636C6F73650D0A004163636573A3
:10098000732D436F6E74726F6C2D416C6C6F772D8D
:100990004F726967696E3A202A0D0A0043616368E5
:1009A000652D436F6E74726F6C3A206D61782D61A6
:1009B00067653D302C206E6F2D63616368652C2068
:1009C0006E6F2D73746F72652C206D7573742D723C
:1009D0006576616C69646174650D0A00244624467D
:1009E000244624460D0A7B002446244624462446F9
:1009F0000D0A00436F6E74656E742D547970653AFC
:100A000020746578742F68746D6C0D0A0024462478
:100A100046244624460D0A00000108000604000191
:100A200045000082000040002000504F5354202415
:100A30004620485454502F312E300D0A486F73749D
:100A40003A2024460D0A244624534163636570749A
:100A50003A202A2F2A0D0A436F6E74656E742D4C4E
:100A6000656E6774683A2024440D0A436F6E74659E
:100A70006E742D547970653A206170706C69636191
:100A800074696F6E2F782D7777772D666F726D2D65
:100A900075726C656E636F6465640D0A0D0A24538C
:100AA00000474554202446245320485454502F31A5
:100AB0002E300D0A486F73743A2024460D0A2446DE
:100AC0000D0A0D0A004163636570743A20746578FD
:100AD000742F68746D6C00E30004FA0001000000DC
:100AE00001776561746865722E6F70656E737072E0
:100AF000696E6B6C65722E636F6D002F7765617424
:100B00006865720024442E70793F6C6F633D244504
:100B1000266B65793D2445266677763D2444267705
:100B2000746F3D24530065697000747A00736361CB
:100B30006C650073756E7365740073756E7269739E
:100B4000650000002100240027002A000000220088
:100B5000250028002B00000020002300260029008B
:100B60000202020202020202040404040404040455
:100B70000303030303030303010101010101010155
:100B80000102040810204080010204081020408067
:100B90000102040810204080804020100804020157
:100BA000000000010200000000000000040307062E
:100BB0000000000000000000000000000000000035
:100BC0007C3C3E5E2B3D3F2F5B5D3B2C2A225C0034
:100BD000E10C9613E21F28543156076911241FBEF9
:100BE000CFEFD0E4DEBFCDBF13E0A0E0B1E0E0E99D
:100BF000FFED00E00BBF02C007900D92A036B107D9
:100C0000D9F71BBE11E1A0E6B3E001C01D92A434E8
:100C1000B107E1F71BE0CCEDDBE004C02297FE0159
:100C20000E94C26FC03DD107C9F70E94BE540C9408
:100C300060060C940000FC0188279927E894219114
:100C40002032E9F3293010F02E30C8F32B3241F076
:100C50002D3239F4689404C00E944307820F911D1D
:100C6000219120532A30C0F31EF4909581959F4F17
:100C700008951F93FC0199278827BC01E8941191DE
:100C80001032E9F3193010F01E30C8F31B3251F066
:100C90001D3249F4689406C00E942E07610F711D31
:100CA000811D911D119110531A30B0F33EF49095AF
:100CB0008095709561957F4F8F4F9F4F1F9108953D
:100CC000F8940C94C66FFB01DC0102C005900D92F4
:100CD00041505040D8F70895FB01DC010D900020F1
:100CE000E9F7119705900D920020E1F70895FB01B7
:100CF000DC0105900D920020E1F70895FB01DC0175
:100D000004C08D910190801921F441505040C8F7E2
:100D1000881B990B0895FB01DC0102C001900D9224
:100D200041505040D8F70895DC0101C06D93415007
:100D30005040E0F70895FB01DC010D900020E9F739
:100D4000119701900D920020E1F70895FC01819127
:100D5000861721F08823D9F7992708953197CF0175
:100D60000895FB01DC0101900D920020E1F7089548
:100D7000FB01DC014150504030F08D910190801911
:100D800019F40020B9F7881B990B0895FB01DC01C9
:100D90004150504048F001900D920020C9F701C029
:100DA0001D9241505040E0F70895A0E0B0E0EBED17
:100DB000F6E00C94936F7C01EB018A01690109C094
:100DC000CE012196F6010995F70181937F0101502B
:100DD000104001151105A1F7CDB7DEB7E8E00C947E
:100DE000AF6FA0E0B0E0E7EFF6E00C94936FEC019A
:100DF0007B018A01690109C0CE012196F701619149
:100E00007F01F60109950150104001151105A1F768
:100E1000CDB7DEB7E8E00C94AF6FFB019F01E8941B
:100E20004230C4F04532B4F44A3029F497FB1EF442
:100E3000909581959F4F642F77270E94256F805D45
:100E40008A330CF0895D8193CB010097A1F716F4EA
:100E50005DE251931082C9010C947007592F482FFD
:100E6000372F262F660F771F881F991F660F771F52
:100E7000881F991F620F731F841F951F660F771FAE
:100E8000881F991F08957AE0979F902D879F802D46
:100E9000910D11240895FA01CF93FF93EF9322301F
:100EA000CCF02532BCF4C22F2C2F332744275527F2
:100EB000FF93EF930E944C6FEF91FF91605D6A3357
:100EC0000CF0695D6193B901CA01605070408040C7
:100ED000904051F710828F919F91CF910C947007A1
:100EE000DC01FC01672F71917723E1F7329704C091
:100EF0007C916D9370836291AE17BF07C8F308951C
:100F0000DF93CF9300D000D000D0CDB7DEB7DE01A5
:100F10001196E4EFF2E086E001900D928150E1F746
:100F200086E191E0E6ECF3E0DF019C011D922150A7
:100F30003040E1F780916003833019F466EB73E091
:100F400003C0BE016F5F7F4F84E490E043E450E054
:100F50000E94744380916003833039F086EC93E003
:100F6000BE016F5F7F4F0E94D34F81E08093F003FB
:100F70008093F10386E08093F20380916D0390915A
:100F80006E03A0916F03B09170038093F40390936C
:100F9000F503A093F603B093F703809160038330C9
:100FA00039F480EF93E00C9666EA73E00E94DB4F21
:100FB0008CE094E060EA73E00E94D34FACEDB4E0C3
:100FC000E3E8F1E002C081918D9331E0E938F30765
:100FD000D1F790916003992311F083E001C081E083
:100FE0008093E2048DE38093E30487E08093E4043C
:100FF00081E08093E504A6EEB4E0E0EAF3E002C00D
:1010000081918D9383E0E63AF807D1F78CE08093E5
:10101000EC0485E08093ED04EDE7F1E0AEEEB4E0A2
:1010200002C081918D9321E0E238F207D1F723EFDE
:1010300034E03093750320937403913069F582E3B3
:101040008093F30484E08093F404D9011296E6EAD5
:10105000F3E002C081918D9333E0EA3AF307D1F7D0
:1010600086E38093F90484E08093FA048BEF94E0A4
:101070009093750380937403DC01E6EBF3E002C008
:1010800081918D9383E0EA3BF807D1F78FEF94E0ED
:10109000909375038093740320917303222311F0BE
:1010A00094E001C093E0A0917403B0917503FD0139
:1010B00087E3819311969C93DF01119681E08183F0
:1010C000FD01319683E011968C93DF01119686E045
:1010D0008183CD010196909375038093740322233D
:1010E00039F011962C9301969093750380937403B5
:1010F000E0917403F09175038FEF8193F093750382
:10110000E0937403CF01805F93400E94634526966D
:101110000FB6F894DEBF0FBECDBFCF91DF9108951B
:10112000EF92FF920F931F93CF93DF938C018091E7
:101130006003823009F4F8C0833030F4882351F121
:10114000813009F066C14BC0833021F0843009F052
:1011500060C1EAC00E94D5502091650330916603BA
:101160004091670350916803E0906103F09062033F
:1011700000916303109164032E0D3F1D401F511F0A
:10118000621773078407950708F443C10E9480071C
:1011900084E018C00E94D55060936D0370936E0375
:1011A00080936F03909370031092A6031092A7038D
:1011B0001092A8031092A9030E94800781E00E9468
:1011C000830D81E0809360030E94D5506093690392
:1011D00070936A0380936B0390936C031AC1063477
:1011E000110508F4D5C08091E903833409F0D0C01B
:1011F0002091F4033091F5034091F6035091F703E9
:1012000080916D0390916E03A0916F03B091700374
:10121000281739074A075B0709F0BAC0C0EED4E0C7
:10122000FE01A8014A535C4FDF01119691819D0197
:101230002F5F3F4F8081853329F411968C91823046
:1012400009F4C5C0F901E90FF11DE417F50760F3D2
:101250009FC0FE019191E980EF0121969333D9F06F
:10126000943340F4933089F0963091F0913009F046
:1012700046C008C09A3379F09F3F09F451C09633B5
:10128000F1F537C08AEA93E036C082EB93E033C0D1
:101290008AEB93E030C0618170E080E090E0982FAD
:1012A000872F762F66272981620F711D811D911D61
:1012B000982F872F762F66272A81620F711D811D37
:1012C000911D982F872F762F66272B81620F711D16
:1012D000811D911D28EE33E040E050E00E94FA6E3F
:1012E000609365037093660380936703909368032C
:1012F00089C086EB93E0BE010E94DB4F83C0E09182
:101300007103F0917203309709F47CC080917303EC
:10131000981709F077C0892FBE014E2D099572C02C
:101320000E94800782E04ECF0634110588F180913B
:10133000E903833469F52091F4033091F50340917A
:10134000F6035091F70380916D0390916E03A09185
:101350006F03B0917003281739074A075B07C1F480
:10136000E0EEF4E0A8014A535C4FDF011196918151
:101370009D012F5F3F4F8081853321F411968C9121
:10138000853071F1F901E90FF11DE417F50768F3F4
:101390000E94D5502091690330916A0340916B03FC
:1013A00050916C03205F384D4F4F5F4F2617370722
:1013B0004807590748F02DC082EB93E00E94DA43BA
:1013C00083E08093600325C01092600322C086EA08
:1013D00093E060E074E00E94DB4F0A531C4F39CF6A
:1013E00081E00E94720D0E94D5506093610370935A
:1013F000620380936303909364038091B203882314
:10140000F9F2DACFCE0DD11DC017D10708F421CFE4
:1014100087CFDF91CF911F910F91FF90EF900895AB
:10142000CF93DF9381E08093C2039091A503892F2E
:1014300082958F708F5B809380019F709F5B9093EC
:101440008101109260030E94D550EB0104C00E94FC
:10145000D30D0E94900880916003833061F00E9458
:10146000D5506C1B7D0B6053754728F40E94940D7A
:10147000882389F3ECCF0E94F0421092C5031092AA
:10148000C40390E080916003833009F491E0892FD8
:10149000DF91CF910895FF920F931F93CF93DF9326
:1014A0008C01F62E0E94D550EB010CC00E94D30D8A
:1014B0000E9430460E94D5506C1B7D0B60537547CF
:1014C00008F0EFC00E94940D882381F30E94D5504C
:1014D000EB010CC00E94D30D0E9430460E94D550F3
:1014E0006C1B7D0B6053754708F0DBC00E94EA421D
:1014F000882381F71092BE031092BF031092C0039D
:101500001092C103809176038F5F80937603809160
:10151000BA03882361F488E098E0A8E0B8E08093FB
:10152000BA039093BB03A093BC03B093BD03809117
:10153000760390E0906E6AEB73E045E350E00E9422
:101540007443E0EFF3E08CE0DF011D928A95E9F748
:10155000DF011C9690E0FF2019F0F801808102C0A5
:10156000F80184910F5F1F4F8E3241F0882331F0D4
:101570009F5FFD01E90FF11D8083EDCFFD01919388
:10158000DF01A90FB11D882329F7FD0111921196E2
:101590001C92DF01119641E04183FD0131961196C5
:1015A0001C92418386ED26EC33E0821B32968E0F2F
:1015B0008093F003909176039093F1034093F203AC
:1015C0004093F50390E00E9463450E94D5508B0143
:1015D00061C00E94D550601B710B6053754708F0C5
:1015E00060C00E94D30DEC01009709F453C00E9423
:1015F0003046892B09F04EC0C634D10508F44AC0E4
:101600008091E903853309F045C08091EA03803E6B
:1016100009F040C09091EB03809176039817D1F5C3
:101620008091F1038917B1F58091F30390E08F70F9
:101630009070892BB1F58091F003E82FF0E0E05134
:10164000FC4F9E012A533C4F8081807C39F03296BA
:1016500009C08081882311F4319604C03196E217C5
:10166000F307B8F3CF010E962817390798F0818158
:10167000813051F48185843039F43A968EEB93E0D1
:10168000BF010E94DB4F06C0818590E00A96E80FFB
:10169000F91FDACF8091BE03882309F49ACF81E045
:1016A00001C080E0DF91CF911F910F91FF900895CD
:1016B000482F6AE00E94196F282F30E084E0220F43
:1016C000331F8A95E1F7842F0E94196F892F820FAB
:1016D0000895CF93DF93EC01809177039091780385
:1016E0008836910559F585EB9EE068E670E00E942A
:1016F000F75585EB9EE060E00E94795688810E9454
:10170000580B682F70E06F77707085EB9EE00E9439
:10171000795689810E94580B682F85EB9EE00E94C4
:1017200079568A810E94580B682F85EB9EE00E94B3
:1017300079568B810E94580B682F2DC08F369105EA
:1017400009F04AC085EB9EE06FE670E00E94F75515
:1017500085EB9EE060E00E94795688810E94580BDC
:10176000682F606885EB9EE00E94795689810E940F
:10177000580B682F85EB9EE00E9479568A810E9463
:10178000580B682F85EB9EE00E9479568B810E9452
:10179000580B682F686085EB9EE00E9479568C811B
:1017A0000E94580B682F85EB9EE00E9479568D8130
:1017B0000E94580B682F85EB9EE00E9479568E811F
:1017C0008E510E94580B682F85EB9EE00E9479563F
:1017D00085EB9EE00E94BC56DF91CF91089588E68C
:1017E00090E0909378038093770385EB9EE068E622
:1017F00070E00E94F75585EB9EE060E00E9479560C
:1018000085EB9EE00E94BC568823D9F08FE690E0DD
:10181000909378038093770385EB9EE06FE670E00A
:101820000E94F75585EB9EE060E00E94795685EBBB
:101830009EE00E94BC56882321F0109278031092FB
:10184000770308951F93CF93DF93EC0160917703A3
:10185000709178036115710509F46FC085EB9EE006
:101860000E94F75585EB9EE060E00E94795685EB7B
:101870009EE00E94BC56609177037091780385EBDF
:101880009EE047E050E00E94CD5685EB9EE00E942E
:101890000A56282F2F7722952F701AE0219F90014A
:1018A00011248F70820F888385EB9EE00E940A5678
:1018B000282F22952F70219F900111248F70820F65
:1018C000898385EB9EE00E940A56282F2F7322956C
:1018D0002F70219F900111248F70820F8A8385EBD6
:1018E0009EE00E940A5687708B8385EB9EE00E94E3
:1018F0000A56282F22952F70219F900111248F7056
:10190000820F8C8385EB9EE00E940A56282F229539
:101910002F70219F900111248F70820F8D8385EB92
:101920009EE00E940A56282F2F70225E82958F70AB
:10193000819FC0011124280F2E83DF91CF911F9129
:1019400008950F931F93DF93CF93CDB7DEB72797FB
:101950000FB6F894DEBF0FBECDBF8E010F5F1F4FD5
:10196000A8010E94C449C8010E94690B27960FB6BE
:10197000F894DEBF0FBECDBFCF91DF911F910F91C5
:1019800008950F931F93DF93CF93CDB7DEB72797BB
:101990000FB6F894DEBF0FBECDBF8E010F5F1F4F95
:1019A000C8010E94220CC8010E940A4B27960FB65C
:1019B000F894DEBF0FBECDBFCF91DF911F910F9185
:1019C000089585EB9EE00E94D156089580917C0396
:1019D00061E00E940B5278940895FF920F931F9339
:1019E000082F162FF42EF89480917C0360E00E945B
:1019F0000B521F71102B1EBD0DB407FEFDCFFEBC98
:101A00000DB407FEFDCF0E94E60C1F910F91FF90D1
:101A100008951F93182F282F30E020763070809182
:101A20007D0390E02817390799F080EA6FE143E0E1
:101A30000E94ED0C412F407640937D0350E085E0FD
:101A4000559547958A95E1F780E86FE10E94ED0C86
:101A50001F9108950F931F93182F062F0E94090DB1
:101A600080E4612F402F0E94ED0C1F910F9108958B
:101A70000F931F93182F072F0E942A0D812F8F5F1E
:101A8000602F0E942A0D1F910F9108950F931F93AD
:101A9000182F062FF89480917C0360E00E940B526F
:101AA000802F8F71812B8EBD0DB407FEFDCF1EBC24
:101AB0000DB407FEFDCF07FF04C01EBC0DB407FE2A
:101AC000FDCF1EB50E94E60C812F1F910F91089546
:101AD0001F93182F0E94090D80E0612F0E94460D70
:101AE0001F910895882311F410927B0380917B034A
:101AF000882341F488E30E94680D682F6E7F88E395
:101B00000E942A0D08951F93182F88E30E94680DE4
:101B1000682F616088E30E942A0D112319F481E087
:101B200080937B031F91089584ED61E10E942A0D4B
:101B300082ED61E00E942A0D8AEE0E94680D80FD10
:101B4000FBCF82ED60E00E942A0D89ED0E94680DB6
:101B500090E09695879596958795817008950F9357
:101B60001F93CF93DF93EC018B01F89480917C035A
:101B700060E00E940B528AE38EBD0DB407FEFDCFDC
:101B800009C01EBC0DB407FEFDCF8EB5F8018193D0
:101B90008F0121972097A9F70E94E60CDF91CF9142
:101BA0001F910F9108950F931F93DF93CF9300D050
:101BB00000D000D0CDB7DEB789E30E94680D88233E
:101BC00019F400E010E048C060917E0370917F033B
:101BD00080E00E94380D86E090E0BE016F5F7F4F8D
:101BE0000E94AF0D89819A8190937F0380937E0339
:101BF0002B813C81E0917903F0917A038D8187FDFF
:101C000003C000E010E00EC0245030408F010150AE
:101C100010402017310708F48901C80166EC73E011
:101C20000E94AF0DF801EA53FC4F108260917E03D1
:101C300070917F038CE06130780724F08CE06FEFC7
:101C40007BE003C0615070408CE00E94380D80E85A
:101C50006EE140E40E94ED0CC80126960FB6F894A0
:101C6000DEBF0FBECDBFCF91DF911F910F910895C1
:101C70000F931F93CF93DF938C01EB01F894809126
:101C80007C0360E00E940B528AE78EBD0DB407FE14
:101C9000FDCF08C088818EBD0DB407FEFDCF219613
:101CA0000150104001151105A9F70E94E60CDF91C3
:101CB000CF911F910F910895CF93DF93EC018CE1A9
:101CC0000E94680D81FF0FC080E86FE140E80E942C
:101CD000ED0C80EA6FE140E80E94ED0C80EA6CE1D7
:101CE00042E00E94ED0C82E060E07CE00E94380D52
:101CF000BE016050744F86E00E94380D8AE760E0B4
:101D000040E00E94ED0CCE0166EC73E00E94380EBC
:101D100080E86FE148E00E94ED0CDF91CF910895DB
:101D200084E061E00E948E5184E061E00E940B52E9
:101D300085E061E00E948E5187E061E00E948E5153
:101D400086E060E00E948E5185E061E00E940B52C7
:101D500085E060E00E940B5287E060E00E940B5239
:101D600080E58CBD8DB581608DBD0895EF92FF92A9
:101D70000F931F93CF93DF93EB01142F90937A036C
:101D8000809379030CB406FC02C00E94900E10935D
:101D90007C03812F61E00E948E510E94E60C8FEF40
:101DA00060E04FEF0E94ED0C62E070E080E090E0B8
:101DB0000E94E3500E94D5507B018C0180E395E79F
:101DC000A0E0B0E0E80EF91E0A1F1B1F09C00E9428
:101DD000D550E616F7060807190710F480E084C00E
:101DE00080E06DE10E94460D882389F310927F0305
:101DF00010927E0388E060E070E00E94380D8CE075
:101E000060E070E00E94380D8AE06FEF7BE00E9496
:101E1000380D84E060E07CE00E94380D86E06FEFD2
:101E200071E10E94380D80E00E94830D88E26FE32B
:101E300070E30E94380D80E369EF77EF0E94380D60
:101E400080EC6DE00E942A0D81EC60E00E942A0D7A
:101E500080E862EC42E30E94ED0C86EC62E17CE0FB
:101E60000E94380D84EC62E10E942A0D8AEC6AEE31
:101E700075E00E94380D84EE68810E942A0D85EE7F
:101E800069810E942A0D82EE6A810E942A0D83EEEA
:101E90006B810E942A0D80EE6C810E942A0D81EEDA
:101EA0006D810E942A0D84ED60E10E942A0D86ED6D
:101EB00060E071E00E94380D8AEE0E94680D80FD9E
:101EC000FBCF8FE10E94090D80E86BE140EC0E949E
:101ED000ED0C80E86FE144E00E94ED0C82E70E9487
:101EE000680D863008F08F5FDF91CF911F910F91C1
:101EF000FF90EF900895EF92FF920F931F93CF936F
:101F0000DF93FC01EB018A0179011092C203009773
:101F100029F086EA93E0BF010E94DB4F209719F079
:101F2000CE010E94DA430115110529F08AEB93E0F6
:101F3000B8010E94DB4FE114F10429F08AEA93E032
:101F4000B7010E94DB4F0E94F0421092C50310922D
:101F5000C40381E0DF91CF911F910F91FF90EF902B
:101F60000895AF92BF92CF92DF92FF920F931F938B
:101F7000CF93DF938C01EB01F42E1092C20338E370
:101F800041E050E060E070E018C0832F90E0FC0179
:101F9000B3E0F595E795BA95E1F7E058FC4F877007
:101FA00090705A016B0104C0AA0CBB1CCC1CDD1C38
:101FB0008A95D2F720812A292083315031F780EA8F
:101FC00093E0BE010E94D34FC80160EA73E04F2D39
:101FD0000E94B60EDF91CF911F910F91FF90DF907D
:101FE000CF90BF90AF900895CF92DF92EF92FF9283
:101FF0000F931F93DF93CF93CDB7DEB7EB84FC84B1
:10200000CD84DE84DE011F9601C0D801F6018491E3
:10201000882309F4BCC00894C11CD11C843209F087
:1020200099C0F6010894C11CD11C8491863409F42E
:102030005FC0873434F4843469F0853409F08AC091
:102040006EC08C34C9F1833509F445C0883409F079
:1020500081C00DC08D010E5F1F4FF7016681778132
:102060008D919C914AE050E00E940D077EC02C911A
:10207000822F992787FD909514E0959587951A955D
:10208000E1F78F702F702A300CF0295F8A300CF046
:10209000895F8D010E5F1F4FF701A681B781805DBB
:1020A000FD018193205D11962C933196D7011796EF
:1020B000FC93EE931697A9CF8D010C5F1F4F6D9186
:1020C0007D918D919C91F701468157812AE030E006
:1020D0000E944B074AC08D010E5F1F4F6D917C918E
:1020E000D70116968D919C9117970E94B1063DC01D
:1020F0008D010E5F1F4F2D913C910AC0D70116969E
:10210000ED91FC91179781931796FC93EE93169798
:10211000F9012F5F3F4F8491882381F776CF8D019E
:102120000E5F1F4F2D913C910AC0D7011696ED917D
:10213000FC91179781931796FC93EE931697F99954
:10214000FECF32BD21BDF89A80B52F5F3F4F882367
:1021500061F75BCFF70126813781F90181939F01F8
:10216000F701378326838D0150CFD70116968D91C5
:102170009C911797FC0101900020E9F73197E81B2B
:10218000F90B8E0F9F1FF701978386833ECFCF9168
:10219000DF911F910F91FF90EF90DF90CF90089506
:1021A0000F931F938C01FC01848560E00E940B5209
:1021B00081E090E00E943C51F801848561E00E943A
:1021C0000B5281E090E00E943C51F801848560E070
:1021D0000E940B5284E690E00E943C511F910F91A7
:1021E0000895CF92DF92EF92FF920F931F936C01AD
:1021F000062F85EBE82E8EE0F82EC701F6016481EC
:102200000E94ED5510E0F601808590E0082B192B17
:10221000C701602F0E947956C7010E94BC561F91CA
:102220000F91FF90EF90DF90CF900895FF920F9362
:102230001F938C01F62E64600E94F11081E090E003
:102240000E943C518BEFF822C8016F2D0E94F110C3
:1022500082E390E00E943C511F910F91FF900895FE
:10226000FC0188E08087CF0160E00E94F1100895B2
:10227000FC01108660E00E94F1100895CF92DF9279
:10228000EF92FF920F931F93CF93DF937C01D62E93
:10229000FC018185813039F4C7010E94F110C7012A
:1022A0006D2D0E941611F70181858823F9F48701AD
:1022B000C0E0D0E0CD2CDD24F801858561E00E94EE
:1022C0008E51B6010C2E02C0759567950A94E2F7FF
:1022D0006170F80185850E940B5221960F5F1F4F98
:1022E000C430D10549F7C7010E94D010DF91CF91CA
:1022F0001F910F91FF90EF90DF90CF9008950F9373
:102300001F93CF93DF93EC01062F142F8985813023
:1023100061F4607F642BCE010E943E11602F6295B4
:10232000607F612BCE010E943E1189858823C1F414
:102330008A85612F0E940B528B858F3F19F060E0D8
:102340000E940B52602F70E094E0759567959A9506
:10235000E1F7CE010E943E11CE01602F0E943E1196
:10236000DF91CF911F910F91089541E00E947F115D
:1023700081E090E0089540E00E947F110895EF927F
:10238000FF920F931F93CF93DF938C017A016770B5
:10239000660F660F660F60640E94BB11C0E0D0E05C
:1023A000D801ED91FC91D701AC0FBD1F0190F081D8
:1023B000E02DC8016C9109952196C830D10581F7AF
:1023C000DF91CF911F910F91FF90EF900895FC0145
:1023D00066896E7F668B68600E94BB110895FC0160
:1023E0006689862F8460868B6C60CF010E94BB114A
:1023F0000895DF93CF93CDB7DEB728970FB6F89443
:10240000DEBF0FBECDBF9C01FE013196A2E0B3E05E
:1024100088E00D9001928150E1F7F90181858130CA
:1024200021F48681841748F406C0882331F4F90129
:10243000818D481710F0482F4150E42FF0E0EE0F47
:10244000FF1FEC0FFD1F8181680F6068C9010E94AA
:10245000BB1128960FB6F894DEBF0FBECDBFCF914B
:10246000DF91089562E00E94BB1180ED97E00E9429
:102470003C51089561E00E94BB1180ED97E00E94FD
:102480003C510895CF93DF93EC018985813009F0A9
:1024900044C088E08D8B62E370E080E090E00E94B1
:1024A000E350CE0168850E94F11068EE73E080E091
:1024B00090E00E94E350CE0160E30E943E1184E967
:1024C00091E10E943C51CE0160E30E943E1184E9FB
:1024D00091E10E943C51CE0160E30E943E1186E9E9
:1024E00090E00E943C51CE0160E20E943E116D8955
:1024F0006062CE010E94BB1184E08E8BCE010E94EF
:10250000EF11CE010E943A1282E08F8BCE0166E07D
:102510000E94BB11CE010E9432128985882309F0E6
:1025200061C08D8988608D8B82E0898F1A8E80E5ED
:1025300093EC0E943C518A8560E00E940B528C858E
:1025400060E00E940B528B858F3F19F060E00E9483
:102550000B526D8964FD1DC0CE0163E00E943E11E7
:1025600084E991E10E943C51CE0163E00E943E115A
:1025700084E991E10E943C51CE0163E00E943E114A
:1025800086E990E00E943C51CE0162E00E943E113B
:1025900016C06062CE010E94BB1184E991E10E94E5
:1025A0003C516D896062CE010E94BB1186E990E0CA
:1025B0000E943C516D896062CE010E94BB116D8901
:1025C0006062CE010E94BB1184E08E8BCE010E941E
:1025D000EF11CE010E943A1282E08F8BCE0166E0AD
:1025E0000E94BB11DF91CF9108956F927F928F92DD
:1025F000AF92CF92EF920F93DF93CF93CDB7DEB729
:102600003C01FC01428723870487E586C686A786AE
:10261000808A8C85818B8D85828B8E85838B8F853F
:10262000848B85EB9EE00E94D156F301118685EBE9
:102630009EE067E270E00E94F75585EB9EE060E067
:102640000E94795685EB9EE00E94BC56882319F4BF
:1026500081E0F3018187F3018185813049F487E2CC
:10266000848380E1858382E08683178288E0808787
:10267000F3018185882381F4828561E00E948E5177
:10268000F30183858F3F19F061E00E948E51F301C1
:10269000848561E00E948E5188E0F301858BCF91A3
:1026A000DF910F91EF90CF90AF908F907F906F90D0
:1026B0000895FC01A681B7816D93B783A68381E05D
:1026C00090E008951F920F920FB60F920BB60F92E3
:1026D00011242F933F934F935F936F937F938F9327
:1026E0009F93AF93BF93EF93FF938091E5098F5F23
:1026F0008093E5098091E509803128F0E091E309B4
:10270000F091E4090995FF91EF91BF91AF919F91ED
:102710008F917F916F915F914F913F912F910F908A
:102720000BBE0F900FBE0F901F90189589E18093FC
:10273000A3091092A6091092BA091092C109109229
:10274000C3091092DE091092DD098EE093E09093A8
:10275000DC098093DB0908950E949D29AB01BC012F
:102760009091090A20E014C0A22FB0E0FD01EC58BE
:10277000F34F8081882359F0AA0FBB1FAA0FBB1FFC
:10278000AC54B44F4D935D936D937C9313972F5F2F
:10279000291750F30895EF92FF920F931F938091A2
:1027A000A601882309F44FC08091000A82958F709A
:1027B00009F049C08091FF0983FD45C080913D0A21
:1027C00090913E0AA0913F0AB091400A0097A1055E
:1027D000B10599F00E949D2920913D0A30913E0A51
:1027E00040913F0A5091400A2D573E4A4E4F5F4F4D
:1027F000261737074807590730F50E949D2960932F
:102800003D0A70933E0A80933F0A9093400A80915C
:10281000E609882329F48CE890E061E00E947421A5
:102820000E9428307B018C0161157105810591059D
:1028300051F00E94EA4B8091FF0984FF04C0C80157
:10284000B7010E94A10C1F910F91FF90EF90089586
:10285000AF92BF92CF92DF92EF92FF920F931F93AE
:102860008091FF0983FDAEC08091000A82958F7030
:1028700091E0E92EF12C02C0EE0CFF1C8A95E2F7E4
:102880000027F7FC0095102F0E94174C5B016C018C
:10289000C801B7012BE330E040E050E00E94FA6E3F
:1028A0002091490A30914A0A40914B0A50914C0AB2
:1028B000260F371F481F591F2A153B054C055D057C
:1028C00008F080C00E94174C6093490A70934A0A2E
:1028D00080934B0A90934C0A8091E609882359F41F
:1028E0008FEC9AE06FE041E00E94F9118FEC9AE0E2
:1028F00064E00E94B51182EB93E00E94E3450E94E0
:10290000D5507B018C010E94D30D0E94304682EB92
:1029100093E00E94A548882361F40E94D5506E1967
:102920007F09800B910B683C71058105910558F377
:1029300035C08091000A8F7002C08F7080668093CE
:10294000000A8091000A82958F7090E08630910590
:1029500034F08091FF0980648093FF0933C00397AE
:102960009CF40E94174C20914D0A30914E0A4091E0
:102970004F0A5091500A2F563E4A4E4F5F4F26172E
:10298000370748075907F0F40E94B32B8823D1F08A
:102990008091000A8F708093000A14C08091000A11
:1029A000282F22952F702F5F2F70922F9295907F56
:1029B0008F70892B8093000A30E0273031050CF0AE
:1029C000BCCFBFCF1F910F91FF90EF90DF90CF90C2
:1029D000BF90AF900895EF92FF920F931F938C01D9
:1029E00082EA99E060E071E040E00E94086424EC33
:1029F000E22E2AE0F22EC701B8010E94B10606E5D8
:102A00001AE0C8016BE871E00E94B106C801B70185
:102A10000E949B06C8016EEA70E00E946C061F913E
:102A20000F91FF90EF900895CF93DF93EC01809189
:102A30007202882361F18091FF0985FF28C0CE01D1
:102A400062E071E043E050E00E94B806009771F444
:102A500082EA99E06BE871E040E00E940864882314
:102A6000B1F081EC99E00E94BA5C11C0CE010E94E5
:102A7000EB1482EA99E066E57AE00E940464882318
:102A800031F082EA99E066E57AE00E94E163DF9145
:102A9000CF9108958F929F92AF92BF92CF92DF9283
:102AA000EF92FF920F931F93DF93CF93CDB7DEB7D3
:102AB0006E970FB6F894DEBF0FBECDBFE82E4A0169
:102AC0005B0180917202882309F416C1CB01BA011F
:102AD00020E831E541E050E00E944C6FCA01B901A5
:102AE00046E55AE02AE030E00E944B0786E59AE08E
:102AF0000E94EB148091FF0985FFFEC082EA99E0F5
:102B000060E071E040E00E94086482EA99E06BE8CE
:102B100071E040E00E940864882351F482EA99E061
:102B20006BE871E041E00E94E563882309F4E4C0AA
:102B30001D821F821C821B8283E593E09A83898316
:102B40008E010B5F1F4F46E5C42E4AE0D42EC8010C
:102B5000B60142E40E945262F82E4F89588D698D69
:102B60007A8DC8010E94D957FF2009F4C5C0C6015B
:102B70006CEA70E00E947706EE20D1F5F601019034
:102B80000020E9F73197EC19FD09EC0DFD1D80914E
:102B9000A50C90E0BF014AE050E00E940D07C6017D
:102BA0006AEA70E00E946C06F60101900020E9F7E5
:102BB0003197EC19FD09EC0DFD1D8091A40C90E0FE
:102BC000BF014AE050E00E940D07C60168EA70E0CC
:102BD0000E946C06F60101900020E9F73197EC198C
:102BE000FD09EC0DFD1D8091A60C9091A70C5AC01B
:102BF000C60164EA70E00E946C06EE2DF0E0EE0F74
:102C0000FF1FEE56FE4F60817181C6010E949B0638
:102C1000C60161EA70E00E946C0622E0E216B9F09B
:102C200033E0E31699F141E0E41609F040C0F60103
:102C300001900020E9F73197E655FA408091340A77
:102C40009091350AA091360AB091370A0FC0F6016B
:102C500001900020E9F73197E655FA408091380A53
:102C60009091390AA0913A0AB0913B0AA5019401CA
:102C7000281B390B4A0B5B0BCA01B901EA5AF54F05
:102C8000AF012AE030E00E944B0711C0F60101902D
:102C90000020E9F73197E655FA40EA5AF54F80915E
:102CA000550A90E0BF014AE050E00E940D0706E59A
:102CB0001AE0C8016FE970E00E946C06F80101900B
:102CC0000020E9F73197E01BF10BE00FF11FC50180
:102CD000B401AF012AE030E00E944B07C8016BE964
:102CE00070E00E946C06CE010196B8010E94A964B2
:102CF000CE0105960E94415A6E960FB6F894DEBF3B
:102D00000FBECDBFCF91DF911F910F91FF90EF903C
:102D1000DF90CF90BF90AF909F908F900895CF920B
:102D2000DF92EF92FF921F936B017C018091E70984
:102D30009091E809A091E909B091EA098C579C4F5C
:102D4000AF4FBF4F8C159D05AE05BF0578F5C092FE
:102D5000E709D092E809E092E909F092EA092091A6
:102D6000550A30E040E050E01091EB09612F70E02F
:102D700080E090E00E94FA6E20912402620F711DA3
:102D8000811D911D1F5F1093EB09212F30E040E062
:102D900050E00E944C6F2093550A103639F483E0BE
:102DA000B701A6010E944A151092EB091F91FF90EE
:102DB000EF90DF90CF9008950E94D51F0E94E228E7
:102DC0000E94A62C08952F923F924F925F926F928D
:102DD0007F928F929F92AF92BF92CF92DF92EF92AB
:102DE000FF920F931F93DF93CF93CDB7DEB72C974E
:102DF0000FB6F894DEBF0FBECDBF7B018C014B0137
:102E00005C010894811C911CA11CB11C80910002E2
:102E10000E949A4D6C012091AC0C3091AD0C409108
:102E2000AE0C5091AF0CE216F3060407150718F02C
:102E30008501740109C07C010027F7FC0095102F63
:102E4000E20EF31E041F151F4090090A8091010A2B
:102E5000282F30E03A8329838091020A282E3324D8
:102E60006091FF096695669566956170552481E0CD
:102E7000682E712CC601AA2797FDA095BA2F8B83C7
:102E80009C83AD83BE8380C0E52DF0E0A981BA812B
:102E9000A615B70509F474C02614370409F470C0E8
:102EA000CF01880F991F880F991FA4EBCA2EABE0A2
:102EB000DA2EC80ED91ED6012D913D914D915C910F
:102EC000211531054105510509F45AC0DC01AC500A
:102ED000B54FB887AF838D919D910D90BC91A02D7A
:102EE0000097A105B10509F04BC0DF0173E0B6956D
:102EF000A7957A95E1F7752D7770FD01E65FF54F9F
:102F0000808190E0072E02C0959587950A94E2F79C
:102F100080FD36C0A25DB54F8C9190E002C09595C2
:102F200087957A95E2F780FF1AC0EF81F885E082F5
:102F3000F18202831383DA01C9018E0D9F1DA01F48
:102F4000B11FF60180839183A283B383EB80FC8061
:102F50000D811E81E80EF91E0A1F1B1F10C0AF81D4
:102F6000B8858D929D92AD92BC921397280D391D14
:102F70004A1D5B1DF601208331834283538361E048
:102F800053940894611C711C541408F47DCF617033
:102F9000660F660F660F8091FF09877F862B8093EF
:102FA000FF092C960FB6F894DEBF0FBECDBFCF91B0
:102FB000DF911F910F91FF90EF90DF90CF90BF9026
:102FC000AF909F908F907F906F905F904F903F90C9
:102FD0002F900895AF92BF92CF92DF92EF92FF921F
:102FE0000F931F93DF93CF93CDB7DEB7C754D04075
:102FF0000FB6F894DEBF0FBECDBFE82E0E94DC16E0
:103000008E2D81508E3F28F4BE016F5F7F4F0E944E
:103010009E2EDD24FF244EEFC42E3CE0A32EB12CC7
:10302000AC0EBD1E41C00F2D10E08FEFE81629F445
:1030300042E050E060E070E012C0EE2009F440C0D1
:10304000F501E00FF11F80810E942A4D0E94574D2B
:10305000AB01BC01411551056105710521F1F80174
:1030600023E0F695E7952A95E1F7EE5DF54F80812F
:1030700090E02F2D277002C0959587952A95E2F74D
:1030800080FD11C0F801EE0FFF1FEE0FFF1FEC5483
:10309000F44F40835183628373830C58134FF801BC
:1030A000C082DD24D394F3948091090AF81608F4C1
:1030B000BACFDD2051F00E949D290E94E31605C081
:1030C0004CE350E060E070E0CACFC95BDF4F0FB661
:1030D000F894DEBF0FBECDBFCF91DF911F910F914E
:1030E000FF90EF90DF90CF90BF90AF900895DF9268
:1030F000EF92FF920F931F93CF93DF93D82E7A0115
:103100008B01C82FD0E060E00E94B11FFE01EE0FDE
:10311000FF1FEE0FFF1FEC50F54F208131814281E0
:103120005381211531054105510509F45EC02E1565
:103130003F054007510708F042C0BE016F5F7F4F57
:103140008091010A90E08617970711F18091020A99
:1031500090E086179707E1F0D092A40CFE01EC589E
:10316000F34F80818093A50CC701821B930B909332
:10317000A70C8093A60CE092A80CF092A90C0093E7
:10318000AA0C1093AB0C80E0B801A7010E944A156D
:10319000FE0163E0F695E7956A95E1F7E85DF54F86
:1031A000808190E02D2D277002C0959587952A95F6
:1031B000E2F780FF04C08D2D60E00E947A28FE01B6
:1031C000EE0FFF1FEE0FFF1FDF01AC50B54F1D923A
:1031D0001D921D921C921397EC54F44F1082118291
:1031E00012821382CC58D34F1882DF91CF911F9156
:1031F0000F91FF90EF90DF9008954F925F926F9242
:103200007F928F929F92AF92BF92CF92DF92EF9276
:10321000FF920F931F93CF93DF935B016C0190910B
:10322000FF0944244394492291FD0CC08091180267
:10323000882311F4FF2408C0F92EF694F69481E057
:10324000F82211F0FF24F394EE2469C08E2D90E053
:10325000FC01EA5EF54F3081FC01E65FF54F20810D
:103260005E2C550C550C550C00E010E0622E7724B6
:10327000832E9924452D400FC42FD0E09E012F5F4F
:103280003F4F8091010A90E08217930709F440C0F4
:103290008091020A90E082179307D1F1FE01EC5869
:1032A000F34FE081E336A0F5442059F0FF2081F18F
:1032B000C401002E02C0959587950A94E2F780FD1F
:1032C00027C0C301002E02C0959587950A94E2F7A6
:1032D00080FF06C0842FB601A5010E94771818C090
:1032E000EE23B1F0FE01EE0FFF1FEE0FFF1FDF0117
:1032F000AC50B54F1D921D921D921C921397EC5429
:10330000F44F1082118212821382CC58D34F18824C
:103310000F5F1F4F0830110509F0ACCFE394809187
:10332000080AE81608F492CFDF91CF911F910F9110
:10333000FF90EF90DF90CF90BF90AF909F908F90D5
:103340007F906F905F904F9008958091000A8295D2
:103350008F7009F04CC08091FF0983FD48C00E9426
:103360009D292091450A3091460A4091470A509183
:10337000480A2115310541055105B9F02F553E4A3E
:103380004E4F5F4F261737074807590770F41092C2
:10339000450A1092460A1092470A1092480A8091F4
:1033A000FF0980648093FF0908952091410A3091BC
:1033B000420A4091430A5091440A211531054105C2
:1033C000510549F0275F384F4F4F5F4F261737079A
:1033D0004807590760F40E949D296093410A709341
:1033E000420A8093430A9093440A0E94734E0895C0
:1033F00084B7877F84BF0E941C2A0E9459260E949E
:103400007C2C6CE370E080E090E00E94E14B8091C6
:10341000FF0984FD03C080E090E002C081EC9CE0E5
:103420000E948A4C64EF71E080E090E00E94E350DB
:103430000E949D290E94D729809160008861809315
:10344000600081E2809360008091600080648093DE
:1034500060000E94B32B882321F08091000A8F70B6
:1034600004C08091000A8F7080618093000A64EF2D
:1034700071E080E090E00E94E3500E94E2288FE03B
:1034800080933C0A0895FF920F931F93DF93CF938D
:10349000CDB7DEB7C754D0400FB6F894DEBF0FBE2D
:1034A000CDBF80913C0A882321F40E94ED1F109229
:1034B000E60982E00E946820F82E082F10E086FFBF
:1034C0000FC18FE080933C0A81E00E94ED1F809144
:1034D000E609833020F4813008F0BEC004C0833098
:1034E00009F0FEC0ADC0C8018F70907082309105A8
:1034F00009F449C08430910509F483C0019709F0AB
:10350000EFC0F7FE1FC08DE10E943E52892B21F4CF
:103510008FEF0E94EA17E4C08EE10E943E52892B91
:1035200071F482EB93E060E00E9493238FEC9AE0C9
:1035300060E041E00E94F91180E191E01EC00E942C
:10354000AC13CEC086EA93E060E00E9493238FEC38
:103550009AE060E041E00E94F9118EE091E00E9463
:1035600022216091890170918A018FEC9AE04AE0F2
:1035700050E00E94865586E091E00E94222181E081
:103580008093E609ADC0F7FE32C08FE10E943E5243
:10359000892B71F481E59AE061E00E9493238FEC1E
:1035A0009AE060E041E00E94F91180E091E0E5CF0F
:1035B0008DE10E943E52892BB9F48FEC9AE00E9473
:1035C0003A126091450A7091460A8091470A90919B
:1035D000480A0E94D7298FEC9AE060E041E00E94FF
:1035E000F91189EF90E0C9CF0E94891F79C08FEC53
:1035F0009AE00E943A1280EA93E00E94322182E02F
:10360000BFCFF7FE0CC08AEE90E060E00E9474210C
:1036100089ED90E061E00E94742183E0B1CF2091B8
:10362000000A822F8F7090E06091080A019670E086
:103630000E94396F8F70207F282B2093000A50C082
:103640000F7010700430110509F04AC0F7FE07C072
:103650008091F6090E94EA171092E60941C0809114
:10366000F60990E06091F30A70E06F5F7F4F01967A
:103670000E94396F8093F60988EC90E060E00E9428
:1036800074218091F609882331F18150BE016F5F6A
:103690007F4F0E949E2E86EC90E061E00E94742194
:1036A0008FEC9AE060E041E00E94F9116091F60928
:1036B0008FEC9AE070E04AE050E00E94D75583EC2E
:1036C00090E00E9422218FEC9AE0BE01645C7F4F63
:1036D0000E94EA5505C083EB90E061E00E947421EE
:1036E000C95BDF4F0FB6F894DEBF0FBECDBFCF91E1
:1036F000DF911F910F91FF9008952F923F924F926B
:103700005F926F927F928F929F92AF92BF92CF9271
:10371000DF92EF92FF920F931F93DF93CF93CDB77A
:10372000DEB7C854D0400FB6F894DEBF0FBECDBF91
:10373000809106028093010A809178028093020AA8
:103740000E949D294B015C010E94D30D0E943046CE
:103750009093ED098093EC09009721F08A539C4FD8
:103760000E94273AA8951092E5090E94431A809179
:10377000F2099091F309A091F409B091F509881527
:103780009905AA05BB0509F495C38092F2099092A8
:10379000F309A092F409B092F50980913C0A8823BC
:1037A00019F0815080933C0A8091E609882321F426
:1037B0000E949D290E94D7298091FF0981FF10C096
:1037C0008091FB099091FC09A091FD09B091FE093F
:1037D00088169906AA06BB0690F00E94DF240FC047
:1037E0008091FB099091FC09A091FD09B091FE091F
:1037F00088169906AA06BB0610F40E94EF240E94C0
:10380000B1209091FF09969591708091030A869559
:1038100081708917C9F0992349F08092380A9092F3
:10382000390AA0923A0AB0923B0A05C082E0B5017B
:10383000A4010E944A159091FF0992708091030A99
:103840008D7F892B8093030A9091FF099695969519
:1038500091708091030A8695869581708917C9F0C9
:10386000992349F08092340A9092350AA092360A40
:10387000B092370A05C081E0B501A4010E944A1543
:103880009091FF0994708091030A8B7F892B80931C
:10389000030AC501B4012CE330E040E050E00E948F
:1038A0004C6F79018A018091EE099091EF09A09106
:1038B000F009B091F109E816F9060A071B0709F4A7
:1038C000C5C0E092EE09F092EF090093F009109361
:1038D000F109552444241E010894211C311CABC05D
:1038E000852DB1010E949E2EC101B501A4010E9447
:1038F000AE2D882309F49EC000E0852D8F5F2996A8
:103900008FAF299792C0602E772493012F5F3F4F8E
:103910008091010A90E08217930709F485C0809195
:10392000020A90E08217930709F47EC0D30113E0E6
:10393000B695A7951A95E1F7202F2770FD01E65F50
:10394000F54F808190E0022E02C0959587950A94EC
:10395000E2F780FD69C0AE5DB54F8C9190E002C08A
:10396000959587952A95E2F780FD5EC0ECE0F0E042
:10397000EC0FFD1FE60DF71D2081222309F454C032
:10398000F301EE0FFF1FEE0FFF1FEC54F44F808189
:103990009181A281B3810097A105B10509F044C0CE
:1039A000822F0E942A4D0E94574D6B017C01898114
:1039B00081FF1FC010912402212F30E040E050E031
:1039C000C701B6010E94FA6E24E630E040E050E004
:1039D0000E944C6FC901DA016C017D01143148F479
:1039E0009AE0C916D104E104F10418F4CC24DD24D2
:1039F0007601F301EE0FFF1FEE0FFF1FEC54F44FA3
:103A0000C082D182E282F382C114D104E104F104C4
:103A100059F0E4E7FCE06E0E7F1E29968FAD2997E2
:103A2000F3018083442443940F5F8091090A0817AF
:103A300008F469CF53948091F30A581608F450CFD4
:103A4000442021F0C501B4010E94E3168091FF09D2
:103A500083FFF7C0772486C0872D90E0FC01E65FE6
:103A6000F54F2081672C660C660C660CEE24FF2453
:103A7000222E332468E2462E6AE0562E480E591E46
:103A8000D62CDE0C0D2D10E098012F5F3F4F80915A
:103A9000010A90E08217930709F45BC08091020A43
:103AA00090E08217930709F454C0F801EC58F34FE3
:103AB00080818823A9F0F801EE0FFF1FEE0FFF1F92
:103AC000EC54F44F80819181A281B38188169906CC
:103AD000AA06BB0628F08D2DB501A4010E94771817
:103AE000C1010E2C02C0959587950A94E2F780FDDE
:103AF00030C09801220F331F220F331FF901EC5001
:103B0000F54F80819181A281B38188169906AA061A
:103B1000BB06F8F02C54344FF90180819181A281C9
:103B2000B38188169906AA06BB0698F48D2D61E02C
:103B30000E94B11FF201808190E00E2C02C0959589
:103B400087950A94E2F780FF04C08D2D61E00E9402
:103B50007A280894E11CF11CF8E0EF16F10409F052
:103B60008FCF73948091080A781608F475CFC50139
:103B7000B4010E94FD180E94E2281092AC0C109231
:103B8000AD0C1092AE0C1092AF0C7091090A60E06F
:103B900080E03FC0A62FB0E0FD01EE0FFF1FEE0F4B
:103BA000FF1FEC54F44FE080F180028113818E14EA
:103BB0009F04A006B10660F523E0B695A7952A9567
:103BC000E1F7A25DB54F8C9190E0262F277002C0DF
:103BD000959587952A95E2F780FF19C02091AC0C46
:103BE0003091AD0C4091AE0C5091AF0CD801C70193
:103BF000E216F3060407150710F4DA01C9018093F1
:103C0000AC0C9093AD0CA093AE0CB093AF0C81E0D4
:103C10006F5F671708F4BECF882399F40E94D51F01
:103C20000E94E2280E94A62C8091FF09877F809342
:103C3000FF09809106028093010A809178028093A7
:103C4000020AD090010ADD2009F470C080910C02B4
:103C500090911202C090090AFF2401E010E02D2C7F
:103C60003324482E552466247724492F50E060E001
:103C700070E04C5350406040704050C02F2D30E0F9
:103C80002016310609F447C0D90193E0B695A795EF
:103C90009A95E1F787E0E82EEF20FD01E65FF54F0A
:103CA000808190E00E2C02C0959587950A94E2F7EA
:103CB00080FF31C0A05FB54F8C9190E002C0959518
:103CC0008795EA94E2F780FF26C0220F331F220F68
:103CD000331FF901EC50F54F80819181A281B381AE
:103CE000840D951DA61DB71D88169906AA06BB064C
:103CF00090F02C54344FF90180819181A281B381DD
:103D0000840F951FA61FB71F88159905AA05BB0527
:103D100010F061E007C0F3940F5F1F4FFC1408F42C
:103D2000ADCF60E08D2D81500E94B11FD090020A6E
:103D3000DD2009F470C080917E0290918402C090D1
:103D4000090AFF2401E010E02D2C3324482E5524CD
:103D500066247724492F50E060E070E04C535040D7
:103D60006040704050C02F2D30E02016310609F41D
:103D700047C0D901E3E0B695A795EA95E1F797E04A
:103D8000E92EEF20FD01E65FF54F808190E00E2CDB
:103D900002C0959587950A94E2F780FF31C0A45E32
:103DA000B54F8C9190E002C095958795EA94E2F723
:103DB00080FF26C0220F331F220F331FF901EC5062
:103DC000F54F80819181A281B381840D951DA61D3F
:103DD000B71D88169906AA06BB0690F02C54344FDE
:103DE000F90180819181A281B381840F951FA61F63
:103DF000B71F88159905AA05BB0510F061E007C03B
:103E0000F3940F5F1F4FFC1408F4ADCF60E08D2DCD
:103E100081500E94B11FC501B4010E94FD180E948B
:103E2000E2288091E609882389F4C501B40123E0E2
:103E300030E040E050E00E944C6F9B01AC012E5EF0
:103E40003C4F81E0F90160810E94F9228091FF09D5
:103E500086FF22C083FD20C010E03E010894611C53
:103E6000711CBCE3CB2ED12CE12CF12CC80CD91C3D
:103E7000EA1CFB1C0CC0812FB3010E949E2EC301C3
:103E8000B701A6010E94AE2D882331F41F5F8091F7
:103E9000F30A181780F30BC00E94CB130E9428145A
:103EA0000E94A519C501B4010E948F1603C00E948B
:103EB000891FF2CFC85BDF4F0FB6F894DEBF0FBE8D
:103EC000CDBFCF91DF911F910F91FF90EF90DF90C9
:103ED000CF90BF90AF909F908F907F906F905F90AA
:103EE0004F903F902F9008959C01F999FECF32BDDD
:103EF00021BDF89A80B508959C01F999FECF1FBAAB
:103F000032BD21BD60BD0FB6F894FA9AF99A0FBE82
:103F10000895E091EA0AF091EB0A09950895FC01F1
:103F200024EF33E084E02431380711F440E009C085
:103F3000F999FECFC901019632BD21BDF89A40B56D
:103F40009C019081442331F0992349F0491739F4B9
:103F50003196E8CF80E0992319F481E0089580E05C
:103F60000895282F277086958695869590E066237C
:103F700069F0FC01E65FF54F81E090E002C0880F38
:103F8000991F2A95E2F72081282B0DC0FC01E65FDE
:103F9000F54F81E090E002C0880F991F2A95E2F763
:103FA0008095208128232083089510920A0A109278
:103FB0000B0A10920C0A10920D0A10920E0A10921F
:103FC0000F0A08951092D20A1092D10A8EEF92E051
:103FD0009093D00A8093CF0A08951F93182F809151
:103FE000D80A813059F4112329F08FEC9AE00E940D
:103FF000301104C08FEC9AE00E9438118091D80AE9
:10400000882391F48CE061E00E948E51112319F015
:104010008091420202C0809148026FEF70E0681BFD
:1040200071098CE00E940F501F9108958091D80A69
:10403000882351F48DE061E00E948E5160913C0232
:104040008DE070E00E940F500895EF92FF920F9361
:104050001F93CF93DF93E82E162F042FF22E6623A3
:1040600021F0623081F4222371F08E2D0E943E52A5
:10407000892B11F000E024C0FF2011F480E001C082
:1040800080E8082B1DC0C0E0D0E08E2D0E943E527B
:10409000892B81F4113031F0123061F483E0C83E95
:1040A000D80744F461E070E080E090E00E94E350C3
:1040B0002196EBCFFF2019F4C85ED3400CF00068C6
:1040C000802FDF91CF911F910F91FF90EF90089576
:1040D0000F931F93082F1091EC0A107861E070E0A5
:1040E00080E090E00E94E3508FE10E943E52892BD5
:1040F00021F48FE1602F41E013C08EE10E943E5217
:10410000892B21F48EE1602F42E00AC08DE10E94EC
:104110003E52892B11F040E007C08DE1602F44E052
:10412000212F0E942520482F8091EC0A90E08F706B
:104130009070242F30E0892B39F42F703070232BAE
:1041400071F0842F806406C02F703070232B39F4F7
:10415000842F80624093EC0A1F910F910895842F61
:10416000F9CF8BE00E943E5240E020911E0230E0E9
:104170008217930709F041E0440F440F8091FF0933
:104180008B7F842B8093FF0908951F93182F84360B
:1041900090F064E60E94196F682F8FEC9AE070E04F
:1041A0004AE050E00E94D7558FEC9AE060E171E060
:1041B0000E94EA5502C08A30A0F0812F6AE00E9476
:1041C000196F0E94196F692F8FEC9AE070E04AE036
:1041D00050E00E94D7558FEC9AE060E171E00E94B8
:1041E000EA55812F6AE00E94196F692F8FEC9AE0DF
:1041F00070E04AE050E00E94D7551F910895EF9279
:10420000FF920F931F938C018FECE82E8AE0F82E1B
:10421000C8016AE070E00E94396FC7014AE050E0CF
:104220000E94D755C8016AE070E00E94396FBC0156
:10423000C7014AE050E00E94D7551F910F91FF90AF
:10424000EF900895CF93DF93EC0104C08FEC9AE0D8
:104250000E94F754FE01219664916623B9F7DF911D
:10426000CF9108950F931F93CF93DF93182F092FAA
:104270008FEC9AE060E040E00E94F911212F302F8E
:10428000C901EC0110E005C087E691E00E942221FF
:104290002196688170E094E0759567959A95E1F7AD
:1042A0008FEC9AE040E150E00E94D755688170E0C1
:1042B0006F7070708FEC9AE040E150E00E94D7552B
:1042C000143031F48FEC9AE060E041E00E94F91183
:1042D0001F5F1630C9F680E691E00E942221DF912F
:1042E000CF911F910F9108950F931F93CF93DF9359
:1042F0008C01462F8FEC9AE060E00E94F911E801F2
:1043000004C08FEC9AE00E94F7549E01201B822F7C
:10431000FE01219664916623A1F7992787FD909568
:10432000C0E1D0E0C81BD90B05C084E791E00E9432
:1043300022212197D7FFF9CFDF91CF911F910F91C4
:1043400008950F931F93CF93DF938C01FC01EE0F21
:10435000FF1FE80FF91FEE0FFF1FE456FE4F80818D
:10436000918160E00E94742186E491E061E00E9406
:1043700074218FEC9AE060E041E00E94F911033172
:10438000110509F489C004311105BCF40C30110584
:1043900009F4B1C00D30110544F40115110581F186
:1043A0000130110509F0EBC038C00E30110511F1D4
:1043B0000131110509F0E3C0ACC00C31110509F45D
:1043C000B5C00D3111054CF40431110509F473C069
:1043D0000B31110509F0D3C0A4C00632110509F450
:1043E0005BC00732110509F466C00E31110509F0F2
:1043F000C6C0A9C08FEC9AE062E171E00E94EA5564
:10440000F801EE0FFF1FE00FF11FEE0FFF1FE65642
:10441000FE4F80810E94C520D0C08091A001C82F8E
:10442000D0E0E097D7FD05C084E491E00E9422210E
:1044300007C082E491E00E942221D095C195DF4F10
:10444000CE0164E070E00E94396F8FEC9AE04AE0A0
:1044500050E00E94D75580E491E00E942221CE01D5
:1044600064E070E00E94396F9C01BC0194E0660F2B
:10447000771F9A95E1F7621B730B29F48DE391E0A6
:104480000E94222106C08FEC9AE04AE050E00E9490
:10449000D75588E391E070C086E391E00E94222125
:1044A000F801EE0FFF1FE00FF11FEE0FFF1FE656A2
:1044B000FE4F60817BC0F801EE0FFF1FE00FF11F80
:1044C000EE0FFF1FE656FE4F80818C3320F084E311
:1044D00091E00E942221F801EE0FFF1FE00FF11F73
:1044E000EE0FFF1FE656FE4F608170E06C53704088
:1044F0008FEC9AE05EC07091E80160E08091E2018B
:10450000680F711D8FEC9AE04AE050E00E948655DA
:104510005AC0809100020E949A4DBC018FEC9AE033
:104520000DC00E94162060913C0205C081E00E94EF
:10453000ED1F609142028FEC9AE070E04AE050E09B
:104540000E94D75540C08091070A8C3A31F48FEC15
:104550009AE06DE20E94F75436C060914E0270E01E
:10456000660F771F660F771F8FEC9AE04AE050E0E6
:104570000E94D75580E391E00E94222124C0F801D7
:10458000EE0FFF1FE00FF11FEE0FFF1FE656FE4F6D
:1045900081816081813051F4662319F489E291E0D0
:1045A00002C08CE291E00E94222107C08FEC9AE0C9
:1045B00070E04AE050E00E94D7550731110519F428
:1045C00087E291E00FC0C8014397029748F0063296
:1045D000110531F00732110519F00131110521F4EF
:1045E00082E291E00E942221DF91CF911F910F91F1
:1045F0000895FF920F931F93482FF62E8FEC9AE0A9
:1046000060E00E94F9118091000A8F7019F48CE526
:1046100091E010C08AE591E00E9422216091000A99
:104620006F708FEC9AE070E04AE050E00E94D7553E
:1046300088E591E00E9422218091FF0980FD06C05B
:104640008CE491E061E00E9474212EC0E091000AA8
:10465000EF70F0E0E65FF54F008110E09091000A06
:104660009F70990F990F990F9F5F910F809106028C
:10467000981721F400FD0EC06DE40DC08091780202
:10468000981721F400FD06C06EE405C000FD02C0CD
:104690006FE501C06F2D8FEC9AE00E94F7541F5F09
:1046A000183011F00695DACF87E491E00E942221BC
:1046B0008FEC9AE06DE041E00E94F9118091FF09D2
:1046C00081FD06C082FF09C080911802882329F06D
:1046D0008FEC9AE063E00E94B5118FEC9AE06EE0F7
:1046E00041E00E94F9118091FF0985FF05C08FEC20
:1046F0009AE062E00E94B5118FEC9AE06FE041E031
:104700000E94F91160E08091000A82958F7090E01C
:1047100003970CF061E08FEC9AE00E94B5111F91B5
:104720000F91FF900895DF92EF92FF920F931F93E6
:10473000CF93DF937C01D62E8FEC9AE00E943A1241
:104740008FEC9AE060E040E00E94F9118701C0E040
:10475000D0E0DD2019F0F801638104C0F701EC0F0F
:10476000FD1F60818FEC9AE070E04AE050E00E940B
:10477000D755C33021F089E691E00E94222121968D
:1047800001501040C430D10521F7DF91CF911F9126
:104790000F91FF90EF90DF900895E0E9F2E0AFE72E
:1047A000BAE080818C933697119781E0E439F8075D
:1047B000C1F782EC97E066E57AE04AE250E02CE748
:1047C0003FE10E94F1068091F4018F5F8093080A17
:1047D00090E063E0880F991F6A95E1F78093090ADA
:1047E00090912A0291708091FF098E7F892B80938E
:1047F000FF0908950F931F93CF93DF93EC010AEA0B
:1048000082E00E946820482F50E09A012F7030709B
:104810002230310561F12430310509F44BC02130DB
:10482000310509F099C0209709F499C0CE30D1051F
:1048300009F495C0C832D10509F491C0CC30D10536
:1048400009F48DC0CD30D10509F489C0FE01EE0F09
:10485000FF1FEC0FFD1FEE0FFF1FE656FE4F90816E
:104860008181891709F47BC09F5F908378C020976E
:1048700009F472C0CE30D10509F46EC0C832D1053A
:1048800009F46AC0CC30D10509F466C0CD30D10539
:1048900009F462C0FE01EE0FFF1FEC0FFD1FEE0FCB
:1048A000FF1FE656FE4F9081992309F455C09150A1
:1048B000908352C086FF50C087FF0AC0809190024B
:1048C000882311F0009390020E94CD2311E048C08C
:1048D000C330D10539F48091AC01882339F1CCE0A3
:1048E000D0E02BC0CC30D10519F4CEE0D0E025C00B
:1048F000C531D10539F4809118028823B9F4C7E194
:10490000D0E01BC0C231D10539F480910602882362
:1049100069F4C5E1D0E011C0C532D10539F4809108
:104920007802882319F4C8E2D0E007C0CE010196CE
:104930006AE270E00E94396FEC01FE01EE0FFF1F8A
:10494000EC0FFD1FEE0FFF1FE656FE4F8481958191
:10495000892B29F4219603C0882309F451CF10E054
:10496000CE010E94A121112309F44ACF8FEC9AE0D5
:104970000E94E711DF91CF911F910F9108958091CF
:10498000FF098E7F8093FF0910922A020E94CD2397
:1049900008958091FF0981608093FF0981E08093F1
:1049A0002A020E94CD2308958CEE93E067EF79E010
:1049B00048E050E02CE73FE10E94F1060895809125
:1049C000FF098D7F8093FF091092FB091092FC096B
:1049D0001092FD091092FE090E94D424089580913E
:1049E000FF0982608093FF090E94D424089546E065
:1049F00050E02CE73FE10E94F1060895FB01108A88
:104A000090E024E0880F991F2A95E1F78C559B4F81
:104A100040E150E02CE73FE10E94F106089586E571
:104A20009AE062EC77E04AE250E024E73FE10E943E
:104A3000D506A6E5BAE0EAE9F1E08D9180833696E5
:104A40008AE0A038B807C9F78091F4018F5F80939E
:104A5000080A90E033E0880F991F3A95E1F78093B8
:104A6000090A90912A0291708091FF098E7F892B0B
:104A70008093FF09089587EF99E06CEE73E048E0BA
:104A800050E024E73FE10E94D5068091FF09909114
:104A9000000AA091010AB091020A8093030A909340
:104AA000040AA093050AB093060A08959C01CB015D
:104AB000B90146E050E024E73FE10E94D5060895A1
:104AC000FB01108A682F70E044E0660F771F4A955B
:104AD000E1F76C557B4FCF0140E150E024E73FE127
:104AE0000E94D5060895DF92EF92FF920F931F93D5
:104AF0009C01D62E86E59AE0B9014D2D50E024E7C1
:104B00003FE10E94D506E6E5FAE020E030E040E033
:104B100050E060E038C0908179018A0154E0EE0CE9
:104B2000FF1C001F111F5A95D1F7892F80538A301F
:104B300030F4892F992787FD9095C09719C0892F48
:104B40008154863030F4892F992787FD9095C79737
:104B50000FC0892F8156863028F020E030E040E0F9
:104B600050E013C0892F992787FD90958755904075
:104B70009C01442737FD4095542F2E0D3F1D401FAB
:104B8000511F6F5F31966D1530F2B901CA011F9147
:104B90000F91FF90EF90DF900895EF92FF920F93A7
:104BA0001F93CF93DF938B017A01C82FD0E064E08D
:104BB000CC0FDD1F6A95E1F7CC55DB4FCE0166E0E7
:104BC0000E947325611571058105910521F101157B
:104BD000110529F0F8016083718382839383CE01EC
:104BE000069666E00E9473256115710581059105A1
:104BF00091F0E114F10429F0F7016083718382835D
:104C00009383CE010C9664E00E94732561157105B3
:104C10008105910511F460E070E0CB01DF91CF9147
:104C20001F910F91FF90EF900895AF92BF92DF9286
:104C3000EF92FF920F931F93CF93DF9308E21AE056
:104C4000EE24FF2471E0A72EB12CF8011082DE2C97
:104C5000DD0CDD0CDD0CC0E0D0E08D2D8C2B60E098
:104C600070E040E050E00E94CD25892B59F095017D
:104C70000C2E02C0220F331F0A94E2F7F801808144
:104C8000822B80832196C830D10539F70894E11C26
:104C9000F11C0F5F1F4FF6E0EF16F104B1F6DF9144
:104CA000CF911F910F91FF90EF90DF90BF90AF9049
:104CB0000895EF92FF920F931F93CF93DF9364EFCA
:104CC00071E080E090E00E94E350F999FECF82EC21
:104CD00097E092BD81BDF89A80B5873D59F4F99966
:104CE000FECF8BEE97E092BD81BDF89A80B58A3AEF
:104CF00009F0B8C086ED91E060E00E94742187EC75
:104D000091E061E00E947421E6E5FAE011928AE008
:104D1000EE3CF807D9F7C0E0D0E000E018E0A801C9
:104D20004C1B5D0B4937510514F048E750E0CE01AC
:104D300066E57AE02CE73FE10E94F106C858DF4FB4
:104D400088E0C037D80759F70E94D42484EF93E055
:104D500064E171E049E050E02CE73FE10E94F10698
:104D600084E194E06DE171E04AE050E02CE73FE13E
:104D70000E94F10684E494E067E271E040E250E0D2
:104D80002CE73FE10E94F10684E894E067E471E0DB
:104D900041E050E02CE73FE10E94F10683E580937B
:104DA000560A1092590A04EA14E0C1E0D0E0E6E5A0
:104DB000EE2EEAE0FE2ECE016AE070E00E94396F2E
:104DC000605D6093570ACE016AE070E00E94396F1F
:104DD000805D8093580AF70101900020E9F7E655BD
:104DE000FA40C80166E57AE0AF012CE73FE10E9496
:104DF000F106005F1F4F219687E0043A1807D9F6A5
:104E00008FEF8093560A8093570A8093580A8093B5
:104E1000590A80935A0A80935B0A84EA97E066E510
:104E20007AE046E050E02CE73FE10E94F1068CEB8F
:104E300097E066E57AE046E050E02CE73FE10E942B
:104E4000F1060E94CD2387E191E00E94AF4D64EF0F
:104E500071E080E090E00E94E350E091EA0AF09176
:104E6000EB0A09950E940F2584EA97E060E17AE059
:104E70000E9456258AEA97E066E17AE00E9456256C
:104E800080EB97E06CE17AE00E94562586EB97E094
:104E900062E27AE00E9456258CEB97E06EE27AE0BF
:104EA0000E9456250E9415260E943B2580E00E9404
:104EB0006820182F90E08F7090708130910519F064
:104EC000049781F503C089E290E021C087EB91E06F
:104ED00060E00E94742160ED77E080E090E00E9445
:104EE000E35086EA91E060E00E94742186E991E057
:104EF00061E00E94742180E00E946820182F86FFE4
:104F0000FACF8FEC9AE00E943A1280E090E00E9483
:104F1000FA2380919002882329F0E091EA0AF09127
:104F2000EB0A099581E00E94ED1F0E9416201123D3
:104F300009F040C087E891E060E00E9474218FECA6
:104F40009AE062E041E00E94F91182E891E00E945B
:104F500022211091EE01812F6AE00E94196F682FC3
:104F6000605D8FEC9AE00E94F7548FEC9AE06EE25D
:104F70000E94F754812F6AE00E94196F692F605DCB
:104F80008FEC9AE00E94F7548091070A8A3129F049
:104F90008C3D31F48EE791E005C08AE791E002C0D4
:104FA00086E791E00E94222168EE73E080E090E0C5
:104FB0000E94E350DF91CF911F910F91FF90EF90EE
:104FC0000895EF92FF920F931F93DC01CB017901BB
:104FD0008A01139A0E943C511398C7010E943C51C8
:104FE0001F910F91FF90EF9008952F923F924F9253
:104FF0005F926F927F928F929F92AF92BF92CF9269
:10500000DF92EF92FF920F931F93DF93CF9300D025
:105010000F92CDB7DEB74B015C0179018A01DA014D
:10502000C901880F991FAA1FBB1F8E0D9F1DA01FAE
:10503000B11F582E692E7A2ECB2ED801C701F5E06C
:10504000880F991FAA1FBB1FFA95D1F78E199F09C8
:10505000A00BB10B8983292E3A2E4B2EDD242FC0B5
:10506000D501C4010A8004C0B695A7959795879588
:105070000A94D2F780FF07C0652D762D872D9C2DD1
:10508000A801970106C0C801B701252D362D472D6F
:105090005C2D0E94E1278A819B8101979B838A83F3
:1050A0008F5F9F4FE9F6C801B7012981322D432D4B
:1050B000542D0E94E127D394F8E1DF1629F087E10F
:1050C00090E09B838A83CCCF0F900F900F90CF916D
:1050D000DF911F910F91FF90EF90DF90CF90BF90E5
:1050E000AF909F908F907F906F905F904F903F9088
:1050F0002F9008951F93DF93CF93CDB7DEB72897F6
:105100000FB6F894DEBF0FBECDBF162FBE016F5F86
:105110007F4FAE014B5F5F4F0E94CD25AC01112345
:1051200029F069817A818B819C8104C06D817E81A7
:105130008F8198859A01369527955695479556956E
:105140004795240F351F40E050E00E94F527289630
:105150000FB6F894DEBF0FBECDBFCF91DF911F9188
:10516000089584E00E94ED4F9C0183E02E3B3807B8
:1051700018F020E030E024C083E02734380718F02E
:1051800021E030E01DC082E02B3E380718F022E01D
:1051900030E016C082E0223A380718F023E030E011
:1051A0000FC082E02536380718F024E030E008C050
:1051B0002353324018F025E030E002C02FEF3FEFDC
:1051C000C9010895BF92CF92DF92EF92FF920F93A1
:1051D0001F93CF93DF9383E060E00E940B5202EFB6
:1051E0001AE0AFE0EA2EAAE0FA2EBB248091FF0974
:1051F00080FD02C020E002C0F7012081C22EDD2424
:10520000F801808190E0809590958C219D21892BDB
:1052100011F0BB24B394F8012083C7E0D0E086E10D
:1052200060E00E940B52B6010C2E02C07595679586
:105230000A94E2F7617085E10E940B5286E161E019
:105240000E940B522197FFEFCF3FDF0741F701503C
:1052500010400894E108F1088AE00C3E180731F686
:105260008091070A8C3D09F5BB20F9F084E161E0EB
:105270000E940B526AEF70E080E090E00E94E350E1
:1052800084E160E00E940B5287E161E00E940B52D2
:1052900083E061E00E940B5264EF71E080E090E0F7
:1052A0000E94E35087E160E002C083E061E00E9479
:1052B0000B52DF91CF911F910F91FF90EF90DF90F4
:1052C000CF90BF9008958F92AF92CF92EF920F93AD
:1052D00000D000D0EDB7FEB73196ADB7BEB711968E
:1052E0001C921182128213828FEC9AE061E043E1FA
:1052F0002FEF02E174E1E72E55E1C52E36E1A32E32
:10530000B7E18B2E0E94F5120F900F900F900F9027
:105310008FEC9AE00E9442128091D80A882339F4D7
:1053200081E0809381000E94ED1F0E9416200F9162
:10533000EF90CF90AF908F900895EF92FF920F93E0
:105340001F930E94174C7B018C016091A00170E0BB
:1053500080E090E024E833E040E050E00E94FA6E04
:105360009B01AC01205C384A404050402E0D3F1D4F
:10537000401F511FB901CA011F910F91FF90EF907B
:1053800008950E949D2920E831E541E050E00E9407
:105390004C6F2D5F3F4F4F4F5F4FCA01B90127E060
:1053A00030E040E050E00E944C6F862F0895EF926D
:1053B000FF920F931F937B018C018FEC9AE060E0CA
:1053C00040E00E94F911C801B7010E94044B0E94FD
:1053D000FF2082E791E00E942221C801B7010E94CC
:1053E000FE4A0E94FF208FE691E00E9422210E9447
:1053F000C129E82FF0E0EE0FFF1FEA56FD4F808134
:1054000091810E9422218DE691E00E942221C80113
:10541000B7010E94EC4A0E94FF208BE691E00E94B7
:105420002221C801B7010E94F84A0E94FF201F9163
:105430000F91FF90EF900895CF92DF92EF92FF923D
:105440000F931F93DF93CF93CDB7DEB728970FB697
:10545000F894DEBF0FBECDBF81E061E00E948E51A7
:1054600081E061E00E940B5283E061E00E948E5176
:1054700083E061E00E940B5286E161E00E948E5160
:1054800085E161E00E948E5110920A0A10920B0A87
:1054900010920C0A10920D0A10920E0A10920F0A26
:1054A0000E94E22881E060E00E940B528BE060E005
:1054B0000E948E518BE061E00E940B528091FF09A7
:1054C00081608F7B8093FF098091FF099091000A92
:1054D000A091010AB091020A8093030A9093040AF2
:1054E000A093050AB093060A88E691E09093F80924
:1054F0008093F70988E394E09093FA098093F9097F
:1055000081E08093080A88E08093090A8CE161E0D9
:105510000E948E518CE160E00E940B528CEA8093D5
:10552000070A85EB9EE00E94D15685EB9EE060E580
:1055300070E00E94F75585EB9EE060E00E9479568E
:1055400085EB9EE00E94BC568823D1F485EB9EE05B
:1055500060E570E041E050E00E94CD5685EB9EE0B2
:105560000E940156892BD1F385EB9EE00E940A56DA
:105570008C3A21F08C3D11F08A3111F48093070AA6
:105580008091070A8C3D81F484E161E00E948E5194
:1055900084E160E00E940B5287E161E00E948E513D
:1055A00087E160E00E940B520E946329198284E126
:1055B0008A8388E0C82ECB8205E1E02EEC82FF24AE
:1055C000F394FD8215E0D12EDE82DF82E8868FEC37
:1055D0009AE061E08E010F5F1F4FA8010E94BF118A
:1055E0001A821B82FC828FEC9AE060E0A8010E9484
:1055F000BF1119821A82BFE1FB2EFB8281E18C83ED
:10560000FD828E8383E18F838EE188878FEC9AE021
:1056100062E0A8010E94BF1119821A8286E08B8382
:1056200089E08C83FD821E82EF82E8868FEC9AE00F
:1056300063E0A8010E94BF1119821A8287E08B8360
:1056400083E08C83DD82CE8280E18F8318868FECAD
:105650009AE064E0A8010E94BF1180E061E00E942E
:105660008E5180E061E00E940B5282EA99E060E096
:1056700044E00E946464882329F08091FF098062DD
:105680008093FF098FE160E00E948E518EE160E01F
:105690000E948E518DE160E00E948E518FE161E0A9
:1056A0000E940B528EE161E00E940B528DE161E09D
:1056B0000E940B520E94EF0B882329F48091FF096E
:1056C00080618093FF0928960FB6F894DEBF0FBE65
:1056D000CDBFCF91DF911F910F91FF90EF90DF90A1
:1056E000CF900895CF93DF9385EB9EE060E570E067
:1056F0000E94F75585EB9EE060E00E94795685EBAD
:105700009EE00E94BC56882311F080E029C085EB02
:105710009EE060E570E00E94F75585EB9EE06AEF41
:105720000E94795685EB9EE00E94BC5685EB9EE078
:1057300060E570E046E050E00E94CD5685EB9EE0CB
:105740000E940156892BD1F3C6E5DAE085EB9EE095
:105750000E940A5689938AE0CC35D807B9F781E0D0
:10576000DF91CF910895DF93CF93CDB7DEB7289720
:105770000FB6F894DEBF0FBECDBF83EE91E061E0BF
:105780000E9474210E94174C6093490A70934A0A40
:1057900080934B0A90934C0A0E94174C60934D0AD9
:1057A00070934E0A80934F0A9093500A0E94722B76
:1057B000882391F41092560A89E68093570A8093C1
:1057C000580A8DE28093590A81E380935A0A8091A6
:1057D000360280935B0A05C08091FF098068809340
:1057E000FF098CED95E066E57AE044E00E94B10F98
:1057F000882309F461C09091E80180E02091E201E2
:10580000820F911D90938A01809389018091AC0150
:10581000882349F10E94100A882309F44DC0809121
:10582000A6038093B2018091A7038093B801809171
:10583000A8038093BE018091A9038093C401809145
:10584000B2038093CA018091B3038093D001809109
:10585000B4038093D6018091B5038093DC010E944C
:10586000CD2391E02AC08091B20189838091B80153
:105870008A838091BE018B838091C4018C83809147
:10588000CA018D838091D0018E838091D6018F8350
:105890008091DC018887AE014B5F5F4FCE0101969E
:1058A000BA0120E030E00E947B0F90E0882309F4E9
:1058B00091E081E0982701C090E0892F28960FB6EB
:1058C000F894DEBF0FBECDBFCF91DF9108959C014C
:1058D000F999FECF32BD21BDF89A80B508959C019B
:1058E000F999FECF1FBA32BD21BD60BD0FB6F89445
:1058F000FA9AF99A0FBE0895A4E7BCE080E090E020
:10590000FC01EC50F54F1082118212821382FC01CF
:10591000EC54F44F10821182128213821D9204966D
:10592000803C910569F71092AC0C1092AD0C10926E
:10593000AE0C1092AF0CF999FECF89E090E092BDC9
:1059400081BDF89A80B58093F30A0895A4E7BCE07E
:1059500080E090E0FC01EC50F54F10821182128241
:105960001382FC01EC54F44F1082118212821382D4
:105970001D920496803C910569F71092AC0C109230
:10598000AD0C1092AE0C1092AF0C08951092F30A69
:10599000F999FECF1FBA89E090E092BD81BD10BC9D
:1059A0000FB6F894FA9AF99A0FBE0895982F80913D
:1059B000F30A981708F041C0992309F43EC0892FD3
:1059C00090E0019727E430E0AC01429FC001439F83
:1059D000900D529F900D11249C01265F3F4F8F5ACE
:1059E0009F4F24C0F999FECF32BD21BDF89A50B522
:1059F000F999FECF72BD61BDF89A40B5F999FECF15
:105A00001FBA32BD21BD40BD0FB6F894FA9AF99A7B
:105A10000FBEF999FECF1FBA72BD61BD50BD0FB662
:105A2000F894FA9AF99A0FBE2F5F3F4FB901695B5C
:105A30007F4F2817390709F0D5CF089577FF03C0A6
:105A40006FEF7FEF22C0CB01977074FF03C090957A
:105A500081959F4F76FF0BC06091F7097091F8090F
:105A6000680F791F77FF11C060E070E00EC075FF0E
:105A70000CC06091F9097091FA09680F791F85E0EF
:105A8000603A780714F06FE975E0CB010895BF9292
:105A9000CF92DF92EF92FF920F931F936C01FC0164
:105AA000B080E1800E949D2920E831E541E050E08E
:105AB0000E944C6F2B0D311D411D511DFF2400E034
:105AC00010E0CA01B901A80197010E944C6FF601CC
:105AD00060831F910F91FF90EF90DF90CF90BF9068
