:100000000C942E060C9459060C9459060C9459061F
:100010000C9459060C9459060C9459060C945906E4
:100020000C94E4120C9459060C9459060C9459063D
:100030000C9459060C9459060C9459060C945906C4
:100040000C9459060C9459060C94F34E0C945906D2
:100050000C94D5500C946B510C9459060C94590681
:100060000C9459060C9459060C94B96B0C945906CF
:100070000C940E510C94AA510C9459060C945906E8
:100080000C9459060C9459060C9459064E54502061
:1000900053796E63696E672E2E2E005D0D0A002C5B
:1000A00000222C00302C22002C002C005B002E742F
:1000B000787400446574656374696E672075534491
:1000C0002E2E2E00302E2054657374202831206D82
:1000D000696E29002E20002000486F6C6420423396
:1000E00020746F20737461727400436C69636B20B9
:1000F000423320746F206C6973740052756E2061F6
:100100002050726F6772616D3A00286C73776329B3
:100110000028656970290020286F73697029003AEA
:10012000002867776970290066777600747A006E18
:100130007470006468637000697031006970320027
:100140006970330069703400677731006777320077
:10015000677733006777340068703000687031006B
:1001600068777600657874005F00736474006D6171
:1001700073006D746F6E006D746F6600757273003E
:1001800072736F00776C0064656E00697061730054
:10019000646576696400636F6E006C6974006469FD
:1001A0006D005F00757774006E747031006E74704E
:1001B00032006E747033006E747034006C67006DC2
:1001C000617332006D746F6E32006D746F66320051
:1001D00072657365740046573A00545A6F6E653AFB
:1001E000004E54503F00444843503F004F532E6947
:1001F00070313A002E6970323A002E6970333A003D
:100200002E6970343A0047572E6970313A002E69D2
:1002100070323A002E6970333A002E6970343A0019
:10022000506F72743A000048573A20004578702E9B
:1002300020626F6172643A000053746E2064656CD2
:1002400061793A004D6173313A004D61733120207C
:100250006F6E2061646A3A004D617331206F66668B
:100260002061646A3A005261696E2073656E736F33
:10027000723A004E6F726D616C6C79206F70656EB2
:100280003F0025205761746572696E673A004465C6
:10029000762E20656E61626C653F0049676E207046
:1002A00077643F004465762E2049443A004C43442D
:1002B00020636F6E2E3A004C4344206C69742E3AD2
:1002C000004C43442064696D2E3A0000557365204C
:1002D000776561746865723F004E54502E697031C5
:1002E0003A002E6970323A002E6970333A002E6956
:1002F00070343A004C6F673F004D6173323A004DE5
:1003000061733220206F6E2061646A3A004D617320
:1003100032206F66662061646A3A005265736574C4
:1003200020616C6C3F004D6F6E0054756500576521
:100330006400546875004672690053617400537517
:100340006E00207365630025004E6F0059657300D1
:100350002B002B0020474D54003030003A002D0078
:100360002B000020202020002D44697361626C6501
:1003700064212D003A0045004D433A0020284D41AC
:100380004329002D002E002D0020002020003A00DF
:100390002000486F6C6420423320746F20736176B4
:1003A000650042312F42323A2B2F2D2C2042333A16
:1003B0002D3E003D3D536574204F7074696F6E7320
:1003C0003D3D00506C6561736520576169742E2E48
:1003D0002E00526573657474696E672E2E2E00436D
:1003E0006F6E6E656374696E672E2E2E0050726F8D
:1003F0006772616D20006C6F630077746B657900C4
:10040000747474006376006A630064700063700043
:100410006372007570006A7000636F006A6F00732A
:1004200070006A7300636D006373006A6E006A6C2B
:1004300000646C007375006375003C7363726970CF
:10044000743E77696E646F772E6C6F636174696F49
:100450006E3D222F223B3C2F7363726970743E0AFB
:10046000007B22726573756C74223A24447D007B94
:1004700022726573756C74223A24447D0024460010
:10048000222446223A24447D00485454502F312ED1
:100490003120323030204F4B0D0A004361636865D4
:1004A0002D436F6E74726F6C3A206D61782D6167A9
:1004B000653D3630343830302C207075626C69639D
:1004C0000D0A00436F6E74656E742D547970653A31
:1004D00020746578742F6373733B6368617273650E
:1004E000743D7574662D380D0A436F6E74656E74B5
:1004F0002D456E636F64696E673A20677A69700D87
:100500000A00436F6E74656E742D547970653A20DD
:10051000746578742F6A6176617363726970743B75
:10052000636861727365743D7574662D380D0A4396
:100530006F6E74656E742D456E636F64696E673A95
:1005400020677A69700D0A000D0A002446002446CF
:10055000002446244600646179005D002C24530089
:100560002453005B007479706500656E64007374D9
:100570006172740068697374007400656E00736959
:1005800064005D2C226E73746174696F6E73223A1D
:1005900024447D002C0024440022736E223A5B0028
:1005A000637077006E7077007474740077746B6595
:1005B00079006C6F63006A737000726400656E008E
:1005C0007262740072736E003C6D657461206E61BE
:1005D0006D653D2276696577706F72742220636F56
:1005E0006E74656E743D2277696474683D646576E7
:1005F0006963652D77696474682C696E69746961D3
:100600006C2D7363616C653D312E302C6D696E69A4
:100610006D756D2D7363616C653D312E302C757376
:1006200065722D7363616C61626C653D6E6F223E15
:100630000D0A003C736372697074207372633D220B
:1006400024452F686F6D652E6A73223E3C2F7363BD
:10065000726970743E0A3C2F626F64793E0A3C2FC7
:1006600068746D6C3E00766172207665723D24443C
:100670002C697061733D24443B3C2F736372697035
:10068000743E0A003C21444F43545950452068743D
:100690006D6C3E0A3C68746D6C3E0A3C6865616432
:1006A0003E0A24463C2F686561643E0A3C626F64E2
:1006B000793E0A3C7363726970743E005B302C3083
:1006C0005D5D2C226C72756E223A5B24442C2444AE
:1006D0002C24442C244C5D7D005B24442C244C2C85
:1006E000244C5D2C00305D2C227073223A5B002478
:1006F000442C002264657674223A244C2C226E62CB
:100700007264223A24442C22656E223A24442C221C
:100710007264223A24442C227273223A24442C22FA
:1007200072647374223A244C2C226C6F63223A2236
:100730002445222C2277746B6579223A22244522A3
:100740002C2273756E72697365223A24442C2273CD
:10075000756E736574223A24442C22656970223ABE
:10076000244C2C226C7763223A244C2C226C737715
:1007700063223A244C2C227362697473223A5B0020
:100780003C6872202F3E3C666F726D206E616D6515
:100790003D6F6620616374696F6E3D6375206D65A2
:1007A00074686F643D6765743E3C703E3C623E53C6
:1007B00063726970742055524C3A3C2F623E3C691A
:1007C0006E70757420747970653D746578742073EB
:1007D000697A653D3332206D61786C656E67746847
:1007E0003D3132372076616C75653D2224452220EB
:1007F0006E616D653D6A73703E3C2F703E3C703E8D
:1008000044656661756C742069732024533C627280
:10081000202F3E4966206C6F63616C206F6E2075DF
:10082000534420636172642C20757365202E2F3C25
:100830002F703E3C703E3C623E50617373776F7226
:10084000643A3C2F623E3C696E7075742074797016
:10085000653D70617373776F72642073697A653D6B
:100860003332206E616D653D70773E3C696E707508
:100870007420747970653D7375626D69743E3C2FA8
:10088000703E3C6872202F3E3C2F666F726D3E3C7E
:10089000736372697074207372633D6874747073EB
:1008A0003A2F2F75692E6F70656E737072696E6B5B
:1008B0006C65722E636F6D2F6A732F686173686544
:1008C000722E6A733E3C2F7363726970743E005DD2
:1008D0007D00225D00225D2C00245300244C5D2C01
:1008E0002200244C2C0024445D2C5B0024442C006A
:1008F0005B24442C24442C24442C5B00226E707214
:100900006F6773223A24442C226E626F61726473A3
:10091000223A24442C226D6E70223A24442C226DFB
:100920006E7374223A24442C22706E73697A6522A5
:100930003A24442C227064223A5B002C22646578AD
:1009400070223A24442C226D657870223A24447D2A
:10095000002C00222446223A2444006E616D65007A
:100960007069640070696400706964005D2C226DB8
:1009700061786C656E223A24447D002C0022245359
:10098000220022736E616D6573223A5B0073746E90
:100990005F73657100726673746E0073746E5F646A
:1009A0006973006D61736F70320069676E6F726595
:1009B0005F7261696E006D61736F70005D2C002C59
:1009C00000244400222446223A5B00707700436FE3
:1009D0006E74656E742D547970653A206170706C18
:1009E00069636174696F6E2F6A736F6E0D0A436F6E
:1009F0006E6E656374696F6E3A20636C6F73650D1C
:100A00000A004163636573732D436F6E74726F6C7C
:100A10002D416C6C6F772D4F726967696E3A202A91
:100A20000D0A0043616368652D436F6E74726F6CCD
:100A30003A206D61782D6167653D302C206E6F2DF9
:100A400063616368652C206E6F2D73746F72652C03
:100A5000206D7573742D726576616C69646174655F
:100A60000D0A0024462446244624460D0A7B002411
:100A7000462446244624460D0A00436F6E74656E74
:100A8000742D547970653A20746578742F68746D8C
:100A90006C0D0A0024462446244624460D0A000014
:100AA000010800060400014500008200004000200B
:100AB00000504F535420244620485454502F312E78
:100AC000300D0A486F73743A2024460D0A244624D8
:100AD000534163636570743A202A2F2A0D0A436FCD
:100AE0006E74656E742D4C656E6774683A2024448C
:100AF0000D0A436F6E74656E742D547970653A20DB
:100B00006170706C69636174696F6E2F782D77778F
:100B1000772D666F726D2D75726C656E636F64658F
:100B2000640D0A0D0A2453004745542024462453DB
:100B300020485454502F312E300D0A486F73743AA8
:100B40002024460D0A24460D0A0D0A004163636500
:100B500070743A20746578742F68746D6C00E300CB
:100B600004FA000100000001776561746865722E67
:100B70006F70656E737072696E6B6C65722E636FE9
:100B80006D002F776561746865720024442E70795A
:100B90003F6C6F633D2445266B65793D2445266691
:100BA00077763D24440065697000747A0073636150
:100BB0006C650073756E7365740073756E7269731E
:100BC000650000002100240027002A000000220008
:100BD000250028002B00000020002300260029000B
:100BE00002020202020202020404040404040404D5
:100BF00003030303030303030101010101010101D5
:100C000001020408102040800102040810204080E6
:100C100001020408102040808040201008040201D6
:100C200000000001020000000000000004030706AD
:100C300000000000000000000000000000000000B4
:100C40007C3C3E5E2B3D3F2F5B5D3B2C2A225C00B3
:100C5000210D18138C1F8E528D54796711241FBEDD
:100C6000CFEFD0E4DEBFCDBF13E0A0E0B1E0E4E71A
:100C7000FCED00E00BBF02C007900D92A438B10755
:100C8000D9F71BBE11E1A4E8B3E001C01D92AE3557
:100C9000B107E1F71CE0CCE5DCE004C02297FE01DF
:100CA0000E94346EC035D107C9F70E9424530C94BA
:100CB000A0060C940000FC0188279927E894219154
:100CC0002032E9F3293010F02E30C8F32B3241F0F6
:100CD0002D3239F4689404C00E948307820F911D5D
:100CE000219120532A30C0F31EF4909581959F4F97
:100CF00008951F93FC0199278827BC01E89411915E
:100D00001032E9F3193010F01E30C8F31B3251F0E5
:100D10001D3249F4689406C00E946E07610F711D70
:100D2000811D911D119110531A30B0F33EF490952E
:100D30008095709561957F4F8F4F9F4F1F910895BC
:100D4000F8940C94386EFB01DC0102C005900D9202
:100D500041505040D8F70895FB01DC010D90002070
:100D6000E9F7119705900D920020E1F70895FB0136
:100D7000DC0105900D920020E1F70895FB01DC01F4
:100D800004C08D910190801921F441505040C8F762
:100D9000881B990B0895FB01DC0102C001900D92A4
:100DA00041505040D8F70895DC0101C06D93415087
:100DB0005040E0F70895FB01DC010D900020E9F7B9
:100DC000119701900D920020E1F70895FC018191A7
:100DD000861721F08823D9F7992708953197CF01F5
:100DE0000895FB01DC0101900D920020E1F70895C8
:100DF000FB01DC014150504030F08D910190801991
:100E000019F40020B9F7881B990B0895FB01DC0148
:100E10004150504048F001900D920020C9F701C0A8
:100E20001D9241505040E0F70895A0E0B0E0EBE1A2
:100E3000F7E00C94056E7C01EB018A01690109C0A1
:100E4000CE012196F6010995F70181937F010150AA
:100E5000104001151105A1F7CDB7DEB7E8E00C94FD
:100E6000216EA0E0B0E0E7E3F7E00C94056EEC0142
:100E70007B018A01690109C0CE012196F7016191C8
:100E80007F01F60109950150104001151105A1F7E8
:100E9000CDB7DEB7E8E00C94216EFB019F01E8942A
:100EA0004230C4F04532B4F44A3029F497FB1EF4C2
:100EB000909581959F4F642F77270E94976D805D55
:100EC0008A330CF0895D8193CB010097A1F716F46A
:100ED0005DE251931082C9010C94B007592F482F3D
:100EE000372F262F660F771F881F991F660F771FD2
:100EF000881F991F620F731F841F951F660F771F2E
:100F0000881F991F08957AE0979F902D879F802DC5
:100F1000910D11240895FA01CF93FF93EF9322309E
:100F2000CCF02532BCF4C22F2C2F33274427552771
:100F3000FF93EF930E94BE6DEF91FF91605D6A3366
:100F40000CF0695D6193B901CA0160507040804046
:100F5000904051F710828F919F91CF910C94B007E0
:100F6000DC01FC01672F71917723E1F7329704C010
:100F70007C916D9370836291AE17BF07C8F308959B
:100F8000DF93CF9300D000D000D0CDB7DEB7DE0125
:100F90001196E8EFF2E086E001900D928150E1F7C2
:100FA00086E191E0EAEEF3E0DF019C011D92215021
:100FB0003040E1F780918403833019F46AED73E0E7
:100FC00003C0BE016F5F7F4F84E490E043E450E0D4
:100FD0000E94B04280918403833039F08AEE93E01E
:100FE000BE016F5F7F4F0E94394E81E080931404F1
:100FF0008093150486E0809316048091910390916C
:101000009203A0919303B09194038093180490935A
:101010001904A0931A04B0931B04809184038330B5
:1010200039F484E194E00C966AEC73E00E94414E3E
:1010300080E394E064EC73E00E94394EA0E0B5E0F8
:10104000EDE8F1E002C081918D9331E0E339F307DF
:10105000D1F790918403992311F083E001C081E0DE
:10106000809306058DE38093070587E0809308054C
:1010700081E080930905AAE0B5E0E4ECF3E002C06A
:1010800081918D9383E0EA3CF807D1F78CE080935F
:10109000100585E080931105E7E8F1E0A2E1B5E0F5
:1010A00002C081918D9321E0EC38F207D1F727E15E
:1010B00035E03093990320939803913069F582E3EA
:1010C0008093170584E080931805D9011296EAEC05
:1010D000F3E002C081918D9333E0EE3CF307D1F74A
:1010E00086E380931D0584E080931E058FE195E0E3
:1010F0009093990380939803DC01EAEDF3E002C03A
:1011000081918D9383E0EE3DF807D1F783E295E07E
:10111000909399038093980320919703222311F0D1
:1011200094E001C093E0A0919803B0919903FD0170
:1011300087E3819311969C93DF01119681E081836F
:10114000FD01319683E011968C93DF01119686E0C4
:101150008183CD0101969093990380939803222374
:1011600039F011962C9301969093990380939803EC
:10117000E0919803F09199038FEF8193F093990395
:10118000E0939803CF01845194400E949F44269697
:101190000FB6F894DEBF0FBECDBFCF91DF9108959B
:1011A000EF92FF920F931F93CF93DF938C01809167
:1011B0008403823009F4F8C0833030F4882351F17D
:1011C000813009F066C14BC0833021F0843009F0D2
:1011D00060C1EAC00E943B4F2091890330918A038D
:1011E00040918B0350918C03E0908503F09086032F
:1011F00000918703109188032E0D3F1D401F511F42
:10120000621773078407950708F443C10E94C0075B
:1012100084E018C00E943B4F609391037093920347
:1012200080939303909394031092CA031092CB037C
:101230001092CC031092CD030E94C00781E00E945F
:10124000C30D81E0809384030E943B4F60938D0324
:1012500070938E0380938F03909390031AC106348A
:10126000110508F4D5C080910D04833409F0D0C075
:10127000209118043091190440911A0450911B04D4
:101280008091910390919203A0919303B091940364
:10129000281739074A075B0709F0BAC0C4E0D5E050
:1012A000FE01A80146515C4FDF01119691819D011D
:1012B0002F5F3F4F8081853329F411968C918230C6
:1012C00009F4C5C0F901E90FF11DE417F50760F352
:1012D0009FC0FE019191E980EF0121969333D9F0EF
:1012E000943340F4933089F0963091F0913009F0C6
:1012F00046C008C09A3379F09F3F09F451C0963335
:10130000F1F537C08EEC93E036C086ED93E033C044
:101310008EED93E030C0618170E080E090E0982F26
:10132000872F762F66272981620F711D811D911DE0
:10133000982F872F762F66272A81620F711D811DB6
:10134000911D982F872F762F66272B81620F711D95
:10135000811D911D28EE33E040E050E00E946C6D4D
:101360006093890370938A0380938B0390938C031B
:1013700089C08AED93E0BE010E94414E83C0E09196
:101380009503F0919603309709F47CC08091970300
:10139000981709F077C0892FBE014E2D099572C0AC
:1013A0000E94C00782E04ECF0634110588F180917B
:1013B0000D04833469F5209118043091190440918B
:1013C0001A0450911B048091910390919203A09173
:1013D0009303B0919403281739074A075B07C1F4B8
:1013E000E4E0F5E0A80146515C4FDF0111969181E0
:1013F0009D012F5F3F4F8081853321F411968C91A1
:10140000853071F1F901E90FF11DE417F50768F373
:101410000E943B4F20918D0330918E0340918F03AA
:1014200050919003205F384D4F4F5F4F261737077D
:101430004807590748F02DC086ED93E00E941643F7
:1014400083E08093840325C01092840322C08AEC39
:1014500093E064E274E00E94414E06511C4F39CF84
:1014600081E00E94B20D0E943B4F60938503709310
:10147000860380938703909388038091D603882303
:10148000F9F2DACFCE0DD11DC017D10708F421CF64
:1014900087CFDF91CF911F910F91FF90EF9008952B
:1014A000CF93DF9381E08093E6039091C903892F66
:1014B00082958F70805D80938A019F70905D90937C
:1014C0008B01109284030E943B4FEB0104C00E94E9
:1014D000130E0E94D00880918403833061F00E9433
:1014E0003B4F6C1B7D0B6053754728F40E94D40D55
:1014F000882389F3ECCF0E942C421092E9031092CA
:10150000E80390E080918403833009F491E0892F0F
:10151000DF91CF910895FF920F931F93CF93DF93A5
:101520008C01F62E0E943B4FEB010CC00E94130E63
:101530000E946C450E943B4F6C1B7D0B60537547AE
:1015400008F0EFC00E94D40D882381F30E943B4F26
:10155000EB010CC00E94130E0E946C450E943B4F91
:101560006C1B7D0B6053754708F0DBC00E94264260
:10157000882381F71092E2031092E3031092E403B0
:101580001092E50380919A038F5F80939A03809174
:10159000DE03882361F488E098E0A8E0B8E0809357
:1015A000DE039093DF03A093E003B093E103809107
:1015B0009A0390E0906E6EED73E045E350E00E9478
:1015C000B042E4E1F4E08CE0DF011D928A95E9F796
:1015D000DF011C9690E0FF2019F0F801808102C025
:1015E000F80184910F5F1F4F8E3241F0882331F054
:1015F0009F5FFD01E90FF11D8083EDCFFD01919308
:10160000DF01A90FB11D882329F7FD011192119661
:101610001C92DF01119641E04183FD013196119644
:101620001C92418386ED2AEE33E0821B32968E0FA8
:101630008093140490919A03909315044093160498
:101640004093190490E00E949F440E943B4F8B01FD
:1016500061C00E943B4F601B710B6053754708F0DF
:1016600060C00E94130EEC01009709F453C00E9461
:101670006C45892B09F04EC0C634D10508F44AC028
:1016800080910D04853309F045C080910E04803EA1
:1016900009F040C090910F0480919A039817D1F5FA
:1016A000809115048917B1F58091170490E08F702F
:1016B0009070892BB1F580911404E82FF0E0EC5E76
:1016C000FB4F9E0126513C4F8081807C39F0329641
:1016D00009C08081882311F4319604C03196E21745
:1016E000F307B8F3CF010E962817390798F08181D8
:1016F000813051F48185843039F43A9682EE93E05A
:10170000BF010E94414E06C0818590E00A96E80F15
:10171000F91FDACF8091E203882309F49ACF81E0A0
:1017200001C080E0DF91CF911F910F91FF9008954C
:10173000482F6AE00E948B6D282F30E084E0220F52
:10174000331F8A95E1F7842F0E948B6D892F820FBA
:101750000895CF93DF93EC0180919B0390919C03BC
:101760008836910559F58FEC9EE068E670E00E949E
:1017700053548FEC9EE060E00E94D55488810E9413
:10178000980B682F70E06F7770708FEC9EE00E946E
:10179000D55489810E94980B682F8FEC9EE00E949F
:1017A000D5548A810E94980B682F8FEC9EE00E948E
:1017B000D5548B810E94980B682F2DC08F369105D0
:1017C00009F04AC08FEC9EE06FE670E00E9453542F
:1017D0008FEC9EE060E00E94D55488810E94980BB7
:1017E000682F60688FEC9EE00E94D55489810E942A
:1017F000980B682F8FEC9EE00E94D5548A810E943E
:10180000980B682F8FEC9EE00E94D5548B810E942C
:10181000980B682F68608FEC9EE00E94D5548C81F5
:101820000E94980B682F8FEC9EE00E94D5548D810A
:101830000E94980B682F8FEC9EE00E94D5548E81F9
:101840008E510E94980B682F8FEC9EE00E94D55419
:101850008FEC9EE00E941855DF91CF91089588E6A5
:1018600090E090939C0380939B038FEC9EE068E64E
:1018700070E00E9453548FEC9EE060E00E94D554CB
:101880008FEC9EE00E9418558823D9F08FE690E0F7
:1018900090939C0380939B038FEC9EE06FE670E037
:1018A0000E9453548FEC9EE060E00E94D5548FEC70
:1018B0009EE00E941855882321F010929C031092FC
:1018C0009B0308951F93CF93DF93EC0160919B03DB
:1018D00070919C036115710509F46FC08FEC9EE057
:1018E0000E9453548FEC9EE060E00E94D5548FEC30
:1018F0009EE00E94185560919B0370919C038FECB1
:101900009EE047E050E00E9429558FEC9EE00E9447
:101910006654282F2F7722952F701AE0219F90016F
:1019200011248F70820F88838FEC9EE00E94665492
:10193000282F22952F70219F900111248F70820FE4
:1019400089838FEC9EE00E946654282F2F73229586
:101950002F70219F900111248F70820F8A838FEC4A
:101960009EE00E94665487708B838FEC9EE00E94FD
:101970006654282F22952F70219F900111248F707B
:10198000820F8C838FEC9EE00E946654282F229554
:101990002F70219F900111248F70820F8D838FEC07
:1019A0009EE00E946654282F2F70225E82958F70D1
:1019B000819FC0011124280F2E83DF91CF911F91A9
:1019C00008950F931F93DF93CF93CDB7DEB727977B
:1019D0000FB6F894DEBF0FBECDBF8E010F5F1F4F55
:1019E000A8010E940049C8010E94A90B27960FB6C2
:1019F000F894DEBF0FBECDBFCF91DF911F910F9145
:101A000008950F931F93DF93CF93CDB7DEB727973A
:101A10000FB6F894DEBF0FBECDBF8E010F5F1F4F14
:101A2000C8010E94620CC8010E94464A27960FB660
:101A3000F894DEBF0FBECDBFCF91DF911F910F9104
:101A400008958FEC9EE00E942D5508958091A0038B
:101A500061E00E94715078940895FF920F931F9354
:101A6000082F162FF42EF8948091A00360E00E94B6
:101A700071501F71102B1EBD0DB407FEFDCFFEBCB3
:101A80000DB407FEFDCF0E94260D1F910F91FF9010
:101A900008951F93182F282F30E020763070809102
:101AA000A10390E02817390799F080EA6FE143E03D
:101AB0000E942D0D412F40764093A10350E085E018
:101AC000559547958A95E1F780E86FE10E942D0DC5
:101AD0001F9108950F931F93182F062F0E94490DF1
:101AE00080E4612F402F0E942D0D1F910F910895CA
:101AF0000F931F93182F072F0E946A0D812F8F5F5E
:101B0000602F0E946A0D1F910F9108950F931F93EC
:101B1000182F062FF8948091A00360E00E94715066
:101B2000802F8F71812B8EBD0DB407FEFDCF1EBCA3
:101B30000DB407FEFDCF07FF04C01EBC0DB407FEA9
:101B4000FDCF1EB50E94260D812F1F910F91089584
:101B50001F93182F0E94490D80E0612F0E94860D6F
:101B60001F910895882311F410929F0380919F0381
:101B7000882341F488E30E94A80D682F6E7F88E3D4
:101B80000E946A0D08951F93182F88E30E94A80DE4
:101B9000682F616088E30E946A0D112319F481E0C7
:101BA00080939F031F91089584ED61E10E946A0D67
:101BB00082ED61E00E946A0D8AEE0E94A80D80FD10
:101BC000FBCF82ED60E00E946A0D89ED0E94A80DB6
:101BD00090E09695879596958795817008950F93D7
:101BE0001F93CF93DF93EC018B01F8948091A003B6
:101BF00060E00E9471508AE38EBD0DB407FEFDCFF8
:101C000009C01EBC0DB407FEFDCF8EB5F80181934F
:101C10008F0121972097A9F70E94260DDF91CF9180
:101C20001F910F9108950F931F93DF93CF9300D0CF
:101C300000D000D0CDB7DEB789E30E94A80D88237D
:101C400019F400E010E048C06091A2037091A30372
:101C500080E00E94780D86E090E0BE016F5F7F4FCC
:101C60000E94EF0D89819A819093A3038093A20330
:101C70002B813C81E0919D03F0919E038D8187FD36
:101C800003C000E010E00EC0245030408F0101502E
:101C900010402017310708F48901C8016AEE73E08B
:101CA0000E94EF0DF801E651FC4F10826091A203F3
:101CB0007091A3038CE06130780724F08CE06FEF23
:101CC0007BE003C0615070408CE00E94780D80E89A
:101CD0006EE140E40E942D0DC80126960FB6F894DF
:101CE000DEBF0FBECDBFCF91DF911F910F91089541
:101CF0000F931F93CF93DF938C01EB01F8948091A6
:101D0000A00360E00E9471508AE78EBD0DB407FE0B
:101D1000FDCF08C088818EBD0DB407FEFDCF219692
:101D20000150104001151105A9F70E94260DDF9101
:101D3000CF911F910F910895CF93DF93EC018CE128
:101D40000E94A80D81FF0FC080E86FE140E80E946B
:101D50002D0D80EA6FE140E80E942D0D80EA6CE1D4
:101D600042E00E942D0D82E060E07CE00E94780D50
:101D7000BE016050744F86E00E94780D8AE760E0F3
:101D800040E00E942D0DCE016AEE73E00E94780EB5
:101D900080E86FE148E00E942D0DDF91CF9108951A
:101DA00084E061E00E94F44F84E061E00E947150A1
:101DB00085E061E00E94F44F87E061E00E94F44F0B
:101DC00086E060E00E94F44F85E061E00E9471507F
:101DD00085E060E00E94715087E060E00E947150F1
:101DE00080E58CBD8DB581608DBD08951F93CF9327
:101DF000DF93EB01142F90939E0380939D030CB40B
:101E000006FC02C00E94D00E1093A003812F61E057
:101E10000E94F44F0E94260D8FEF60E04FEF0E946A
:101E20002D0D62E070E080E090E00E94494F80E07C
:101E30006DE10E94860D8823D1F31092A3031092C6
:101E4000A20388E060E070E00E94780D8CE060E022
:101E500070E00E94780D8AE06FEF7BE00E94780DC1
:101E600084E060E07CE00E94780D86E06FEF71E135
:101E70000E94780D80E00E94C30D88E26FE370E35A
:101E80000E94780D80E369EF77EF0E94780D80EC77
:101E90006DE00E946A0D81EC60E00E946A0D80E8AE
:101EA00062EC42E30E942D0D86EC62E17CE00E9430
:101EB000780D84EC62E10E946A0D8AEC6AEE75E0AE
:101EC0000E94780D84EE68810E946A0D85EE69811A
:101ED0000E946A0D82EE6A810E946A0D83EE6B8118
:101EE0000E946A0D80EE6C810E946A0D81EE6D8108
:101EF0000E946A0D84ED60E10E946A0D86ED60E04B
:101F000071E00E94780D8AEE0E94A80D80FDFBCF43
:101F10008FE10E94490D80E86BE140EC0E942D0D9D
:101F200080E86FE144E00E942D0D82E70E94A80D39
:101F3000863008F08F5FDF91CF911F910895EF9267
:101F4000FF920F931F93CF93DF93FC01EB018A0164
:101F500079011092E603009729F08AEC93E0BF0123
:101F60000E94414E209719F0CE010E9416430115A0
:101F7000110529F08EED93E0B8010E94414EE11465
:101F8000F10429F08EEC93E0B7010E94414E0E94CB
:101F90002C421092E9031092E80381E0DF91CF9187
:101FA0001F910F91FF90EF900895AF92BF92CF9243
:101FB000DF92FF920F931F93CF93DF938C01EB017E
:101FC000F42E1092E60338E341E050E060E070E068
:101FD00018C0832F90E0FC01B3E0F595E795BA9522
:101FE000E1F7EC55FC4F877090705A016B0104C00B
:101FF000AA0CBB1CCC1CDD1C8A95D2F720812A2997
:102000002083315031F784EC93E0BE010E94394EB9
:10201000C80164EC73E04F2D0E94F60EDF91CF9162
:102020001F910F91FF90DF90CF90BF90AF900895D8
:10203000CF92DF92EF92FF920F931F93DF93CF9394
:10204000CDB7DEB7EB84FC84CD84DE84DE011F9641
:1020500001C0D801F6018491882309F4BCC008941A
:10206000C11CD11C843209F099C0F6010894C11C2E
:10207000D11C8491863409F45FC0873434F48434ED
:1020800069F0853409F08AC06EC08C34C9F183359B
:1020900009F445C0883409F081C00DC08D010E5F80
:1020A0001F4FF701668177818D919C914AE050E046
:1020B0000E944D077EC02C91822F992787FD909515
:1020C00014E0959587951A95E1F78F702F702A3057
:1020D0000CF0295F8A300CF0895F8D010E5F1F4F75
:1020E000F701A681B781805DFD018193205D119686
:1020F0002C933196D7011796FC93EE931697A9CFA0
:102100008D010C5F1F4F6D917D918D919C91F70119
:10211000468157812AE030E00E948B074AC08D013A
:102120000E5F1F4F6D917C91D70116968D919C91FA
:1021300017970E94F1063DC08D010E5F1F4F2D9134
:102140003C910AC0D7011696ED91FC9117978193A7
:102150001796FC93EE931697F9012F5F3F4F8491EA
:10216000882381F776CF8D010E5F1F4F2D913C9113
:102170000AC0D7011696ED91FC9117978193179697
:10218000FC93EE931697F999FECF32BD21BDF89AD4
:1021900080B52F5F3F4F882361F75BCFF701268122
:1021A0003781F90181939F01F701378326838D01E0
:1021B00050CFD70116968D919C911797FC010190F5
:1021C0000020E9F73197E81BF90B8E0F9F1FF701ED
:1021D000978386833ECFCF91DF911F910F91FF9020
:1021E000EF90DF90CF9008950F931F938C01FC0127
:1021F000868160E00E94715081E090E00E94A24FD1
:10220000F801868161E00E94715081E090E00E94B7
:10221000A24FF801868160E00E94715084E690E050
:102220000E94A24F1F910F910895CF92DF92EF92DB
:10223000FF920F931F93CF93DF93D82EC92E282F91
:10224000392FC9018C01C0E0D0E0E62EFF24F8014F
:10225000878161E00E94F44FB7010C2E02C0759592
:1022600067950A94E2F76170F80187810E947150C6
:1022700021960F5F1F4FC830D10549F78D2D9C2D3A
:102280000E94F410DF91CF911F910F91FF90EF907A
:10229000DF90CF900895CF92DF92EF92FF920F934D
:1022A0001F93CF93DF93D82EC92E282F392FC90122
:1022B0008C01C0E0D0E0E62EFF24F801878161E0C8
:1022C0000E94F44FB7010C2E02C0759567950A94D1
:1022D000E2F76170F80187810E94715021960F5FCB
:1022E0001F4FC430D10549F78D2D9C2D0E94F4104D
:1022F000DF91CF911F910F91FF90EF90DF90CF90E2
:1023000008951F93CF93DF93EC01162F8C81642FD8
:102310000E9471508D818F3F19F060E00E947150D2
:102320008F8584FF05C0CE01612F0E9415110EC05C
:10233000612F70E084E0759567958A95E1F7CE018D
:102340000E944B11CE01612F0E944B11DF91CF9162
:102350001F91089541E00E94811181E090E008956D
:1023600040E00E9481110895EF92FF920F931F9316
:10237000CF93DF938C017A016770660F660F660F4B
:1023800060640E94B011C0E0D0E0D801ED91FC91F2
:10239000D701AC0FBD1F0190F081E02DC8016C91F9
:1023A00009952196C830D10581F7DF91CF911F9112
:1023B0000F91FF90EF900895FC0160896E7F608B14
:1023C00068600E94B0110895FC016089862F8460C6
:1023D000808B6C60CF010E94B0110895DF93CF9382
:1023E000CDB7DEB728970FB6F894DEBF0FBECDBFCE
:1023F0009C01FE013196A6E0B3E088E00D900192C9
:102400008150E1F7F9018389481710F0482F4150B6
:10241000E42FF0E0EE0FFF1FEC0FFD1F8181680F2E
:102420006068C9010E94B01128960FB6F894DEBF0B
:102430000FBECDBFCF91DF91089561E00E94B01132
:1024400080ED97E00E94A24F0895CF93DF93EC01B7
:10245000423018F08F8588608F874B8B1C8A22232F
:1024600029F0413019F48F8584608F8780E593ECE3
:102470000E94A24F8C8160E00E9471508E8160E0CA
:102480000E9471508D818F3F19F060E00E94715061
:102490006F8564FD1DC0CE0163E00E944B1184E98D
:1024A00091E10E94A24FCE0163E00E944B1184E9AA
:1024B00091E10E94A24FCE0163E00E944B1186E998
:1024C00090E00E94A24FCE0162E00E944B1116C024
:1024D0006062CE010E94B01184E991E10E94A24F96
:1024E0006F856062CE010E94B01186E990E00E9483
:1024F000A24F6F856062CE010E94B0116F8560624D
:10250000CE010E94B01184E0888BCE010E94E411BC
:10251000CE010E941D1282E0898BCE0166E00E94EE
:10252000B011DF91CF9108956F927F928F92AF9209
:10253000CF92EF920F931F93DF93CF93CDB7DEB778
:102540003C01162F842FF301448325830683E78201
:10255000C086A18682869D8593879E8594879F8568
:1025600095879889968761E00E94F44FF3018581F1
:102570008F3F19F061E00E94F44FF301868161E022
:102580000E94F44F112319F0F301178603C080E174
:10259000F3018787C30160E141E020E00E9425123A
:1025A000CF91DF911F910F91EF90CF90AF908F90CF
:1025B0007F906F900895FC01A681B7816D93B783DA
:1025C000A68381E090E008951F920F920FB60F92BC
:1025D0000BB60F9211242F933F934F935F936F93FA
:1025E0007F938F939F93AF93BF93EF93FF938091CC
:1025F000090A8F5F8093090A8091090A803128F0C7
:10260000E091070AF091080A0995FF91EF91BF91B7
:10261000AF919F918F917F916F915F914F913F917A
:102620002F910F900BBE0F900FBE0F901F9018951B
:1026300089E18093C7091092CA091092DE091092AD
:10264000E5091092E7091092020A1092010A82E14C
:1026500093E09093000A8093FF0908950E947029E7
:10266000AB01BC0190912C0A20E014C0A22FB0E075
:10267000FD01E257F34F8081882359F0AA0FBB1F59
:10268000AA0FBB1FA253B44F4D935D936D937C93E0
:1026900013972F5F291750F30895EF92FF920F932E
:1026A0001F938091B001882309F44FC08091240AC0
:1026B00082958F7009F049C08091230A83FD45C03F
:1026C0008091630A9091640AA091650AB091660AAC
:1026D0000097A105B10599F00E9470292091630A25
:1026E0003091640A4091650A5091660A621B730B2F
:1026F000840B950B645871458140904030F10E94E5
:1027000070296093630A7093640A8093650A9093BA
:10271000660A80910A0A882329F48CE890E061E037
:102720000E94F7200E94A32E7B018C016115710588
:102730008105910551F00E94264B8091230A84FF68
:1027400004C0C801B7010E94E10C1F910F91FF90D6
:10275000EF900895AF92BF92CF92DF92EF92FF92E7
:102760000F931F938091230A83FDBDC080916F0A50
:102770009091700AA091710AB091720A0097A10518
:10278000B10511F40E94302A8091240A82958F703D
:1027900091E0E92EF12C02C0EE0CFF1C8A95E2F7C5
:1027A0000027F7FC0095102F0E94534B5B016C0132
:1027B00080916F0A9091700AA091710AB091720A8B
:1027C000A81AB90ACA0ADB0AC801B70125E330E032
:1027D00040E050E00E946C6D6A157B058C059D05FC
:1027E00008F081C080910A0A882359F485EF9AE0A5
:1027F0006FE041E00E94EE1185EF9AE064E00E94F4
:10280000AA110E94534B60936F0A7093700A8093D1
:10281000710A9093720A86ED93E00E941F450E9410
:102820003B4F7B018C010E94130E0E946C4586ED8C
:1028300093E00E94E147882361F40E943B4F6E19A8
:102840007F09800B910B683C71058105910558F358
:1028500036C08091240A8F7002C08F70806680938A
:10286000240A8091240A82958F7090E003979CF44B
:102870000E94534B2091730A3091740A4091750A5B
:102880005091760A621B730B840B950B625971454C
:102890008140904040F10E94534B6093730A7093C3
:1028A000740A8093750A9093760A0E94302A8823CE
:1028B000D1F08091240A8F708093240A14C08091F3
:1028C000240A282F22952F702F5F2F70922F929518
:1028D000907F8F70892B8093240A30E02730310558
:1028E0000CF0BBCFBECF1F910F91FF90EF90DF9008
:1028F000CF90BF90AF900895EF92FF920F931F93E8
:102900008C0186EC99E060E071E040E00E946A6230
:102910002AEEE22E2AE0F22EC701B8010E94F1064B
:102920000CE71AE0C80165E971E00E94F106C801F0
:10293000B7010E94DB06C8016EEA70E00E94AC0697
:102940001F910F91FF90EF900895CF93DF93EC01CB
:1029500080917C02882361F18091230A85FF28C041
:10296000CE0162E071E043E050E00E94F80600977B
:1029700071F486EC99E065E971E040E00E946A62DA
:102980008823B1F085EE99E00E94165B11C0CE015C
:102990000E947C1486EC99E06CE77AE00E94666203
:1029A000882331F086EC99E06CE77AE00E9443627C
:1029B000DF91CF9108958F929F92AF92BF92CF9265
:1029C000DF92EF92FF920F931F93DF93CF93CDB7D8
:1029D000DEB76E970FB6F894DEBF0FBECDBFE82E00
:1029E0004A015B0180917C02882309F416C1CB0166
:1029F000BA0120E831E541E050E00E94BE6DCA0115
:102A0000B9014CE75AE02AE030E00E948B078CE7DE
:102A10009AE00E947C148091230A85FFFEC086EC18
:102A200099E060E071E040E00E946A6286EC99E023
:102A300065E971E040E00E946A62882351F486EC07
:102A400099E065E971E041E00E944762882309F45A
:102A5000E4C01D821F821C821B8287E793E09A8359
:102A600089838E010B5F1F4F4CE7C42E4AE0D42EA2
:102A7000C801B60142E40E94AE60F82E4F89588D1D
:102A8000698D7A8DC8010E943556FF2009F4C5C0B2
:102A9000C6016CEA70E00E94B706EE20D1F5F6019F
:102AA00001900020E9F73197EC19FD09EC0DFD1DAF
:102AB0008091BF0C90E0BF014AE050E00E944D07BA
:102AC000C6016AEA70E00E94AC06F601019000209F
:102AD000E9F73197EC19FD09EC0DFD1D8091BE0C55
:102AE00090E0BF014AE050E00E944D07C60168EA4D
:102AF00070E00E94AC06F60101900020E9F73197E2
:102B0000EC19FD09EC0DFD1D8091C00C9091C10CDC
:102B10005AC0C60164EA70E00E94AC06EE2DF0E0F7
:102B2000EE0FFF1FE456FE4F60817181C6010E94C7
:102B3000DB06C60161EA70E00E94AC0622E0E21604
:102B4000B9F033E0E31699F141E0E41609F040C032
:102B5000F60101900020E9F73197EC57FA40809197
:102B6000570A9091580AA091590AB0915A0A0FC079
:102B7000F60101900020E9F73197EC57FA40809177
:102B80005B0A90915C0AA0915D0AB0915E0AA50172
:102B90009401281B390B4A0B5B0BCA01B901E4589D
:102BA000F54FAF012AE030E00E948B0711C0F6011B
:102BB00001900020E9F73197EC57FA40E458F54FBF
:102BC00080917B0A90E0BF014AE050E00E944D07EF
:102BD0000CE71AE0C8016FE970E00E94AC06F8014A
:102BE00001900020E9F73197E01BF10BE00FF11F96
:102BF000C501B401AF012AE030E00E948B07C80193
:102C00006BE970E00E94AC06CE010196B8010E940B
:102C10000B63CE0105960E949D586E960FB6F894F0
:102C2000DEBF0FBECDBFCF91DF911F910F91FF90FF
:102C3000EF90DF90CF90BF90AF909F908F900895CE
:102C4000CF92DF92EF92FF921F936B017C018091F4
:102C50000B0A90910C0AA0910D0AB0910E0AA701DF
:102C60009601281B390B4A0B5B0BDA01C901855809
:102C70009340A040B04078F1C0920B0AD0920C0A69
:102C8000E0920D0AF0920E0A20917B0A30E040E0BB
:102C900050E010910F0A612F70E080E090E00E94F8
:102CA0006C6D20912E02620F711D811D911D1F5FA1
:102CB00010930F0A212F30E040E050E00E94BE6DDB
:102CC00020937B0A103639F483E0B701A6010E94F5
:102CD000DB1410920F0A1F91FF90EF90DF90CF90BE
:102CE00008950E947F1F0E94FE270E94212B0895B5
:102CF0002F923F924F925F926F927F928F929F920C
:102D0000AF92BF92CF92DF92EF92FF920F931F93F9
:102D1000DF93CF93CDB7DEB72C970FB6F894DEBF15
:102D20000FBECDBF7B018C014B015C010894811C5F
:102D3000911CA11CB11C80910A020E94D64C6C010E
:102D40002091C60C3091C70C4091C80C5091C90C11
:102D5000E216F3060407150718F08501740109C08F
:102D60007C010027F7FC0095102FE20EF31E041FD4
:102D7000151F40902C0A8091250A282F30E03A83B5
:102D800029838091260A282E33246091230A669590
:102D9000669566956170552481E0682E712CC60198
:102DA000AA2797FDA095BA2F8B839C83AD83BE8302
:102DB00080C0E52DF0E0A981BA81A615B70509F418
:102DC00074C02614370409F470C0CF01880F991F0E
:102DD000880F991FAEECCA2EABE0DA2EC80ED91EB2
:102DE000D6012D913D914D915C9121153105410503
:102DF000510509F45AC0DC01A25FB44FB887AF8314
:102E00008D919D910D90BC91A02D0097A105B105CC
:102E100009F04BC0DF0173E0B695A7957A95E1F70D
:102E2000752D7770FD01E35DF54F808190E0072EF1
:102E300002C0959587950A94E2F780FD36C0AF5A97
:102E4000B54F8C9190E002C0959587957A95E2F701
:102E500080FF1AC0EF81F885E082F182028313833C
:102E6000DA01C9018E0D9F1DA01FB11FF6018083DD
:102E70009183A283B383EB80FC800D811E81E80ED9
:102E8000F91E0A1F1B1F10C0AF81B8858D929D923D
:102E9000AD92BC921397280D391D4A1D5B1DF6019A
:102EA000208331834283538361E053940894611CEF
:102EB000711C541408F47DCF6170660F660F660FA5
:102EC0008091230A877F862B8093230A2C960FB646
:102ED000F894DEBF0FBECDBFCF91DF911F910F9150
:102EE000FF90EF90DF90CF90BF90AF909F908F902A
:102EF0007F906F905F904F903F902F900895AF928A
:102F0000BF92CF92DF92EF92FF920F931F93DF93C6
:102F1000CF93CDB7DEB7C754D0400FB6F894DEBF1D
:102F20000FBECDBFE82E0E9471168E2D81508E3FB0
:102F300028F4BE016F5F7F4F0E94192DDD24FF240E
:102F40004EEFC42E3CE0A32EB12CAC0EBD1E41C0F2
:102F50000F2D10E08FEFE81629F442E050E060E01A
:102F600070E012C0EE2009F440C0F501E00FF11F3F
:102F700080810E94664C0E94934CAB01BC014115BC
:102F800051056105710521F1F80123E0F695E795FA
:102F90002A95E1F7EB5BF54F808190E02F2D2770AC
:102FA00002C0959587952A95E2F780FD11C0F8013A
:102FB000EE0FFF1FEE0FFF1FE253F44F40835183CC
:102FC000628373830257134FF801C082DD24D394C8
:102FD000F39480912C0AF81608F4BACFDD2051F052
:102FE0000E9470290E94781605C04CE350E060E012
:102FF00070E0CACFC95BDF4F0FB6F894DEBF0FBEDB
:10300000CDBFCF91DF911F910F91FF90EF90DF9097
:10301000CF90BF90AF900895DF92EF92FF920F9301
:103020001F93CF93DF93D82E7A018B01C82FD0E066
:1030300060E00E945B1FFE01EE0FFF1FEE0FFF1FFF
:10304000E25FF44F208131814281538121153105A6
:103050004105510509F45EC02E153F054007510793
:1030600008F042C0BE016F5F7F4F8091250A90E05B
:103070008617970711F18091260A90E08617970727
:10308000E1F0D092BE0CFE01E257F34F80818093B5
:10309000BF0CC701821B930B9093C10C8093C00C93
:1030A000E092C20CF092C30C0093C40C1093C50CB8
:1030B00080E0B801A7010E94DB14FE0163E0F695F1
:1030C000E7956A95E1F7E55BF54F808190E02D2D5E
:1030D000277002C0959587952A95E2F780FF04C076
:1030E0008D2D60E00E949627FE01EE0FFF1FEE0F70
:1030F000FF1FDF01A25FB44F1D921D921D921C9213
:103100001397E253F44F1082118212821382C25736
:10311000D34F1882DF91CF911F910F91FF90EF90C5
:10312000DF9008954F925F926F927F928F929F925D
:10313000AF92BF92CF92DF92EF92FF920F931F93C5
:10314000CF93DF935B016C019091230A4424439455
:10315000492291FD0CC080912202882311F4FF24A2
:1031600008C0F92EF694F69481E0F82211F0FF24BD
:10317000F394EE2459C08E2D90E0FC01E75CF54FEE
:103180003081FC01E35DF54F20815E2C550C550C20
:10319000550C00E010E0622E7724832E9924252D13
:1031A000200FC22FD0E0FE01E257F34FE081E3365B
:1031B000A0F5442059F0FF2081F1C401002E02C087
:1031C000959587950A94E2F780FD27C0C301002EEC
:1031D00002C0959587950A94E2F780FF06C0822F7A
:1031E000B601A5010E940C1818C0EE23B1F0FE0133
:1031F000EE0FFF1FEE0FFF1FDF01A25FB44F1D9206
:103200001D921D921C921397E253F44F108211826B
:1032100012821382C257D34F18820F5F1F4F08309C
:10322000110509F0BCCFE39480912B0AE81608F44D
:10323000A2CFDF91CF911F910F91FF90EF90DF9080
:10324000CF90BF90AF909F908F907F906F905F9046
:103250004F900895EF92FF920F931F938091240A4D
:1032600082958F7009F04BC08091230A83FD47C07F
:103270000E9470299B01AC0180916B0A90916C0AAD
:10328000A0916D0AB0916E0A0097A105B105B1F049
:1032900079018A01E81AF90A0A0B1B0BD801C70148
:1032A000825A9145A140B04048F010926F0A1092A6
:1032B000700A1092710A1092720A21C08091670AF6
:1032C0009091680AA091690AB0916A0A0097A105D5
:1032D000B10549F0281B390B4A0B5B0B2A503740CC
:1032E0004040504060F00E9470296093670A7093DC
:1032F000680A8093690A90936A0A0E94EB4C1F91B6
:103300000F91FF90EF90089584B7877F84BF0E944C
:103310003F280E94B7250E94F72A6CE370E080E006
:1033200090E00E941D4B8091230A84FD03C080E041
:1033300090E002C081E09DE00E94C64B64EF71E026
:1033400080E090E00E94494F0E9470290E94AA29C3
:103350008091600088618093600081E280936000CA
:103360008091600080648093600083EB90E061E076
:103370000E94F72086EC99E060E044E00E94C6627B
:10338000882329F08091230A80628093230A0E9477
:10339000302A882321F08091240A8F7004C0809104
:1033A000240A8F7080618093240A64EF71E080E0CA
:1033B00090E00E94494F0E94FE270E94534B609369
:1033C0005F0A7093600A8093610A9093620A08957D
:1033D000EF92FF920F931F93DF93CF93CDB7DEB79A
:1033E000C754D0400FB6F894DEBF0FBECDBFE090FB
:1033F0005F0AF090600A0091610A1091620AE1147C
:10340000F1040105110511F10E94534B2FE030E04A
:1034100040E050E0E20EF31E041F151FE616F7060B
:103420000807190798F4809152026FEF70E0681B4B
:1034300071098CE00E94754E10925F0A1092600A2A
:103440001092610A1092620A10920A0A82E00E94A7
:10345000EB1FF82E082F10E086FF1CC10E94534B73
:1034600060935F0A7093600A8093610A9093620A86
:1034700080914C026FEF70E0681B71098CE00E9434
:10348000754E80910A0A833020F4813008F0BEC066
:1034900004C0833009F0FEC0ADC0C8018F709070C9
:1034A0008230910509F449C08430910509F483C044
:1034B000019709F0EFC0F7FE1FC08DE10E94A450F4
:1034C000892B21F48FEF0E947F17E4C08EE10E94C8
:1034D000A450892B71F486ED93E060E00E94F722FE
:1034E00085EF9AE060E041E00E94EE1181E291E018
:1034F0001EC00E942E13CEC08AEC93E060E00E94B2
:10350000F72285EF9AE060E041E00E94EE118FE142
:1035100091E00E94A520609193017091940185EF44
:103520009AE04AE050E00E94EC5387E191E00E946B
:10353000A52081E080930A0AADC0F7FE32C08FE17A
:103540000E94A450892B71F487E79AE061E00E9401
:10355000F72285EF9AE060E041E00E94EE1181E100
:1035600091E0E5CF8DE10E94A450892BB9F485EF5D
:103570009AE00E941D1260916B0A70916C0A809112
:103580006D0A90916E0A0E94AA2985EF9AE060E088
:1035900041E00E94EE118AE091E0C9CF0E94331F02
:1035A00079C085EF9AE00E941D1284EC93E00E949E
:1035B000B52082E0BFCFF7FE0CC08BEF90E060E05B
:1035C0000E94F7208AEE90E061E00E94F72083E0FD
:1035D000B1CF2091240A822F8F7090E060912B0A46
:1035E000019670E00E94AB6D8F70207F282B209396
:1035F000240A50C00F7010700430110509F04AC041
:10360000F7FE07C080911A0A0E947F1710920A0ADB
:1036100041C080911A0A90E060910D0B70E06F5FDD
:103620007F4F01960E94AB6D80931A0A89ED90E05E
:1036300060E00E94F72080911A0A882331F18150BE
:10364000BE016F5F7F4F0E94192D87ED90E061E012
:103650000E94F72085EF9AE060E041E00E94EE11C1
:1036600060911A0A85EF9AE070E04AE050E00E940B
:103670003D5484ED90E00E94A52085EF9AE0BE01C4
:10368000645C7F4F0E94505405C084EC90E061E080
:103690000E94F720C95BDF4F0FB6F894DEBF0FBE64
:1036A000CDBFCF91DF911F910F91FF90EF900895C3
:1036B0002F923F924F925F926F927F928F929F9242
:1036C000AF92BF92CF92DF92EF92FF920F931F9330
:1036D000DF93CF93CDB7DEB7C854D0400FB6F89480
:1036E000DEBF0FBECDBF809110028093250A80916E
:1036F00082028093260A0E9470294B015C010E947D
:10370000130E0E946C459093110A8093100A009743
:1037100021F086519C4F0E948739A8951092090A82
:103720000E94E8198091160A9091170AA091180A30
:10373000B091190A88159905AA05BB0509F464C357
:103740008092160A9092170AA092180AB092190A4B
:1037500080910A0A882321F40E9470290E94AA29D4
:103760008091230A81FF10C080911F0A9091200A46
:10377000A091210AB091220A88169906AA06BB06D2
:1037800090F00E943D240FC080911F0A9091200A62
:10379000A091210AB091220A88169906AA06BB06B2
:1037A00010F40E944D240E9434209091230A969593
:1037B00091708091270A869581708917C9F09923A5
:1037C00049F080925B0A90925C0AA0925D0AB092E6
:1037D0005E0A05C082E0B501A4010E94DB1490914D
:1037E000230A92708091270A8D7F892B8093270A64
:1037F0009091230A9695969591708091270A8695C7
:10380000869581708917C9F0992349F08092570AEB
:103810009092580AA092590AB0925A0A05C081E0C3
:10382000B501A4010E94DB149091230A9470809149
:10383000270A8B7F892B8093270AC501B4012CE3CB
:1038400030E040E050E00E94BE6D79018A01809135
:10385000120A9091130AA091140AB091150AE81661
:10386000F9060A071B0709F4C5C0E092120AF09294
:10387000130A0093140A1093150A552444241E01B8
:103880000894211C311CABC0852DB1010E94192D5B
:10389000C101B501A4010E94292C882309F49EC00E
:1038A00000E0852D8F5F29968FAF299792C0602EFB
:1038B000772493012F5F3F4F8091250A90E0821774
:1038C000930709F485C08091260A90E08217930738
:1038D00009F47EC0D30113E0B695A7951A95E1F7D8
:1038E000202F2770FD01E35DF54F808190E0022ECF
:1038F00002C0959587950A94E2F780FD69C0AB5B9D
:10390000B54F8C9190E002C0959587952A95E2F786
:1039100080FD5EC0ECE0F0E0EC0FFD1FE60DF71D52
:103920002081222309F454C0F301EE0FFF1FEE0F94
:10393000FF1FE253F44F80819181A281B3810097F0
:10394000A105B10509F044C0822F0E94664C0E9477
:10395000934C6B017C01898181FF1FC010912E0265
:10396000212F30E040E050E0C701B6010E946C6DAD
:1039700024E630E040E050E00E94BE6DC901DA016B
:103980006C017D01143148F49AE0C916D104E104B8
:10399000F10418F4CC24DD247601F301EE0FFF1FAF
:1039A000EE0FFF1FE253F44FC082D182E282F38216
:1039B000C114D104E104F10459F0EEE8FCE06E0E0C
:1039C0007F1E29968FAD2997F30180834424439469
:1039D0000F5F80912C0A081708F469CF53948091E7
:1039E0000D0B581608F450CF442021F0C501B40146
:1039F0000E9478168091230A83FFF7C0772486C03F
:103A0000872D90E0FC01E35DF54F2081672C660C6B
:103A1000660C660CEE24FF24222E33246BE4462E23
:103A20006AE0562E480E591ED62CDE0C0D2D10E0E5
:103A300098012F5F3F4F8091250A90E082179307EE
:103A400009F45BC08091260A90E08217930709F47D
:103A500054C0F801E257F34F80818823A9F0F801A0
:103A6000EE0FFF1FEE0FFF1FE253F44F8081918195
:103A7000A281B38188169906AA06BB0628F08D2D6F
:103A8000B501A4010E940C18C1010E2C02C095952D
:103A900087950A94E2F780FD30C09801220F331F0A
:103AA000220F331FF901E25FF44F80819181A281DF
:103AB000B38188169906AA06BB06F8F02253344F44
:103AC000F90180819181A281B38188169906AA06A5
:103AD000BB0698F48D2D61E00E945B1FF20180818E
:103AE00090E00E2C02C0959587950A94E2F780FF2E
:103AF00004C08D2D61E00E9496270894E11CF11C02
:103B0000F8E0EF16F10409F08FCF739480912B0A3F
:103B1000781608F475CFC501B4010E9492180E946E
:103B2000FE271092C60C1092C70C1092C80C10926F
:103B3000C90C70912C0A60E080E03FC0A62FB0E075
:103B4000FD01EE0FFF1FEE0FFF1FE253F44FE08069
:103B5000F180028113818E149F04A006B10660F5E6
:103B600093E0B695A7959A95E1F7AF5AB54F8C912A
:103B700090E0262F277002C0959587952A95E2F749
:103B800080FF19C02091C60C3091C70C4091C80C21
:103B90005091C90CD801C701E216F30604071507B6
:103BA00010F4DA01C9018093C60C9093C70CA0935E
:103BB000C80CB093C90C81E06F5F671708F4BECFE3
:103BC000882399F40E947F1F0E94FE270E94212BC8
:103BD0008091230A877F8093230A8091100280932B
:103BE000250A809182028093260AD090250ADD2042
:103BF00009F470C08091160290911C02C0902C0AAA
:103C0000FF2401E010E02D2C3324482E5524662497
:103C10007724492F50E060E070E04C535040604002
:103C2000704050C02F2D30E02016310609F447C0F7
:103C3000D90183E0B695A7958A95E1F7F7E0EF2ED5
:103C4000EF20FD01E35DF54F808190E00E2C02C076
:103C5000959587950A94E2F780FF31C0AD5CB54F2A
:103C60008C9190E002C095958795EA94E2F780FFE9
:103C700026C0220F331F220F331FF901E25FF44FDA
:103C800080819181A281B381840D951DA61DB71DF0
:103C900088169906AA06BB0690F02253344FF90104
:103CA00080819181A281B381840F951FA61FB71FC8
:103CB00088159905AA05BB0510F061E007C0F394CB
:103CC0000F5F1F4FFC1408F4ADCF60E08D2D8150C5
:103CD0000E945B1FD090260ADD2009F470C08091FD
:103CE000880290918E02C0902C0AFF2401E010E01F
:103CF0002D2C3324482E552466247724492F50E058
:103D000060E070E04C5350406040704050C02F2D38
:103D100030E02016310609F447C0D90193E0B6958A
:103D2000A7959A95E1F787E0E82EEF20FD01E35D86
:103D3000F54F808190E00E2C02C0959587950A94EE
:103D4000E2F780FF31C0A15CB54F8C9190E002C0DA
:103D500095958795EA94E2F780FF26C0220F331FDE
:103D6000220F331FF901E25FF44F80819181A2811C
:103D7000B381840D951DA61DB71D88169906AA0648
:103D8000BB0690F02253344FF90180819181A281CA
:103D9000B381840F951FA61FB71F88159905AA0523
:103DA000BB0510F061E007C0F3940F5F1F4FFC14D8
:103DB00008F4ADCF60E08D2D81500E945B1FC501DE
:103DC000B4010E9492180E94FE2780910A0A88235B
:103DD00089F4C501B40123E030E040E050E00E94E6
:103DE000BE6D9B01AC012A5E3C4F81E0F901608110
:103DF0000E945D220E944D130E94AA130E942A195C
:103E0000C501B4010E942016C85BDF4F0FB6F894BD
:103E1000DEBF0FBECDBFCF91DF911F910F91FF90FD
:103E2000EF90DF90CF90BF90AF909F908F907F905A
:103E30006F905F904F903F902F9008959C01F9995B
:103E4000FECF32BD21BDF89A80B508959C01F99945
:103E5000FECF1FBA32BD21BD60BD0FB6F894FA9AED
:103E6000F99A0FBE0895E0910A0BF0910B0B09959A
:103E70000895FC0124EF33E084E02431380711F485
:103E800040E009C0F999FECFC901019632BD21BDBC
:103E9000F89A40B59C019081442331F0992349F070
:103EA000491739F43196E8CF80E0992319F481E07D
:103EB000089580E00895282F277086958695869529
:103EC00090E0662369F0FC01E35DF54F81E090E04E
:103ED00002C0880F991F2A95E2F72081282B0DC078
:103EE000FC01E35DF54F81E090E002C0880F991F6F
:103EF0002A95E2F780952081282320830895109247
:103F00002D0A10922E0A10922F0A1092300A109247
:103F1000310A1092320A08951092F80A1092F70AA4
:103F200082E093E09093F60A8093F50A08958091D9
:103F30004C026FEF70E0681B71098CE00E94754EB7
:103F40000895609146028DE070E00E94754E0895DC
:103F5000EF92FF920F931F93CF93DF93E82E162FCC
:103F6000042FF22E662321F0623081F4222371F0B7
:103F70008E2D0E94A450892B11F000E024C0FF2058
:103F800011F480E001C080E8082B1DC0C0E0D0E043
:103F90008E2D0E94A450892B81F4113031F0123003
:103FA00061F483E0C83ED80744F461E070E080E04B
:103FB00090E00E94494F2196EBCFFF2019F4C85E94
:103FC000D3400CF00068802FDF91CF911F910F91AB
:103FD000FF90EF9008950F931F93082F10910C0BF3
:103FE000107861E070E080E090E00E94494F8FE13E
:103FF0000E94A450892B21F48FE1602F41E013C06F
:104000008EE10E94A450892B21F48EE1602F42E0C2
:104010000AC08DE10E94A450892B11F040E007C036
:104020008DE1602F44E0212F0E94A81F482F80912E
:104030000C0B90E08F709070242F30E0892B39F4B6
:104040002F703070232B71F0842F806406C02F7086
:104050003070232B39F4842F806240930C0B1F9116
:104060000F910895842FF9CF8BE00E94A45040E077
:104070002091280230E08217930709F041E0440FB5
:10408000440F8091230A8B7F842B8093230A089509
:104090001F93182F843690F064E60E948B6D682F72
:1040A00085EF9AE070E04AE050E00E943D5485EFD1
:1040B0009AE060E171E00E94505402C08A30A0F0A2
:1040C000812F6AE00E948B6D0E948B6D692F85EFB6
:1040D0009AE070E04AE050E00E943D5485EF9AE09B
:1040E00060E171E00E945054812F6AE00E948B6D64
:1040F000692F85EF9AE070E04AE050E00E943D545D
:104100001F910895EF92FF920F931F938C0185EFFB
:10411000E82E8AE0F82EC8016AE070E00E94AB6DDC
:10412000C7014AE050E00E943D54C8016AE070E0D7
:104130000E94AB6DBC01C7014AE050E00E943D54B3
:104140001F910F91FF90EF900895CF93DF93EC01B3
:1041500004C085EF9AE00E945D53FE0121966491B0
:104160006623B9F7DF91CF9108950F931F93CF93F3
:10417000DF93182F092F85EF9AE060E040E00E945E
:10418000EE11212F302FC901EC0110E005C083E8AA
:1041900093E00E94A5202196688170E094E07595D7
:1041A00067959A95E1F785EF9AE040E150E00E942B
:1041B0003D54688170E06F70707085EF9AE040E167
:1041C00050E00E943D54143031F485EF9AE060E0F5
:1041D00041E00E94EE111F5F1630C9F68CE793E0B4
:1041E0000E94A520DF91CF911F910F9108950F9309
:1041F0001F93CF93DF938C01462F85EF9AE060E009
:104200000E94EE11E80104C085EF9AE00E945D5320
:104210009E01201B822FFE01219664916623A1F747
:10422000992787FD9095C0E1D0E0C81BD90B05C048
:1042300080E993E00E94A5202197D7FFF9CFDF9175
:10424000CF911F910F9108950F931F93CF93DF93F9
:104250008C01FC01EE0FFF1FE80FF91FEE0FFF1F8F
:10426000EA55FE4F8081918160E00E94F72082E64E
:1042700093E061E00E94F72085EF9AE060E041E082
:104280000E94EE110331110509F487C004311105B4
:10429000BCF40C30110509F4AFC00D30110544F425
:1042A0000115110561F10130110509F0CCC034C0D0
:1042B0000E301105F1F00131110509F0C4C0AAC09A
:1042C0000C31110509F4BAC00D3111054CF404315B
:1042D000110509F471C00B31110509F0B4C0A2C079
:1042E0000632110509F459C00732110509F0ABC0B7
:1042F00063C085EF9AE062E171E00E945054F801DA
:10430000EE0FFF1FE00FF11FEE0FFF1FEC55FE4FEA
:1043100080810E944820B5C08091AA01C82FD0E0BA
:10432000E097D7FD05C080E693E00E94A52007C076
:104330008EE593E00E94A520D095C195DF4FCE0178
:1043400064E070E00E94AB6D85EF9AE04AE050E0D7
:104350000E943D548CE593E00E94A520CE0164E0CC
:1043600070E00E94AB6D9C01BC0184E0660F771F7A
:104370008A95E1F7621B730B29F489E593E00E94AB
:10438000A52006C085EF9AE04AE050E00E943D5427
:1043900084E593E00E94A5207AC082E593E00E9424
:1043A000A520F801EE0FFF1FE00FF11FEE0FFF1F1A
:1043B000EC55FE4F60815EC0F801EE0FFF1FE00F6D
:1043C000F11FEE0FFF1FEC55FE4F80818C3320F064
:1043D00080E593E00E94A520F801EE0FFF1FE00F9B
:1043E000F11FEE0FFF1FEC55FE4F608170E06C5324
:1043F000704085EF9AE041C07091F20160E08091D9
:10440000EC01680F711D85EF9AE04AE050E00E94D0
:10441000EC533DC080910A020E94D64CBC0185EF4E
:104420009AE007C00E94A11F6091460285EF9AE0C2
:1044300070E04AE050E00E943D5429C00E94971F5E
:1044400060914C02F3CFF801EE0FFF1FE00FF11F58
:10445000EE0FFF1FEC55FE4F81816081813051F4DA
:10446000662319F489E493E002C08CE493E00E948F
:10447000A52007C085EF9AE070E04AE050E00E9476
:104480003D540731110519F487E493E00FC0C801CA
:104490004397029748F00632110531F007321105B3
:1044A00019F00131110521F482E493E00E94A52066
:1044B000DF91CF911F910F910895FF920F931F935A
:1044C000482FF62E85EF9AE060E00E94EE11809171
:1044D000240A8F7019F488E793E010C086E793E010
:1044E0000E94A5206091240A6F7085EF9AE070E029
:1044F0004AE050E00E943D5484E793E00E94A520EA
:104500008091230A80FD06C088E693E061E00E9466
:10451000F7202EC0E091240AEF70F0E0E35DF54F44
:10452000008110E09091240A9F70990F990F990FC4
:104530009F5F910F80911002981721F400FD0EC02B
:104540006DE40DC080918202981721F400FD06C031
:104550006EE405C000FD02C06FE501C06F2D85EF60
:104560009AE00E945D531F5F183011F00695DACF74
:1045700083E693E00E94A52085EF9AE06DE041E09C
:104580000E94EE118091230A81FD06C082FF09C0BE
:1045900080912202882329F085EF9AE063E00E944F
:1045A000AA1185EF9AE06EE041E00E94EE11809141
:1045B000230A85FF05C085EF9AE062E00E94AA11F8
:1045C00085EF9AE06FE041E00E94EE1160E080919B
:1045D000240A82958F7090E003970CF061E085EFDC
:1045E0009AE00E94AA111F910F91FF900895DF9207
:1045F000EF92FF920F931F93CF93DF937C01D62E00
:1046000085EF9AE00E941D1285EF9AE060E040E09D
:104610000E94EE118701C0E0D0E0DD2019F0F80122
:10462000638104C0F701EC0FFD1F608185EF9AE004
:1046300070E04AE050E00E943D54C33021F085E82C
:1046400093E00E94A520219601501040C430D1056E
:1046500021F7DF91CF911F910F91FF90EF90DF90A5
:104660000895E4E9F2E0A4EABAE080818C933697F9
:10467000119781E0EE39F807C1F782EC97E06CE71B
:104680007AE049E250E026E23FE10E943107809162
:10469000FE018F5F80932B0A90E053E0880F991FF3
:1046A0005A95E1F780932C0A909134029170809191
:1046B000230A8E7F892B8093230A08950F931F93DB
:1046C000CF93DF93EC010AEA82E00E94EB1F482FB0
:1046D00050E09A012F7030702230310541F12430C2
:1046E000310509F443C02130310509F093C020970A
:1046F00009F493C0CE30D10509F48FC0CC30D10578
:1047000009F48BC0CD30D10509F487C0FE01EE0F4E
:10471000FF1FEC0FFD1FEE0FFF1FEC55FE4F9081AA
:104720008181891709F479C09F5F908376C02097B3
:1047300009F470C0CE30D10509F46CC0CC30D1057D
:1047400009F468C0CD30D10509F464C0FE01EE0F54
:10475000FF1FEC0FFD1FEE0FFF1FEC55FE4F90816A
:10476000992309F457C09150908354C086FF52C0DA
:1047700087FF0AC080919402882311F0009394026D
:104780000E94312311E04AC0C330D10539F4809131
:10479000B601882339F1CCE0D0E02BC0CC30D10574
:1047A00019F4CEE0D0E025C0C531D10539F48091AF
:1047B00022028823B9F4C7E1D0E01BC0C231D10581
:1047C00039F480911002882369F4C5E1D0E011C06A
:1047D000C532D10539F480918202882319F4C8E2E8
:1047E000D0E007C0CE01019669E270E00E94AB6D97
:1047F000EC01FE01EE0FFF1FEC0FFD1FEE0FFF1F80
:10480000EC55FE4F0480F581E02DE491EF3529F45D
:10481000219603C0882309F457CF10E0CE010E94EF
:104820002421112309F450CF85EF9AE00E94DC1176
:10483000DF91CF911F910F9108958091230A8E7F70
:104840008093230A109234020E94312308958091AC
:10485000230A81608093230A81E0809334020E94BE
:10486000312308958CEE93E06BE17AE048E050E06C
:1048700026E23FE10E94310708958091230A8D7F4F
:104880008093230A10921F0A1092200A1092210A84
:104890001092220A0E94322408958091230A826095
:1048A0008093230A0E943224089546E050E026E2D5
:1048B0003FE10E9431070895FB01108A90E024E057
:1048C000880F991F2A95E1F78C559B4F40E150E0E6
:1048D00026E23FE10E94310708958CE79AE062ECFE
:1048E00077E049E250E02EE13FE10E941507ACE796
:1048F000BAE0E4EAF1E08D91808336968AE0A53A49
:10490000B807C9F78091FE018F5F80932B0A90E072
:1049100033E0880F991F3A95E1F780932C0A909124
:10492000340291708091230A8E7F892B8093230A11
:1049300008958BE19AE06CEE73E048E050E02EE1E0
:104940003FE10E9415078091230A9091240AA091CB
:10495000250AB091260A8093270A9093280AA093EB
:10496000290AB0932A0A08959C01CB01B90146E0B7
:1049700050E02EE13FE10E9415070895FB01108AE7
:10498000682F70E044E0660F771F4A95E1F76C5599
:104990007B4FCF0140E150E02EE13FE10E9415073F
:1049A0000895DF92EF92FF920F931F939C01D62EF2
:1049B0008CE79AE0B9014D2D50E02EE13FE10E94D5
:1049C0001507ECE7FAE020E030E040E050E060E07E
:1049D00038C0908179018A0154E0EE0CFF1C001F61
:1049E000111F5A95D1F7892F80538A3030F4892FBF
:1049F000992787FD9095C09719C0892F81548630DB
:104A000030F4892F992787FD9095C7970FC0892F7C
:104A10008156863028F020E030E040E050E013C0BE
:104A2000892F992787FD9095875590409C014427B1
:104A300037FD4095542F2E0D3F1D401F511F6F5FB6
:104A400031966D1530F2B901CA011F910F91FF9097
:104A5000EF90DF900895EF92FF920F931F93CF9303
:104A6000DF938B017A01C82FD0E064E0CC0FDD1F0B
:104A70006A95E1F7CC55DB4FCE0166E00E94D12468
:104A8000611571058105910521F10115110529F0C7
:104A9000F8016083718382839383CE01069666E07A
:104AA0000E94D124611571058105910591F0E114F1
:104AB000F10429F0F7016083718382839383CE012F
:104AC0000C9664E00E94D124611571058105910561
:104AD00011F460E070E0CB01DF91CF911F910F9155
:104AE000FF90EF900895AF92BF92DF92EF92FF9206
:104AF0000F931F93CF93DF930BE41AE0EE24FF2470
:104B000071E0A72EB12CF8011082DE2CDD0CDD0C3B
:104B1000DD0CC0E0D0E08D2D8C2B60E070E040E03B
:104B200050E00E942B25892B59F095010C2E02C0D4
:104B3000220F331F0A94E2F7F8018081822B8083D1
:104B40002196C830D10539F70894E11CF11C0F5F9C
:104B50001F4FF6E0EF16F104B1F6DF91CF911F91F0
:104B60000F91FF90EF90DF90BF90AF900895EF927C
:104B7000FF920F931F93CF93DF9364EF71E080E078
:104B800090E00E94494FF999FECF82EC97E092BDE8
:104B900081BDF89A80B5863D59F4F999FECF8AEE29
:104BA00097E092BD81BDF89A80B58A3A09F0B4C009
:104BB00082ED93E060E00E94F72083EC93E061E0F7
:104BC0000E94F720ECE7FAE011928AE0E43FF80750
:104BD000D9F7C0E0D0E000E018E0A8014C1B5D0B65
:104BE0004937510514F048E750E0CE016CE77AE010
:104BF00026E23FE10E943107C858DF4F88E0C03706
:104C0000D80759F70E94322484EF93E064E171E001
:104C100049E050E026E23FE10E94310784E194E060
:104C20006DE171E04AE050E026E23FE10E94310789
:104C300084E494E067E271E040E250E026E23FE184
:104C40000E94310784E894E067E471E041E050E0BD
:104C500026E23FE10E94310783E580937C0A1092AF
:104C60007F0A04EA14E0C1E0D0E0ECE7EE2EEAE0CF
:104C7000FE2ECE016AE070E00E94AB6D605D609335
:104C80007D0ACE016AE070E00E94AB6D805D80938A
:104C90007E0AF70101900020E9F7EC57FA40C801BD
:104CA0006CE77AE0AF0126E23FE10E943107005F46
:104CB0001F4F219687E0043A1807D9F68FEF8093AB
:104CC0007C0A80937D0A80937E0A80937F0A80937A
:104CD000800A8093810A84EA97E06CE77AE046E0F4
:104CE00050E026E23FE10E9431078CEB97E06CE751
:104CF0007AE046E050E026E23FE10E9431070E9460
:104D0000312364EF71E080E090E00E94494FE09130
:104D10000A0BF0910B0B09950E946D2484EA97E031
:104D200063E37AE00E94B4248AEA97E069E37AE0D8
:104D30000E94B42480EB97E06FE37AE00E94B424F1
:104D400086EB97E065E47AE00E94B4248CEB97E070
:104D500061E57AE00E94B4240E9473250E949924A0
:104D600080E00E94EB1F90E08F7090708130910581
:104D700019F0049779F503C088E290E020C083EB36
:104D800093E060E00E94F72060ED77E080E090E043
:104D90000E94494F82EA93E060E00E94F72082E996
:104DA00093E061E00E94F72080E00E94EB1F86FF05
:104DB000FBCF85EF9AE00E941D1280E090E00E94F8
:104DC0005E2380919402882329F0E0910A0BF091F0
:104DD0000B0B09958CE061E00E94F44F8DE061E0DF
:104DE0000E94F44F0E94971F0E94A11FDF91CF9154
:104DF0001F910F91FF90EF900895EF92FF920F9304
:104E00001F93DC01CB0179018A01139A0E94A24F02
:104E10001398C7010E94A24F1F910F91FF90EF902E
:104E200008952F923F924F925F926F927F928F924E
:104E30009F92AF92BF92CF92DF92EF92FF920F9329
:104E40001F93DF93CF9300D00F92CDB7DEB74B0106
:104E50005C0179018A01DA01C901880F991FAA1F33
:104E6000BB1F8E0D9F1DA01FB11F582E692E7A2EBD
:104E7000CB2ED801C701F5E0880F991FAA1FBB1FD1
:104E8000FA95D1F78E199F09A00BB10B8983292EB2
:104E90003A2E4B2EDD242FC0D501C4010A8004C058
:104EA000B695A795979587950A94D2F780FF07C086
:104EB000652D762D872D9C2DA801970106C0C80170
:104EC000B701252D362D472D5C2D0E94FD268A81A8
:104ED0009B8101979B838A838F5F9F4FE9F6C8016F
:104EE000B7012981322D432D542D0E94FD26D394E4
:104EF000F8E1DF1629F087E190E09B838A83CCCF2D
:104F00000F900F900F90CF91DF911F910F91FF9015
:104F1000EF90DF90CF90BF90AF909F908F907F9059
:104F20006F905F904F903F902F9008951F93DF9365
:104F3000CF93CDB7DEB728970FB6F894DEBF0FBE7C
:104F4000CDBF162FBE016F5F7F4FAE014B5F5F4F2E
:104F50000E942B25AC01112329F069817A818B8174
:104F60009C8104C06D817E818F8198859A013695E0
:104F700027955695479556954795240F351F40E040
:104F800050E00E94112728960FB6F894DEBF0FBE9E
:104F9000CDBFCF91DF911F91089584E00E94534EC1
:104FA0009C0183E02E3B380718F020E030E024C05D
:104FB00083E02734380718F021E030E01DC082E09C
:104FC0002B3E380718F022E030E016C082E0223A8B
:104FD000380718F023E030E00FC082E025363807AC
:104FE00018F024E030E008C02353324018F025E0E8
:104FF00030E002C02FEF3FEFC9010895EF92FF921A
:105000000F931F93CF93DF9383E060E00E94715072
:1050100002E31AE08091230A80FD02C060E002C032
:10502000F8016081C7E0D0E0E62EFF2486E160E071
:105030000E947150B7010C2E02C0759567950A94B5
:10504000E2F7617085E10E94715086E161E00E94A3
:1050500071502197FFEFCF3FDF0741F7015010401C
:105060008AE00C321807B1F683E061E00E947150CB
:10507000DF91CF911F910F91FF90EF9008958F9244
:10508000AF92CF92EF920F931F93DF93CF93CDB751
:10509000DEB7A0970FB6F894DEBF0FBECDBF81E09C
:1050A00061E00E94F44F81E061E00E94715083E072
:1050B00061E00E94F44F83E061E00E94715086E15C
:1050C00061E00E94F44F85E161E00E94F44F10928C
:1050D0002D0A10922E0A10922F0A1092300A109266
:1050E000310A1092320A0E94FE2781E060E00E949D
:1050F00071508BE060E00E94F44F8BE061E00E9411
:1051000071508091230A81608093230A8091230A41
:105110009091240AA091250AB091260A8093270A2B
:105120009093280AA093290AB0932A0A88E691E06E
:1051300090931C0A80931B0A88E394E090931E0AC4
:1051400080931D0A11E010932B0A88E080932C0AAB
:105150008CE161E00E94F44F8CE160E00E947150AC
:1051600080E061E00E94F44F80E061E00E947150B5
:10517000109381008CE061E00E94F44F8DE061E0CB
:105180000E94F44F0E94971F0E94A11F00D000D0E0
:10519000EDB7FEB73196ADB7BEB711961C9211822E
:1051A0001282138285EF9AE061E043E12FEF02E182
:1051B00034E1E32E15E1C12EB6E1AB2EA7E18A2E34
:1051C0000E9494120F900F900F900F9085EF9AE02D
:1051D00060E142E020E00E9425128FEC9EE00E94F8
:1051E0002D55DE011196E1E3F3E088E001900D9288
:1051F0008150E1F7DE011996E9E2F3E088E00190E1
:105200000D928150E1F7DE015196E1E2F3E088E092
:1052100001900D928150E1F7DE015996E9E1F3E04A
:1052200088E001900D928150E1F785EF9AE061E00E
:105230008E010F5F1F4FA8010E94B4111A821B82BA
:1052400081E08C8385EF9AE060E0A8010E94B411B0
:1052500085EF9AE062E0AE01475F5F4F0E94B411B4
:1052600085EF9AE063E0AE014F5E5F4F0E94B4119C
:1052700085EF9AE064E0AE01475E5F4F0E94B41193
:105280008FE160E00E94F44F8EE160E00E94F44FF5
:105290008DE160E00E94F44F8FE161E00E94715067
:1052A0008EE161E00E9471508DE161E00E947150D9
:1052B0000E942F0C882329F48091230A8061809317
:1052C000230AA0960FB6F894DEBF0FBECDBFCF91D4
:1052D000DF911F910F91EF90CF90AF908F90089535
:1052E000EF92FF920F931F930E94534B7B018C010F
:1052F0006091AA0170E080E090E024E833E040E0B3
:1053000050E00E946C6D9B01AC01205C384A40402B
:1053100050402E0D3F1D401F511FB901CA011F9162
:105320000F91FF90EF9008950E94702920E831E5D9
:1053300041E050E00E94BE6D2D5F3F4F4F4F5F4FE9
:10534000CA01B90127E030E040E050E00E94BE6DA4
:10535000862F0895EF92FF920F931F937B018C018C
:1053600085EF9AE060E040E00E94EE11C801B701CD
:105370000E94404A0E9482208EE893E00E94A5206D
:10538000C801B7010E943A4A0E9482208BE893E04C
:105390000E94A5200E949429E82FF0E0EE0FFF1F45
:1053A000E656FD4F808191810E94A52089E893E017
:1053B0000E94A520C801B7010E94284A0E948220AD
:1053C00087E893E00E94A520C801B7010E94344AF3
:1053D0000E9482201F910F91FF90EF900895CF932C
:1053E000DF938FEC9EE060E570E00E9453548FECF9
:1053F0009EE060E00E94D5548FEC9EE00E9418551C
:10540000882311F080E029C08FEC9EE060E570E019
:105410000E9453548FEC9EE06AEF0E94D5548FECAB
:105420009EE00E9418558FEC9EE060E570E046E03B
:1054300050E00E9429558FEC9EE00E945D54892B1C
:10544000D1F3CCE7DAE08FEC9EE00E9466548993BA
:105450008AE0C238D807B9F781E0DF91CF9108958B
:10546000DF93CF93CDB7DEB728970FB6F894DEBFA2
:105470000FBECDBF8FED93E061E00E94F7200E9448
:10548000534B60936F0A7093700A8093710A9093E4
:10549000720A6093730A7093740A8093750A9093EA
:1054A000760A0E94EF29882391F410927C0A89E6FB
:1054B00080937D0A80937E0A8DE280937F0A81E348
:1054C0008093800A809140028093810A05C0809178
:1054D000230A80688093230A8CED95E06CE77AE0DC
:1054E00044E00E94D50F882309F461C09091F20135
:1054F00080E02091EC01820F911D909394018093A4
:1055000093018091B601882349F10E94500A8823B3
:1055100009F44DC08091CA038093BC018091CB03F4
:105520008093C2018091CC038093C8018091CD0308
:105530008093CE018091D6038093D4018091D703CC
:105540008093DA018091D8038093E0018091D903A0
:105550008093E6010E94312391E02AC08091BC0132
:1055600089838091C2018A838091C8018B83809155
:10557000CE018C838091D4018D838091DA018E835A
:105580008091E0018F838091E6018887AE014B5FB7
:105590005F4FCE010196BA0120E030E00E949F0FDC
:1055A00090E0882309F491E081E0982701C090E021
:1055B000892F28960FB6F894DEBF0FBECDBFCF91CE
:1055C000DF9108959C01F999FECF32BD21BDF89A73
:1055D00080B508959C01F999FECF1FBA32BD21BD57
:1055E00060BD0FB6F894FA9AF99A0FBE0895AEE826
:1055F000BCE080E090E0FC01E25FF44F1082118299
:1056000012821382FC01E253F44F10821182128243
:1056100013821D920496803C910569F71092C60C86
:105620001092C70C1092C80C1092C90CF999FECFB9
:1056300089E090E092BD81BDF89A80B580930D0B12
:105640000895AEE8BCE080E090E0FC01E25FF44F3A
:105650001082118212821382FC01E253F44F1082F5
:105660001182128213821D920496803C910569F783
:105670001092C60C1092C70C1092C80C1092C90C54
:10568000089510920D0BF999FECF1FBA89E090E0B2
:1056900092BD81BD10BC0FB6F894FA9AF99A0FBE6C
:1056A0000895982F80910D0B981708F041C0992309
:1056B00009F43EC0892F90E0019727E430E0AC0167
:1056C000429FC001439F900D529F900D11249C0159
:1056D000265F3F4F8F5A9F4F24C0F999FECF32BDAE
:1056E00021BDF89A50B5F999FECF72BD61BDF89A07
:1056F00040B5F999FECF1FBA32BD21BD40BD0FB6EE
:10570000F894FA9AF99A0FBEF999FECF1FBA72BDB2
:1057100061BD50BD0FB6F894FA9AF99A0FBE2F5F8B
:105720003F4FB901695B7F4F2817390709F0D5CF83
:10573000089577FF03C06FEF7FEF22C0CB01977012
:1057400074FF03C0909581959F4F76FF0BC06091C9
:105750001B0A70911C0A680F791F77FF11C060E067
:1057600070E00EC075FF0CC060911D0A70911E0A9A
:10577000680F791F85E0603A780714F06FE975E0EB
:10578000CB010895BF92CF92DF92EF92FF920F93D9
:105790001F936C01FC01B080E1800E94702920E819
:1057A00031E541E050E00E94BE6D2B0D311D411DE1
:1057B000511DFF2400E010E0CA01B901A8019701C2
:1057C0000E94BE6DF60160831F910F91FF90EF90D4
:1057D000DF90CF90BF9008958F929F92AF92BF922B
:1057E000CF92DF92EF92FF920F931F934C01FC0137
:1057F000A180E080FF24EA0CF11C0027F7FC009553
:10580000102F0E947029BB24CC24DD2420E831E530
:1058100041E050E00E94BE6DCA01B901A6019501A8
:105820000E94BE6DE61AF70A080B190BC801B701F2
:10583000A60195010E94BE6DF40160831F910F9136
:10584000FF90EF90DF90CF90BF90AF909F908F90A0
:1058500008957F928F929F92AF92BF92CF92DF92E4
:10586000EF92FF920F931F93CF93DF936C017A0116
:105870008B01CB01BA010E94404A4C01C801B7011B
:105880000E943A4AEC01C801B7010E942E4AA82E94
:10589000C801B7010E94344AB82EC801B7010E945E
:1058A000284A782ED6018C9180FFB4C082958370EF
:1058B00090E082309105B9F08330910509F1892B90
:1058C000E1F5F601218130E08A2D90E0059667E050
:1058D00070E00E94AB6D02C0359527958A95E2F77E
:1058E00020FD2BC097C02B2D30E0D60111968C9156
:1058F00090E08F7190702817390709F08BC01DC098
:10590000C801B70120E831E541E050E00E94BE6DDA
:10591000CA01B901F601228130E040E050E00E9466
:10592000BE6DD60111962C9130E040E050E0621738
:1059300073078407950709F06DC0F601808186958D
:1059400086958370A1F0823019F4B0FE10C062C059
:10595000813069F4FFE1BF1609F45CC08DE1B8162F
:1059600021F492E0791609F455C0B0FE53C08CE3DF
:1059700090E0889E8001899E100D989E100D112444
:105980000C0F1D1FD6018C9186FD30C013966D91B2
:105990007C911497C6010E94992BF601C581D6818E
:1059A0000780F085E02D9C010817190798F12097D2
:1059B00029F480E00217130771F526C0309751F1E2
:1059C000C801821B930B9C01BF010E94976D6E9FC3
:1059D000C0016F9F900D7E9F900D11248217930739
:1059E000C9F480E0C617D707B4F00EC0E60188E01E
:1059F000E82EF12CEC0CFD1C6B817C81C6010E9411
:105A0000992B0817190711F481E005C02296CE15CD
:105A1000DF0591F780E0DF91CF911F910F91FF900B
:105A2000EF90DF90CF90BF90AF909F908F907F903E
:105A30000895982F9B0180910D0B981768F467E4E7
:105A4000969FB0011124665F7F4FC90147E450E083
:105A500022EE3AE20E9415070895DF92EF92FF923C
:105A60000F931F93DF93CF93CDB7DEB7C754D040CA
:105A70000FB6F894DEBF0FBECDBF20910D0B82177D
:105A800008F046C0222309F443C090E0019627E4C1
:105A900030E0829F8001839F100D929F100D112492
:105AA000065F1F4F97E4D92E7E010894E11CF11C7C
:105AB00014C0C701B80147E450E022EE3AE20E9468
:105AC0001507C80187549040B70147E450E02AEE1B
:105AD0003AE20E943107095B1F4F20910D0B2D9D6B
