:100000000C9491050C94B9050C94B9050C94B905A0
:100010000C94B9050C94B9050C94B9050C94B90568
:100020000C940B090C94B9050C94B9050C94B90502
:100030000C94B9050C94B9050C94B9050C94B90548
:100040000C94B9050C94B9050C9468630C94B9052B
:100050000C945D640C94EB640C94B9050C94B90594
:100060000C94B9050C94B9050C9451600C94B90525
:100070000C9492640C9426650C94B9056376006A1E
:1000800063006470006370006372007570006A70D2
:1000900000636F006A6F007370006A7300636D0025
:1000A0006373006A6E006A6C00646C0073750063B1
:1000B0007500776561746865722E6F70656E737018
:1000C00072696E6B6C65722E636F6D002F77656160
:1000D000746865720024442E70793F6C6F633D2410
:1000E00045266B65793D2445266677763D24440098
:1000F000485454502F312E3020323030204F4B0D89
:100100000A43616368652D436F6E74726F6C3A20A9
:100110006D61782D6167653D3630343830302C2084
:100120007075626C69630D0A0D0A0024460048541C
:1001300054502F312E3020323030204F4B0D0A4397
:100140006F6E74656E742D547970653A207465789D
:10015000742F68746D6C0D0A507261676D613A207E
:100160006E6F2D63616368650D0A41636365737328
:100170002D436F6E74726F6C2D416C6C6F772D4FC9
:10018000726967696E3A202A0D0A0D0A003C736392
:10019000726970743E77696E646F772E6C6F6361FD
:1001A00074696F6E3D222F223B3C2F73637269701E
:1001B000743E0A00485454502F312E3020323030D3
:1001C000204F4B0D0A436F6E74656E742D54797019
:1001D000653A206170706C69636174696F6E2F6A33
:1001E000736F6E0D0A436F6E6E6E656374696F6E2A
:1001F0003A20636C6F73650D0A4163636573732DF9
:10020000436F6E74726F6C2D416C6C6F772D4F72F3
:100210006967696E3A202A0D0A43616368652D4358
:100220006F6E74726F6C3A206E6F2D6361636865D8
:100230000D0A0D0A0024467B22726573756C7422C8
:100240003A24447D0024467B22726573756C7422C7
:100250003A24447D002446244600222446223A249F
:10026000447D005D002C24530024530024465B0091
:100270005D2C226E73746174696F6E73223A24442C
:100280007D002C0024440022736E223A5B00244639
:100290005265626F6F74696E672E2E2E002C226479
:1002A000657870223A24442C226D657870223A24B5
:1002B000447D002C00222446223A24440022244675
:1002C000223A244C0024467B003C6D657461206E0C
:1002D000616D653D2276696577706F727422206367
:1002E0006F6E74656E743D2277696474683D6465F1
:1002F000766963652D77696474682C696E697469C1
:10030000616C2D7363616C653D312E302C6D696EAF
:10031000696D756D2D7363616C653D312E302C7583
:100320007365722D7363616C61626C653D6E6F22E3
:100330003E0D0A003C736372697074207372633DF2
:100340002224452F686F6D652E6A73223E3C2F7301
:1003500063726970743E0A3C2F626F64793E0A3C96
:100360002F68746D6C3E00766172207665723D2454
:10037000442C697061733D24443B3C2F7363726964
:1003800070743E0A0024463C21444F435459504562
:100390002068746D6C3E0A3C68746D6C3E0A3C6863
:1003A0006561643E0A24463C2F686561643E0A3CF0
:1003B000626F64793E0A3C7363726970743E005BDD
:1003C000302C305D5D2C226C72756E223A5B2444B9
:1003D0002C24442C24442C244C5D7D005B24442C90
:1003E000244C2C244C5D2C00305D2C227073223A5E
:1003F0005B0024442C002264657674223A244C2C41
:10040000226E627264223A24442C22656E223A24BF
:10041000442C227264223A24442C227273223A24FD
:10042000442C2272647374223A244C2C226C6F6325
:10043000223A222445222C2277746B6579223A22B3
:100440002445222C2273756E72697365223A244406
:100450002C2273756E736574223A24442C227362C5
:10046000697473223A5B005D7D00225D00225D2C81
:1004700000245300244C5D2C2200244C2C002444E6
:100480005D2C5B0024442C005B24442C24442C244D
:10049000442C5B00226E70726F6773223A24442CE6
:1004A000226E626F61726473223A24442C226D6E54
:1004B00070223A24442C226D6E7374223A24442C08
:1004C00022706E73697A65223A24442C2270642269
:1004D0003A5B003C6872202F3E3C666F726D206E66
:1004E000616D653D6F6620616374696F6E3D637514
:1004F000206D6574686F643D6765743E3C703E3C7A
:10050000623E5363726970742055524C3A3C2F62BC
:100510003E3C696E70757420747970653D746578C1
:10052000742073697A653D3332206D61786C656E35
:100530006774683D3132372076616C75653D2224E1
:100540004522206E616D653D6A73703E3C2F703EA2
:100550003C703E44656661756C7420697320245359
:100560003C6272202F3E4966206C6F63616C206F85
:100570006E2075534420636172642C20757365206E
:100580002E2F3C2F703E3C703E3C623E5061737398
:10059000776F72643A3C2F623E3C696E70757420CE
:1005A000747970653D70617373776F7264207369DD
:1005B0007A653D3332206E616D653D70773E3C69F2
:1005C0006E70757420747970653D7375626D6974B1
:1005D0003E3C2F703E3C6872202F3E3C2F666F726F
:1005E0006D3E002446005D2C226D61786C656E22A4
:1005F0003A24447D0073746E5F64697300616374B0
:100600005F72656C61790069676E6F72655F7261B8
:10061000696E006D61736F70002C002224532200FC
:1006200022736E616D6573223A5B002C00244400D6
:100630005D2C222446223A5B004E54502053796EA2
:1006400063696E672E2E2E00446574656374696E4F
:1006500067207553442E2E2E00302E20546573745F
:10066000202831206D696E29002E20002000486F5F
:100670006C6420423320746F207374617274004381
:100680006C69636B20423320746F206C6973740053
:1006900052756E20612050726F6772616D3A000072
:1006A000010800060400014500008200004000200F
:1006B00000504F535420244620485454502F312E7C
:1006C000300D0A486F73743A2024460D0A244624DC
:1006D000534163636570743A202A2F2A0D0A436FD1
:1006E0006E74656E742D4C656E6774683A20244490
:1006F0000D0A436F6E74656E742D547970653A20DF
:100700006170706C69636174696F6E2F782D777793
:10071000772D666F726D2D75726C656E636F646593
:10072000640D0A0D0A2453004745542024462453DF
:1007300020485454502F312E300D0A486F73743AAC
:100740002024460D0A24460D0A0D0A004163636504
:1007500070743A20746578742F68746D6C00E300CF
:1007600004FA00010000000166777600747A006EDA
:1007700074700064686370006970310069703200E1
:100780006970330069703400677731006777320031
:100790006777330067773400687030006870310025
:1007A0006172006578740073657100736474006D24
:1007B0006173006D746F6E006D746F660075727397
:1007C0000072736F00776C0064656E00697061730E
:1007D00000646576696400636F6E006C6974006420
:1007E000696D00726C7000757774006E7470310002
:1007F0006E747032006E747033006E7470340072F8
:1008000065736574004669726D77617265207665FF
:10081000722E00545A6F6E653A004E54503F005588
:10082000736520444843503F005374617469632EDC
:100830006970313A005374617469632E6970323A99
:10084000005374617469632E6970333A00537461A4
:100850007469632E6970343A004761746577617911
:100860002E6970313A00476174657761792E69703D
:10087000323A00476174657761792E6970333A00C6
:10088000476174657761792E6970343A0048545431
:100890005020706F72743A00004175746F20726559
:1008A000636F6E6E6563743F004578702E20626FD3
:1008B0006172643A0053657175656E7469616C3F6D
:1008C0000053746E2064656C61793A004D61732E3B
:1008D0002073746174696F6E3A004D61732E20202D
:1008E0006F6E2061646A2E3A004D61732E206F6630
:1008F000662061646A2E3A005261696E2073656EEB
:10090000736F723A004E6F726D616C6C79206F700C
:10091000656E3F00252057617465722074696D65AE
:100920003A0044657669636520656E61626C653F77
:100930000049676E2070617373776F72643F004483
:1009400065762E2049443A004C434420636F6E7410
:10095000726173743A004C4344206261636B6C694A
:100960006768743A004C43442064696D6D696E6732
:100970003A0052656C61792070756C73653A005568
:10098000736520776561746865723F004E54502E20
:100990006970313A004E54502E6970323A004E540C
:1009A000502E6970333A004E54502E6970343A001C
:1009B000526573657420616C6C3F004D6F6E00541E
:1009C0007565005765640054687500467269005388
:1009D00061740053756E00206D73002073656300B1
:1009E000207365630025004E6F00596573002B006E
:1009F0002B0020474D54003030003A002D002B00D2
:100A00000020202020002D44697361626C65642100
:100A10002D003A0045004D433A003A002E002D00CB
:100A200020002020003A002000486F6C64204233F0
:100A300020746F20736176650042312F42323A2B69
:100A40002F2D2C2042333A2D3E003D3D536574201E
:100A50004F7074696F6E733D3D00506C65617365D6
:100A600020576169742E2E2E005265736574746967
:100A70006E672044657669636500436F6E6E6563DB
:100A800074696E672E2E2E007C3C3E5E2B3D3F2F00
:100A90005B5D3B2C2A225C00000021002400270023
:100AA0002A0000002200250028002B000000200062
:100AB00023002600290002020202020202020404AC
:100AC00004040404040403030303030303030101F4
:100AD000010101010101010204081020408001020E
:100AE000040810204080010204081020408080404B
:100AF00020100804020100000001020000000000B4
:100B000000000403070600000000000000000000D1
:100B1000000000000000AD09C42D2C3A014EED5E2E
:100B2000066611241FBECFEFD0E1DEBFCDBF13E0BC
:100B3000A0E0B1E0E2E6F4ED02C005900D92A43E23
:100B4000B107D9F71FE0A4EEB3E001C01D92AD34A8
:100B5000B107E1F71BE0C2E2DBE004C02297FE012F
:100B60000E94F469C631D107C9F70E94BC670C9492
:100B70002F6A0C940000CF93DF93BC018230910563
:100B800010F462E070E0A0914B0FB0914C0FED01BA
:100B900040E050E0E0E0F0E021C0888199818617D4
:100BA000970769F48A819B81309719F09383828338
:100BB00004C090934C0F80934B0FFE0134C0681714
:100BC000790738F44115510519F08417950708F491
:100BD000AC01FE018A819B819C01E9012097E9F625
:100BE00041155105A9F1CA01861B970B049708F41A
:100BF000BA01E0E0F0E02AC08D919C911197841732
:100C00009507F9F46417750781F412968D919C91FC
:100C10001397309719F09383828304C090934C0FFD
:100C200080934B0FFD0132964CC0CA01861B970B77
:100C3000FD01E80FF91F6193719302978D939C93C7
:100C400040C0FD01828193819C01D9011097A1F6DA
:100C50008091490F90914A0F892B41F48091F201C4
:100C60009091F30190934A0F8093490F4091F401C2
:100C70005091F5014115510541F44DB75EB7809192
:100C8000F0019091F101481B590B2091490F3091CF
:100C90004A0FCA01821B930B8617970780F0AB019E
:100CA0004E5F5F4F8417950750F0420F531F5093CC
:100CB0004A0F4093490FF9016193719302C0E0E03C
:100CC000F0E0CF01DF91CF910895CF93DF930097AC
:100CD00009F450C0EC0122971B821A82A0914B0F9D
:100CE000B0914C0F109709F140E050E0AC17BD07F0
:100CF00008F1BB83AA83FE0121913191E20FF31F1A
:100D0000AE17BF0779F48D919C911197280F391F69
:100D10002E5F3F4F3983288312968D919C911397B4
:100D20009B838A834115510571F4D0934C0FC09376
:100D30004B0F20C012968D919C911397AD01009797
:100D400011F0DC01D3CFFA01D383C2832191319119
:100D5000E20FF31FCE17DF0769F488819981280F0E
:100D6000391F2E5F3F4FFA01318320838A819B8197
:100D700093838283DF91CF910895A0E0B0E0E3EC0C
:100D8000F6E00C94FA696C01009729F4CB010E94FB
:100D9000BB056C01C1C08EEF882E8FEF982E8C0C96
:100DA0009D1C8601060F171F0815190508F4B2C00F
:100DB000F401A081B181A617B707B8F0A530B1053D
:100DC00008F4AAC0CD0104978617970708F4A4C0B9
:100DD0001297A61BB70BF801A193B193D4016D93A1
:100DE0007C93CF010E94650697C07B01EA1AFB0A3B
:100DF000EEEFFFEFEE0EFF1E36016A0E7B1EC09176
:100E00004B0FD0914C0FAA24BB24442455244AC034
:100E1000C615D705E1F5488159814E155F05B8F132
:100E2000CA0104978E159F05B0F41296A40FB51F42
:100E3000F401B183A0832A813B814114510431F034
:100E4000D20113963C932E93129766C030934C0FA9
:100E500020934B0F61C08A819B81F8019383828329
:100E6000425050404E195F09518340834114510450
:100E700031F0D20113961C930E93129704C0109375
:100E80004C0F00934B0FF4017183608345C0888140
:100E90009981A816B90608F45C012E018A819B810C
:100EA0009C01E901209709F0B3CF8091490F9091FF
:100EB0004A0F86159705E9F4A616B706D0F42091D7
:100EC000F4013091F5012115310541F42DB73EB7FC
:100ED0008091F0019091F101281B390B0217130743
:100EE000C8F410934A0F0093490FD4016D937C937B
:100EF00013C0CB010E94BB05EC01009759F0F4012F
:100F000040815181B6010E94ED07C6010E9465062D
:100F10006E0102C0CC24DD24C601CDB7DEB7E0E10E
:100F20000C94166AFC0188279927E89421912032B5
:100F3000E9F3293010F02E30C8F32B3241F02D3276
:100F400039F4689404C00E949A08820F911D21917F
:100F500020532A30C0F31EF4909581959F4F089539
:100F60001F93FC0199278827BC01E8941191103246
:100F7000E9F3193010F01E30C8F31B3251F01D3266
:100F800049F4689406C00E948508610F711D811D97
:100F9000911D119110531A30B0F33EF49095809545
:100FA000709561957F4F8F4F9F4F1F910895FB0163
:100FB000DC0102C005900D9241505040D8F70895D1
:100FC000FB01DC0104C08D910190801921F4415096
:100FD0005040C8F7881B990B0895FB01DC0102C043
:100FE00001900D9241505040D8F70895DC0101C0A6
:100FF0006D9341505040E0F70895FC0181918617B0
:1010000021F08823D9F7992708953197CF010895C2
:10101000FB01DC0101900D920020E1F70895FB0136
:10102000DC014150504030F08D910190801919F44D
:101030000020B9F7881B990B0895FB01DC01415092
:10104000504048F001900D920020C9F701C01D9258
:1010500041505040E0F70895A0E0B0E0E2E3F8E04E
:101060000C94026A7C01EB018A01690109C0CE017E
:101070002196F6010995F70181937F0101501040F7
:1010800001151105A1F7CDB7DEB7E8E00C941E6A93
:10109000A0E0B0E0EEE4F8E00C94026AEC017B0121
:1010A0008A01690109C0CE012196F70161917F0192
:1010B000F60109950150104001151105A1F7CDB7B2
:1010C000DEB7E8E00C941E6AFB019F01E894423011
:1010D000C4F04532B4F44A3029F497FB1EF49095DD
:1010E00081959F4F642F77270E948E69805D8A3398
:1010F0000CF0895D8193CB010097A1F716F45DE2B6
:1011000051931082C9010C94DD08592F482F372FB5
:10111000262F660F771F881F991F660F771F881F5E
:10112000991F620F731F841F951F660F771F881FFB
:10113000991F08957AE0979F902D879F802D910D9C
:1011400011240895FA01CF93FF93EF932230CCF04E
:101150002532BCF4C22F2C2F332744275527FF9369
:10116000EF930E94B569EF91FF91605D6A330CF0D7
:10117000695D6193B901CA01605070408040904040
:1011800051F710828F919F91CF910C94DD08FB0154
:101190009F01423074F0453264F4642F77270E9437
:1011A0008E69805D8A330CF0895D8193CB01009755
:1011B000A1F71082C9010C94DD08DC01FC01672F46
:1011C00071917723E1F7329704C07C916D9370831E
:1011D0006291AE17BF07C8F308959C01F999FECF3D
:1011E00032BD21BDF89A80B508959C01F999FECFD2
:1011F0001FBA32BD21BD60BD0FB6F894FA9AF99AB4
:101200000FBE0895FC01A681B7816D93B783A683B5
:1012100081E090E008951F920F920FB60F92112473
:101220002F933F934F935F936F937F938F939F93EE
:10123000AF93BF93EF93FF93809123088F5F8093C9
:10124000230880912308803128F0E0912108F09153
:1012500022080995FF91EF91BF91AF919F918F91D6
:101260007F916F915F914F913F912F910F900FBEA2
:101270000F901F901895A5EAB9E080E090E0FC017E
:10128000EB5DF74F1082118212821382FC01EB5149
:10129000F74F10821182128213821D920496803CB5
:1012A000910569F71092DD091092DE091092DF09AD
:1012B0001092E009F999FECF81E090E092BD81BDE6
:1012C000F89A80B5809324080895982F8091240877
:1012D000981708F041C0992309F43EC0892F90E087
:1012E000019727E430E0AC01429FC001439F900D7D
:1012F000529F900D11249C012E5F3F4F875B9F4FA3
:1013000024C0F999FECF32BD21BDF89A50B5F999A4
:10131000FECF72BD61BDF89A40B5F999FECF1FBAF4
:1013200032BD21BD40BD0FB6F894FA9AF99A0FBEAE
:10133000F999FECF1FBA72BD61BD50BD0FB6F894CA
:10134000FA9AF99A0FBE2F5F3F4FB901695B7F4F41
:101350002817390709F0D5CF08951092E4071092A5
:10136000E30785E593E09093E2078093E10789E145
:101370008093EA071092ED07109200081092070878
:10138000109209080895AF92BF92DF92EF92FF92F8
:101390000F931F93CF93DF9300D000D001EE17E09F
:1013A000ADB7BEB712961C930E93119787E892E0E3
:1013B00014969C938E9313970E94B836FF240F9037
:1013C0000F900F900F90D02EE12E94E8A92E92E06E
:1013D000B92EC2E8D2E04FC00F2D10E000D000D0EF
:1013E00000D0ADB7BEB71196EDB7FEB7D182E2829D
:1013F0001396BC92AE921297F80183E0F595E795AB
:101400008A95E1F7ED53F54F808190E098012770C0
:10141000307002C0959587952A95E2F7817090709B
:1014200015969C938E9314970E94B8368091C20AA9
:1014300090E001972DB73EB72A5F3F4F0FB6F89463
:101440003EBF0FBE2DBF08171907A1F000D000D076
:10145000ADB7BEB71196DC9211971296EC92129727
:101460001496DC93CE9313970E94B8360F900F908A
:101470000F900F90F3942091C20AF21608F4ACCFAB
:1014800000D000D000D0EDB7FEB7319681EE97E0E6
:10149000ADB7BEB712969C938E93119780E792E0FA
:1014A00093838283248315820E94B836EDB7FEB7FA
:1014B00036960FB6F894FEBF0FBEEDBFDF91CF9109
:1014C0001F910F91FF90EF90DF90BF90AF90089524
:1014D00000D000D000D0EDB7FEB7319681EE97E096
:1014E000ADB7BEB712969C938E93119785EC92E0A0
:1014F0009383828384EB91E0958384830E94B83642
:101500008DB79EB706960FB6F8949EBF0FBE8DBFDF
:1015100008950E94680A0E94C30980E008950F930D
:101520001F9300D000D000D0EDB7FEB7319601EE8A
:1015300017E0ADB7BEB712961C930E93119783EECA
:1015400095E0938382838EE291E0958384830E9469
:10155000B83600D0EDB7FEB73196ADB7BEB712962C
:101560001C930E93119783ED94E09383828384E41C
:1015700094E09583848380E091E0978386830E9442
:10158000B8368DB79EB708960FB6F8949EBF0FBEBB
:101590008DBF80E01F910F9108958F929F92AF921F
:1015A000BF92DF92EF92FF920F931F93CF93DF933F
:1015B000EB0100D000D000D0EDB7FEB7319601EEC0
:1015C00017E0ADB7BEB712961C930E93119720E3A8
:1015D00036E033832283958384830E94B836FF24C8
:1015E000EDB7FEB736960FB6F894FEBF0FBEEDBF4F
:1015F000D02EE12E3DE2832E36E0932E2BE2A22E5A
:1016000026E0B22E40C000D000D000D0ADB7BEB7AB
:101610001196EDB7FEB7D182E28213969C928E921C
:1016200012970F2D10E0FE01E00FF11F808114963C
:101630008C93149715961C920E94B8368091C10A1B
:1016400090E001972DB73EB72A5F3F4F0FB6F89451
:101650003EBF0FBE2DBF08171907A1F000D000D064
:10166000ADB7BEB71196DC9211971296EC92129715
:101670001496BC92AE9213970E94B8360F900F90BA
:101680000F900F90F3948091C10AF81608F4BBCF25
:10169000DF91CF911F910F91FF90EF90DF90BF905E
:1016A000AF909F908F9008950F931F93DF93CF93E8
:1016B000CDB7DEB728970FB6F894DEBF0FBECDBF0B
:1016C0008091950A882329F482EB90E060E00E94E3
:1016D000943708E617E01C821B8285E593E09A8325
:1016E00089831E830D8318870F838DB79EB70C9750
:1016F0000FB6F8949EBF0FBE8DBFEDB7FEB7319603
:10170000CE010196ADB7BEB712969C938E931197FA
:1017100085ED90E093838283809101038483158219
:1017200084E194E09783868384E894E091878087BE
:1017300080914702828713860E94B836D8010D90A7
:101740000020E9F71197A01BB10BA00FB11F2FEDDF
:1017500037E0EDB7FEB73C960FB6F894FEBF0FBE6C
:10176000EDBF50E342E395E213C08C91B9016150A3
:101770007040803249F4F9015083FB014083929319
:101780009F012150304003C0F90180839B011197D4
:10179000F7E0A836BF0749F78C91D9018C93809167
:1017A000BB0A8F778093BB0A8CEC90E0B90142EBC7
:1017B00050E025E53CE00E94942E28960FB6F89460
:1017C000DEBF0FBECDBFCF91DF911F910F91089566
:1017D000AF92BF92CF92DF92EF92FF920F931F933F
:1017E0007B018C018091BC0A82958F7079F5809184
:1017F000BB0A83FD2BC087FF03C084E893E002C0CF
:101800008AE090E02091F10A3091F20A4091F30AC7
:101810005091F40A211531054105510569F0570130
:101820006801A21AB30AC40AD50AA0E0B0E08A157A
:101830009B05AC05BD0550F4E092F10AF092F20A66
:101840000093F30A1093F40A0E94540B1F910F9116
:10185000FF90EF90DF90CF90BF90AF9008950F93DF
:101860001F9368E677E048E72FE131E000E010E001
:101870000E944735882311F480E114C088E697E080
:101880000E9492079C01181619065CF480912408A6
:1018900090E0281739072CF4822F0E94650981E017
:1018A00001C081E11F910F9108950F931F93CF9372
:1018B000DF93EB01CC51DC4F01C021968881882356
:1018C00009F47CC08632C9F76BC088E697E00E94B5
:1018D00092079C0185E0213A380720F43093B40A3E
:1018E0002093B30ACE0168E677E048E723E231E0CF
:1018F00000E010E00E944735882369F088E697E011
:101900000E9492079C0185E0213A380720F4309329
:10191000B60A2093B50A0E94043ECE0168E677E03D
:1019200048E72AE231E000E010E00E9447358823D2
:1019300059F088E697E00E9492078B3F910520F4CA
:101940008093D1020E94AD39CE0168E677E048E786
:1019500020E331E000E010E00E9447358823D1F019
:1019600088E697E00E9492079C018136910590F4E9
:1019700080914D0290E02817390761F020934D02C5
:101980001092ED0A1092EE0A1092EF0A1092F00AED
:101990000E94AD398091BB0A80688093BB0A0EC05B
:1019A000CE0168E677E048E723E331E000E010E0AD
:1019B0000E944735882309F495CF87CFDF91CF91D7
:1019C0001F910F9108956F927F928F929F92BF9275
:1019D000CF92DF92EF92FF920F931F93DF93CF93FB
:1019E000CDB7DEB728970FB6F894DEBF0FBECDBFD8
:1019F00080910703898380910D038A83809113036B
:101A00008B83809119038C83BB243E010894611C55
:101A1000711C45E0842E912C8C0E9D1E60913E021F
:101A20006F5F60933E02C3010E9415310E94B06354
:101A30006B017C0188EE93E0A0E0B0E0C80ED91EF7
:101A4000EA1EFB1E0E9464478C010E94B331012BE9
:101A500009F441C0C40160913E020E94482E8823CF
:101A6000D1F1ED80FE800F81188580EC98EDA4E522
:101A7000BCE7E80EF91E0A1F1B1F60914D0270E0C3
:101A800080E090E024E833E040E050E00E946369A9
:101A9000E60EF71E081F191F08C0B39494E1B9168B
:101AA00009F0BCCFEE24FF248701B701C8012896B6
:101AB0000FB6F894DEBF0FBECDBFCF91DF911F915F
:101AC0000F91FF90EF90DF90CF90BF909F908F90FD
:101AD0007F906F9008950E94B0636C157D058E0510
:101AE0009F0508F4AFCFD9CF0F931F93DF93CF9308
:101AF000CDB7DEB76E970FB6F894DEBF0FBECDBF81
:101B00008C0189EE97E0B8010E941549882309F4F9
:101B10007AC0CE010196B80141E00E94A35E00D0D8
:101B200000D000D0EDB7FEB7319681EE97E0ADB7AB
:101B3000BEB712969C938E9311978BE291E093839C
:101B4000828380EF90E0958384830E94B8368DB7BE
:101B50009EB706960FB6F8949EBF0FBE8DBF8091BC
:101B6000E7079091E8072091E5073091E607821B8F
:101B7000930B60E140E00E94872F1092E4071092DF
:101B8000E3078AE194E09093E6078093E50790935A
:101B9000E8078093E7078E010B5F1F4F19C0C8014C
:101BA0006AE174E040E052E00E9497519C014427B2
:101BB00037FD4095542F203092E0390790E04907D7
:101BC00090E05907B0F0C90160E143E00E94872F1F
:101BD0002F89388D498D5A8D8F859889A989BA8921
:101BE000281739074A075B07D1F620E030E040E0CC
:101BF00050E0C90161E143E00E94872FCE010596C4
:101C00000E94715181E06E960FB6F894DEBF0FBE50
:101C1000CDBFCF91DF911F910F910895CF93DF93A7
:101C20009C0110926807FC01A081B181C0E0D0E066
:101C30000FC09C919D3231F09B3221F0892F80534F
:101C40008A3068F4FE01E859F84F90832196119686
:101C5000F901808191810A96A817B90750F3C859F4
:101C6000D84F18821196F901B183A08388E697E0D6
:101C70000E94B007CB01DF91CF9108956F927F92C0
:101C80008F929F92AF92BF92CF92DF92FF920F936B
:101C90001F93DF93CF9300D00F92CDB7DEB75C01D7
:101CA0006A01DE011196EEE5F3E083E001900D920A
:101CB0008150E1F76983FF2452E0652E712C6C0E90
:101CC0007D1E4E010894811C911C1BC08F2D90E03D
:101CD000B3014AE050E00E946408C50168E677E07D
:101CE00048E7940100E010E00E944735882341F066
:101CF00088E697E00E949207F601EF0DF11D8083C0
:101D0000F3948091C10AF81608F30F900F900F908A
:101D1000CF91DF911F910F91FF90DF90CF90BF90F7
:101D2000AF909F908F907F906F9008950F931F9327
:101D30000E94B12B8DB79EB708970FB6F8949EBF3F
:101D40000FBE8DBFEDB7FEB7319601EE17E0ADB710
:101D5000BEB712961C930E93119785E893E0938378
:101D600082838EE291E09583848389EC92E097836D
:101D700086830E94B836EDB7FEB73196ADB7BEB7D1
:101D800012961C930E93119787E693E093838283B8
:101D900082ED90E0958384838091DD0286831782B3
:101DA0000E94B8360F900F90EDB7FEB73196ADB7E1
:101DB000BEB712961C930E93119784E393E093831E
:101DC000828384E494E0958384830E94B8368DB73F
:101DD0009EB706960FB6F8949EBF0FBE8DBF80E0EB
:101DE0001F910F9108954F925F926F927F928F9201
:101DF0009F92AF92BF92CF92DF92EF92FF920F939A
:101E00001F93DF93CF930F92CDB7DEB70E94B12B14
:101E10005B016C012DB73EB72C5130400FB6F894E2
:101E20003EBF0FBE2DBFEDB7FEB7319601EE17E0F6
:101E3000ADB7BEB712961C930E93119786EF93E041
:101E400093838283A482B582C682D7828091C10A9D
:101E5000808711868091BB0A81708287138680916A
:101E6000BB0A86958170848715868091BB0A86950A
:101E700086958170868717868091B70A9091B80AF7
:101E8000A091B90AB091BA0A808B918BA28BB38BC7
:101E900084E194E0958B848B84E894E0978B868B27
:101EA0008091B30A9091B40A918F808F8091B50A86
:101EB0009091B60A938F828F0E94B83690E0EDB76A
:101EC000FEB77C960FB6F894FEBF0FBEEDBF78014B
:101ED00002EF13E023C000D000D000D0EDB7FEB772
:101EE0003196ADB7BEB71196EC9211971296FC924F
:101EF00013830283A92FB0E0AD53B54F8C91848337
:101F0000158299830E94B83699819F5FEDB7FEB71D
:101F100036960FB6F894FEBF0FBEEDBF8091C10A92
:101F2000F1EE6F2EF7E07F2E9817A8F200D000D0C8
:101F3000ADB7BEB712967C926E92119788EE93E081
:101F400014969C938E9313970E94B83699240F9001
:101F50000F900F900F90C301762C892EECED4E2E32
:101F6000E3E05E2E64C0A92DB0E0FD01EB55F64F15
:101F70006081662329F420E030E040E050E025C095
:101F8000CD01880F991F880F991FFC01EB5DF74F5A
:101F9000E080F18002811381FC01EB51F74FAE1418
:101FA000BF04C006D10648F02081318142815381AF
:101FB0002A193B094C095D0908C020813181428101
:101FC00053812E193F09400B510BEDB7FEB73E97D9
:101FD0000FB6F894FEBF0FBEEDBF0DB71EB70F5F73
:101FE0001F4F71828282F80153824282648315827C
:101FF0002683378340875187AA0FBB1FAA0FBB1FB9
:10200000AB5DB74F8D919D910D90BC91A02D8287B6
:102010009387A487B5870E94B83693942DB73EB7AF
:10202000225F3F4F0FB6F8943EBF0FBE2DBF809189
:10203000C20A981608F497CF8DB79EB70E970FB6C1
:10204000F8949EBF0FBE8DBFEDB7FEB7319681EEFF
:1020500097E0ADB7BEB712969C938E9311978FEB16
:1020600093E0938382838091D50984831582809144
:10207000D609868317828091D7099091D8099187D4
:1020800080878091D9099091DA09A091DB09B091FC
:10209000DC0982879387A487B5870E94B836EDB79D
:1020A000FEB73E960FB6F894FEBF0FBEEDBF0F9081
:1020B000CF91DF911F910F91FF90EF90DF90CF9024
:1020C000BF90AF909F908F907F906F905F904F9058
:1020D00008950E94680A0E94F30E80E00895BF925E
:1020E000CF92DF92EF92FF920F931F936C01FC014E
:1020F000B080E1800E94B12B20E831E541E050E062
:102100000E94B5692B0D311D411D511DFF2400E0BA
:1021100010E0CA01B901A80197010E94B569F60152
:1021200060831F910F91FF90EF90DF90CF90BF9051
:1021300008958F929F92AF92BF92CF92DF92EF92CB
:10214000FF920F931F934C01FC01A180E080FF24BC
:10215000EA0CF11C0027F7FC0095102F0E94B12B10
:10216000BB24CC24DD2420E831E541E050E00E948E
:10217000B569CA01B901A60195010E94B569E61ABF
:10218000F70A080B190BC801B701A60195010E94B7
:10219000B569F40160831F910F91FF90EF90DF907C
:1021A000CF90BF90AF909F908F9008950E94B12BD9
:1021B000AB01BC018091C20AE5EAF9E0A5EEB8E006
:1021C000282F30E02E0F3F1F0AC08081882329F07E
:1021D0004D935D936D937C93139731961496E2170C
:1021E000F30799F70895EF92FF920F931F93DF93F0
:1021F000CF93CDB7DEB7C857D0400FB6F894DEBF47
:102200000FBECDBF7C0168E677E048E72BE331E005
:1022100000E010E00E944735882311F480E127C0D8
:10222000C7017E010894E11CF11CB70148E72FE3C8
:1022300031E000E010E00E9447358823B9F088E6DD
:1022400097E0B70140E150E00E940F08009771F459
:1022500088E697E00E949C351092880784EF93E00F
:1022600068E677E00E94FC3881E001C083E0C8584E
:10227000DF4F0FB6F894DEBF0FBECDBFCF91DF9119
:102280001F910F91FF90EF9008950F931F9368E6B1
:1022900077E048E723E431E000E010E00E944735B2
:1022A0008823C1F088E697E00E949C351092A80729
:1022B000A8E6B7E0FD018081803209F08D9380812E
:1022C000882311F03196F7CF84E494E068E677E054
:1022D0000E94FC388FEF1F910F910895EF92FF92AB
:1022E0000F931F93CF93DF93EC0168E677E048E705
:1022F00027E431E000E010E00E944735882311F028
:102300000E94D610CE0168E677E048E72BE431E082
:1023100000E010E00E9447358823B9F188E697E095
:102320000E9492071816190684F500D000D000D03C
:10233000EDB7FEB7319681EE97E0ADB7BEB7129616
:102340009C938E9311978EE892E0938382838EE222
:1023500091E0958384830E94B8368DB79EB7069628
:102360000FB6F8949EBF0FBE8DBF8091E707909186
:10237000E8072091E5073091E607821B930B61E1A6
:1023800040E00E94872F0E94B638CE0168E677E0D1
:1023900048E72FE431E000E010E00E944735882351
:1023A00099F080916807813339F48091BB0A80FDF0
:1023B0000BC00E94DA3908C0803331F48091BB0A27
:1023C00080FF02C00E94E539CE0168E677E048E769
:1023D00022E531E000E010E00E944735882361F1FA
:1023E00088E697E00E949207EC0118161906F4F4AB
:1023F0000E94B12B7B018C01BE01882777FD80955F
:10240000982F20E13EE040E050E00E946369E60E34
:10241000F71E081F191FE092B70AF092B80A00933E
:10242000B90A1093BA0A0E941F3E06C0009711F025
:1024300081E103C00E940F3E81E0DF91CF911F91A7
:102440000F91FF90EF9008952F923F924F925F92DD
:102450006F927F928F929F92AF92BF92CF92DF92B4
:10246000EF92FF920F931F93DF93CF93CDB7DEB719
:1024700028970FB6F894DEBF0FBECDBF7B018C014D
:102480004A830894E11CF11C011D111D8091AD02CD
:102490000E940B3A9C018A818823A9F08091DD0972
:1024A0009091DE09A091DF09B091E0090097A105A4
:1024B000B10549F079010027F7FC0095102FE80ECF
:1024C000F91E0A1F1B1F9091C20A99838091BD0AB1
:1024D000282E33244091BB0A469546954695417077
:1024E00050E081E0882E912C2901662457FC6094ED
:1024F000762C65C0E52FF0E02814390409F45BC0A0
:10250000CF01880F991F880F991FBC016B51774F1E
:10251000DB01AD90BD90CD90DC90A114B104C1045D
:10252000D10409F448C09C012B5D374F3C832B83B9
:10253000D9018D919D910D90BC91A02D0097A10581
:10254000B105C9F5A3E0F695E795AA95E1F7ED5336
:10255000F54F808190E0252F277002C095958795D3
:102560002A95E2F780FD27C0D601C5018E0D9F1D7B
:10257000A01FB11FEA81EE2391F0EB81FC81E08284
:10258000F18202831383FB0180839183A283B3834F
:102590007C018D01E40CF51C061D171D0BC0EB81A1
:1025A000FC81E082F18202831383FB0180839183AB
:1025B000A283B38341E05F5F0894811C911CF98181
:1025C0005F1708F497CF4170440F440F440F809178
:1025D000BB0A877F842B8093BB0A28960FB6F8949A
:1025E000DEBF0FBECDBFCF91DF911F910F91FF9046
:1025F000EF90DF90CF90BF90AF909F908F907F90A3
:102600006F905F904F903F902F9008958F929F9280
:10261000AF92BF92CF92DF92EF92FF921F93CF9330
:10262000DF93C7E4D2E010E041EEE42E47E0F42E61
:1026300033EB832E32E0932E25EBA22E22E0B22E36
:102640009DEBC92E92E0D92E8881282F30E040E002
:1026500050E0143129F42C533040404050403AC0EF
:102660001E3159F4CA01B9012AE030E040E050E0DF
:102670000E9463699B01AC012DC0113159F50E9484
:102680000B3A2DB73EB72A5030400FB6F8943EBFF4
:102690000FBE2DBFEDB7FEB73196ADB7BEB71296E0
:1026A000FC92EE921197D382C2822C813D813583B8
:1026B0002483A0E0B0E086839783A087B1870E943F
:1026C000B836EDB7FEB73A960FB6F894FEBF0FBE18
:1026D000EDBF27C08DB79EB70A970FB6F8949EBF7F
:1026E0000FBE8DBFEDB7FEB73196ADB7BEB7129630
:1026F000FC92EE921197B382A2828C819D81958388
:10270000848326833783408751870E94B836EDB78C
:10271000FEB73A960FB6F894FEBF0FBEEDBF143267
:1027200091F000D000D0ADB7BEB71296FC92EE92F9
:10273000119714969C928E9213970E94B8360F9020
:102740000F900F900F901F5F2696153209F07CCFE7
:102750000E94DB3DEDB7FEB738970FB6F894FEBF89
:102760000FBEEDBF319621EE37E0ADB7BEB7129682
:102770003C932E9311972DE932E033832283848397
:10278000158285E090E0978386830E94B836EDB786
:10279000FEB738960FB6F894FEBF0FBEEDBFDF91BF
:1027A000CF911F91FF90EF90DF90CF90BF90AF90AF
:1027B0009F908F9008950E94680A0E94061380E0FF
:1027C00008958F929F92AF92BF92CF92DF92FF9225
:1027D0000F931F93DF93CF9300D000D0CDB7DEB718
:1027E0006C0183E789831A821B821C82FF2452E0DA
:1027F000852E912C8C0E9D1E5E010894A11CB11C8F
:102800001CC08F2D90E0B4014AE050E00E946408A3
:10281000C60168E677E048E7950100E010E00E9415
:102820004735882349F088E697E00E949C358F2D34
:1028300068E677E00E94DA38F3948091C20AF816CD
:1028400000F3C6016DE649EC5AE00E943E0E84EAB0
:1028500097E069EC7AE00E94273EC60169E64FECFA
:102860005AE00E943E0E8AEA97E06FEC7AE00E94FE
:10287000273EC60161E645ED5AE00E943E0E80EB20
:1028800097E065ED7AE00E94273EC60164E64BEDD5
:102890005AE00E943E0E86EB97E06BED7AE00E94D4
:1028A000273E81E00F900F900F900F90CF91DF9116
:1028B0001F910F91FF90DF90CF90BF90AF909F90AE
:1028C0008F900895AF92BF92CF92DF92EF92FF92D6
:1028D0000F931F93CF93DF9300D000D001EE17E04A
:1028E000ADB7BEB712961C930E93119780E296E097
:1028F00014969C938E9313970E94B836FF240F90E2
:102900000F900F900F90E02E012F78E6A72E77E022
:10291000B72E6BE1C62E66E0D62EC9E1D6E03EC0EA
:102920008F2D68E677E00E94BC3800D000D000D040
:10293000EDB7FEB73196ADB7BEB71196EC921197D1
:1029400012960C93D382C282B582A4820E94B836BA
:102950002F2D30E08091C20A90E00197EDB7FEB7CD
:1029600036960FB6F894FEBF0FBEEDBF2817390795
:10297000A1F000D000D0ADB7BEB71196EC92119780
:1029800012960C9312971496DC93CE9313970E9491
:10299000B8360F900F900F900F90F3948091C20A69
:1029A000F81608F4BDCF83E196E069EC7AE00E9466
:1029B000CD0A87E096E06FEC7AE00E94CD0A8DEFB9
:1029C00095E065ED7AE00E94CD0A85EF95E06BED2C
:1029D0007AE00E94CD0A00D000D000D0EDB7FEB75B
:1029E000319681EE97E0ADB7BEB712969C938E9369
:1029F000119786EE95E09383828380E190E0958342
:102A000084830E94B836EDB7FEB736960FB6F894B9
:102A1000FEBF0FBEEDBFDF91CF911F910F91FF90D1
:102A2000EF90DF90CF90BF90AF9008950E94680A1A
:102A30000E94621480E008950F931F939C0180917F
:102A4000DD028823A9F4C90168E677E048E725E5B7
:102A500031E000E010E00E944735882351F088E61D
:102A600097E00E949C3588E697E00E942139811109
:102A700081E01F910F910895DF92EF92FF920F93E3
:102A80001F93CF93DF93EC010E9413301092E40761
:102A90001092E3078AE194E09093E6078093E507BC
:102AA0009093E8078093E707BE016B5F7F4FFD803F
:102AB00080E2F81621F0EC2EDD2EFE0104C0CB01E1
:102AC0000E94960E18C18581882359F0803249F002
:102AD0008A3039F08F3329F031968F32A1F752E1E5
:102AE000B1C050E0AFC0C52FD0E0FE01EE0FFF1F18
:102AF000EE0FFF1FEA50FE4F0190F081E02D849110
:102B000090E08017910709F005C13196849190E01B
:102B10004C91242F332727FD30958217930709F016
:102B2000F9C093E7F91669F44537D9F5CC0FDD1FE5
:102B3000CC0FDD1FC850DE4FE881F981CB01039631
:102B400041C0AAE6FA1669F54F3659F58B010D5FBB
:102B50001F4FC8010E941C15882359F50E94680A5E
:102B60008DB79EB708970FB6F8949EBF0FBE8DBF66
:102B7000EDB7FEB7319681EE97E0ADB7BEB71296CE
:102B80009C938E9311978AE592E093838283809140
:102B90004B0290914C0295838483809147028683F7
:102BA0004FC08B010D5F1F4FC8010E941C15882369
:102BB00061F1CC0FDD1FCC0FDD1FC850DE4FE88167
:102BC000F981C8010995282F882309F494C08F3F03
:102BD000E9F4ADB7BEB718970FB6F894BEBF0FBEF5
:102BE000ADBFEDB7FEB7319681EE97E012969C939C
:102BF0008E93119785E592E0938382838EE291E034
:102C0000958384838DE891E06AC022E0ADB7BEB7BA
:102C100018970FB6F894BEBF0FBEADBFEDB7FEB7A5
:102C2000319681EE97E012969C938E93119785E4EE
:102C300092E09383828384EB91E09583848326835F
:102C400017824FC00F2D112707FD1095DB0111963C
:102C5000523109F048CF8091BB0A85FF4CC0C8E6CD
:102C6000D7E08E2D9D2D9C01D90101C08993EA2FBB
:102C7000EE1915968C911597803229F0119697E0F0
:102C8000C838D90799F7F0E0E859F84F108289EE73
:102C900097E068E571E040E00E94344988E697E0FB
:102CA0000E94740D8823C1F5ADB7BEB718970FB653
:102CB000F894BEBF0FBEADBFEDB7FEB7319681EE43
:102CC00097E012969C938E93119785E392E09383FD
:102CD000828384EB91E09583848380E290E0978304
:102CE00086830E94B8368DB79EB708960FB6F894C3
:102CF0009EBF0FBE8DBF8091E7079091E80720919E
:102D0000E5073091E607821B930B61E140E00E94EA
:102D1000872F02C05F5F9CCFDF91CF911F910F91F2
:102D2000FF90EF90DF9008958F929F92AF92BF92A5
:102D3000CF92DF92EF92FF920F931F93CF93DF9387
:102D4000EC017A018B01CB01BA010E949E2A4C0151
:102D5000C801B7010E94982A5C01888180FFACC03D
:102D6000C801B7010E948C2AC82EC801B7010E9471
:102D7000922AD82E88818295837090E082309105C6
:102D8000B1F083309105F1F0892BB1F5298130E064
:102D90008C2D90E0059667E070E00E94A26902C069
:102DA000359527958A95E2F720FD26C085C02D2D03
:102DB00030E0898190E08F7190702817390709F011
:102DC0007BC01AC0C801B70120E831E541E050E0FE
:102DD0000E94B569CA01B9012A8130E040E050E0A3
:102DE0000E94B569298130E040E050E06217730726
:102DF0008407950709F060C0888186958695837061
:102E0000B9F0823019F4D0FE13C056C0813081F47D
:102E10008FE1D81609F450C08DE1D81609F05BC0D7
:102E2000C801B7010E94862A029709F054C044C025
:102E30008CE390E0889E9001899E300D989E300D25
:102E400011242A0D3B1D888186FD29C00D811E811C
:102E5000EF81F8858B819C812817390768F101156E
:102E6000110529F460E02817390739F51FC030979C
:102E700019F1281B390BC901BF010E948E69AB01F2
:102E80006E9FC0016F9F900D7E9F900D1124821741
:102E9000930791F460E0041715077CF007C0FE016A
:102EA00040E0838194812817390711F461E005C05F
:102EB0004F5F32964430A9F760E0862FDF91CF91C3
:102EC0001F910F91FF90EF90DF90CF90BF90AF9048
:102ED0009F908F900895D0FCABCFEECF982F9B01A1
:102EE00080912408981768F467E4969FB001112434
:102EF0006E5F7F4FC90147E450E02DEE38E00E943D
:102F00002C0808952F923F924F925F926F927F927A
:102F10008F929F92AF92BF92CF92DF92EF92FF92E9
:102F20000F931F93DF93CF93CDB7DEB7C754D04035
:102F30000FB6F894DEBF0FBECDBF2DB73EB72E50F3
:102F400030400FB6F8943EBF0FBE2DBFEDB7FEB7B1
:102F5000319601EE17E0ADB7BEB712961C930E93F3
:102F6000119784E994E09383828380912408848379
:102F700015828091C10A868317828EE090E0918746
:102F8000808784E090E0938782878CE090E095874B
:102F900084870E94B836EE24EDB7FEB73E960FB692
:102FA000F894FEBF0FBEEDBFF02E012F54E8C52EE2
:102FB00054E0D52E4CE0642E712C6C0E7D1E8F2CAF
:102FC000912E3AE6232E34E0332E2DE6422E24E0D5
:102FD000522E9AE1A92E94E0B92E57C18E2DBE0132
:102FE0006F5F7F4F0E946E17898182958370833057
:102FF00039F48B81823020F0CE0102960E94991024
:103000002DB73EB72A5030400FB6F8943EBF0FBEE2
:103010002DBFEDB7FEB73196ADB7BEB71196FC9296
:10302000119712960C9328E834E033832283898128
:10303000848315828A81868317828B81808711869B
:103040000E94B8360F900F900F900F90EDB7FEB71B
:103050003196ADB7BEB71196FC92119712960C93AC
:10306000D382C2828C819D81958384830E94B836ED
:10307000EDB7FEB73196ADB7BEB71196FC9211977A
:1030800012960C93D382C2828E819F819583848312
:103090000E94B836EDB7FEB73196ADB7BEB7119600
:1030A000FC92119712960C93D382C28288859985DF
:1030B000958384830E94B836EDB7FEB73196ADB7DD
:1030C000BEB71196FC92119712960C932EE734E03E
:1030D000338322838A859B85958384830E94B836B7
:1030E00010E04DB75EB74A5F5F4F26C0E60DF71D93
:1030F00080810E940B3AADB7BEB718970FB6F8940F
:10310000BEBF0FBEADBFEDB7FEB731961196FC92B4
:10311000119712960C932AE734E033832283A0E0C0
:10312000B0E084839583A683B7830E94B8361F5F7F
:103130004DB75EB7485F5F4F0FB6F8945EBF0FBEE6
:103140004DBFE12FF0E08091C20A90E00197E817AF
:10315000F90764F2E60DF71D80810E940B3AADB7C6
:10316000BEB718970FB6F894BEBF0FBEADBFEDB790
:10317000FEB7319611968C92119712969C9224E785
:1031800034E033832283A0E0B0E084839583A68378
:10319000B7830E94B8364DB75EB7485F5F4F0FB632
:1031A000F8945EBF0FBE4DBF88E697E0BE01645C39
:1031B0007F4F4CE050E00E941D081092740700D031
:1031C00000D000D0EDB7FEB73196ADB7BEB71196BF
:1031D0008C92119712969C9221E734E033832283DC
:1031E00048E657E0558344830E94B8362E2D30E0E0
:1031F0008091240890E00197ADB7BEB716960FB640
:10320000F894BEBF0FBEADBF2817390749F000D0F4
:1032100000D0EDB7FEB7F1820283548243820EC024
:1032200000D000D0ADB7BEB71196FC9211971296A0
:103230000C93129714963C922E9213970E94B836D4
:103240000F900F900F900F908E2D63E00E94826977
:103250009230D1F48091E7079091E8072091E5073B
:103260003091E607821B930B60E140E00E94872FBC
:103270001092E4071092E307B092E607A092E507E8
:10328000B092E807A092E707E39480912408E8163B
:1032900008F4A4CE00D000D081EE97E0EDB7FEB7E1
:1032A0009283818387E694E0948383830E94B83677
:1032B0000F900F900F900F90C95BDF4F0FB6F894EF
:1032C000DEBF0FBECDBFCF91DF911F910F91FF9059
:1032D000EF90DF90CF90BF90AF909F908F907F90B6
:1032E0006F905F904F903F902F9008950E94680AD2
:1032F0000E94821780E00895DF92EF92FF920F9371
:103300001F93DF93CF93CDB7DEB7C754D0400FB62E
:10331000F894DEBF0FBECDBF20912408821708F0BD
:1033200046C0222309F443C090E0019627E430E030
:10333000829F8001839F100D929F100D11240E5FBC
:103340001F4F67E4D62E7E010894E11CF11C14C0C7
:10335000C701B80147E450E02DEE38E00E942C0888
:10336000C80187549040B70147E450E025EF38E0AA
:103370000E944808095B1F4F209124082D9DC00121
:10338000112402960817190718F3215020932408D6
:10339000F999FECF1FBA81E090E092BD81BD20BDBA
:1033A0000FB6F894FA9AF99A0FBE81E001C080E056
:1033B000C95BDF4F0FB6F894DEBF0FBECDBFCF9114
:1033C000DF911F910F91FF90EF90DF9008950F9381
:1033D0001F9368E677E048E72FE131E000E010E076
:1033E0000E944735882311F480E125C088E697E0E4
:1033F0000E9492079C018FEF2F3F380781F41092B3
:103400002408F999FECF1FBA81E090E092BD81BDFA
:1034100010BC0FB6F894FA9AF99A0FBE0BC08091BF
:10342000240890E02817390714F081E104C0822FA6
:103430000E947C1981E01F910F910895982F80912F
:103440002408981710F080E0089587E4989FC00141
:103450001124029647E450E025EF38E00E94480826
:1034600081E00895BC01909124089E3010F080E026
:10347000089587E4989FC0011124029647E450E024
:1034800025EF38E00E944808209124082F5F209300
:103490002408F999FECF1FBA81E090E092BD81BD6A
:1034A00020BD0FB6F894FA9AF99A0FBE81E00895FC
:1034B000BF92CF92DF92EF92FF920F931F93DF9311
:1034C000CF93CDB7DEB7C954D0400FB6F894DEBF66
:1034D0000FBECDBF7C0168E677E048E72FE131E021
:1034E00000E010E00E944735882309F4D7C088E641
:1034F00097E00E9492076C012FEF8F3F92070CF428
:10350000CFC08091240890E0C816D9060CF0C8C03E
:10351000FA82E98284E690E0E80EF91E0DC0C80147
:103520006AE571E043E050E00E940F08009779F0EF
:103530000F5F1F4F1A83098309811A81F801808167
:10354000882309F4ABC00E151F0548F3A7C00D5F13
:103550001F4F1A8309838E010F5F1F4FC8010E94FE
:103560000E0E8B83C8010E940E0E8C83C8010E9430
:103570000E0E8D8389819A8101969A838983C80171
:103580000E940E0E9F838E83C8010E940E0E9987A3
:103590008887C8010E940E0E9B878A87C8010E94F7
:1035A0000E0E9D878C8789819A8102969A838983E2
:1035B000FF24B02EE12E8E01025F1F4F0BC08B2D1A
:1035C0009E2D0E940E0E0E94EF39F801EF0DF11DA5
:1035D0008083F3948091C20AF81688F389819A81D6
:1035E00002969A83898368E677E048E72EE531E022
:1035F00000E010E00E9447358E01025C1F4F8823D7
:1036000061F088E697E00E949C35C80168E677E0A3
:103610004CE050E00E941D081EC0C80163E671E046
:103620000E940808FFEFCF16FFEFDF0621F480911C
:10363000240890E001C0C6010196BE016A5B7F4F7D
:103640004AE050E00E94640806C0FC01EF0DF11D45
:103650001082F39402C0CE010E962FE22F15A8F728
:103660008B8182958370833039F48D81823020F094
:10367000CE0104960E946F10BE016D5F7F4F8FEFE9
:10368000C8168FEFD80621F4CB010E94321A03C06E
:103690008C2D0E941E1A882329F402C080E103C0E9
:1036A00081E101C081E0C75BDF4F0FB6F894DEBF58
:1036B0000FBECDBFCF91DF911F910F91FF90EF9083
:1036C000DF90CF90BF900895EF92FF920F931F93DA
:1036D000DF93CF93CDB7DEB727970FB6F894DEBF51
:1036E0000FBECDBF7C0189EE97E068E571E040E058
:1036F0000E9434498E010F5F1F4FC80161E673E0DD
:103700000E942A69C801B7010E94E768C8016CE6F7
:1037100071E00E94E768C80168E677E048E750E09A
:1037200020E030E00E94CB67C8010E945D692796C7
:103730000FB6F894DEBF0FBECDBFCF91DF911F91C2
:103740000F91FF90EF9008952F923F925F926F92AA
:103750007F928F929F92AF92BF92CF92DF92EF9221
:10376000FF920F931F93DF93CF93CDB7DEB76E9782
:103770000FB6F894DEBF0FBECDBF5C018091BB0ACF
:1037800085FD02C080E220C1C50168E677E048E718
:1037900021E731E000E010E00E944735882309F47A
:1037A00010C188E697E00E94B0076B017C01C5015B
:1037B00068E677E048E727E731E00E94473588234D
:1037C00009F4FFC0C701B60120E831E541E050E04F
:1037D0000E94D76969017A0188E697E00E94B007E4
:1037E00020E831E541E050E00E94D76959012C15ED
:1037F0003D0508F4E8C0C9018C199D098E56914019
:1038000008F0E1C000D000D000D0EDB7FEB731968F
:1038100001EE17E0ADB7BEB712961C930E93119749
:103820008CE692E09383828384EB91E0958384839A
:103830000E94B836EE24FF2477247394EDB7FEB7C8
:1038400036960FB6F894FEBF0FBEEDBFE8E62E2EFB
:10385000E7E03E2E75E0872E912C8C0E9D1E502E9B
:10386000612E0AE114E095C0C60168E677E04AE0FF
:1038700050E00E94640888E697E00E94641B89EE8D
:1038800097E068E677E00E941549882309F47EC036
:103890001D821F821C821B828FEB93E09A83898397
:1038A000C40168E677E041E00E946D5901C07724C9
:1038B000C40168E677E047E750E020E030E00E948E
:1038C0008A541816190624F0C4010E9471515EC072
:1038D000FC01E959F84F80818A3009F41082772081
:1038E00081F000D000D000D0EDB7FEB73196ADB773
:1038F000BEB711965C92119712966C9289E692E08F
:103900000FC000D000D000D0EDB7FEB73196ADB7F4
:10391000BEB711965C92119712966C9285E692E072
:1039200093838283358224820E94B836ADB7BEB7B6
:1039300016960FB6F894BEBF0FBEADBF0894E11C3B
:10394000F11CC70169E170E00E94A269892B09F0AE
:10395000AECF8091E7079091E8072091E50730917D
:10396000E607821B930B60E140E00E94872F1092D4
:10397000E4071092E3071093E6070093E50710931E
:10398000E8070093E707EE24FF2491CF0894C11CB9
:10399000D11CAC14BD0408F067CF00D000D081EE7C
:1039A00097E0EDB7FEB79283818383E692E094833C
:1039B00083830E94B83680E00F900F900F900F9095
:1039C00003C080E101C081E16E960FB6F894DEBFBE
:1039D0000FBECDBFCF91DF911F910F91FF90EF9060
:1039E000DF90CF90BF90AF909F908F907F906F901F
:1039F0005F903F902F900895BF92CF92DF92EF9209
:103A0000FF920F931F93DF93CF93CDB7DEB7A597A8
:103A10000FB6F894DEBF0FBECDBFB82E6A017B0192
:103A20008091BB0A85FFCAC0CB01BA0120E831E50D
:103A300041E050E00E94B569CA01B90148E657E08B
:103A40002AE030E00E94A20888E697E00E94641B0A
:103A500089EE97E068E571E040E00E94344989EE24
:103A600097E061E673E040E00E943449882351F416
:103A700089EE97E061E673E041E00E94F648882312
:103A800009F49CC01C861E861B861A868FEB93E069
:103A9000998788878E01045F1F4FC80168E677E029
:103AA00042E40E946D594E8D5F8D68A179A1C801D5
:103AB0000E94094F8E010F5F1F4FC8016BE771E035
:103AC0000E942A69C8016CE771E00E94446981E0A4
:103AD000B81619F1B81628F082E0B81609F041C0FE
:103AE0002AC0C8016091D6090E94BB68C8016EE770
:103AF00071E00E94E768C8016091D5090E94BB6827
:103B0000C8016EE771E00E94E7686091D709709183
:103B1000D809C8010E948D6824C0C80160E871E01E
:103B20000E94E7688091E10A9091E20AA091E30A7D
:103B3000B091E40A0DC0C80168E871E00E94E7682E
:103B40008091E50A9091E60AA091E70AB091E80A0F
:103B5000B701A601481B590B6A0B7B0BC8010E94D9
:103B60005B688E010F5F1F4FC8016EE771E00E9416
:103B7000E768C801B701A6010E945B68C80160E957
:103B800071E00E94E768C80162E971E00E94E7689D
:103B9000C80168E677E048E750E020E030E00E94A6
:103BA000CB67CE01089668E677E00E947E5ECE0184
:103BB0000C960E947151C8010E945D69A5960FB6CE
:103BC000F894DEBF0FBECDBFCF91DF911F910F9153
:103BD000FF90EF90DF90CF90BF900895CF93DF9349
:103BE000EC018091BB0A85FF28C0CE0165E971E038
:103BF00043E050E00E940F08009771F489EE97E0CF
:103C000061E673E040E00E9434498823B1F087E028
:103C100098E00E94EB5311C0CE010E94641B89EE14
:103C200097E068E677E00E941549882331F089EE35
:103C300097E068E677E00E94F248DF91CF9108951F
:103C40000F931F9368E677E048E729E931E000E049
:103C500010E00E944735882311F480E105C088E612
:103C600097E00E94EE1D81E01F910F9108950E9440
:103C700077390E946B3FA5EAB9E080E090E0FC0153
:103C8000EB5DF74F1082118212821382FC01EB511F
:103C9000F74F10821182128213821D920496803C8B
:103CA000910569F71092DD091092DE091092DF0983
:103CB0001092E00908952F923F924F925F926F9277
:103CC0007F928F929F92AF92BF92CF92DF92EF92AC
:103CD000FF920F931F93DF93CF9300D000D000D0BB
:103CE000CDB7DEB74C01A7E4EA2EA2E0FA2E772486
:103CF000CC2466242224AA24BB24F2E04F2E512C8B
:103D00004C0E5D1EDA2C84E2A81609F488C098E1F6
:103D1000A91609F484C02A2D9B2DF70130808181DA
:103D2000813009F41082D201E9E5F3E085E00190E9
:103D30000D928150E1F7822FBE016D5F7F4F4AE007
:103D400050E00E946408C40168E677E048E7920109
:103D500000E010E00E944735882309F43FC0F701D6
:103D60008181813011F4808339C088E697E00E9418
:103D7000B0079B01AC01F4E1DF1629F4245C3F4F4E
:103D80004F4F5F4F1BC08EE1D81669F4CA01B901CD
:103D90002AE030E040E050E00E94D769C901DA0132
:103DA0009C01AD010BC091E1D91641F4C9010E94FB
:103DB000EF39282F30E040E050E002C057FD0CC042
:103DC000F701818190E0A0E0B0E082179307A4079B
:103DD000B50714F0208302C022242394F7018081C8
:103DE0008315E9F08D2D8150823010F4772473947F
:103DF0008D2D8052843010F4772473948D2D835050
:103E00008B3010F466246394FAE1DF1619F466240B
:103E1000639405C08FE1D81611F4CC24C3940894A0
:103E2000A11CB11CE6E0F0E0EE0EFF1EF5E2AF16BD
:103E3000B10409F067CFC40168E677E048E72DE9EF
:103E400031E000E010E00E9447358823B1F088E6B9
:103E500097E00E949C351092980788E697E064E10D
:103E600074E00E943B39882341F084E194E068E6E5
:103E700077E00E94FC38CC24C3941982C40168E620
:103E800077E048E721EA31E08E010F5F1F4F0E9483
:103E900047358823B9F088E697E00E949C35109258
:103EA000880788E697E064E874E00E943B3988233D
:103EB000A1F084E894E068E677E00E94FC38CC2426
:103EC000C3940BC08981882341F01092680784E86D
:103ED00094E068E677E00E94FC38809153028823E2
:103EE00031F5C40168E677E048E727EA31E000E011
:103EF00010E00E9447358823D1F088E697E00E94C1
:103F0000B007162F072FF82EE92E0E94371E612FBB
:103F1000702F8F2D9E2D0E94842B8091BB0A84FFD1
:103F200006C0612F702F8F2D9E2D0E94842D222080
:103F300011F081E121C00E94AD39772041F010924B
:103F4000ED0A1092EE0A1092EF0A1092F00ACC20BD
:103F500041F01092F10A1092F20A1092F30A1092B4
:103F6000F40A662041F01092F50A1092F60A1092B7
:103F7000F70A1092F80A81E026960FB6F894DEBF91
:103F80000FBECDBFCF91DF911F910F91FF90EF90AA
:103F9000DF90CF90BF90AF909F908F907F906F9069
:103FA0005F904F903F902F900895DF92EF92FF9295
:103FB0000F931F93DF93CF9300D0CDB7DEB79A83D3
:103FC000898324E6E22EF12CE80EF91E0DC0C8010B
:103FD0006BEA71E043E050E00E940F08009779F02F
:103FE0000F5F1F4F1A83098309811A81F8018081AD
:103FF000882309F453C00E151F0548F34FC00D5F09
:104000001F4F1A8309830E94371E10E000E07E01D3
:104010000894E11CF11C8EEFD82E2EC0C7010E941F
:104020000E0EBC01009739F1412F50E0E12FE695CB
:10403000E695E695F0E0E552F54F808190E0212F7E
:10404000277002C0959587952A95E2F780FD13C0E9
:10405000FA01EE0FFF1FEE0FFF1FEB51F74FCB01E1
:10406000A0E0B0E080839183A283B3834B55564F89
:10407000FA01D08201E01F5F8091C20A181770F226
:10408000002361F00E94B12B4091BB0A42954695F6
:10409000469541700E94241281E001C080E10F909A
:1040A0000F90CF91DF911F910F91FF90EF90DF90D4
:1040B0000895AF92BF92CF92DF92EF92FF920F934B
:1040C0001F93DF93CF93CDB7DEB7C754D0400FB661
:1040D000F894DEBF0FBECDBFE82E0E94371E8E2D96
:1040E00081508E3F28F4BE016F5F7F4F0E946E1794
:1040F000DD24FF24EEEFCE2E7CE0A72EB12CAC0EFB
:10410000BD1E3CC00F2D10E08FEFE81619F442E001
:1041100050E00CC0EE2009F443C0F501E00FF11FA0
:1041200080810E940B3AAC01009739F1F80163E0FD
:10413000F695E7956A95E1F7E552F54F808190E0B5
:104140002F2D277002C0959587952A95E2F780FD5F
:1041500014C0F801EE0FFF1FEE0FFF1FEB51F74FDA
:10416000CA01A0E0B0E080839183A283B3830B55A2
:10417000164FF801C082DD24D394F3948091C20AD3
:10418000F81608F4BFCFDD2071F00E94B12B4091EA
:10419000BB0A42954695469541700E94241203C081
:1041A0004CE350E0C3CFC95BDF4F0FB6F894DEBFDE
:1041B0000FBECDBFCF91DF911F910F91FF90EF9078
:1041C000DF90CF90BF90AF9008958F929F92AF9263
:1041D000BF92CF92DF92EF92FF920F931F93CF93F4
:1041E000DF93B82EA62E79018A01C82EDD2460E067
:1041F0000E945339F601EE0FFF1FEE0FFF1FEB5D1C
:10420000F74F2081318142815381211531054105CC
:10421000510509F49AC02E153F054007510708F0D3
:104220007BC0C60143E0959587954A95E1F7982EA6
:1042300087E0882E8B20CA2DD0E0C6010196C817D2
:10424000D90709F444C0B092D509F601EB55F64FF1
:1042500080818093D609C701821B930B9093D80964
:104260008093D709E092D909F092DA090093DB092B
:104270001093DC0980E0B801A7010E94FC1CE92D25
:10428000F0E0E753F54F808190E0082C02C095954F
:1042900087950A94E2F780FF1AC08091BB0A86FFD7
:1042A00016C0CC0FDD1FCC0FDD1FCF51D74F809133
:1042B000BF0290E0A0E0B0E0CC97A109B1098E0D5B
:1042C0009F1DA01FB11F88839983AA83BB83E92DFB
:1042D000F0E0EB52F54F808190E002C09595879514
:1042E0008A94E2F780FF18C08091FB02882381F056
:1042F0008EE061E00E94C1626091FB022AE0629F51
:10430000B0011124882777FD8095982F0E94BE6305
:104310008EE060E00E94C162F601EE0FFF1FEE0F1B
:10432000FF1FDF01AB5DB74F1D921D921D921C92C6
:104330001397EB51F74F108211821282138285EA94
:1043400099E0C80ED91EF6011082DF91CF911F911E
:104350000F91FF90EF90DF90CF90BF90AF909F9024
:104360008F900895AF92BF92CF92DF92EF92FF921B
:104370000F931F93CF93DF937C0168E677E048E7C4
:104380002FEA31E000E010E00E944735882309F46D
:1043900092C088E697E00E949207EC0197FD89C0E1
:1043A0008091C20A90E0C817D9070CF082C0C701FB
:1043B00068E677E048E72FE431E00E94473588233C
:1043C00009F479C088E697E00E949207182F0E94AE
:1043D000B12B5B016C01112309F462C0C70168E6CF
:1043E00077E048E723EB31E000E010E00E9447353A
:1043F000882309F460C088E697E00E94B007CB01EB
:10440000019780529D4F08F054C08091BD0A90E002
:104410009E012F5F3F4F8217930709F44EC0FE01A4
:1044200013E0F595E7951A95E1F7F0E0ED53F54FB8
:10443000808190E0AE014770042E02C0959587956B
:104440000A94E2F780FD39C0FE01EE0FFF1FEE0F68
:10445000FF1FEB51F74F80819181A281B3810097BB
:10446000A105B10551F5FE01EE0FFF1FEE0FFF1F75
:10447000EB51F74FCB01A0E0B0E080839183A283A2
:10448000B383CB55D64F83E688834091BB0A4295D0
:10449000469546954170C601B5010E94241207C099
:1044A0008C2F6091BD0AA60195010E94E52081E054
:1044B00005C081E103C080E101C080E3DF91CF91BD
:1044C0001F910F91FF90EF90DF90CF90BF90AF9032
:1044D00008954F925F926F927F928F929F92AF92C8
:1044E000BF92CF92DF92EF92FF920F931F93CF93E1
:1044F000DF935B016C019091BB0A442443944922F1
:1045000091FD0CC08091C502882311F4FF2408C0DE
:10451000F92EF694F69481E0F82211F0FF24F3943A
:10452000EE245BC08E2D90E0FC01E153F54F30810D
:10453000FC01ED53F54F20815E2C550C550C550CAC
:1045400000E010E0622E7724832E9924252D200F81
:10455000C22FD0E0FE01EB55F64FE081E336B0F517
:10456000442059F0FF2091F1C401002E02C095951E
:1045700087950A94E2F780FD29C0C301002E02C08E
:10458000959587950A94E2F780FF08C0822F609185
:10459000BD0AA60195010E94E52018C0EE23B1F0E6
:1045A000FE01EE0FFF1FEE0FFF1FDF01AB5DB74FE8
:1045B0001D921D921D921C921397EB51F74F108282
:1045C000118212821382CB55D64F18820F5F1F4F74
:1045D0000830110509F0BACFE3948091C10AE816BA
:1045E00008F4A0CFDF91CF911F910F91FF90EF9032
:1045F000DF90CF90BF90AF909F908F907F906F9003
:104600005F904F900895AF92BF92CF92DF92EF925A
:10461000FF920F931F935B016C018091BB0A83FD96
:10462000BAC08091F50A9091F60AA091F70AB0916C
:10463000F80A0097A105B10511F40E94514120919B
:10464000BC0A22952F7061E070E002C0660F771FF0
:104650002A95E2F7882777FD8095982F2091F50A13
:104660003091F60A4091F70A5091F80A86017501D7
:10467000E21AF30A040B150B2EE130E040E050E0A3
:104680000E9463696E157F058007910708F083C05B
:104690008091E109882359F48EE99AE06FE041E0C6
:1046A0000E948A458EE99AE064E00E944645A09205
:1046B000F50AB092F60AC092F70AD092F80A89E891
:1046C0009AE00E9466310E94B0637B018C010E94D7
:1046D00064470E94B33189E89AE00E942834882315
:1046E00061F40E94B0636E197F09800B910B683CE6
:1046F00071058105910558F33AC08091BC0A8F700D
:1047000002C08F7080668093BC0A8091BC0A82953B
:104710008F7090E00397ACF48091F90A9091FA0AB7
:10472000A091FB0AB091FC0AA6019501281B390B48
:104730004A0B5B0BDA01C901815C984AA040B0408A
:1047400050F180919B02882331F1A092F90AB09236
:10475000FA0AC092FB0AD092FC0A0E9451418823B7
:10476000D1F08091BC0A8F708093BC0A14C08091F4
:10477000BC0A282F22952F702F5F2F70922F9295B1
:10478000907F8F70892B8093BC0A30E027303105F1
:104790000CF0B7CFBACF1F910F91FF90EF90DF9041
:1047A000CF90BF90AF900895EF92FF920F931F9319
:1047B0009B01AC0180915302882309F447C080918A
:1047C000BC0A82958F7009F041C08091BB0A83FDBD
:1047D0003DC08091ED0A9091EE0AA091EF0AB09150
:1047E000F00A0097A105B10569F079018A01E81A7C
:1047F000F90A0A0B1B0BD801C70181589145A1404A
:10480000B04020F12093ED0A3093EE0A4093EF0A76
:104810005093F00A8091E109882329F489E396E016
:1048200061E00E94093B0E94E30C7B018C01611551
:1048300071058105910551F00E94842B8091BB0A7E
:1048400084FF04C0C801B7010E94842D1F910F91FD
:10485000FF90EF90089584B7877F84BF0E94144033
:104860000E944C3E0E943B096CE370E080E090E0C7
:104870000E947B2B8091BB0A84FD03C080E090E006
:1048800002C084EA9DE20E94242C64EF71E080E083
:1048900090E00E94BE6380E00E94CA3F8091600069
:1048A00088618093600081E2809360008091600065
:1048B00080648093600088E496E061E00E94093B98
:1048C00089EE97E060E044E00E948349882329F064
:1048D0008091BB0A80628093BB0A0E945141882369
:1048E00021F08091BC0A8F7004C08091BC0A8F7047
:1048F00080618093BC0A64EF71E080E090E00E94E8
:10490000BE630E946B3F0E94B12B6093E90A7093D3
:10491000EA0A8093EB0A9093EC0A0895BF92CF9233
:10492000DF92EF92FF920F931F93DF93CF93CDB758
:10493000DEB7C754D0400FB6F894DEBF0FBECDBF70
:104940006B017C018091E90A9091EA0AA091EB0A3F
:10495000B091EC0A0097A105B105D9F00F96A11D01
:10496000B11D8C159D05AE05BF0598F48091F5022B
:104970006FEF70E0681B71098CE00E942262109258
:10498000E90A1092EA0A1092EB0A1092EC0A1092CD
:10499000E10982E00E947A3AB82E082F10E086FFE3
:1049A000BFC0C092E90AD092EA0AE092EB0AF09204
:1049B000EC0A8091EF026FEF70E0681B71098CE0E8
:1049C0000E9422628091E109833020F4813008F056
:1049D00063C004C0833009F0A3C052C0C8018F7007
:1049E000907082309105F1F08430910551F101977A
:1049F00009F096C0B7FE0CC08EE10E941563892BAA
:104A000021F48FEF0E9459208BC00E94D61088C0DD
:104A100060914502709146028DE79AE00E94933DB5
:104A200081E00CC0B7FE03C00E94B63879C089E8A7
:104A30009AE060E070E00E94933D82E08093E1099B
:104A40006FC0B7FE0CC080E996E060E00E94093BB1
:104A50008FE796E061E00E94093B83E0EFCF209171
:104A6000BC0A822F8F7090E06091C10A019670E0BD
:104A70000E94A2698F70207F282B2093BC0A50C00F
:104A80000F7010700430110509F04AC0B7FE07C05E
:104A90008091EC090E9459201092E10941C0809157
:104AA000EC0990E06091240870E06F5F7F4F019601
:104AB0000E94A2698093EC098EE696E060E00E9475
:104AC000093B8091EC09882331F18150BE016F5F71
:104AD0007F4F0E946E178CE696E061E00E94093BD2
:104AE0008EE99AE060E041E00E948A456091EC091D
:104AF0008EE99AE070E04AE050E00E94A66789E6FD
:104B000096E00E94F93A8EE99AE0BE01645C7F4F1C
:104B10000E94B96705C089E596E061E00E94093B03
:104B2000C95BDF4F0FB6F894DEBF0FBECDBFCF918C
:104B3000DF911F910F91FF90EF90DF90CF90BF908A
:104B400008952F923F924F925F926F927F928F9231
:104B50009F92AF92BF92CF92DF92EF92FF920F930C
:104B60001F93DF93CF93CDB7DEB7C155D0400FB6BB
:104B7000F894DEBF0FBECDBF8091A70281708295F1
:104B8000880F880F807C9091BB0A9F7B982B909315
:104B9000BB0A8091B3028093BD0A0E9464470E94C1
:104BA000B3319093E3098093E209009721F08C518F
:104BB0009C4F0E943C15A895109223080E94B12B8F
:104BC0004B015C010E948E248091E8099091E909D3
:104BD000A091EA09B091EB0988159905AA05BB05D2
:104BE00009F452C38092E8099092E909A092EA0977
:104BF000B092EB098091E109882311F40E94CA3F29
:104C00008091BB0A81FF10C08091B70A9091B80AC9
:104C1000A091B90AB091BA0A88169906AA06BB06ED
:104C200090F00E940F3E0FC08091B70A9091B80A91
:104C3000A091B90AB091BA0A88169906AA06BB06CD
:104C400010F40E941F3E0E94C33A9091BB0A9695B1
:104C500091708091BE0A869581708917C9F0992359
:104C600049F08092E50A9092E60AA092E70AB09293
:104C7000E80A05C082E0B501A4010E94FC1C9091E5
:104C8000BB0A92708091BE0A8D7F892B8093BE0AE9
:104C90009091BB0A9695969591708091BE0A8695E3
:104CA000869581708917C9F0992349F08092E10AAD
:104CB0009092E20AA092E30AB092E40A05C081E071
:104CC000B501A4010E94FC1C9091BB0A94708091D4
:104CD000BE0A8B7F892B8093BE0AC501B4012CE3E9
:104CE00030E040E050E00E94B56979018A0180918E
:104CF000E4099091E509A091E609B091E709E81669
:104D0000F9060A071B0709F4B0C0E092E409F09223
:104D1000E5090093E6091093E709662455241E016E
:104D20000894211C311C90C0862DB1010E946E1781
:104D3000C101B501A4010E949416882309F483C01F
:104D40007724462C43947AC0C72CDD248091BD0A79
:104D500090E096012F5F3F4F8217930709F46DC0D3
:104D6000D60123E0B695A7952A95E1F7272D277060
:104D7000FD01ED53F54F808190E0022E02C0959524
:104D800087950A94E2F780FD58C0A552B54F8C91E3
:104D900090E002C0959587952A95E2F780FD4DC079
:104DA000ECE0F0E0EC0FFD1FEC0DFD1D2081222357
:104DB00009F443C0F601EE0FFF1FEE0FFF1FEB518A
:104DC000F74F80819181A281B3810097A105B10540
:104DD000A1F5822F0E940B3A7C0100E010E089814E
:104DE00081FF13C02091D10230E040E050E0C801C3
:104DF000B7010E94636924E630E040E050E00E9481
:104E0000B569C901DA017C018D01F601EE0FFF1FC2
:104E1000EE0FFF1FEB51F74FE082F1820283138305
:104E2000E114F1040105110541F025EA39E0C20E53
:104E3000D31ED6014C925524539473948091C20A88
:104E4000781608F481CF639480912408681608F4DA
:104E50006BCF552051F04091BB0A4295469546953F
:104E60004170C501B4010E9424128091BB0A83FFE6
:104E7000A3C12A961FAE2A972EC12A96BFAD2A97A4
:104E80008B2F90E0FC01ED53F54F2081EB2FEE0FBF
:104E9000EE0FEE0F2B96EFAF2B9744245524422FA5
:104EA00050E02E965FAF4EAF2E97DC01AB52B54F60
:104EB0006096BFAFAEAF6097FC01E753F54F6296C7
:104EC000FFAFEEAF62972B961FAD2B97140D612E9F
:104ED0007724F301EB55F64F80818823B9F0F30175
:104EE000EE0FFF1FEE0FFF1FEB51F74F80819181F7
:104EF000A281B38188169906AA06BB0638F0812FD5
:104F00006091BD0AA50194010E94E5202C964FAE48
:104F10002C972E968EAD9FAD2E97042C02C09595A2
:104F200087950A94E2F780FDC7C09301220F331FD3
:104F3000220F331FA5E2EA2EA8E0FA2EE20EF31E9E
:104F4000F70180819181A281B38188169906AA0612
:104F5000BB0608F4B1C0F5EE2F2EF8E03F2E220E6E
:104F6000331EF10180819181A281B3818816990657
:104F7000AA06BB0608F0A0C0812F61E00E94533949
:104F80000091BD0A002309F471C0202F30E0C30155
:104F900001962817390709F469C06296AEADBFAD16
:104FA00062978C9190E02C960FAC2C9702C095954F
:104FB00087950A94E2F780FF59C08091BB0A86FF6B
:104FC00055C0015029960FAF299710E08091B90282
:104FD000F7012081318142815381280F311D411D0C
:104FE000511DB801660F771F660F771FFB01EB5D40
:104FF000F74F20833183428353838091BF02C82EB1
:10500000DD24EE24FF2484EC9FEFAFEFBFEFC80E4A
:10501000D91EEA1EFB1EF10180819181A281B3811C
:10502000C80ED91EEA1EFB1E6B51774FDB01CD92D5
:10503000DD92ED92FC9213970B55164FE5EAF9E0DD
:105040006E0E7F1ED3018C91F80180838216930629
:10505000A406B50658F08C149D04AE04BF0430F4C9
:1050600029968FAD299761E00E9453396096AEADC5
:10507000BFAD60978C9190E02C960FAC2C9702C03E
:10508000959587950A94E2F780FF16C08EE061E05F
:105090000E94C1628091FB02882371F0BAE08B9F6D
:1050A000B0011124882777FD8095982F0E94BE6358
:1050B0008EE060E00E94C1620894411C511CE8E04F
:1050C0004E16510409F0FFCE2A96FFAD2A97FF5FD6
:1050D0002A96FFAF2A978091C10A2A962FAD2A9768
:1050E000281708F4CACEC501B4010E9469220E94A3
:1050F0006B3F8091C20AE5EEF8E060E0EE24FF2409
:10510000870190E0880F991F880F991F8E0F9F1FAE
:1051100012C0208131814281538182169306A406F8
:10512000B50640F4E216F3060407150710F47901FA
:105130008A0161E03496E817F90759F7E092DD0932
:10514000F092DE090093DF091093E0096623A1F5D0
:105150000E9477390E946B3FA5EAB9E080E090E0B9
:10516000FC01EB5DF74F1082118212821382FC0169
:10517000EB51F74F10821182128213821D92049616
:10518000803C910569F71092DD091092DE091092BA
:10519000DF091092E0099091BB0A8091B3028093DD
:1051A000BD0A8091A70281708295880F880F807C4C
:1051B000977B982B9093BB0A7091BD0A7723E9F1F6
:1051C0008091BB0A86FD39C06091C20A40E021E0AF
:1051D00030E0072F10E02AC0842F90E00217130759
:1051E00011F1DC0193E0B695A7959A95E1F7542F5C
:1051F0005770FD01ED53F54F808190E0052E02C000
:10520000959587950A94E2F780FF0DC0A753B54F97
:105210008C9190E002C0959587955A95E2F780FFB2
:1052200002C061E006C04F5F2F5F3F4F4617A0F2FC
:1052300060E0872F81500E945339C501B4010E945C
:1052400069220E946B3F8091E109882389F4C5019E
:10525000B40123E030E040E050E00E94B5699B01DA
:10526000AC0128593C4F81E0D9016C910E94FF3C70
:10527000C501B4010E940323C501B4010E94D423D7
:10528000C501B4010E94E80BCF5ADF4F0FB6F89466
:10529000DEBF0FBECDBFCF91DF911F910F91FF9069
:1052A000EF90DF90CF90BF90AF909F908F907F90C6
:1052B0006F905F904F903F902F9008958F929F92A4
:1052C000AF92BF92CF92DF92EF92FF920F931F9314
:1052D000CF93DF937B018C01EA012CE330E040E0C7
:1052E00050E00E94B5696883C801B7012CE330E043
:1052F00040E050E00E94B569122F032FF42EE52EF6
:10530000622F732F842F952F2CE330E040E050E084
:105310000E94B5696983612F702F8F2D9E2D2CE31C
:1053200030E040E050E00E94B569122F032FF42EC8
:10533000E52E622F732F842F952F28E130E040E077
:1053400050E00E94B5696A83612F702F8F2D9E2DCA
:1053500028E130E040E050E00E94B56979018A011F
:10536000C801B7016C5F7F4F8F4F9F4F27E030E040
:1053700040E050E00E94B5696F5F6B8320E0AA2493
:10538000BB24650101C02F5F822E9924F401EE54E5
:10539000F84FCF0183709070892B99F4CF0164E6A8
:1053A00070E00E94A269892B39F4CF0160E971E0B5
:1053B0000E94A269892B29F48EE691E0A0E0B0E07A
:1053C00004C08DE691E0A0E0B0E0A80EB91ECA1EB0
:1053D000DB1EC501A0E0B0E0E816F9060A071B07CE
:1053E00090F62E83F401EE54F84F83E0882E912C32
:1053F0008E229F228114910499F4CF0164E670E01B
:105400000E94A269892B39F4CF0160E971E00E9402
:10541000A269892B29F48EE691E0A0E0B0E004C0F7
:105420008DE691E0A0E0B0E0A81AB90ACA0ADB0A4A
:10543000980187010A191B092C093D09CF0164E66F
:1054400070E00E94A2697C01CF0160E971E00E94D6
:10545000A269AC01EBE6F3E060E0613051F4811445
:10546000910449F4E114F10441F44115510529F086
:1054700002C0808103C08CE101C08DE190E0A0E01A
:10548000B0E0081719072A073B0740F0081B190B63
:105490002A0B3B0B6F5F31966C30F9F66F5F6D83B3
:1054A000802F8F5F8C83DF91CF911F910F91FF90A1
:1054B000EF90DF90CF90BF90AF909F908F90089526
:1054C000EF92FF920F931F937B018C018091040A4E
:1054D0009091050AA091060AB091070AE816F9060C
:1054E0000A071B0771F0C801B70149EF59E00E9494
:1054F0005E29E092040AF092050A0093060A1093CE
:10550000070A1F910F91FF90EF9008950E94602A63
:105510008091FE0990E008950E94602A8091FC0924
:1055200090E008950E94602A8091FD0990E008951E
:105530000E94602A8091FA0990E008950E94602AF2
:105540008091FB0990E008954F925F926F927F9255
:105550008F929F92AF92BF92CF92DF92EF92FF9283
:105560000F931F93CF93DF934C01DC0116961C9190
:10557000612F70E080E090E020E833E341EE51E0FD
:105580000E9463695B016C0122EB37E0E12FF0E0E0
:10559000EE54F84F1DC0C90183709070892BB1F48F
:1055A000C90164E670E00E94A269892B39F4C9013F
:1055B00060E971E00E94A269892B41F480E891E5DD
:1055C000A1E0B0E0A80EB91ECA1EDB1E2F5F3F4F40
:1055D0002E173F0701F7D40115968C91482E5524BC
:1055E000C90164E670E00E94A2697C01C90160E91A
:1055F00071E00E94A2698C01C1E0D0E093E0692EC5
:10560000712C6222732227C0C230D10591F461143B
:10561000710479F4E114F10419F40115110549F448
:1056200080E89BE3A6E2B0E0A80EB91ECA1EDB1E0E
:1056300011C0FE01E659FC4F608170E080E090E00F
:1056400020E831E541E050E00E946369A60EB71EF4
:10565000C81ED91E2196C415D505B4F2D4011296E0
:105660006C9170E080E090E020E13EE040E050E0AE
:105670000E9463697B018C01F401618170E080E02C
:1056800090E02CE330E040E050E00E946369E60ED9
:10569000F71E081F191FD4018C91E80EF11C011D83
:1056A000111D14966C9170E061507040882777FD51
:1056B0008095982F20E831E541E050E00E94636931
:1056C000E60EF71E081F191FEA0CFB1C0C1D1D1D02
:1056D000B701C801DF91CF911F910F91FF90EF901B
:1056E000DF90CF90BF90AF909F908F907F906F9002
:1056F0005F904F90089560933F02709340028093B3
:1057000041029093420208956093EF097093F0096B
:105710008093F1099093F20920913F023091400269
:105720004091410250914202260F371F481F591FD6
:105730002093F3093093F4094093F5095093F60947
:1057400082E090E09093F8098093F7090E94B0639B
:105750006093000A7093010A8093020A9093030AEF
:105760000895EF92FF920F931F931CC02F5F3F4F3E
:105770004F4F5F4F2093EF093093F0094093F109A9
:105780005093F20988EE93E0A0E0B0E0E80EF91E35
:105790000A1F1B1FE092000AF092010A0093020AFE
:1057A0001093030A0E94B063E090000AF090010A8F
:1057B0000091020A1091030A6E197F09800B910B68
:1057C0002091EF093091F0094091F1095091F209CF
:1057D000685E73408040904048F68091F309909154
:1057E000F409A091F509B091F609281739074A077D
:1057F0005B07E8F0E091ED09F091EE093097B9F020
:105800000995611571058105910519F00E94842B98
:105810000EC020E030E08091F7099091F809892BC3
:1058200011F021E030E03093F8092093F7096091FE
:10583000EF097091F0098091F1099091F2091F919F
:105840000F91FF90EF9008959093EE098093ED09EA
:105850008091EF099091F009A091F109B091F209BE
:105860008093F3099093F409A093F509B093F60996
:105870000E94B12B0895482F6AE00E948269282F68
:1058800030E084E0220F331F8A95E1F7842F0E94D5
:105890008269892F820F0895CF93DF93EC01809165
:1058A000080A9091090A8836910559F588E79DE024
:1058B00068E670E00E94B35E88E79DE060E00E94C9
:1058C000355F88810E943B2C682F70E06F77707085
:1058D00088E79DE00E94355F89810E943B2C682FFC
:1058E00088E79DE00E94355F8A810E943B2C682FEB
:1058F00088E79DE00E94355F8B810E943B2C682FDA
:105900002DC08F36910509F04AC088E79DE06FE60B
:1059100070E00E94B35E88E79DE060E00E94355F22
:1059200088810E943B2C682F606888E79DE00E9478
:10593000355F89810E943B2C682F88E79DE00E949B
:10594000355F8A810E943B2C682F88E79DE00E948A
:10595000355F8B810E943B2C682F686088E79DE053
:105960000E94355F8C810E943B2C682F88E79DE068
:105970000E94355F8D810E943B2C682F88E79DE057
:105980000E94355F8E818E510E943B2C682F88E7E4
:105990009DE00E94355F88E79DE00E94785FDF917F
:1059A000CF91089588E690E09093090A8093080AC1
:1059B00088E79DE068E670E00E94B35E88E79DE0BE
:1059C00060E00E94355F88E79DE00E94785F882351
:1059D000D9F08FE690E09093090A8093080A88E74F
:1059E0009DE06FE670E00E94B35E88E79DE060E0B6
:1059F0000E94355F88E79DE00E94785F882321F050
:105A00001092090A1092080A08951F93CF93DF930A
:105A1000EC016091080A7091090A6115710509F499
:105A20006FC088E79DE00E94B35E88E79DE060E07C
:105A30000E94355F88E79DE00E94785F6091080AC8
:105A40007091090A88E79DE047E050E00E94895F75
:105A500088E79DE00E94C65E282F2F7722952F7041
:105A60001AE0219F900111248F70820F888388E7AC
:105A70009DE00E94C65E282F22952F70219F9001E5
:105A800011248F70820F898388E79DE00E94C65E93
:105A9000282F2F7322952F70219F900111248F7032
:105AA000820F8A8388E79DE00E94C65E87708B83A1
:105AB00088E79DE00E94C65E282F22952F70219FC7
:105AC000900111248F70820F8C8388E79DE00E94E3
:105AD000C65E282F22952F70219F900111248F7070
