:100000000C940B060C9433060C9433060C943306B4
:100010000C9433060C9433060C9433060C9433067C
:100020000C94B5070C9433060C9433060C943306E9
:100030000C9433060C9433060C9433060C9433065C
:100040000C9433060C9433060C9464670C943306BA
:100050000C9459680C94E7680C9433060C9433069E
:100060000C9433060C9433060C944D640C943306B4
:100070000C948E680C9422690C94330650726F674E
:1000800072616D20006C6F630077746B657900742A
:100090007474006376006A630064700063700063C8
:1000A00072007570006A7000636F006A6F00737091
:1000B000006A7300636D006373006A6E006A6C000F
:1000C000646C0073750063750077656174686572B0
:1000D0002E6F70656E737072696E6B6C65722E63D5
:1000E0006F6D002F776561746865720024442E700F
:1000F000793F6C6F633D2445266B65793D24452629
:100100006677763D244400747A007363616C650001
:1001100073756E7365740073756E726973650048EC
:100120005454502F312E3020323030204F4B0D0A96
:100130000043616368652D436F6E74726F6C3A2083
:100140006D61782D6167653D3630343830302C2054
:100150007075626C69630D0A00436F6E74656E742E
:100160002D547970653A20746578742F6373733BEE
:10017000636861727365743D7574662D380D0A434A
:100180006F6E74656E742D456E636F64696E673A49
:1001900020677A69700D0A00436F6E74656E742D66
:1001A000547970653A20746578742F6A617661734A
:1001B00063726970743B636861727365743D7574D2
:1001C000662D380D0A436F6E74656E742D456E632F
:1001D0006F64696E673A20677A69700D0A000D0ACC
:1001E0000024460024460024462446003C736372E3
:1001F0006970743E77696E646F772E6C6F6361749B
:10020000696F6E3D222F223B3C2F736372697074BD
:100210003E0A007B22726573756C74223A24447D19
:10022000007B22726573756C74223A24447D00242D
:100230004600222446223A24447D00646179005D10
:10024000002C2453002453005B0074797065006512
:100250006E64007374617274006869737400740072
:10026000656E00736964005D2C226E73746174693D
:100270006F6E73223A24447D002C002444002273C4
:100280006E223A5B00637077006E7077007474744E
:100290000077746B6579006C6F63006A737000722D
:1002A0006400656E007262740072736E002C2264CA
:1002B000657870223A24442C226D657870223A24A5
:1002C000447D002C00222446223A2444003C6D65E3
:1002D0007461206E616D653D2276696577706F721D
:1002E000742220636F6E74656E743D227769647446
:1002F000683D6465766963652D77696474682C6907
:100300006E697469616C2D7363616C653D312E306B
:100310002C6D696E696D756D2D7363616C653D3112
:100320002E302C757365722D7363616C61626C6520
:100330003D6E6F223E0D0A003C736372697074203B
:100340007372633D2224452F686F6D652E6A732298
:100350003E3C2F7363726970743E0A3C2F626F6477
:10036000793E0A3C2F68746D6C3E0076617220768F
:1003700065723D24442C697061733D24443B3C2FDD
:100380007363726970743E0A003C21444F435459B0
:1003900050452068746D6C3E0A3C68746D6C3E0A72
:1003A0003C686561643E0A24463C2F686561643E92
:1003B0000A3C626F64793E0A3C7363726970743EF2
:1003C000005B302C305D5D2C226C72756E223A5BC6
:1003D00024442C24442C24442C244C5D7D005B2498
:1003E000442C244C2C244C5D2C00305D2C2270734A
:1003F000223A5B0024442C002264657674223A245D
:100400004C2C226E627264223A24442C22656E22A5
:100410003A24442C227264223A24442C22727322FD
:100420003A24442C2272647374223A244C2C226C99
:100430006F63223A222445222C2277746B6579223D
:100440003A222445222C2273756E72697365223A12
:1004500024442C2273756E736574223A24442C2232
:100460007362697473223A5B006E616D6500706936
:10047000640070696400706964005D7D00225D0045
:10048000225D2C00245300244C5D2C2200244C2C93
:100490000024445D2C5B0024442C005B24442C2469
:1004A000442C24442C5B00226E70726F6773223AD6
:1004B00024442C226E626F61726473223A24442CAD
:1004C000226D6E70223A24442C226D6E7374223A8F
:1004D00024442C22706E73697A65223A24442C22BB
:1004E0007064223A5B003C6872202F3E3C666F725B
:1004F0006D206E616D653D6F6620616374696F6E1E
:100500003D6375206D6574686F643D6765743E3C3E
:10051000703E3C623E5363726970742055524C3A8F
:100520003C2F623E3C696E70757420747970653D35
:10053000746578742073697A653D3332206D617813
:100540006C656E6774683D3132372076616C756515
:100550003D22244522206E616D653D6A73703E3CEC
:100560002F703E3C703E44656661756C7420697303
:100570002024533C6272202F3E4966206C6F6361D9
:100580006C206F6E2075534420636172642C20755B
:100590007365202E2F3C2F703E3C703E3C623E50D7
:1005A000617373776F72643A3C2F623E3C696E7080
:1005B000757420747970653D70617373776F7264C0
:1005C0002073697A653D3332206E616D653D7077C9
:1005D0003E3C696E70757420747970653D73756208
:1005E0006D69743E3C2F703E3C6872202F3E3C2F5C
:1005F000666F726D3E005D2C226D61786C656E22B7
:100600003A24447D0073746E5F7365710072667383
:10061000746E0073746E5F646973006163745F72FB
:10062000656C61790069676E6F72655F7261696E92
:10063000006D61736F70002C00222453220022731E
:100640006E616D6573223A5B002C002444005D2CC2
:10065000222446223A5B00707700436F6E74656E09
:10066000742D547970653A206170706C696361749F
:10067000696F6E2F6A736F6E0D0A436F6E6E6E65D3
:100680006374696F6E3A20636C6F73650D0A004185
:1006900063636573732D436F6E74726F6C2D416C61
:1006A0006C6F772D4F726967696E3A202A0D0A00C8
:1006B000507261676D613A206E6F2D63616368658A
:1006C0000D0A0024462446244624460D0A7B0024B5
:1006D000462446244624460D0A00436F6E74656E18
:1006E000742D547970653A20746578742F68746D30
:1006F0006C0D0A0024462446244624460D0A005D5B
:100700000D0A002C00222C00302C22002C002C0082
:100710005B002E747874004E54502053796E6369D8
:100720006E672E2E2E00446574656374696E6720B3
:100730007553442E2E2E00302E20546573742028BD
:1007400031206D696E29002E20002000486F6C64F6
:1007500020423320746F20737461727400436C699B
:10076000636B20423320746F206C69737400527580
:100770006E20612050726F6772616D3A003A00001E
:10078000010800060400014500008200004000202E
:1007900000504F535420244620485454502F312E9B
:1007A000300D0A486F73743A2024460D0A244624FB
:1007B000534163636570743A202A2F2A0D0A436FF0
:1007C0006E74656E742D4C656E6774683A202444AF
:1007D0000D0A436F6E74656E742D547970653A20FE
:1007E0006170706C69636174696F6E2F782D7777B3
:1007F000772D666F726D2D75726C656E636F6465B3
:10080000640D0A0D0A2453004745542024462453FE
:1008100020485454502F312E300D0A486F73743ACB
:100820002024460D0A24460D0A0D0A004163636523
:1008300070743A20746578742F68746D6C00E300EE
:1008400004FA00010000000166777600747A006EF9
:100850007470006468637000697031006970320000
:100860006970330069703400677731006777320050
:100870006777330067773400687030006870310044
:1008800068777600657874005F00736474006D614A
:1008900073006D746F6E006D746F66007572730017
:1008A00072736F00776C0064656E0069706173002D
:1008B000646576696400636F6E006C6974006469D6
:1008C0006D00726C7000757774006E747031006E1C
:1008D000747032006E747033006E747034006C6724
:1008E000007265736574004669726D776172653A6E
:1008F0002000545A6F6E653A004E54503F005573B5
:100900006520444843503F005374617469632E6905
:1009100070313A005374617469632E6970323A0021
:100920005374617469632E6970333A00537461744F
:1009300069632E6970343A00476174657761792E76
:100940006970313A00476174657761792E69703258
:100950003A00476174657761792E6970333A0047D0
:100960006174657761792E6970343A004854545047
:1009700020706F72743A000048617264776172652A
:100980003A20004578702E20626F6172643A000050
:1009900053746E2064656C61793A004D61732E204A
:1009A00073746174696F6E3A004D61732E20206F0D
:1009B0006E2061646A2E3A004D61732E206F666668
:1009C0002061646A2E3A005261696E2073656E730D
:1009D0006F723A004E6F726D616C6C79206F70654A
:1009E0006E3F00252057617465722074696D653A09
:1009F0000044657669636520656E61626C653F00E1
:100A000049676E2070617373776F72643F0044654D
:100A1000762E2049443A004C434420636F6E747232
:100A20006173743A004C4344206261636B6C696784
:100A300068743A004C43442064696D6D696E673A8E
:100A40000052656C61792070756C73653A0055735E
:100A50006520776561746865723F004E54502E6959
:100A600070313A004E54502E6970323A004E545054
:100A70002E6970333A004E54502E6970343A004556
:100A80006E61626C65206C6F6767696E673F0052CC
:100A90006573657420616C6C3F004D6F6E0054751A
:100AA00065005765640054687500467269005361BB
:100AB000740053756E009A0A9E0AA20AA60AAA0A30
:100AC000AE0AB20A206D730020736563002073655F
:100AD000630025004E6F00596573002B002B00202A
:100AE000474D54003030003A002D002B00002020EC
:100AF0002020002D44697361626C6564212D003AE9
:100B00000045004D433A002D002D004D41433A0071
:100B10002E002D0020002020003A002000486F6C9D
:100B20006420423320746F20736176650042312F58
:100B300042323A2B2F2D2C2042333A2D3E003D3DA0
:100B4000536574204F7074696F6E733D3D00506C37
:100B50006561736520576169742E2E2E005265738E
:100B6000657474696E672044657669636500436FD8
:100B70006E6E656374696E672E2E2E007C3C3E5E41
:100B80002B3D3F2F5B5D3B2C2A225C0000002100A7
:100B9000240027002A0000002200250028002B0046
:100BA00000002000230026002900020202020202A7
:100BB00002020404040404040404030303030303FF
:100BC00003030101010101010101010204081020D8
:100BD0004080010204081020408001020408102017
:100BE0004080804020100804020100000001020043
:100BF00000000000000004030706000000000000E1
:100C0000000000000000000000005708702E293C82
:100C1000FD51E962026A11241FBECFEFD0E1DEBFB1
:100C2000CDBF13E0A0E0B1E0EAE2F9ED02C005902B
:100C30000D92AC35B107D9F71EE0ACE5B3E001C0C9
:100C40001D92A13AB107E1F71CE0C6E1DCE004C067
:100C50002297FE010E94586CCA30D107C9F70E9442
:100C6000B86B0C94936C0C940000FC0188279927B6
:100C7000E89421912032E9F3293010F02E30C8F3A6
:100C80002B3241F02D3239F4689404C00E945A0787
:100C9000820F911D219120532A30C0F31EF49095AC
:100CA00081959F4F08951F93FC0199278827BC01C8
:100CB000E89411911032E9F3193010F01E30C8F3A6
:100CC0001B3251F01D3249F4689406C00E9445075A
:100CD000610F711D811D911D119110531A30B0F3D8
:100CE0003EF490958095709561957F4F8F4F9F4F03
:100CF0001F910895FB01DC0102C005900D92415047
:100D00005040D8F70895FB01DC010D900020E9F771
:100D1000119705900D920020E1F70895FB01DC0189
:100D200005900D920020E1F70895FB01DC0104C05D
:100D30008D910190801921F441505040C8F7881BD3
:100D4000990B0895FB01DC0102C001900D92415006
:100D50005040D8F70895DC0101C06D9341505040D8
:100D6000E0F70895FB01DC010D900020E9F71197F1
:100D700001900D920020E1F70895FC018191861702
:100D800021F08823D9F7992708953197CF01089545
:100D9000FB01DC0101900D920020E1F70895FB01B9
:100DA000DC014150504030F08D910190801919F4D0
:100DB0000020B9F7881B990B0895FB01DC01415015
:100DC000504048F001900D920020C9F701C01D92DB
:100DD00041505040E0F70895A0E0B0E0E2EFF6E0C7
:100DE0000C94666C7C01EB018A01690109C0CE019B
:100DF0002196F6010995F70181937F01015010407A
:100E000001151105A1F7CDB7DEB7E8E00C94826CAF
:100E1000A0E0B0E0EEE0F7E00C94666CEC017B0142
:100E20008A01690109C0CE012196F70161917F0114
:100E3000F60109950150104001151105A1F7CDB734
:100E4000DEB7E8E00C94826CFB019F01E89442302D
:100E5000C4F04532B4F44A3029F497FB1EF490955F
:100E600081959F4F642F77270E94F26B805D8A33B4
:100E70000CF0895D8193CB010097A1F716F45DE238
:100E800051931082C9010C948707592F482F372F8F
:100E9000262F660F771F881F991F660F771F881FE1
:100EA000991F620F731F841F951F660F771F881F7E
:100EB000991F08957AE0979F902D879F802D910D1F
:100EC00011240895FA01CF93FF93EF932230CCF0D1
:100ED0002532BCF4C22F2C2F332744275527FF93EC
:100EE000EF930E94196CEF91FF91605D6A330CF0F3
:100EF000695D6193B901CA016050704080409040C3
:100F000051F710828F919F91CF910C948707DC014C
:100F1000FC01672F71917723E1F7329704C07C9130
:100F20006D9370836291AE17BF07C8F308959C015B
:100F3000F999FECF32BD21BDF89A80B508959C0184
:100F4000F999FECF1FBA32BD21BD60BD0FB6F8942E
:100F5000FA9AF99A0FBE0895FC01A681B7816D93A4
:100F6000B783A68381E090E008951F920F920FB699
:100F70000F9211242F933F934F935F936F937F931F
:100F80008F939F93AF93BF93EF93FF9380916907E4
:100F90008F5F8093690780916907803128F0E09125
:100FA0006707F09168070995FF91EF91BF91AF91A5
:100FB0009F918F917F916F915F914F913F912F9171
:100FC0000F900FBE0F901F901895ABEEB8E080E029
:100FD00090E0FC01E559F84F1082118212821382D1
:100FE000FC01E55DF74F10821182128213821D927F
:100FF0000496803C910569F7109223091092240908
:101000001092250910922609F999FECF89E090E007
:1010100092BD81BDF89A80B580936A070895982F94
:1010200080916A07981708F041C0992309F43EC0DF
:10103000892F90E0019727E430E0AC01429FC00186
:10104000439F900D529F900D11249C01265F3F4FAE
:101050008F5A9F4F24C0F999FECF32BD21BDF89A17
:1010600050B5F999FECF72BD61BDF89A40B5F999B6
:10107000FECF1FBA32BD21BD40BD0FB6F894FA9A1B
:10108000F99A0FBEF999FECF1FBA72BD61BD50BD6E
:101090000FB6F894FA9AF99A0FBE2F5F3F4FB90135
:1010A000695B7F4F2817390709F0D5CF0895109253
:1010B0002A071092290785ED92E0909328078093E4
:1010C000270789E180933007109233071092460773
:1010D00010924D0710924F070895AF92BF92DF9282
:1010E000EF92FF920F931F93CF93DF9300D000D026
:1010F00007E217E0ADB7BEB712961C930E93119797
:101100008EE792E014969C938E9313970E949F37DC
:10111000FF240F900F900F900F90D02EE12E9BE7A1
:10112000A92E92E0B92EC9E7D2E04FC00F2D10E0F2
:1011300000D000D000D0ADB7BEB71196EDB7FEB766
:10114000D182E2821396BC92AE921297F80183E0AC
:10115000F595E7958A95E1F7E25FF54F808190E09C
:1011600098012770307002C0959587952A95E2F70F
:101170008170907015969C938E9314970E949F3760
:1011800080910D0A90E001972DB73EB72A5F3F4F3F
:101190000FB6F8943EBF0FBE2DBF08171907A1F078
:1011A00000D000D0ADB7BEB71196DC921197129661
:1011B000EC9212971496DC93CE9313970E949F376C
:1011C0000F900F900F900F90F39420910D0AF2164C
:1011D00008F4ACCF00D000D000D0EDB7FEB7319608
:1011E00087E297E0ADB7BEB712969C938E931197A6
:1011F00087E692E093838283248315820E949F373F
:10120000EDB7FEB736960FB6F894FEBF0FBEEDBF32
:10121000DF91CF911F910F91FF90EF90DF90BF90E2
:10122000AF9008958F929F92AF92BF92DF92EF920C
:10123000FF920F931F93CF93DF93EB0100D000D069
:1012400000D0EDB7FEB7319607E217E0ADB7BEB7F5
:1012500012961C930E9311972EE436E0338322836B
:10126000958384830E949F37FF24EDB7FEB736969F
:101270000FB6F894FEBF0FBEEDBFD02EE12E3BE4BB
:10128000832E36E0932E29E4A22E26E0B22E40C013
:1012900000D000D000D0ADB7BEB71196EDB7FEB705
:1012A000D182E28213969C928E9212970F2D10E0BB
:1012B000FE01E00FF11F808114968C931497159610
:1012C0001C920E949F3780910C0A90E001972DB7E5
:1012D0003EB72A5F3F4F0FB6F8943EBF0FBE2DBFFB
:1012E00008171907A1F000D000D0ADB7BEB711960E
:1012F000DC9211971296EC9212971496BC92AE92D1
:1013000013970E949F370F900F900F900F90F394B8
:1013100080910C0AF81608F4BBCFDF91CF911F9192
:101320000F91FF90EF90DF90BF90AF909F908F90C4
:1013300008958DB79EB70C970FB6F8949EBF0FBE59
:101340008DBFEDB7FEB7319687E297E0ADB7BEB778
:1013500012969C938E93119783EC96E093838283ED
:101360008FE191E0958384838AE596E09783868375
:101370008FE896E09187808780EB96E0938782875D
:101380000E949F378DB79EB70C960FB6F8949EBFFC
:101390000FBE8DBF08950E9499090E946D0880E0DC
:1013A00008958DB79EB70C970FB6F8949EBF0FBEE9
:1013B0008DBFEDB7FEB7319687E297E0ADB7BEB708
:1013C00012969C938E9311978FEC96E09383828371
:1013D0008FE191E0958384838AE596E09783868305
:1013E0008FE896E09187808780EB96E093878287ED
:1013F0000E949F378DB79EB70C960FB6F8949EBF8C
:101400000FBE8DBF08958DB79EB70C970FB6F89499
:101410009EBF0FBE8DBFEDB7FEB7319687E297E056
:10142000ADB7BEB712969C938E93119784EF96E05A
:10143000938382838FE191E0958384838AED96E0A4
:101440009783868380EB96E0918780878FE896E08C
:10145000938782870E949F378DB79EB70C960FB6F1
:10146000F8949EBF0FBE8DBF08950E94030A8DB7EA
:101470009EB708970FB6F8949EBF0FBE8DBFEDB70D
:10148000FEB7319687E297E0ADB7BEB712969C9350
:101490008E93119786EE94E09383828384E494E0A4
:1014A0009583848380E091E0978386830E949F37B1
:1014B0008DB79EB708960FB6F8949EBF0FBE8DBF2E
:1014C00080E008950F931F93DF93CF93CDB7DEB7DE
:1014D00028970FB6F894DEBF0FBECDBF8091E0090C
:1014E000882329F489EC90E060E00E947B380EEAC2
:1014F00016E01C821B8285ED92E09A8389831E830D
:101500000D8318870F838DB79EB70C970FB6F8948D
:101510009EBF0FBE8DBFEDB7FEB73196CE010196CF
:10152000ADB7BEB712969C938E9311978CEE90E058
:101530009383828380919A028483158284E194E06C
:101540009783868384E894E0918780878091E00187
:10155000828713860E949F37D8010D900020E9F7FB
:101560001197A01BB10BA00FB11F25E237E0EDB71B
:10157000FEB73C960FB6F894FEBF0FBEEDBF50E32A
:1015800042E395E213C08C91B90161507040803202
:1015900049F4F9015083FB01408392939F0121504C
:1015A000304003C0F90180839B011197F6E0AE3A09
:1015B000BF0749F78C91D9018C938091060A8F7BE4
:1015C0008093060A0091DE011091DF0180E590E032
:1015D0009093DF018093DE0183EE90E0B90149EC46
:1015E00050E02AE73BE00E94402F1093DF01009378
:1015F000DE0128960FB6F894DEBF0FBECDBFCF91A7
:10160000DF911F910F910895AF92BF92CF92DF9219
:10161000EF92FF920F931F937B018C018091070A39
:1016200082958F7079F58091060A83FD2BC086FF25
:1016300003C084E893E002C08EE190E02091480A64
:101640003091490A40914A0A50914B0A21153105BF
:101650004105510569F057016801A21AB30AC40A8D
:10166000D50AA0E0B0E08A159B05AC05BD0550F495
:10167000E092480AF092490A00934A0A10934B0AF2
:101680000E94620A1F910F91FF90EF90DF90CF9020
:10169000BF90AF900895CF92DF92EF92FF920F9399
:1016A0006EEA76E048E722E734E001E0EE24FF242A
:1016B000CC24DD240E94F335882311F480E114C08A
:1016C0008EEA96E00E9435069C01181619065CF415
:1016D00080916A0790E0281739072CF4822F0E9426
:1016E0000F0881E001C081E10F91FF90EF90DF9042
:1016F000CF900895CF92DF92EF92FF920F93CF9306
:10170000DF93EB01C45ADC4F01C021968881882306
:1017100009F488C08632C9F774C08EEA96E00E9448
:1017200035069C0185E0213A380720F43093FF0903
:101730002093FE09CE016EEA76E048E720E131E031
:1017400001E0EE24FF24CC24DD240E94F33588231D
:1017500069F08EEA96E00E9435069C0185E0213A08
:10176000380720F43093010A2093000A0E94C540F4
:10177000CE016EEA76E048E72AE031E001E0EE24AF
:10178000FF24CC24DD240E94F335882359F08EEA0F
:1017900096E00E9435068B3F910520F480936A0203
:1017A0000E94753BCE016EEA76E048E727E031E023
:1017B00001E0EE24FF24CC24DD240E94F3358823AD
:1017C000D1F08EEA96E00E9435069C0181369105A3
:1017D00090F48091E60190E02817390761F020939A
:1017E000E6011092440A1092450A1092460A10929D
:1017F000470A0E94753B8091060A80648093060A1E
:1018000011C0CE016EEA76E048E727E131E001E061
:10181000EE24FF24CC24DD240E94F335882309F430
:1018200089CF7BCFDF91CF910F91FF90EF90DF9029
:10183000CF9008956F927F928F929F92BF92CF9296
:10184000DF92EF92FF920F931F93DF93CF93CDB769
:10185000DEB728970FB6F894DEBF0FBECDBF8091DC
:10186000A00289838091A6028A838091AC028B8337
:101870008091B2028C83BB243E010894611C711CD0
:1018800045E0842E912C8C0E9D1E6091D7016F5FD8
:101890006093D701C3010E94C1310E94AC676B0104
:1018A0007C0188EE93E0A0E0B0E0C80ED91EEA1EED
:1018B000FB1E0E94624B8C010E945F32012B09F4D7
:1018C00041C0C4016091D7010E94F42E8823D1F158
:1018D000ED80FE800F81188580EC98EDA4E5BCE7D3
:1018E000E80EF91E0A1F1B1F6091E60170E080E000
:1018F00090E024E833E040E050E00E94C76BE60E41
:10190000F71E081F191F08C0B39494E1B91609F017
:10191000BCCFEE24FF248701B701C80128960FB67B
:10192000F894DEBF0FBECDBFCF91DF911F910F9115
:10193000FF90EF90DF90CF90BF909F908F907F901F
:101940006F9008950E94AC676C157D058E059F050C
:1019500008F4AFCFD9CFCF92DF92EF92FF920F93DF
:101960001F93DF93CF93CDB7DEB76E970FB6F89482
:10197000DEBF0FBECDBF7C018FE297E0B7010E94B2
:10198000114D882309F4E9C0CE010196B70141E069
:101990000E949F628DB79EB708970FB6F8949EBFBE
:1019A0000FBE8DBFEDB7FEB7319657E2C52E57E09B
:1019B000D52EADB7BEB71296DC92CE92119787EEB8
:1019C00091E0938382838FE191E09583848381E327
:1019D00091E0978386830E949F37D7010D90002066
:1019E000E9F78D010E191F09055010400E0D1F1D3E
:1019F000EDB7FEB738960FB6F894FEBF0FBEEDBF39
:101A0000C8016FE171E044E050E00E94CF0600970A
:101A100099F400D000D000D0EDB7FEB73196ADB745
:101A2000BEB71296DC92CE92119784EE91E093832A
:101A3000828389E591E01BC0C80164E271E044E063
:101A400050E00E94CF060097F1F400D000D000D003
:101A5000EDB7FEB73196ADB7BEB71296DC92CE9217
:101A6000119781EE91E09383828388E991E09583D9
:101A700084830E949F37EDB7FEB736960FB6F89471
:101A8000FEBF0FBEEDBF00D000D087E297E0ADB73C
:101A9000BEB712969C938E9311978EED91E014969B
:101AA0009C938E9313970E949F370F900F900F90E7
:101AB0000F9080912D0790912E0720912B07309148
:101AC0002C07821B930B60E140E00E9433301092A0
:101AD0002A071092290782E993E090932C078093BC
:101AE0002B0790932E0780932D078E010B5F1F4FBE
:101AF00019C0C80162E973E04CE153E00E949355BC
:101B00009C01442737FD4095542F2C31B3E03B070F
:101B1000B0E04B07B0E05B07B0F0C90160E143E023
:101B20000E9433302F89388D498D5A8D8F85988941
:101B3000A989BA89281739074A075B07D1F620E037
:101B400030E040E050E0C90161E143E00E94333001
:101B5000CE0105960E946D5581E06E960FB6F89401
:101B6000DEBF0FBECDBFCF91DF911F910F91FF90D0
:101B7000EF90DF90CF9008950F931F930E945D2CFC
:101B80000E94030A00D000D000D0EDB7FEB7319616
:101B900007E217E0ADB7BEB712961C930E931197EC
:101BA00089E893E0938382838DEC92E0958384832C
:101BB0000E949F3700D0EDB7FEB73196ADB7BEB7E4
:101BC00012961C930E9311978BE693E09383828376
:101BD00084ED90E0958384838091760286831782DA
:101BE0000E949F370F900F90EDB7FEB73196ADB7BB
:101BF000BEB712961C930E93119788E393E09383DC
:101C0000828384E494E0958384830E949F378DB718
:101C10009EB706960FB6F8949EBF0FBE8DBF80E0AC
:101C20001F910F9108954F925F926F927F928F92C2
:101C30009F92AF92BF92CF92DF92EF92FF920F935B
:101C40001F93DF93CF930F92CDB7DEB70E945D2C29
:101C50005B016C012DB73EB72C5130400FB6F894A4
:101C60003EBF0FBE2DBFEDB7FEB7319607E217E0BE
:101C7000ADB7BEB712961C930E93119788EF93E001
:101C800093838283A482B582C682D78280910C0A14
:101C9000808711868091060A8170828713868091E1
:101CA000060A86958170848715868091060A869536
:101CB00086958170868717868091020A9091030A23
:101CC000A091040AB091050A808B918BA28BB38BF3
:101CD00084E194E0958B848B84E894E0978B868BE9
:101CE0008091FE099091FF09918F808F8091000A69
:101CF0009091010A938F828F0E949F3790E0EDB7F9
:101D0000FEB77C960FB6F894FEBF0FBEEDBF78010C
:101D100004EF13E023C000D000D000D0EDB7FEB731
:101D20003196ADB7BEB71196EC9211971296FC9210
:101D300013830283A92FB0E0A25FB54F8C918483F7
:101D4000158299830E949F3799819F5FEDB7FEB7F7
:101D500036960FB6F894FEBF0FBEEDBF80910C0A09
:101D6000F7E26F2EF7E07F2E9817A8F200D000D090
:101D7000ADB7BEB712967C926E9211978AEE93E041
:101D800014969C938E9313970E949F3799240F90DB
:101D90000F900F900F90C301762C892EEEED4E2EF2
:101DA000E3E05E2E64C0A92DB0E0FD01E551F74FE0
:101DB0006081662329F420E030E040E050E025C057
:101DC000CD01880F991F880F991FFC01E559F84F25
:101DD000E080F18002811381FC01E55DF74FAE14D4
:101DE000BF04C006D10648F0208131814281538171
:101DF0002A193B094C095D0908C0208131814281C3
:101E000053812E193F09400B510BEDB7FEB73E979A
:101E10000FB6F894FEBF0FBEEDBF0DB71EB70F5F34
:101E20001F4F71828282F80153824282648315823D
:101E30002683378340875187AA0FBB1FAA0FBB1F7A
:101E4000A559B84F8D919D910D90BC91A02D828781
:101E50009387A487B5870E949F3793942DB73EB789
:101E6000225F3F4F0FB6F8943EBF0FBE2DBF80914B
:101E70000D0A981608F497CF8DB79EB70E970FB638
:101E8000F8949EBF0FBE8DBFEDB7FEB7319687E2C7
:101E900097E0ADB7BEB712969C938E93119781ECE5
:101EA00093E09383828380911B09848315828091C0
:101EB0001C098683178280911D0990911E099187C4
:101EC000808780911F0990912009A0912109B091EC
:101ED000220982879387A487B5870E949F37EDB731
:101EE000FEB73E960FB6F894FEBF0FBEEDBF0F9043
:101EF000CF91DF911F910F91FF90EF90DF90CF90E6
:101F0000BF90AF909F908F907F906F905F904F9019
:101F100008950E9499090E94130E80E00895BF92CF
:101F2000CF92DF92EF92FF920F931F936C01FC010F
:101F3000B080E1800E945D2C20E831E541E050E076
:101F40000E94196C2B0D311D411D511DFF2400E015
:101F500010E0CA01B901A80197010E94196CF601AD
:101F600060831F910F91FF90EF90DF90CF90BF9013
:101F700008958F929F92AF92BF92CF92DF92EF928D
:101F8000FF920F931F934C01FC01A180E080FF247E
:101F9000EA0CF11C0027F7FC0095102F0E945D2C25
:101FA000BB24CC24DD2420E831E541E050E00E9450
:101FB000196CCA01B901A60195010E94196CE61AB3
:101FC000F70A080B190BC801B701A60195010E9479
:101FD000196CF40160831F910F91FF90EF90DF90D7
:101FE000CF90BF90AF909F908F9008950E945D2CEE
:101FF000AB01BC0180910D0AEBEEF8E0ABE2B8E07A
:10200000282F30E02E0F3F1F0AC08081882329F03F
:102010004D935D936D937C93139731961496E217CD
:10202000F30799F70895CF93DF939C011092AE06C2
:10203000FC01A081B181C0E0D0E00FC09C919D3235
:1020400031F09B3221F0892F80538A3068F4FE01F1
:10205000E255F94F908321961196F9018081918183
:102060000A96A817B90750F3C255D94F188211968E
:10207000F901B183A0838EEA96E00E945306CB015A
:10208000DF91CF9108954F925F926F927F928F92DE
:102090009F92AF92BF92CF92DF92EF92FF920F93F7
:1020A0001F93DF93CF9300D00F92CDB7DEB74C01D3
:1020B0005A01DE011196EEEDF2E083E001900D92FF
:1020C0008150E1F7698310E0A2E04A2E512C4C0EBA
:1020D0005D1E3E010894611C711C1EC0812F90E0A2
:1020E000B2014AE050E00E942407C4016EEA76E0A3
:1020F00048E7930100E0EE24FF24CC24DD240E9475
:10210000F335882341F08EEA96E00E943506F5010A
:10211000E10FF11D80831F5F80910C0A1817F0F208
:102120000F900F900F90CF91DF911F910F91FF9023
:10213000EF90DF90CF90BF90AF909F908F907F9067
:102140006F905F904F900895AF92BF92CF92DF92C1
:10215000EF92FF920F93DF93CF93CDB7DEB7C857BF
:10216000D0400FB6F894DEBF0FBECDBF5C016EEA63
:1021700076E048E729E832E001E0EE24FF24CC24B1
:10218000DD240E94F335882311F480E12AC0C501C3
:102190005E010894A11CB11CB50148E725E832E0B6
:1021A00001E0EE24FF24CC24DD240E94F3358823B3
:1021B000B9F08EEA96E0B50140E150E00E94CF060A
:1021C000009771F48EEA96E00E9483361092CE0654
:1021D00084EF93E06EEA76E00E94803A81E001C0ED
:1021E00083E0C858DF4F0FB6F894DEBF0FBECDBFF7
:1021F000CF91DF910F91FF90EF90DF90CF90BF9044
:10220000AF900895CF92DF92EF92FF920F936EEA14
:1022100076E048E72BE932E001E0EE24FF24CC240D
:10222000DD240E94F3358823C1F08EEA96E00E94F7
:1022300083361092EE06AEEAB6E0FD018081803270
:1022400009F08D938081882311F03196F7CF84E4D3
:1022500094E06EEA76E00E94803A8FEF0F91FF9053
:10226000EF90DF90CF900895CF92DF92EF92FF92A0
:102270000F931F93CF93DF93EC016EEA76E048E76C
:1022800029EA32E001E0EE24FF24CC24DD240E9480
:10229000F335882311F00E94F60FCE016EEA76E046
:1022A00048E725EA32E001E0EE24FF24CC24DD24D7
:1022B0000E94F3358823C9F08EEA96E00E94350625
:1022C0001816190694F40E94030A80912D07909124
:1022D0002E0720912B0730912C07821B930B61E175
:1022E00040E00E9433300E949D39CE016EEA76E0D4
:1022F00048E722EA32E001E0EE24FF24CC24DD248A
:102300000E94F335882399F08091AE06813339F429
:102310008091060A80FD0BC00E94A23B08C080335A
:1023200031F48091060A80FF02C00E94AD3BCE01CD
:102330006EEA76E048E72FE932E001E0EE24FF2480
:10234000CC24DD240E94F335882361F18EEA96E0E7
:102350000E9435066C0118161906F4F40E945D2CD3
:102360007B018C01B601882777FD8095982F20E1AD
:102370003EE040E050E00E94C76BE60EF71E081FEB
:10238000191FE092020AF092030A0093040A1093C4
:10239000050A0E94E04006C0009711F081E103C0E9
:1023A0000E94D04081E0DF91CF911F910F91FF906B
:1023B000EF90DF90CF9008952F923F924F925F92CF
:1023C0006F927F928F929F92AF92BF92CF92DF9245
:1023D000EF92FF920F931F93DF93CF93CDB7DEB7AA
:1023E0002A970FB6F894DEBF0FBECDBF7B018C01DC
:1023F0004B015C010894811C911CA11CB11C8091B3
:1024000046020E94E83B6C01209123093091240987
:102410004091250950912609E216F3060407150795
:1024200018F08501740109C07C010027F7FC0095B4
:10243000102FE20EF31E041F151F40900D0A80910D
:10244000080A282E33246091060A669566956695DB
:102450006170552441E0642E712CC601AA2797FDB6
:10246000A095BA2F89839A83AB83BC837AC0E52D6C
:10247000F0E02614370409F470C0CF01880F991FCB
:10248000880F991F2BE2C22E28E0D22EC80ED91E2B
:10249000D6012D913D914D915C912115310541055C
:1024A000510509F45AC0DC01A559B84FBE83AD836C
:1024B0008D919D910D90BC91A02D0097A105B10526
:1024C00009F04BC0DF0183E0B695A7958A95E1F747
:1024D000752D7770FD01E25FF54F808190E0072E4A
:1024E00002C0959587950A94E2F780FD36C0AE5CF0
:1024F000B54F8C9190E002C0959587957A95E2F75B
:1025000080FF1AC0ED81FE81E082F1820283138395
:10251000DA01C9018E0D9F1DA01FB11FF601808336
:102520009183A283B383E980FA800B811C81E80E3A
:10253000F91E0A1F1B1F10C0AD81BE818D929D9296
:10254000AD92BC921397280D391D4A1D5B1DF601F3
:10255000208331834283538361E053940894611C48
:10256000711C541408F483CF6170660F660F660FF8
:102570008091060A877F862B8093060A2A960FB6DB
:10258000F894DEBF0FBECDBFCF91DF911F910F91A9
:10259000FF90EF90DF90CF90BF90AF909F908F9083
:1025A0007F906F905F904F903F902F900895AF92E3
:1025B000BF92CF92DF92EF92FF921F93CF93DF9360
:1025C000C0EED1E010E077E2E72E77E0F72E65EC81
:1025D000A62E62E0B62E53ECC52E52E0D52E888191
:1025E000282F30E040E050E0143129F42C533040E3
:1025F0004040504016C01E3159F4CA01B9012AE0CA
:1026000030E040E050E00E94C76B9B01AC0109C084
:10261000113139F40E94E83B9C01442737FD409575
:10262000542F6C817D81FB0184918F35B9F18DB779
:102630009EB70A970FB6F8949EBF0FBE8DBFEDB739
:10264000FEB73196ADB7BEB71296FC92EE921197D7
:10265000B382A28275836483268337834087518740
:102660000E949F37EDB7FEB73A960FB6F894FEBFBB
:102670000FBEEDBF153291F000D000D0ADB7BEB7A0
:102680001296FC92EE9211971496DC92CE921397CA
:102690000E949F370F900F900F900F901F5F26960C
:1026A000163209F09CCF0E949C40EDB7FEB73897D8
:1026B0000FB6F894FEBF0FBEEDBF319627E237E0AC
:1026C000ADB7BEB712963C932E9311972DEA32E028
:1026D000338322838483158285E090E09783868309
:1026E0000E949F37EDB7FEB738960FB6F894FEBF3D
:1026F0000FBEEDBFDF91CF911F91FF90EF90DF9064
:10270000CF90BF90AF9008950E9499090E94D71270
:1027100080E008956F927F928F929F92AF92BF92C6
:10272000CF92DF92EF92FF920F931F93DF93CF939D
:1027300000D000D0CDB7DEB75C0183E789831A8271
:102740001B821C8210E0E2E06E2E712C6C0E7D1E4E
:102750004E010894811C911C1FC0812F90E0B30191
:102760004AE050E00E942407C5016EEA76E048E79F
:10277000940100E0EE24FF24CC24DD240E94F335F4
:10278000882349F08EEA96E00E948336812F6EEA14
:1027900076E00E945E3A1F5F80910D0A1817E8F2FA
:1027A000C5016DE644E15AE00E94431084EA97E0D7
:1027B00064E17AE00E94E840C50169E64AE15AE036
:1027C0000E9443108AEA97E06AE17AE00E94E840BA
:1027D000C50161E640E25AE00E94431080EB97E0B9
:1027E00060E27AE00E94E840C50164E646E25AE011
:1027F0000E94431086EB97E066E27AE00E94E84090
:102800000E94083BC50161E742E35AE00E94431081
:102810008CEB97E062E37AE00E94E84081E00F9061
:102820000F900F900F90CF91DF911F910F91FF901C
:10283000EF90DF90CF90BF90AF909F908F907F9060
:102840006F900895AF92BF92CF92DF92EF92FF9276
:102850000F931F93CF93DF9300D000D007E217E0D0
:10286000ADB7BEB712961C930E9311978EE396E008
:1028700014969C938E9313970E949F37FF240F907A
:102880000F900F900F90E02E012FAEEAAA2EA6E037
:10289000BA2EF9E3CF2EF6E0DF2EC7E3D6E03EC036
:1028A0008F2D6EEA76E00E94403A00D000D000D032
:1028B000EDB7FEB73196ADB7BEB71196EC92119752
:1028C00012960C93D382C282B582A4820E949F3753
:1028D0002F2D30E080910D0A90E00197EDB7FEB703
:1028E00036960FB6F894FEBF0FBEEDBF2817390716
:1028F000A1F000D000D0ADB7BEB71196EC92119701
:1029000012960C9312971496DC93CE9313970E9411
:102910009F370F900F900F900F90F39480910D0AB6
:10292000F81608F4BDCF81E396E064E17AE00E94F6
:10293000120985E296E06AE17AE00E9412098BE1D1
:1029400096E060E27AE00E94120983E196E066E296
:102950007AE00E9412098DE096E06CE27AE00E9433
:10296000120985E096E062E37AE00E94120900D045
:1029700000D000D0EDB7FEB7319687E297E0ADB753
:10298000BEB712969C938E93119786EF95E0938332
:10299000828380E190E0958384830E949F37EDB726
:1029A000FEB736960FB6F894FEBF0FBEEDBFDF91AF
:1029B000CF911F910F91FF90EF90DF90CF90BF903C
:1029C000AF9008950E9499090E94221480E0089512
:1029D000CF92DF92EF92FF920F939C01809176024B
:1029E0008823C1F4C9016EEA76E048E727E536E0BE
:1029F00001E0EE24FF24CC24DD240E94F33588235B
:102A000051F08EEA96E00E9483368EEA96E00E94AC
:102A1000A53A811181E00F91FF90EF90DF90CF9068
:102A20000895DF92EF92FF920F931F93CF93DF935E
:102A3000EC010E94BF3010922A071092290782E908
:102A400093E090932C0780932B0790932E0780930D
:102A50002D07BE016B5F7F4FFD8080E2F81621F0ED
:102A6000EC2EDD2EFE0104C0CB010E94BC0D10C176
:102A70008581882359F0803249F08A3039F08F33CC
:102A800029F031968F32A1F752E1AEC050E0ACC0D0
:102A9000C52FD0E0FE01EE0FFF1FEE0FFF1FE15725
:102AA000FE4F0190F081E02D849190E08017910716
:102AB00009F0FDC03196849190E04C91242F33278A
:102AC00027FD30958217930709F0F1C093E7F916B7
:102AD00071F4453709F041C0CC0FDD1FCC0FDD1F6D
:102AE000CF56DE4FE881F981CB01039647C0AAE6B5
:102AF000FA1699F54F3689F58B010D5F1F4FC80106
:102B00000E94E814882389F50E9499098DB79EB721
:102B100008970FB6F8949EBF0FBE8DBFEDB7FEB7F6
:102B2000319687E297E0ADB7BEB712969C938E932D
:102B3000119782E392E0938382838091E4019091E4
:102B4000E501958384838091E001868317820E944A
:102B50009F378DB79EB7089696C08B010D5F1F4FAC
:102B6000C8010E94E814882339F1CC0FDD1FCC0F77
:102B7000DD1FCF56DE4FE881F981C8010995182F76
:102B8000882309F485C08F3FC1F40E94030A00D056
:102B900000D000D0EDB7FEB7319687E297E0ADB731
:102BA000BEB712969C938E9311978FE292E0938317
:102BB00082838CEE91E060C012E00E94D10900D0C7
:102BC00000D000D0EDB7FEB7319687E297E0ADB701
:102BD000BEB712969C938E93119781E292E09383F5
:102BE0008283148315824AC00F2D112707FD10958B
:102BF000DB011196523109F04BCF8091060A85FF17
:102C000047C0CEEAD6E08E2D9D2D9C01D90101C092
:102C10008993EA2FEE1915968C911597803229F039
:102C2000119696E0CE3CD90799F7F0E0E255F94FBE
:102C300010828FE297E069E271E040E00E94304D3F
:102C40008EEA96E00E94AB0C882399F50E94D10988
:102C500000D000D000D0EDB7FEB7319687E297E004
:102C6000ADB7BEB712969C938E93119783E192E015
:102C70009383828380E290E0958384830E949F37D0
:102C80008DB79EB706960FB6F8949EBF0FBE8DBF48
:102C900080912D0790912E0720912B0730912C07C2
:102CA000821B930B61E140E00E94333002C05F5F02
:102CB000A1CFDF91CF911F910F91FF90EF90DF9007
:102CC00008958F929F92AF92BF92CF92DF92EF9230
:102CD000FF920F931F93CF93DF93EC017A018B0147
:102CE000CB01BA010E944A2B4C01C801B7010E94D6
:102CF000442B5C01888180FFACC0C801B7010E94F1
:102D0000382BC82EC801B7010E943E2BD82E8881CF
:102D10008295837090E082309105B1F08330910507
:102D2000F1F0892BB1F5298130E08C2D90E00596EA
:102D300067E070E00E94066C02C0359527958A9581
:102D4000E2F720FD26C085C02D2D30E0898190E07E
:102D50008F7190702817390709F07BC01AC0C8011D
:102D6000B70120E831E541E050E00E94196CCA014A
:102D7000B9012A8130E040E050E00E94196C2981BD
:102D800030E040E050E0621773078407950709F0D0
:102D900060C08881869586958370B9F0823019F479
:102DA000D0FE13C056C0813081F48FE1D81609F4EB
:102DB00050C08DE1D81609F05BC0C801B7010E9470
:102DC000322B029709F054C044C08CE390E0889EF7
:102DD0009001899E300D989E300D11242A0D3B1DC7
:102DE000888186FD29C00D811E81EF81F8858B8148
:102DF0009C812817390768F10115110529F460E055
:102E00002817390739F51FC0309719F1281B390BDE
:102E1000C901BF010E94F26BAB016E9FC0016F9FA1
:102E2000900D7E9F900D11248217930791F460E01E
:102E3000041715077CF007C0FE0140E083819481F0
:102E40002817390711F461E005C04F5F329644300E
:102E5000A9F760E0862FDF91CF911F910F91FF902E
:102E6000EF90DF90CF90BF90AF909F908F9008959C
:102E7000D0FCABCFEECF982F9B0180916A079817BB
:102E800068F467E4969FB0011124665F7F4FC90123
:102E900047E450E027E937E00E94EC0608952F92BE
:102EA0003F924F925F926F927F928F929F92AF92DA
:102EB000BF92CF92DF92EF92FF920F931F93DF9317
:102EC000CF93CDB7DEB7C754D0400FB6F894DEBF6E
:102ED0000FBECDBF0E9499092DB73EB72E5030408E
:102EE0000FB6F8943EBF0FBE2DBFEDB7FEB73196BB
:102EF00007E217E0ADB7BEB712961C930E93119779
:102F000087EA94E09383828380916A0784831582A1
:102F100080910C0A868317828EE090E091878087EB
:102F200084E090E0938782878CE090E095878487A7
:102F30000E949F37EE24EDB7FEB73E960FB6F89489
:102F4000FEBF0FBEEDBFF02E012F57E9C52E54E096
:102F5000D52E4CE0642E712C6C0E7D1E8F2C912E84
:102F60003DE7232E34E0332E20E8422E24E0522E7B
:102F700092E9A92E93E0B92E57C18E2DBE016F5F45
:102F80007F4F0E943B17898182958370833039F48B
:102F90008B81823020F0CE0102960E94B90F2DB7AE
:102FA0003EB72A5030400FB6F8943EBF0FBE2DBF3B
:102FB000EDB7FEB73196ADB7BEB71196FC9211973B
:102FC00012960C932BE934E0338322838981848326
:102FD00015828A81868317828B81808711860E9461
:102FE0009F370F900F900F900F90EDB7FEB731966F
:102FF000ADB7BEB71196FC92119712960C93D3827F
:10300000C2828C819D81958384830E949F37EDB716
:10301000FEB73196ADB7BEB71196FC9211971296D6
:103020000C93D382C2828E819F81958384830E9478
:103030009F37EDB7FEB73196ADB7BEB71196FC928C
:10304000119712960C93D382C282888599859583B5
:1030500084830E949F37EDB7FEB73196ADB7BEB7F8
:103060001196FC92119712960C9321E934E0338368
:1030700022838A859B85958384830E949F3710E0F5
:103080004DB75EB74A5F5F4F26C0E60DF71D8081E2
:103090000E94083CADB7BEB718970FB6F894BEBFF4
:1030A0000FBEADBFEDB7FEB731961196FC921197EA
:1030B00012960C932DE834E033832283A0E0B0E035
:1030C00084839583A683B7830E949F371F5F4DB784
:1030D0005EB7485F5F4F0FB6F8945EBF0FBE4DBF3F
:1030E000E12FF0E080910D0A90E00197E817F907D1
:1030F00064F2E60DF71D80810E94083CADB7BEB7B3
:1031000018970FB6F894BEBF0FBEADBFEDB7FEB7B0
:10311000319611968C92119712969C9227E834E082
:1031200033832283A0E0B0E084839583A683B783B2
:103130000E949F374DB75EB7485F5F4F0FB6F89458
:103140005EBF0FBE4DBF8EEA96E0BE01645C7F4F4E
:103150004CE050E00E94DD061092BA0600D000D08C
:1031600000D0EDB7FEB73196ADB7BEB711968C92D1
:10317000119712969C9224E834E0338322834EEA1E
:1031800056E0558344830E949F372E2D30E0809176
:103190006A0790E00197ADB7BEB716960FB6F894E0
:1031A000BEBF0FBEADBF2817390749F000D000D011
:1031B000EDB7FEB7F1820283548243820EC000D085
:1031C00000D0ADB7BEB71196FC92119712960C9332
:1031D000129714963C922E9213970E949F370F904D
:1031E0000F900F900F908E2D63E00E94E66B92304F
:1031F000D1F480912D0790912E0720912B073091CB
:103200002C07821B930B60E143E00E943330109245
:103210002A0710922907B0922C07A0922B07B09290
:103220002E07A0922D07E39480916A07E81608F410
:10323000A4CE00D000D087E297E0EDB7FEB792832E
:1032400081838AE794E0948383830E949F370F9061
:103250000F900F900F9061E070E080E090E00E948E
:10326000BA6780E0C95BDF4F0FB6F894DEBF0FBED0
:10327000CDBFCF91DF911F910F91FF90EF90DF9025
:10328000CF90BF90AF909F908F907F906F905F9006
:103290004F903F902F900895DF92EF92FF920F93FF
:1032A0001F93DF93CF93CDB7DEB7C754D0400FB68F
:1032B000F894DEBF0FBECDBF20916A07821708F0D9
:1032C00046C0222309F443C090E0019627E430E091
:1032D000829F8001839F100D929F100D1124065F25
:1032E0001F4F67E4D62E7E010894E11CF11C14C028
:1032F000C701B80147E450E027E937E00E94EC0637
:10330000C80187549040B70147E450E02FE937E007
:103310000E940807095B1F4F20916A072D9DC0017D
:1033200011240A960817190718F3215020936A07E9
:10333000F999FECF1FBA89E090E092BD81BD20BD12
:103340000FB6F894FA9AF99A0FBE81E001C080E0B6
:10335000C95BDF4F0FB6F894DEBF0FBECDBFCF9174
:10336000DF911F910F91FF90EF90DF900895CF9222
:10337000DF92EF92FF920F936EEA76E048E726E73E
:1033800034E001E0EE24FF24CC24DD240E94F33558
:10339000882311F480E125C08EEA96E00E9435066C
:1033A0009C018FEF2F3F380781F410926A07F9993B
:1033B000FECF1FBA89E090E092BD81BD10BC0FB670
:1033C000F894FA9AF99A0FBE0BC080916A0790E0C0
:1033D0002817390714F081E104C0822F0E944C198C
:1033E00081E00F91FF90EF90DF90CF900895982F9C
:1033F00080916A07981710F080E0089587E4989FFD
:10340000C00111240A9647E450E02FE937E00E94FA
:10341000080781E00895BC0190916A079E3010F082
:1034200080E0089587E4989FC00111240A9647E43C
:1034300050E02FE937E00E94080720916A072F5FCC
:1034400020936A07F999FECF1FBA89E090E092BDF8
:1034500081BD20BD0FB6F894FA9AF99A0FBE81E0AB
:1034600008958F929F92AF92BF92CF92DF92EF9288
:10347000FF920F931F93DF93CF93CDB7DEB7CC545A
:10348000D0400FB6F894DEBF0FBECDBF5C01DC01AB
:103490000D900020E9F71197A81BB90BFC0120E063
:1034A00030E00EC0AF018081803229F08A3019F0FF
:1034B00031968D3019F4FA01108205C02F5F3F4F0D
:1034C0002A173B0778F3C5010E948336C5016EEACF
:1034D00076E048E72EE634E001E0EE24FF24CC2439
:1034E000DD240E94F335882309F4EEC08EEA96E0CD
:1034F0000E9435064C01FFEF8F3F9F070CF4E6C09A
:1035000080916A0790E0881699060CF0DFC0BB82B4
:10351000AA8285010C591F4F0EC0C7016BE271E0F2
:1035200043E050E00E94CF06009781F00894E11C30
:10353000F11CFB82EA82EA80FB80F701808188230C
:1035400009F4C2C0E016F10640F3BEC083E090E08B
:10355000E80EF91EFB82EA828E010E5F1F4FC80142
:103560000E9413108E83C8010E9413108F83C8011C
:103570000E94131088878A819B8101969B838A838E
:10358000C8010E9413109A878987C8010E941310EE
:103590009C878B87C8010E9413109E878D87C80166
:1035A0000E941310988B8F878A819B8102969B8340
:1035B0008A83BB2478018E010F5E1F4F0AC0C701AA
:1035C0000E9413100E94B73BF801EB0DF11D8083A0
:1035D000B39480910D0AB81690F38A819B8102966C
:1035E0009B838A836EEA76E048E729E634E001E0CF
:1035F0007E010894E11CF11CE4E0CE2ED12CCC0E0F
:10360000DD1E0E94F335882309F477C08C819D81EB
:10361000892B09F472C0A0E0B0E008C0FD01E255BA
:10362000F94F2083119601969D838C838C819D8117
:10363000FC012081222321F0263211F02A3071F77B
:10364000A255B94F1C92CE018F5B9F4F6EEA76E078
:103650004CE050E00E94DD0614C080916A0790E0C3
:1036600001C0C4010196BE01675B7F4F4AE050E094
:103670000E94240706C0FC01EB0DF11D1082B394DB
:1036800002C0CE014196FFE2FB15A8F78E8182951C
:103690008370833039F48885823020F0CE0107961C
:1036A0000E948F0FBE016A5F7F4F2FEF82162FEFB0
:1036B000920621F4CB010E940B1A03C0882D0E94B0
:1036C000F719882329F402C080E103C081E101C019
:1036D00081E0C45BDF4F0FB6F894DEBF0FBECDBFF5
:1036E000CF91DF911F910F91FF90EF90DF90CF90DE
:1036F000BF90AF909F908F900895CE018F5B9F4FAA
:103700006CE770E00E948E068FEF88168FEF9806A8
:1037100009F0A7CFA2CFEF92FF920F931F938C01D6
:103720008FE297E069E271E040E00E94304DFCE1F9
:10373000EF2EF7E0FF2EC701B8010E94C8060EEA7F
:1037400016E0C80160E871E00E94C806C801B70130
:103750000E94B206C80162E177E00E9483061F91D1
:103760000F91FF90EF9008952F923F924F925F92AA
:103770006F927F928F929F92AF92BF92CF92DF9281
:10378000EF92FF920F931F93DF93CF93CDB7DEB7E6
:10379000A2970FB6F894DEBF0FBECDBF3C0180915B
:1037A000060A85FD02C080E26BC1C3016EEA76E0C5
:1037B00048E729E532E001E0EE24FF24CC24DD24B3
:1037C0000E94F3358823B9F08EEA96E00E94350610
:1037D0007C0121E08E36920708F04FC10E945D2CDB
:1037E00020E831E541E050E00E94196C490159019F
:1037F000AE18BF0840C0C3016EEA76E048E723E593
:1038000032E001E0EE24FF24CC24DD240E94F335D5
:10381000882309F434C18EEA96E00E9453064B01D6
:103820005C01C3016EEA76E048E72FE432E00E94D3
:10383000F335882309F423C1C501B40120E831E53B
:1038400041E050E00E943B6C59018EEA96E00E94F4
:10385000530620E831E541E050E00E943B6C49010D
:103860002A153B0508F409C1C9018A199B098E561E
:10387000914008F002C119821A821B821C82C30186
:10388000BE016F5F7F4F44E02AE432E001E0EE24A6
:10389000FF24CC24DD240E94F335482E0E94D10958
:1038A00000D000D007E217E0EDB7FEB71283018326
:1038B00088E492E0948383830E949F376501BB2450
:1038C000B3940F900F900F900F90BEEA2B2EB6E09E
:1038D0003B2EA9E06A2E712C6C0E7D1E502EA12E5F
:1038E00002E913E0ACC0C6016EEA76E04AE050E0BF
:1038F0000E9424078EEA96E00E948B1B8FE297E0DD
:103900006EEA76E00E94114D882309F495C019866D
:103910001B8618861F8288E393E09E838D83C301F4
:103920006EEA76E041E00E94695D01C0BB24C301FC
:103930006EEA76E047E750E020E030E00E948658EB
:103940001816190624F0C3010E946D5575C0FC01BC
:10395000E355F94F80818A3009F41082442059F0F0
:10396000CE01019662EB76E042E050E00E94CF0685
:103970000097E9F60AC08FE291E062EB76E042E060
:1039800050E00E94CF06009791F2BB2081F000D05A
:1039900000D000D0EDB7FEB73196ADB7BEB71196E7
:1039A0005C9211971296AC9285E492E00FC000D021
:1039B00000D000D0EDB7FEB73196ADB7BEB71196C7
:1039C0005C9211971296AC9281E492E09383828389
:1039D000358224820E949F37ADB7BEB716960FB6C8
:1039E000F894BEBF0FBEADBF0894E11CF11CC70127
:1039F00069E170E00E94066C892B09F097CF8091F5
:103A00002D0790912E0720912B0730912C07821BB8
:103A1000930B60E143E00E94333010922A0710922A
:103A2000290710932C0700932B0710932E07009360
:103A30002D07EE24FF247ACF0894C11CD11C8C14CE
:103A40009D0408F050CF00D000D087E297E0EDB79A
:103A5000FEB7928381838FE392E0948383830E94F5
:103A60009F370F900F900F900F9061E070E080E013
:103A700090E00E94BA6780E003C081E101C080E16C
:103A8000A2960FB6F894DEBF0FBECDBFCF91DF91E7
:103A90001F910F91FF90EF90DF90CF90BF90AF906C
:103AA0009F908F907F906F905F904F903F902F905E
:103AB00008959F92AF92BF92CF92DF92EF92FF92C2
:103AC0000F931F93DF93CF93CDB7DEB76E970FB6EB
:103AD000F894DEBF0FBECDBF982E5A016B018091C6
:103AE000B802882309F412C18091060A85FF0EC12D
:103AF000CB01BA0120E831E541E050E00E94196CA9
:103B0000CA01B9014EEA56E02AE030E00E9462079D
:103B10008EEA96E00E948B1B8FE297E069E271E0EB
:103B200040E00E94304D8FE297E060E871E040E0B5
:103B30000E94304D882351F48FE297E060E871E0F5
:103B400041E00E94F24C882309F4E0C01D821F82EC
:103B50001C821B8288E393E09A8389838E010B5F2A
:103B60001F4F8EEAE82E86E0F82EC801B70142E426
:103B70000E94695D4F89588D698D7A8DC8010E94B8
:103B80000553C70160E177E00E948E069920D1F5C8
:103B9000F70101900020E9F73197EE19FF09EE0DCA
:103BA000FF1D80911C0990E0BF014AE050E00E9497
:103BB0002407C7016EE077E00E948306F7010190B9
:103BC0000020E9F73197EE19FF09EE0DFF1D8091F6
:103BD0001B0990E0BF014AE050E00E942407C701A2
:103BE0006CE077E00E948306F70101900020E9F77E
:103BF0003197EE19FF09EE0DFF1D80911D0990917F
:103C00001E095AC0C70168E077E00E948306E92DCB
:103C1000F0E0EE0FFF1FE957FE4F60817181C70191
:103C20000E94B206C70165E077E00E94830622E0A9
:103C30009216B9F033E0931699F141E0941609F029
:103C400040C0F70101900020E9F73197EE5AF640A5
:103C50008091380A9091390AA0913A0AB0913B0AB2
:103C60000FC0F70101900020E9F73197EE5AF640B6
:103C700080913C0A90913D0AA0913E0AB0913F0A82
:103C8000A6019501281B390B4A0B5B0BCA01B90130
:103C9000E255F94FAF012AE030E00E94620711C0FF
:103CA000F70101900020E9F73197EE5AF640E2550E
:103CB000F94F8091540A90E0BF014AE050E00E9421
:103CC00024070EEA16E0C80163E077E00E9483064D
:103CD000F80101900020E9F73197E01BF10BE00FAC
:103CE000F11FC601B501AF012AE030E00E94620772
:103CF000C8016FEF76E00E948306CE010196B801FD
:103D00000E947A62CE0105960E946D556E960FB69E
:103D1000F894DEBF0FBECDBFCF91DF911F910F9101
:103D2000FF90EF90DF90CF90BF90AF909F9008955D
:103D3000CF92DF92EF92FF921F936B017C018091F3
:103D4000270990912809A0912909B0912A09A70172
:103D50009601281B390B4A0B5B0BDA01C901855808
:103D60009340A040B04078F1C0922709D092280932
:103D7000E0922909F0922A092091540A30E040E0AB
:103D800050E010912B09612F70E080E090E00E94DC
:103D9000C76B20916A02620F711D811D911D1F5F0B
:103DA00010932B09212F30E040E050E00E94196C65
:103DB0002093540A103639F483E0B701A6010E941B
:103DC000591D10922B091F91FF90EF90DF90CF901B
:103DD0000895CF93DF93EC018091B802882361F1BD
:103DE0008091060A85FF28C0CE0162E371E043E0BE
:103DF00050E00E94CF06009771F48FE297E060E8F0
:103E000071E040E00E94304D8823B1F08DE497E0EE
:103E10000E94E75711C0CE010E948B1B8FE297E0F2
:103E20006EEA76E00E94114D882331F08FE297E030
:103E30006EEA76E00E94EE4CDF91CF910895CF922A
:103E4000DF92EF92FF920F936EEA76E048E72BE362
:103E500032E001E0EE24FF24CC24DD240E94F3357F
:103E6000882311F480E105C08EEA96E00E94E91EE5
:103E700081E00F91FF90EF90DF90CF9008950E9426
:103E8000FB3A0E941743ABEEB8E080E090E0FC0103
:103E9000E559F84F1082118212821382FC01E55D10
:103EA000F74F10821182128213821D920496803C79
:103EB000910569F71092230910922409109225099F
:103EC0001092260908952F923F924F925F926F921F
:103ED0007F928F929F92AF92BF92CF92DF92EF929A
:103EE000FF920F931F93DF93CF93CDB7DEB7279742
:103EF0000FB6F894DEBF0FBECDBF3C0190EEA92EE9
:103F000091E0B92E5524442433241F828824992417
:103F1000182D153209F48EC0183109F48BC0882091
:103F200009F488C01E3009F485C0103109F482C03C
:103F3000282D992DF50120808181813009F410828E
:103F4000DE011296E9EDF2E085E001900D928150DC
:103F5000E1F7822FBE016D5F7F4F4AE050E00E9483
:103F60002407C3016EEA76E048E79E012E5F3F4FCB
:103F700000E0EE24FF24CC24DD240E94F3358823C6
:103F8000D1F1F5018181813011F4808334C08EEA52
:103F900096E00E9453069B01AC01143129F4245C85
:103FA0003F4F4F4F5F4F17C01E3159F42AE030E0AA
:103FB00040E050E00E943B6CC901DA019C01AD0178
:103FC0000AC0113141F4CB010E94D33B282F30E0CD
:103FD00040E050E002C057FD0CC0F501818190E047
:103FE000A0E0B0E082179307A407B50714F0208380
:103FF00002C0F1E0FF83F50180818215D9F0812FA5
:104000008150823010F444244394812F80528430B4
:1040100010F444244394812F83508B3010F43324C4
:1040200033941A3119F43324339404C01F3111F43A
:10403000552453940894811C911C86E090E0A80EAE
:10404000B91E96E28916910409F062CFC3016EEAA7
:1040500076E048E727E932E001E0EE24FF24CC24B3
:10406000DD240E94F3358823B1F08EEA96E00E94A9
:1040700083361092DE068EEA96E064E174E00E94D8
:10408000BF3A882341F084E194E06EEA76E00E9432
:10409000803A552453941982C3016EEA76E048E7CA
:1040A00021E932E001E07E010894E11CF11CCC24FE
:1040B000DD240E94F3358823B9F08EEA96E00E9451
:1040C00083361092CE068EEA96E064E874E00E9491
:1040D000BF3A8823A1F084E894E06EEA76E00E947B
:1040E000803A552453940BC08981882341F0109263
:1040F000AE0684E894E06EEA76E00E94803A809111
:10410000EC01882349F5C3016EEA76E048E72DE823
:1041100032E001E0EE24FF24CC24DD240E94F335BC
:104120008823D1F08EEA96E00E945306162F072FBF
:10413000F82EE92E0E943F1F612F702F8F2D9E2D8C
:104140000E94302C8091060A84FF06C0612F702FD8
:104150008F2D9E2D0E94302EEF81EE2311F081E1F4
:1041600021C00E94753B442041F01092440A1092F5
:10417000450A1092460A1092470A552041F01092C3
:10418000480A1092490A10924A0A10924B0A3320A8
:1041900041F010924C0A10924D0A10924E0A109261
:1041A0004F0A81E027960FB6F894DEBF0FBECDBF51
:1041B000CF91DF911F910F91FF90EF90DF90CF9003
:1041C000BF90AF909F908F907F906F905F904F9037
:1041D0003F902F900895DF92EF92FF920F931F93DD
:1041E000DF93CF9300D0CDB7DEB78C010E9483362A
:1041F0001A83098344E6E42EF12CE00EF11E0DC073
:10420000C80166E371E043E050E00E94CF060097EA
:1042100079F00F5F1F4F1A83098309811A81F80112
:104220008081882309F44DC00E151F0548F349C04D
:104230000D5F1F4F1A8309830E943F1F10E000E0AB
:104240007E010894E11CF11C3EEFD32E2EC0C70165
:104250000E941310BC01009739F1412F50E0E12F6B
:10426000E695E695E695F0E0EA5DF54F808190E011
:10427000212F277002C0959587952A95E2F780FD3A
:1042800013C0FA01EE0FFF1FEE0FFF1FE55DF74FA2
:10429000CB01A0E0B0E080839183A283B38345513A
:1042A000574FFA01D08201E01F5F80910D0A181765
:1042B00070F2002331F00E945D2C0E94DC1181E03D
:1042C00001C080E10F900F90CF91DF911F910F916E
:1042D000FF90EF90DF900895AF92BF92CF92DF9260
:1042E000EF92FF920F931F93DF93CF93CDB7DEB77B
:1042F000C754D0400FB6F894DEBF0FBECDBFE82E36
:104300000E943F1F8E2D81508E3F28F4BE016F5FAB
:104310007F4F0E943B17DD24FF24FEEFCF2EECE001
:10432000AE2EB12CAC0EBD1E3BC00F2D10E08FEF9A
:10433000E81619F442E050E00BC0EE20E9F1F50177
:10434000E00FF11F80810E94083CAC01009739F119
:10435000F80173E0F695E7957A95E1F7EA5DF54F98
:10436000808190E02F2D277002C0959587952A9522
:10437000E2F780FD14C0F801EE0FFF1FEE0FFF1FE4
:10438000E55DF74FCA01A0E0B0E080839183A2838E
:10439000B3830551174FF801C082DD24D394F39401
:1043A00080910D0AF81608F4C0CFDD2041F00E947C
:1043B0005D2C0E94DC1103C04CE350E0C9CFC95B07
:1043C000DF4F0FB6F894DEBF0FBECDBFCF91DF91A8
:1043D0001F910F91FF90EF90DF90CF90BF90AF9023
:1043E0000895CF92DF92EF92FF920F931F93CF9396
:1043F000DF93D82EC62E79018A01C82FD0E060E065
:104400000E94D73AFE01EE0FFF1FEE0FFF1FE55986
:10441000F84F4081518162817381411551056105D9
:10442000710509F47DC04E155F056007710708F03E
:1044300061C02C2D30E0CE01019628173907E1F03C
:10444000D0921B09FE01E551F74F808180931C0932
:10445000C701841B950B90931E0980931D09E09260
:104460001F09F0922009009321091093220980E08E
:10447000B801A7010E94591D8E0183E0169507958A
:104480008A95E1F7B7E0FB2EFD20F801E05EF54FDD
:10449000808190E00F2C02C0959587950A94E2F7F1
:1044A00080FF18C080919402882381F08EE061E043
:1044B0000E94BD66609194022AE0629FB0011124BF
:1044C000882777FD8095982F0E94BA678EE060E07C
:1044D0000E94BD66045D154FF801808190E002C026
:1044E00095958795FA94E2F780FF04C08D2D60E0E2
:1044F0000E94E042FE01EE0FFF1FEE0FFF1FDF01E3
:10450000A559B84F1D921D921D921C921397E55DFF
:10451000F74F1082118212821382C551D74F188231
:10452000DF91CF911F910F91FF90EF90DF90CF908F
:1045300008956F927F928F929F92AF92BF92CF9287
:10454000DF92EF92FF920F931F93CF93DF935C0163
:104550006EEA76E048E723E632E001E0EE24FF244D
:10456000CC24DD240E94F335882309F48AC08EEA26
:1045700096E00E943506EC0197FD81C080910D0AFE
:1045800090E0C817D9070CF07AC0C5016EEA76E052
:1045900048E720E632E00E94F335882309F471C031
:1045A0008EEA96E00E943506182F0E945D2C3B0192
:1045B0004C01112309F45AC0C5016EEA76E048E7C0
:1045C0002EE532E00E94F335882309F45AC08EEAC2
:1045D00096E00E945306CB01019780529D4F08F050
:1045E0004EC08091080A90E09E012F5F3F4F8217D6
:1045F000930709F448C0FE0143E0F595E7954A9515
:10460000E1F7F0E0E25FF54F808190E0AE014770A6
:10461000042E02C0959587950A94E2F780FD33C079
:10462000FE01EE0FFF1FEE0FFF1FE55DF74F8081CC
:104630009181A281B3810097A105B10521F5FE0109
:10464000EE0FFF1FEE0FFF1FE55DF74FCB01A0E060
:10465000B0E080839183A283B383C551D74F83E6B3
:104660008883C401B3010E94DC1107C08C2F6091C4
:10467000080AA40193010E94F12181E005C081E1B3
:1046800003C080E101C080E3DF91CF911F910F91C2
:10469000FF90EF90DF90CF90BF90AF909F908F9062
:1046A0007F906F9008954F925F926F927F928F925A
:1046B0009F92AF92BF92CF92DF92EF92FF920F93B1
:1046C0001F93CF93DF935B016C019091060A442402
:1046D0004394492291FD0CC080915E02882311F41D
:1046E000FF2408C0F92EF694F69481E0F82211F028
:1046F000FF24F394EE245BC08E2D90E0FC01E65E77
:10470000F54F3081FC01E25FF54F20815E2C550CA6
:10471000550C550C00E010E0622E7724832E99246E
:10472000252D200FC22FD0E0FE01E551F74FE0818B
:10473000E336B0F5442059F0FF2091F1C401002E7A
:1047400002C0959587950A94E2F780FD29C0C301C0
:10475000002E02C0959587950A94E2F780FF08C065
:10476000822F6091080AA60195010E94F12118C0CC
:10477000EE23B1F0FE01EE0FFF1FEE0FFF1FDF0172
:10478000A559B84F1D921D921D921C921397E55D7D
:10479000F74F1082118212821382C551D74F1882AF
:1047A0000F5F1F4F0830110509F0BACFE3948091D5
:1047B0000C0AE81608F4A0CFDF91CF911F910F915A
:1047C000FF90EF90DF90CF90BF90AF909F908F9031
:1047D0007F906F905F904F900895AF92BF92CF926D
:1047E000DF92EF92FF920F931F935B016C01809118
:1047F000060A83FDB6C080914C0A90914D0AA091A3
:104800004E0AB0914F0A0097A105B10511F40E941C
:104810003E452091070A22952F7061E070E002C0AA
:10482000660F771F2A95E2F7882777FD8095982FE6
:1048300020914C0A30914D0A40914E0A50914F0AF6
:1048400086017501E21AF30A040B150B2EE130E024
:1048500040E050E00E94C76B6E157F05800791070E
:1048600008F07FC080912C09882359F489EE99E0E3
:104870006FE041E00E94884989EE99E064E00E947F
:104880004449A0924C0AB0924D0AC0924E0AD0926E
:104890004F0A84ED99E00E9412320E94AC677B01BE
:1048A0008C010E94624B0E945F3284ED99E00E946D
:1048B000D434882361F40E94AC676E197F09800BA1
:1048C000910B683C71058105910558F336C08091C4
:1048D000070A8F7002C08F7080668093070A8091EC
:1048E000070A82958F7090E00397ACF48091500A8C
:1048F0009091510AA091520AB091530AA6019501D4
:10490000281B390B4A0B5B0BDA01C901815C984A01
:10491000A040B04030F1A092500AB092510AC0922B
:10492000520AD092530A0E943E458823D1F08091CA
:10493000070A8F708093070A14C08091070A282FF6
:1049400022952F702F5F2F70922F9295907F8F70EE
:10495000892B8093070A30E0273031050CF0BBCF5C
:10496000BECF1F910F91FF90EF90DF90CF90BF903F
:10497000AF900895EF92FF920F931F939B01AC01AC
:104980008091EC01882309F447C08091070A829541
:104990008F7009F041C08091060A83FD3DC080916F
:1049A000440A9091450AA091460AB091470A00979F
:1049B000A105B10569F079018A01E81AF90A0A0B23
:1049C0001B0BD801C70181589145A140B04020F18F
:1049D0002093440A3093450A4093460A5093470A6D
:1049E00080912C09882329F487E197E061E00E94F7
:1049F000E13D0E941A0C7B018C0161157105810556
:104A0000910551F00E94302C8091060A84FF04C069
:104A1000C801B7010E94302E1F910F91FF90EF90B7
:104A2000089584B7877F84BF0E94C0430E940D41D0
:104A30000E94E5076CE370E080E090E00E94272C84
:104A40008091060A84FD03C080E090E002C080E50A
:104A50009EE20E94D02C64EF71E080E090E00E9422
:104A6000BA6780E00E9476438091600088618093FD
:104A7000600081E280936000809160008064809398
:104A8000600086E297E061E00E94E13D8FE297E0FE
:104A900060E044E00E947F4D882329F08091060A5F
:104AA00080628093060A0E943E45882321F080910F
:104AB000070A8F7004C08091070A8F70806180930D
:104AC000070A64EF71E080E090E00E94BA670E94FC
:104AD00017430E945D2C6093400A7093410A8093B3
:104AE000420A9093430A0895BF92CF92DF92EF92C9
:104AF000FF920F931F93DF93CF93CDB7DEB7C754C9
:104B0000D0400FB6F894DEBF0FBECDBF6B017C0165
:104B10008091400A9091410AA091420AB091430AC3
:104B20000097A105B105D9F00F96A11DB11D8C15F7
:104B30009D05AE05BF0598F480918E026FEF70E081
:104B4000681B71098CE00E941E661092400A109248
:104B5000410A1092420A1092430A10922C0982E0F4
:104B60000E94773CB82E082F10E086FFD7C0C09275
:104B7000400AD092410AE092420AF092430A8091A0
:104B800088026FEF70E0681B71098CE00E941E665E
:104B900080912C09833020F4813008F07BC004C060
:104BA000833009F0BBC06AC0C8018F70907082303A
:104BB0009105A1F18430910509F441C0019709F0F4
:104BC000ADC0B7FE0CC08EE10E941167892B21F4A5
:104BD0008FEF0E946C21A2C00E94F60F9FC089EE49
:104BE00099E00E94B74988EC99E060E00E94B33DEB
:104BF00089EE99E060E041E00E9488498DE797E006
:104C00000E94303D6091DE017091DF0189EE99E0F4
:104C10004AE050E00E94516B81E00EC0B7FE03C035
:104C20000E949D397BC089EE99E00E94B74982ECD1
:104C300099E00E94403D82E080932C096FC0B7FE4E
:104C40000CC08EE697E060E00E94E13D8DE597E0C4
:104C500061E00E94E13D83E0EFCF2091070A822FBF
:104C60008F7090E060910C0A019670E00E94066CD3
:104C70008F70207F282B2093070A50C00F70107070
:104C80000430110509F04AC0B7FE07C0809137090A
:104C90000E946C2110922C0941C08091370990E04C
:104CA00060916A0770E06F5F7F4F01960E94066C0B
:104CB000809337098CE497E060E00E94E13D8091A9
:104CC0003709882331F18150BE016F5F7F4F0E9409
:104CD0003B178AE497E061E00E94E13D89EE99E0AC
:104CE00060E041E00E9488496091370989EE99E0CF
:104CF00070E04AE050E00E94A26B87E497E00E94D7
:104D0000303D89EE99E0BE01645C7F4F0E94B56B37
:104D100005C087E397E061E00E94E13DC95BDF4F9A
:104D20000FB6F894DEBF0FBECDBFCF91DF911F91BC
:104D30000F91FF90EF90DF90CF90BF9008952F924A
:104D40003F924F925F926F927F928F929F92AF921B
:104D5000BF92CF92DF92EF92FF920F931F93DF9358
:104D6000CF93CDB7DEB7C954D0400FB6F894DEBFAD
:104D70000FBECDBF80914C028093080A0E94624B07
:104D80000E945F3290932E0980932D09009721F0A5
:104D9000845A9C4F0E941115A895109269070E9491
:104DA0005D2C5B016C010E94742580913309909108
:104DB0003409A0913509B09136098A159B05AC05D7
:104DC000BD0509F40DC3A0923309B0923409C09215
:104DD0003509D092360980912C09882311F40E945C
:104DE00076438091060A81FF10C08091020A90915B
:104DF000030AA091040AB091050AA816B906CA06CA
:104E0000DB0690F00E94D0400FC08091020A909182
:104E1000030AA091040AB091050AA816B906CA06A9
:104E2000DB0610F40E94E0400E94C03C9091060A0C
:104E3000969591708091090A869581708917C9F0BD
:104E4000992349F0A0923C0AB0923D0AC0923E0AD2
:104E5000D0923F0A05C082E0B601A5010E94591D0B
:104E60009091060A92708091090A8D7F892B809318
:104E7000090A9091060A9695969591708091090A73
:104E80008695869581708917C9F0992349F0A0927B
:104E9000380AB092390AC0923A0AD0923B0A05C049
:104EA00081E0B601A5010E94591D9091060A9470F7
:104EB0008091090A8B7F892B8093090AC601B5016D
:104EC0002CE330E040E050E00E94196C79018A0147
:104ED00080912F0990913009A0913109B091320948
:104EE000E816F9060A071B0709F4AAC0E0922F0981
:104EF000F092300900933109109332096624552449
:104F00001E010894211C311C90C0862DB1010E9405
:104F10003B17C101B601A5010E946116882309F45F
:104F200083C07724462C43947AC0872C992480919F
:104F3000080A90E094012F5F3F4F8217930709F40E
:104F40006DC0D40113E0B695A7951A95E1F7272D0A
:104F50002770FD01E25FF54F808190E0022E02C0D4
:104F6000959587950A94E2F780FD58C0AA5DB54FE4
:104F70008C9190E002C0959587952A95E2F780FD87
:104F80004DC0ECE0F0E0EC0FFD1FE80DF91D2081B5
:104F9000222309F443C0F401EE0FFF1FEE0FFF1FA1
:104FA000E55DF74F80819181A281B3810097A105D2
:104FB000B105A1F5822F0E94083C7C0100E010E0C1
:104FC000898181FF13C020916A0230E040E050E007
:104FD000C801B7010E94C76B24E630E040E050E012
:104FE0000E94196CC901DA017C018D01F401EE0FF8
:104FF000FF1FEE0FFF1FE55DF74FE082F182028396
:105000001383E114F1040105110541F02BEE38E0A2
:10501000820E931EF4014082552453947394809120
:105020000D0A781608F481CF639480916A07681698
:1050300008F46BCF552021F0C601B5010E94DC11A8
:105040008091060A83FF2CC17724AEC0872D90E0A3
:10505000FC01E25FF54F2081672C660C660C660C44
:10506000EE24FF24422F50E02A965FAF4EAF2A97DE
:1050700070E2472E7AE0572E480E591E6CE2262E1B
:105080006AE0362E280E391E862C8E0C6091080A96
:10509000082D10E0262F30E0C801019628173907A7
:1050A00009F479C0F801E551F74F80818823A9F010
:1050B000F801EE0FFF1FEE0FFF1FE55DF74F808138
:1050C0009181A281B381A816B906CA06DB0628F031
:1050D000882DA60195010E94F1219E2C2A968EAD65
:1050E0009FAD2A970E2C02C0959587950A94E2F7FA
:1050F00080FD51C09801220F331F220F331FF90189
:10510000E559F84F80819181A281B381A816B90633
:10511000CA06DB0608F43FC0255D374FF9018081E0
:105120009181A281B381A816B906CA06DB0698F55B
:10513000882D61E00E94D73AF201808190E00E2C28
:1051400002C0959587950A94E2F780FF16C08EE01D
:1051500061E00E94BD6680919402882371F0FAE0BC
:105160008F9FB0011124882777FD8095982F0E948A
:10517000BA678EE060E00E94BD66F101808190E038
:1051800002C0959587959A94E2F780FF04C0882D18
:1051900061E00E94E0420894E11CF11CF8E0EF1687
:1051A000F10409F071CF739480910C0A781608F419
:1051B0004DCFC601B5010E9453230E941743B09101
:1051C0000D0A2BE2822E28E0922E80E0EE24FF24AE
:1051D000870160E070E02BC0F401208131814281C1
:1051E0005381A216B306C406D506D8F4FB0193E09A
:1051F000F595E7959A95E1F7F0E0EE5CF54F808143
:1052000090E0A77002C095958795AA95E2F780FF78
:1052100007C0E216F3060407150710F479018A01A6
:1052200081E06F5F7F4F24E030E0820E931EA62F57
:105230006B1790F2E0922309F0922409009325095C
:1052400010932609882361F50E94FB3A0E941743B8
:10525000ABEEB8E080E090E0FC01E559F84F108239
:10526000118212821382FC01E55DF74F10821182D8
:10527000128213821D920496803C910569F7109268
:105280002309109224091092250910922609809171
:10529000060A877F8093060A80914C028093080A51
:1052A0005090080A552009F470C0809152029091E4
:1052B000580240900D0AFF2401E010E0252C332411
:1052C000682E772488249924492F50E060E070E00C
:1052D0004C5350406040704050C02F2D30E020169D
:1052E000310609F447C0D90183E0B695A7958A95A0
:1052F000E1F7F7E0EF2EEF20FD01E25FF54F80814F
:1053000090E00E2C02C0959587950A94E2F780FFF5
:1053100031C0AC5EB54F8C9190E002C095958795F9
:10532000EA94E2F780FF26C0220F331F220F331FBB
:10533000F901E559F84F80819181A281B381860DF1
:10534000971DA81DB91DA816B906CA06DB0690F060
:10535000255D374FF90180819181A281B381840F4E
:10536000951FA61FB71F8A159B05AC05BD0510F03C
:1053700061E007C0F3940F5F1F4FF41408F4ADCF42
:1053800060E0852D81500E94D73AC601B5010E9488
:1053900053230E94174380912C09882389F4C60166
:1053A000B50123E030E040E050E00E94196C9B0121
:1053B000AC012F513D4F81E0F90160810E9408400E
:1053C000C601B5010E94ED23C601B5010E94040B80
:1053D000C601B5010E94BA24C601B5010E94981EFB
:1053E000C75BDF4F0FB6F894DEBF0FBECDBFCF91C6
:1053F000DF911F910F91FF90EF90DF90CF90BF90C2
:10540000AF909F908F907F906F905F904F903F9064
:105410002F9008958F929F92AF92BF92CF92DF927A
:10542000EF92FF920F931F93CF93DF937B018C0139
:10543000EA012CE330E040E050E00E94196C688300
:10544000C801B7012CE330E040E050E00E94196C45
:10545000122F032FF42EE52E622F732F842F952FFA
:105460002CE330E040E050E00E94196C6983612F2A
:10547000702F8F2D9E2D2CE330E040E050E00E94F5
:10548000196C122F032FF42EE52E622F732F842F09
:10549000952F28E130E040E050E00E94196C6A83CB
:1054A000612F702F8F2D9E2D28E130E040E050E0DD
:1054B0000E94196C79018A01C801B7016C5F7F4FA6
:1054C0008F4F9F4F27E030E040E050E00E94196C82
:1054D0006F5F6B8320E0AA24BB24650101C02F5FAE
:1054E000822E9924F401EE54F84FCF01837090700E
:1054F000892B99F4CF0164E670E00E94066C892B39
:1055000039F4CF0160E971E00E94066C892B29F41F
:105510008EE691E0A0E0B0E004C08DE691E0A0E06E
:10552000B0E0A80EB91ECA1EDB1EC501A0E0B0E0A7
:10553000E816F9060A071B0790F62E83F401EE54CD
:10554000F84F83E0882E912C8E229F2281149104A3
:1055500099F4CF0164E670E00E94066C892B39F45F
:10556000CF0160E971E00E94066C892B29F48EE678
:1055700091E0A0E0B0E004C08DE691E0A0E0B0E0F2
:10558000A81AB90ACA0ADB0A980187010A191B0975
:105590002C093D09CF0164E670E00E94066C7C0195
:1055A000CF0160E971E00E94066CAC01E4EEF2E02C
:1055B00060E0613051F48114910449F4E114F10484
:1055C00041F44115510529F002C0808103C08CE1EE
:1055D00001C08DE190E0A0E0B0E0081719072A07AC
:1055E0003B0740F0081B190B2A0B3B0B6F5F3196F2
:1055F0006C30F9F66F5F6D83802F8F5F8C83DF9146
:10560000CF911F910F91FF90EF90DF90CF90BF90BF
:10561000AF909F908F900895EF92FF920F931F93FA
:105620007B018C0180914F0990915009A091510903
:10563000B0915209E816F9060A071B0771F0C80174
:10564000B70144E459E00E940A2AE0924F09F0921F
:10565000500900935109109352091F910F91FF9027
:10566000EF9008950E940C2B8091490990E00895D5
:105670000E940C2B8091470990E008950E940C2B0A
:105680008091480990E008950E940C2B8091450973
:1056900090E008950E940C2B8091460990E00895B7
:1056A0004F925F926F927F928F929F92AF92BF9232
:1056B000CF92DF92EF92FF920F931F93CF93DF93DE
:1056C0004C01DC0116961C91612F70E080E090E0A7
:1056D00020E833E341EE51E00E94C76B5B016C01AF
:1056E00022EB37E0E12FF0E0EE54F84F1DC0C90186
:1056F00083709070892BB1F4C90164E670E00E9458
:10570000066C892B39F4C90160E971E00E94066CCE
:10571000892B41F480E891E5A1E0B0E0A80EB91E24
:10572000CA1EDB1E2F5F3F4F2E173F0701F7D40124
:1057300015968C91482E5524C90164E670E00E94AC
:10574000066C7C01C90160E971E00E94066C8C0165
:10575000C1E0D0E093E0692E712C6222732227C051
:10576000C230D10591F46114710479F4E114F104AB
:1057700019F40115110549F480E89BE3A6E2B0E0B5
:10578000A80EB91ECA1EDB1E11C0FE01ED51FD4F51
:10579000608170E080E090E020E831E541E050E099
:1057A0000E94C76BA60EB71EC81ED91E2196C4152F
:1057B000D505B4F2D40112966C9170E080E090E0CF
:1057C00020E13EE040E050E00E94C76B7B018C018D
:1057D000F401618170E080E090E02CE330E040E093
:1057E00050E00E94C76BE60EF71E081F191FD40178
:1057F0008C91E80EF11C011D111D14966C9170E046
:1058000061507040882777FD8095982F20E831E51A
:1058100041E050E00E94C76BE60EF71E081F191FFB
:10582000EA0CFB1C0C1D1D1DB701C801DF91CF91B7
:105830001F910F91FF90EF90DF90CF90BF90AF90AE
:105840009F908F907F906F905F904F90089560939E
:10585000D8017093D9018093DA019093DB01089508
:1058600060933A0970933B0980933C0990933D09FA
:105870002091D8013091D9014091DA015091DB019A
:10588000260F371F481F591F20933E0930933F09A9
:10589000409340095093410982E090E0909343097E
:1058A000809342090E94AC6760934B0970934C0946
:1058B00080934D0990934E090895EF92FF920F93B4
:1058C0001F931CC02F5F3F4F4F4F5F4F20933A09EC
:1058D00030933B0940933C0950933D0988EE93E097
:1058E000A0E0B0E0E80EF91E0A1F1B1FE0924B0972
:1058F000F0924C0900934D0910934E090E94AC6739
:10590000E0904B09F0904C0900914D0910914E091F
:105910006E197F09800B910B20913A0930913B0958
:1059200040913C0950913D09685E73408040904031
:1059300048F680913E0990913F09A0914009B091AD
:105940004109281739074A075B07E8F0E091380951
:10595000F09139093097B9F0099561157105810504
:10596000910519F00E94302C0EC020E030E08091AB
:10597000420990914309892B11F021E030E03093E6
:1059800043092093420960913A0970913B09809143
:105990003C0990913D091F910F91FF90EF90089560
:1059A000909339098093380980913A0990913B0985
:1059B000A0913C09B0913D0980933E0990933F0925
:1059C000A0934009B09341090E945D2C0895482F8F
:1059D0006AE00E94E66B282F30E084E0220F331F3C
:1059E0008A95E1F7842F0E94E66B892F820F089534
:1059F000CF93DF93EC01809153099091540988363D
:105A0000910559F580ED9CE068E670E00E94AF6278
:105A100080ED9CE060E00E94316388810E94E72C69
:105A2000682F70E06F77707080ED9CE00E943163AA
:105A300089810E94E72C682F80ED9CE00E943163F1
:105A40008A810E94E72C682F80ED9CE00E943163E0
:105A50008B810E94E72C682F2DC08F36910509F0AD
:105A60004AC080ED9CE06FE670E00E94AF6280ED7E
:105A70009CE060E00E94316388810E94E72C682FDF
:105A8000606880ED9CE00E94316389810E94E72C70
:105A9000682F80ED9CE00E9431638A810E94E72C90
:105AA000682F80ED9CE00E9431638B810E94E72C7F
:105AB000682F686080ED9CE00E9431638C810E94B9
:105AC000E72C682F80ED9CE00E9431638D810E945D
:105AD000E72C682F80ED9CE00E9431638E818E510F
