:100000000C940B060C9433060C9433060C943306B4
:100010000C9433060C9433060C9433060C9433067C
:100020000C94BE120C9433060C9433060C943306D5
:100030000C9433060C9433060C9433060C9433065C
:100040000C9433060C9433060C94134D0C94330625
:100050000C94FA4E0C94884F0C9433060C9433068F
:100060000C9433060C9433060C94CE690C9433062E
:100070000C942F4F0C94C34F0C9433064E545020C5
:1000800053796E63696E672E2E2E005D0D0A002C6B
:1000900000222C00302C22002C002C005B002E743F
:1000A000787400446574656374696E6720755344A1
:1000B0002E2E2E00302E2054657374202831206D92
:1000C000696E29002E20002000486F6C64204233A6
:1000D00020746F20737461727400436C69636B20C9
:1000E000423320746F206C6973740052756E206106
:1000F0002050726F6772616D3A003A006677760041
:10010000747A006E74700064686370006970310006
:1001100069703200697033006970340067773100AC
:100120006777320067773300677734006870300094
:100130006870310068777600657874005F007364DA
:1001400074006D6173006D746F6E006D746F660086
:100150007572730072736F00776C0064656E00696E
:1001600070617300646576696400636F6E006C692A
:10017000740064696D00726C7000757774006E7441
:100180007031006E747032006E747033006E747073
:1001900034006C67007265736574004669726D7730
:1001A0006172653A2000545A6F6E653A004E5450A1
:1001B0003F0055736520444843503F0053746174B9
:1001C00069632E6970313A005374617469632E69F2
:1001D00070323A005374617469632E6970333A0067
:1001E0005374617469632E6970343A0047617465B1
:1001F0007761792E6970313A00476174657761796A
:100200002E6970323A00476174657761792E6970A2
:10021000333A00476174657761792E6970343A002A
:100220004854545020706F72743A000048617264F0
:10023000776172653A20004578702E20626F617296
:10024000643A000053746E2064656C61793A004D25
:1002500061732E2073746174696F6E3A004D61731F
:100260002E20206F6E2061646A2E3A004D61732E3D
:10027000206F66662061646A2E3A005261696E20C2
:1002800073656E736F723A004E6F726D616C6C794C
:10029000206F70656E3F0025205761746572207471
:1002A000696D653A0044657669636520656E6162D3
:1002B0006C653F0049676E2070617373776F72647D
:1002C0003F004465762E2049443A004C4344206365
:1002D0006F6E74726173743A004C434420626163C0
:1002E0006B6C696768743A004C43442064696D6DB7
:1002F000696E673A0052656C61792070756C736540
:100300003A0055736520776561746865723F004EE9
:1003100054502E6970313A004E54502E6970323A62
:10032000004E54502E6970333A004E54502E69706E
:10033000343A00456E61626C65206C6F6767696E68
:10034000673F00526573657420616C6C3F004D6FB0
:100350006E005475650057656400546875004672F8
:1003600069005361740053756E00206D7300207333
:10037000656300207365630025004E6F0059657347
:10038000002B002B0020474D54003030003A002D48
:10039000002B000020202020002D44697361626C36
:1003A0006564212D003A0045004D433A002D002D93
:1003B000004D41433A002E002D0020002020003A3D
:1003C000002000486F6C6420423320746F207361FA
:1003D00076650042312F42323A2B2F2D2C204233AA
:1003E0003A2D3E003D3D536574204F7074696F6E29
:1003F000733D3D00506C6561736520576169742ED3
:100400002E2E00526573657474696E67204465769C
:1004100069636500436F6E6E656374696E672E2E47
:100420002E0050726F6772616D20006C6F630077F1
:10043000746B657900747474006376006A63006499
:1004400070006370006372007570006A7000636F03
:10045000006A6F007370006A7300636D006373005D
:100460006A6E006A6C00646C007375006375003C12
:100470007363726970743E77696E646F772E6C6F08
:10048000636174696F6E3D222F223B3C2F73637250
:100490006970743E0A007B22726573756C74223A2F
:1004A00024447D007B22726573756C74223A244467
:1004B0007D00244600222446223A24447D004854EC
:1004C00054502F312E3020323030204F4B0D0A0047
:1004D00043616368652D436F6E74726F6C3A206D73
:1004E00061782D6167653D3630343830302C2070AE
:1004F00075626C69630D0A00436F6E74656E742DCE
:10050000547970653A20746578742F6373733B6314
:100510006861727365743D7574662D380D0A436F9A
:100520006E74656E742D456E636F64696E673A20F4
:10053000677A69700D0A00436F6E74656E742D548E
:100540007970653A20746578742F6A617661736397
:10055000726970743B636861727365743D7574662B
:100560002D380D0A436F6E74656E742D456E636F82
:1005700064696E673A20677A69700D0A000D0A0097
:100580002446002446002446244600646179005D28
:10059000002C2453002453005B00747970650065BF
:1005A0006E6400737461727400686973740074001F
:1005B000656E00736964005D2C226E7374617469EA
:1005C0006F6E73223A24447D002C00244400227371
:1005D0006E223A5B00637077006E707700747474FB
:1005E0000077746B6579006C6F63006A73700072DA
:1005F0006400656E007262740072736E003C6D651B
:100600007461206E616D653D2276696577706F72E9
:10061000742220636F6E74656E743D227769647412
:10062000683D6465766963652D77696474682C69D3
:100630006E697469616C2D7363616C653D312E3038
:100640002C6D696E696D756D2D7363616C653D31DF
:100650002E302C757365722D7363616C61626C65ED
:100660003D6E6F223E0D0A003C7363726970742008
:100670007372633D2224452F686F6D652E6A732265
:100680003E3C2F7363726970743E0A3C2F626F6444
:10069000793E0A3C2F68746D6C3E0076617220765C
:1006A00065723D24442C697061733D24443B3C2FAA
:1006B0007363726970743E0A003C21444F4354597D
:1006C00050452068746D6C3E0A3C68746D6C3E0A3F
:1006D0003C686561643E0A24463C2F686561643E5F
:1006E0000A3C626F64793E0A3C7363726970743EBF
:1006F000005B302C305D5D2C226C72756E223A5B93
:1007000024442C24442C24442C244C5D7D005B2464
:10071000442C244C2C244C5D2C00305D2C22707316
:10072000223A5B0024442C002264657674223A2429
:100730004C2C226E627264223A24442C22656E2272
:100740003A24442C227264223A24442C22727322CA
:100750003A24442C2272647374223A244C2C226C66
:100760006F63223A222445222C2277746B6579220A
:100770003A222445222C2273756E72697365223ADF
:1007800024442C2273756E736574223A24442C22FF
:10079000656970223A244C2C227362697473223A80
:1007A0005B003C6872202F3E3C666F726D206E616C
:1007B0006D653D6F6620616374696F6E3D63752082
:1007C0006D6574686F643D6765743E3C703E3C6265
:1007D0003E5363726970742055524C3A3C2F623E0E
:1007E0003C696E70757420747970653D74657874B9
:1007F0002073697A653D3332206D61786C656E6770
:1008000074683D3132372076616C75653D22244530
:1008100022206E616D653D6A73703E3C2F703E3CD8
:10082000703E44656661756C742069732024533C86
:100830006272202F3E4966206C6F63616C206F6E80
:100840002075534420636172642C20757365202EDB
:100850002F3C2F703E3C703E3C623E50617373777C
:100860006F72643A3C2F623E3C696E7075742074FE
:100870007970653D70617373776F72642073697A04
:10088000653D3332206E616D653D70773E3C696E2B
:1008900070757420747970653D7375626D69743E0E
:1008A0003C2F703E3C6872202F3E3C2F666F726D6D
:1008B0003E005D7D00225D00225D2C00245300245B
:1008C0004C5D2C2200244C2C0024445D2C5B002425
:1008D000442C005B24442C24442C24442C5B002214
:1008E0006E70726F6773223A24442C226E626F61BD
:1008F000726473223A24442C226D6E70223A24448E
:100900002C226D6E7374223A24442C22706E73690B
:100910007A65223A24442C227064223A5B002C220D
:1009200064657870223A24442C226D657870223AEE
:1009300024447D002C00222446223A2444006E6187
:100940006D65007069640070696400706964005DC1
:100950002C226D61786C656E223A24447D0073749C
:100960006E5F73657100726673746E0073746E5F90
:10097000646973006163745F72656C6179006967B3
:100980006E6F72655F7261696E006D61736F70008A
:100990002C00222453220022736E616D6573223A6B
:1009A0005B002C002444005D2C222446223A5B008C
:1009B000707700436F6E74656E742D547970653A6C
:1009C000206170706C69636174696F6E2F6A736FF8
:1009D0006E0D0A436F6E6E6E656374696F6E3A20BA
:1009E000636C6F73650D0A004163636573732D4318
:1009F0006F6E74726F6C2D416C6C6F772D4F7269D6
:100A000067696E3A202A0D0A00507261676D613A7B
:100A1000206E6F2D63616368650D0A0024462446CD
:100A2000244624460D0A7B002446244624462446B8
:100A30000D0A00436F6E74656E742D547970653ABB
:100A400020746578742F68746D6C0D0A0024462438
:100A500046244624460D0A00000108000604000151
:100A600045000082000040002000504F53542024D5
:100A70004620485454502F312E300D0A486F73745D
:100A80003A2024460D0A244624534163636570745A
:100A90003A202A2F2A0D0A436F6E74656E742D4C0E
:100AA000656E6774683A2024440D0A436F6E74655E
:100AB0006E742D547970653A206170706C69636151
:100AC00074696F6E2F782D7777772D666F726D2D25
:100AD00075726C656E636F6465640D0A0D0A24534C
:100AE00000474554202446245320485454502F3165
:100AF0002E300D0A486F73743A2024460D0A24469E
:100B00000D0A0D0A004163636570743A20746578BC
:100B1000742F68746D6C00E30004FA00010000009B
:100B200001776561746865722E6F70656E7370729F
:100B3000696E6B6C65722E636F6D002F77656174E3
:100B40006865720024442E70793F6C6F633D2445C4
:100B5000266B65793D2445266677763D24440065FD
:100B6000697000747A007363616C650073756E73ED
:100B700065740073756E726973650000002100244E
:100B80000027002A0000002200250028002B00007A
:100B900000200023002600290002020202020202B5
:100BA000020404040404040404030303030303030E
:100BB00003010101010101010101020408102040AB
:100BC0008001020408102040800102040810204027
:100BD0008080402010080402010000000102000093
:100BE00000000000000403070600000000000000F1
:100BF0000000000000000000007C3C3E5E2B3D3FFA
:100C00002F5B5D3B2C2A225C0000FB0CEE129A1E2F
:100C1000A350A2528E6511241FBECFEFD0E1DEBFDC
:100C2000CDBF13E0A0E0B1E0E6E9F8ED02C0059029
:100C30000D92A037B107D9F71EE0A0E7B3E001C0DD
:100C40001D92AA3BB107E1F71CE0C6E1DCE004C05D
:100C50002297FE010E94456CCA30D107C9F70E9455
:100C600039510C947A060C940000FC0188279927CE
:100C7000E89421912032E9F3293010F02E30C8F3A6
:100C80002B3241F02D3239F4689404C00E945D0784
:100C9000820F911D219120532A30C0F31EF49095AC
:100CA00081959F4F08951F93FC0199278827BC01C8
:100CB000E89411911032E9F3193010F01E30C8F3A6
:100CC0001B3251F01D3249F4689406C00E94480757
:100CD000610F711D811D911D119110531A30B0F3D8
:100CE0003EF490958095709561957F4F8F4F9F4F03
:100CF0001F910895F8940C94496CFB01DC0102C02B
:100D000005900D9241505040D8F70895FB01DC0149
:100D10000D900020E9F7119705900D920020E1F762
:100D20000895FB01DC0105900D920020E1F7089584
:100D3000FB01DC0104C08D910190801921F4415028
:100D40005040C8F7881B990B0895FB01DC0102C0D5
:100D500001900D9241505040D8F70895DC0101C038
:100D60006D9341505040E0F70895FB01DC010D9078
:100D70000020E9F7119701900D920020E1F7089506
:100D8000FC018191861721F08823D9F799270895CE
:100D90003197CF010895FB01DC0101900D920020F5
:100DA000E1F70895FB01DC014150504030F08D9196
:100DB0000190801919F40020B9F7881B990B089548
:100DC000FB01DC014150504048F001900D920020A1
:100DD000C9F701C01D9241505040E0F70895A0E0CE
:100DE000B0E0E5EFF6E00C94166C7C01EB018A01B3
:100DF000690109C0CE012196F6010995F701819399
:100E00007F010150104001151105A1F7CDB7DEB7E4
:100E1000E8E00C94326CA0E0B0E0E1E1F7E00C9483
:100E2000166CEC017B018A01690109C0CE01219693
:100E3000F70161917F01F6010995015010400115FC
:100E40001105A1F7CDB7DEB7E8E00C94326CFB01D9
:100E50009F01E8944230C4F04532B4F44A3029F49A
:100E600097FB1EF4909581959F4F642F77270E94E2
:100E7000A86B805D8A330CF0895D8193CB0100976C
:100E8000A1F716F45DE251931082C9010C948A0710
:100E9000592F482F372F262F660F771F881F991F2E
:100EA000660F771F881F991F620F731F841F951F7E
:100EB000660F771F881F991F08957AE0979F902DDE
:100EC000879F802D910D11240895FA01CF93FF93F0
:100ED000EF932230CCF02532BCF4C22F2C2F3327D5
:100EE00044275527FF93EF930E94CF6BEF91FF911B
:100EF000605D6A330CF0695D6193B901CA016050AD
:100F000070408040904051F710828F919F91CF9117
:100F10000C948A07DC01FC01672F71917723E1F7BC
:100F2000329704C07C916D9370836291AE17BF07B6
:100F3000C8F30895DF93CF9300D000D000D0CDB791
:100F4000DEB7DE011196E4EEF2E086E001900D924C
:100F50008150E1F786E191E0E6EDF3E0DF019C01ED
:100F60001D9221503040E1F780917003833019F4D5
:100F700066EC73E003C0BE016F5F7F4F84E490E0D6
:100F800043E450E00E94254180917003833039F0A2
:100F900086ED93E0BE016F5F7F4F0E94774C81E04A
:100FA000809300048093010486E080930204809182
:100FB0007D0390917E03A0917F03B0918003809385
:100FC000040490930504A0930604B0930704809151
:100FD0007003833039F480E094E00C9666EB73E0A4
:100FE0000E947F4C8CE194E060EB73E00E94774CB0
:100FF000ACEEB4E0EBE8F1E002C081918D9331E01A
:10100000E139F307D1F790917003992311F083E050
:1010100001C081E08093F2048DE38093F30487E0C4
:101020008093F40481E08093F504A6EFB4E0E0EB54
:10103000F3E002C081918D9383E0E63BF807D1F79E
:101040008CE08093FC0485E08093FD04E5E8F1E00A
:10105000AEEFB4E002C081918D9321E0EA38F2074F
:10106000D1F723E035E0309385032093840391305A
:1010700069F582E38093030584E080930405D90138
:101080001296E6EBF3E002C081918D9333E0EA3BE8
:10109000F307D1F786E38093090584E080930A057E
:1010A0008BE095E09093850380938403DC01E6EC6C
:1010B000F3E002C081918D9383E0EA3CF807D1F719
:1010C0008FE095E0909385038093840320918303C0
:1010D000222311F094E001C093E0A0918403B09129
:1010E0008503FD0187E3819311969C93DF0111969F
:1010F00081E08183FD01319683E011968C93DF01BD
:10110000119686E08183CD010196909385038093AB
:101110008403222339F011962C9301969093850332
:1011200080938403E0918403F09185038FEF819392
:10113000F0938503E0938403CF01805094400E9494
:10114000144326960FB6F894DEBF0FBECDBFCF91E5
:10115000DF910895EF92FF920F931F93CF93DF9348
:101160008C0180917003823009F4F8C0833030F430
:10117000882351F1813009F066C14BC0833021F0E2
:10118000843009F060C1EAC00E94674D2091750368
:10119000309176034091770350917803E09071038A
:1011A000F090720300917303109174032E0D3F1D94
:1011B000401F511F621773078407950708F443C146
:1011C0000E949A0784E018C00E94674D60937D03D7
:1011D00070937E0380937F03909380031092B603F5
:1011E0001092B7031092B8031092B9030E949A07A5
:1011F00081E00E949D0D81E0809370030E94674D05
:101200006093790370937A0380937B0390937C03BC
:101210001AC10634110508F4D5C08091F90383344E
:1012200009F0D0C0209104043091050440910604D7
:101230005091070480917D0390917E03A0917F03DC
:10124000B0918003281739074A075B0709F0BAC035
:10125000C0EFD4E0FE01A8014A525C4FDF011196B5
:1012600091819D012F5F3F4F8081853329F4119635
:101270008C91823009F4C5C0F901E90FF11DE41722
:10128000F50760F39FC0FE019191E980EF0121967F
:101290009333D9F0943340F4933089F0963091F041
:1012A000913009F046C008C09A3379F09F3F09F4A5
:1012B00051C09633F1F537C08AEB93E036C082EC2B
:1012C00093E033C08AEC93E030C0618170E080E04D
:1012D00090E0982F872F762F66272981620F711D46
:1012E000811D911D982F872F762F66272A81620FE7
:1012F000711D811D911D982F872F762F66272B81B9
:10130000620F711D811D911D28EE33E040E050E019
:101310000E947D6B609375037093760380937703CF
:101320009093780389C086EC93E0BE010E947F4CC5
:1013300083C0E0918103F0918203309709F47CC06F
:1013400080918303981709F077C0892FBE014E2D35
:10135000099572C00E949A0782E04ECF06341105AB
:1013600088F18091F903833469F520910404309168
:101370000504409106045091070480917D039091EB
:101380007E03A0917F03B0918003281739074A0795
:101390005B07C1F4E0EFF4E0A8014A525C4FDF01C3
:1013A000119691819D012F5F3F4F8081853321F4FC
:1013B00011968C91853071F1F901E90FF11DE41757
:1013C000F50768F30E94674D2091790330917A0305
:1013D00040917B0350917C03205F384D4F4F5F4F0E
:1013E000261737074807590748F02DC082EC93E0CD
:1013F0000E948B4183E08093700325C0109270039C
:1014000022C086EB93E060E174E00E947F4C0A52B8
:101410001C4F39CF81E00E948C0D0E94674D609374
:10142000710370937203809373039093740380919C
:10143000C2038823F9F2DACFCE0DD11DC017D10730
:1014400008F421CF87CFDF91CF911F910F91FF90AB
:10145000EF900895CF93DF9381E08093D203909132
:10146000B503892F82958F70805D809388019F706E
:10147000905D90938901109270030E94674DEB017B
:1014800004C00E94ED0D0E94AA0880917003833071
:1014900061F00E94674D6C1B7D0B6053754728F40B
:1014A0000E94AE0D882389F3ECCF0E94A1401092D8
:1014B000D5031092D40390E080917003833009F437
:1014C00091E0892FDF91CF910895FF920F931F93A1
:1014D000CF93DF938C01F62E0E94674DEB010CC079
:1014E0000E94ED0D0E94E1430E94674D6C1B7D0B35
:1014F0006053754708F0EFC00E94AE0D882381F35A
:101500000E94674DEB010CC00E94ED0D0E94E1436B
:101510000E94674D6C1B7D0B6053754708F0DBC064
:101520000E949B40882381F71092CE031092CF0334
:101530001092D0031092D103809186038F5F809325
:1015400086038091CA03882361F488E098E0A8E0CC
:10155000B8E08093CA039093CB03A093CC03B093DD
:10156000CD038091860390E0906E6AEC73E045E3D2
:1015700050E00E942541E0E0F4E08CE0DF011D92A4
:101580008A95E9F7DF011C9690E0FF2019F0F80139
:10159000808102C0F80184910F5F1F4F8E3241F0AD
:1015A000882331F09F5FFD01E90FF11D8083EDCFAE
:1015B000FD019193DF01A90FB11D882329F7FD01DA
:1015C000119211961C92DF01119641E04183FD01B9
:1015D000319611961C92418386ED26ED33E0821BF5
:1015E00032968E0F809300049091860390930104AD
:1015F000409302044093050490E00E9414430E942B
:10160000674D8B0161C00E94674D601B710B605379
:10161000754708F060C00E94ED0DEC01009709F4D9
:1016200053C00E94E143892B09F04EC0C634D10556
:1016300008F44AC08091F903853309F045C08091D0
:10164000FA03803E09F040C09091FB03809186032D
:101650009817D1F5809101048917B1F580910304A1
:1016600090E08F709070892BB1F580910004E82F85
:10167000F0E0E050FC4F9E012A523C4F8081807C7C
:1016800039F0329609C08081882311F4319604C064
:101690003196E217F307B8F3CF010E9628173907F2
:1016A00098F08181813051F48185843039F43A9603
:1016B0008EEC93E0BF010E947F4C06C0818590E0D4
:1016C0000A96E80FF91FDACF8091CE03882309F438
:1016D0009ACF81E001C080E0DF91CF911F910F91FF
:1016E000FF900895482F6AE00E949C6B282F30E0FD
:1016F00084E0220F331F8A95E1F7842F0E949C6BB0
:10170000892F820F0895CF93DF93EC018091870397
:10171000909188038836910559F58BE29CE068E644
:1017200070E00E9468528BE29CE060E00E94EA5206
:1017300088810E94720B682F70E06F7770708BE267
:101740009CE00E94EA5289810E94720B682F8BE212
:101750009CE00E94EA528A810E94720B682F8BE201
:101760009CE00E94EA528B810E94720B682F2DC070
:101770008F36910509F04AC08BE29CE06FE670E07D
:101780000E9468528BE29CE060E00E94EA528881ED
:101790000E94720B682F60688BE29CE00E94EA5204
:1017A00089810E94720B682F8BE29CE00E94EA52B2
:1017B0008A810E94720B682F8BE29CE00E94EA52A1
:1017C0008B810E94720B682F68608BE29CE00E9404
:1017D000EA528C810E94720B682F8BE29CE00E947F
:1017E000EA528D810E94720B682F8BE29CE00E946E
:1017F000EA528E818E510E94720B682F8BE29CE020
:101800000E94EA528BE29CE00E942D53DF91CF911F
:10181000089588E690E090938803809387038BE295
:101820009CE068E670E00E9468528BE29CE060E019
:101830000E94EA528BE29CE00E942D538823D9F04B
:101840008FE690E090938803809387038BE29CE07F
:101850006FE670E00E9468528BE29CE060E00E94BC
:10186000EA528BE29CE00E942D53882321F01092D3
:1018700088031092870308951F93CF93DF93EC01A1
:1018800060918703709188036115710509F46FC039
:101890008BE29CE00E9468528BE29CE060E00E9438
:1018A000EA528BE29CE00E942D5360918703709175
:1018B00088038BE29CE047E050E00E943E538BE2BD
:1018C0009CE00E947B52282F2F7722952F701AE0E0
:1018D000219F900111248F70820F88838BE29CE0FE
:1018E0000E947B52282F22952F70219F9001112456
:1018F0008F70820F89838BE29CE00E947B52282F9D
:101900002F7322952F70219F900111248F70820FC9
:101910008A838BE29CE00E947B5287708B838BE2F0
:101920009CE00E947B52282F22952F70219F9001CE
:1019300011248F70820F8C838BE29CE00E947B527B
:10194000282F22952F70219F900111248F70820FD4
:101950008D838BE29CE00E947B52282F2F70225EA9
:1019600082958F70819FC0011124280F2E83DF91F3
:10197000CF911F9108950F931F93DF93CF93CDB70E
:10198000DEB727970FB6F894DEBF0FBECDBF8E012E
:101990000F5F1F4FA8010E947547C8010E94830B6B
:1019A00027960FB6F894DEBF0FBECDBFCF91DF9163
:1019B0001F910F9108950F931F93DF93CF93CDB78E
:1019C000DEB727970FB6F894DEBF0FBECDBF8E01EE
:1019D0000F5F1F4FC8010E943C0CC8010E94BB480A
:1019E00027960FB6F894DEBF0FBECDBFCF91DF9123
:1019F0001F910F9108958BE29CE00E94425308953D
:101A000080918C0361E00E94524E78940895FF9279
:101A10000F931F93082F162FF42EF89480918C03A8
:101A200060E00E94524E1F71102B1EBD0DB407FEC8
:101A3000FDCFFEBC0DB407FEFDCF0E94000D1F912F
:101A40000F91FF9008951F93182F282F30E02076D4
:101A5000307080918D0390E02817390799F080EA63
:101A60006FE143E00E94070D412F407640938D03C4
:101A700050E085E0559547958A95E1F780E86FE15C
:101A80000E94070D1F9108950F931F93182F062F83
:101A90000E94230D80E4612F402F0E94070D1F91AB
:101AA0000F9108950F931F93182F072F0E94440D35
:101AB000812F8F5F602F0E94440D1F910F91089519
:101AC0000F931F93182F062FF89480918C0360E0DA
:101AD0000E94524E802F8F71812B8EBD0DB407FE58
:101AE000FDCF1EBC0DB407FEFDCF07FF04C01EBC1A
:101AF0000DB407FEFDCF1EB50E94000D812F1F9172
:101B00000F9108951F93182F0E94230D80E0612FDD
:101B10000E94600D1F910895882311F410928B0389
:101B200080918B03882341F488E30E94820D682F03
:101B30006E7F88E30E94440D08951F93182F88E359
:101B40000E94820D682F616088E30E94440D11237A
:101B500019F481E080938B031F91089584ED61E176
:101B60000E94440D82ED61E00E94440D8AEE0E94C5
:101B7000820D80FDFBCF82ED60E00E94440D89ED77
:101B80000E94820D90E09695879596958795817035
:101B900008950F931F93CF93DF93EC018B01F8947B
:101BA00080918C0360E00E94524E8AE38EBD0DB49A
:101BB00007FEFDCF09C01EBC0DB407FEFDCF8EB5DC
:101BC000F80181938F0121972097A9F70E94000DBA
:101BD000DF91CF911F910F9108950F931F93DF9382
:101BE000CF9300D000D000D0CDB7DEB789E30E94FC
:101BF000820D882319F400E010E048C060918E0344
:101C000070918F0380E00E94520D86E090E0BE014B
:101C10006F5F7F4F0E94C90D89819A8190938F03D6
:101C200080938E032B813C81E0918903F0918A039C
:101C30008D8187FD03C000E010E00EC024503040CD
:101C40008F01015010402017310708F48901C801A5
:101C500066ED73E00E94C90DF801EA52FC4F108254
:101C600060918E0370918F038CE06130780724F0CF
:101C70008CE06FEF7BE003C0615070408CE00E940D
:101C8000520D80E86EE140E40E94070DC8012696DF
:101C90000FB6F894DEBF0FBECDBFCF91DF911F917D
:101CA0000F9108950F931F93CF93DF938C01EB0156
:101CB000F89480918C0360E00E94524E8AE78EBDBA
:101CC0000DB407FEFDCF08C088818EBD0DB407FEA0
:101CD000FDCF21960150104001151105A9F70E9472
:101CE000000DDF91CF911F910F910895CF93DF9356
:101CF000EC018CE10E94820D81FF0FC080E86FE152
:101D000040E80E94070D80EA6FE140E80E94070D5D
:101D100080EA6CE142E00E94070D82E060E07CE036
:101D20000E94520DBE016050744F86E00E94520D19
:101D30008AE760E040E00E94070DCE0166ED73E0A7
:101D40000E94520E80E86FE148E00E94070DDF918B
:101D5000CF91089584E061E00E94134E84E061E039
:101D60000E94524E85E061E00E94134E87E061E0E0
:101D70000E94134E86E060E00E94134E85E061E011
:101D80000E94524E85E060E00E94524E87E060E083
:101D90000E94524E80E58CBD8DB581608DBD089549
:101DA0001F93CF93DF93EB01142F90938A038093BB
:101DB00089030CB406FC02C00E94AA0E10938C0387
:101DC000812F61E00E94134E0E94000D8FEF60E0B2
:101DD0004FEF0E94070D62E070E080E090E00E940B
:101DE000754D80E06DE10E94600D8823D1F3109263
:101DF0008F0310928E0388E060E070E00E94520D25
:101E00008CE060E070E00E94520D8AE06FEF7BE0B2
:101E10000E94520D84E060E07CE00E94520D86E05A
:101E20006FEF71E10E94520D80E00E949D0D88E2EB
:101E30006FE370E30E94520D80E369EF77EF0E9439
:101E4000520D80EC6DE00E94440D81EC60E00E9438
:101E5000440D80E862EC42E30E94070D86EC62E1EB
:101E60007CE00E94520D84EC62E10E94440D8AECF9
:101E70006AEE75E00E94520D84EE68810E94440D66
:101E800085EE69810E94440D82EE6A810E94440DB4
:101E900083EE6B810E94440D80EE6C810E94440DA4
:101EA00081EE6D810E94440D84ED60E10E94440D3D
:101EB00086ED60E071E00E94520D8AEE0E94820D74
:101EC00080FDFBCF8FE10E94230D80E86BE140ECA9
:101ED0000E94070D80E86FE144E00E94070D82E751
:101EE0000E94820D863008F08F5FDF91CF911F91A5
:101EF0000895EF92FF920F931F93CF93DF93FC010E
:101F0000EB018A0179011092D203009729F086EB48
:101F100093E0BF010E947F4C209719F0CE010E94F0
:101F20008B410115110529F08AEC93E0B8010E945C
:101F30007F4CE114F10429F08AEB93E0B7010E9491
:101F40007F4C0E94A1401092D5031092D40381E0EF
:101F5000DF91CF911F910F91FF90EF900895AF9275
:101F6000BF92CF92DF92FF920F931F93CF93DF9395
:101F70008C01EB01F42E1092D20338E341E050E0E3
:101F800060E070E018C0832F90E0FC01B3E0F595AD
:101F9000E795BA95E1F7E057FC4F877090705A01CA
:101FA0006B0104C0AA0CBB1CCC1CDD1C8A95D2F7AB
:101FB00020812A292083315031F780EB93E0BE0144
:101FC0000E94774CC80160EB73E04F2D0E94D00E49
:101FD000DF91CF911F910F91FF90DF90CF90BF9035
:101FE000AF900895CF92DF92EF92FF920F931F93DD
:101FF000DF93CF93CDB7DEB7EB84FC84CD84DE8452
:10200000DE011F9601C0D801F6018491882309F4EE
:10201000BCC00894C11CD11C843209F099C0F601DF
:102020000894C11CD11C8491863409F45FC08734A4
:1020300034F4843469F0853409F08AC06EC08C347D
:10204000C9F1833509F445C0883409F081C00DC059
:102050008D010E5F1F4FF701668177818D919C91F5
:102060004AE050E00E9427077EC02C91822F9927DA
:1020700087FD909514E0959587951A95E1F78F70F7
:102080002F702A300CF0295F8A300CF0895F8D01A7
:102090000E5F1F4FF701A681B781805DFD0181931F
:1020A000205D11962C933196D7011796FC93EE93F1
:1020B0001697A9CF8D010C5F1F4F6D917D918D916A
:1020C0009C91F701468157812AE030E00E94650724
:1020D0004AC08D010E5F1F4F6D917C91D7011696FE
:1020E0008D919C9117970E94CB063DC08D010E5F8C
:1020F0001F4F2D913C910AC0D7011696ED91FC918E
:10210000179781931796FC93EE931697F9012F5F1B
:102110003F4F8491882381F776CF8D010E5F1F4F4B
:102120002D913C910AC0D7011696ED91FC9117971D
:1021300081931796FC93EE931697F999FECF32BDD3
:1021400021BDF89A80B52F5F3F4F882361F75BCFA1
:10215000F70126813781F90181939F01F7013783C8
:1021600026838D0150CFD70116968D919C9117979C
:10217000FC0101900020E9F73197E81BF90B8E0F65
:102180009F1FF701978386833ECFCF91DF911F91E9
:102190000F91FF90EF90DF90CF9008950F931F93D2
:1021A0008C01FC01868160E00E94524E81E090E04B
:1021B0000E94CE4DF801868161E00E94524E81E07E
:1021C00090E00E94CE4DF801868160E00E94524E60
:1021D00084E690E00E94CE4D1F910F910895CF921A
:1021E000DF92EF92FF920F931F93CF93DF93D82E3E
:1021F000C92E282F392FC9018C01C0E0D0E0E62E6E
:10220000FF24F801878161E00E94134EB7010C2E74
:1022100002C0759567950A94E2F76170F8018781AD
:102220000E94524E21960F5F1F4FC830D10549F7CB
:102230008D2D9C2D0E94CE10DF91CF911F910F917B
:10224000FF90EF90DF90CF900895CF92DF92EF92C2
:10225000FF920F931F93CF93DF93D82EC92E282F71
:10226000392FC9018C01C0E0D0E0E62EFF24F8012F
:10227000878161E00E94134EB7010C2E02C0759554
:1022800067950A94E2F76170F80187810E94524EC7
:1022900021960F5F1F4FC430D10549F78D2D9C2D1E
:1022A0000E94CE10DF91CF911F910F91FF90EF9080
:1022B000DF90CF9008951F93CF93DF93EC01162FFB
:1022C0008C81642F0E94524E8D818F3F19F060E007
:1022D0000E94524E8F8584FF05C0CE01612F0E945F
:1022E000EF100EC0612F70E084E0759567958A95B8
:1022F000E1F7CE010E942511CE01612F0E94251128
:10230000DF91CF911F91089541E00E945B1181E020
:1023100090E0089540E00E945B110895EF92FF92D3
:102320000F931F93CF93DF938C017A016770660F31
:10233000660F660F60640E948A11C0E0D0E0D80189
:10234000ED91FC91D701AC0FBD1F0190F081E02D04
:10235000C8016C9109952196C830D10581F7DF91AC
:10236000CF911F910F91FF90EF900895FC0160892C
:102370006E7F608B68600E948A110895FC016089FD
:10238000862F8460808B6C60CF010E948A11089533
:10239000DF93CF93CDB7DEB728970FB6F894DEBFA3
:1023A0000FBECDBF9C01FE013196A2EFB2E088E0E6
:1023B0000D9001928150E1F7F9018389481710F0DF
:1023C000482F4150E42FF0E0EE0FFF1FEC0FFD1FF0
:1023D0008181680F6068C9010E948A1128960FB632
:1023E000F894DEBF0FBECDBFCF91DF91089561E0BD
:1023F0000E948A1180ED97E00E94CE4D0895CF9300
:10240000DF93EC01423018F08F8588608F874B8B0B
:102410001C8A222329F0413019F48F8584608F872C
:1024200080E593EC0E94CE4D8C8160E00E94524E7C
:102430008E8160E00E94524E8D818F3F19F060E0E6
:102440000E94524E6F8564FD1DC0CE0163E00E9464
:10245000251184E991E10E94CE4DCE0163E00E94F6
:10246000251184E991E10E94CE4DCE0163E00E94E6
:10247000251186E990E00E94CE4DCE0162E00E94D7
:10248000251116C06062CE010E948A1184E991E193
:102490000E94CE4D6F856062CE010E948A1186E94E
:1024A00090E00E94CE4D6F856062CE010E948A113D
:1024B0006F856062CE010E948A1184E0888BCE0114
:1024C0000E94BE11CE010E94F71182E0898BCE01DD
:1024D00066E00E948A11DF91CF9108956F927F92FA
:1024E0008F92AF92CF92EF920F931F93DF93CF9380
:1024F000CDB7DEB73C01162F842FF301448325832B
:102500000683E782C086A18682869D8593879E8505
:1025100094879F8595879889968761E00E94134EDE
:10252000F30185818F3F19F061E00E94134EF301A2
:10253000868161E00E94134E112319F0F301178682
:1025400003C080E1F3018787C30160E141E020E03F
:102550000E94FF11CF91DF911F910F91EF90CF90CB
:10256000AF908F907F906F900895FC01A681B78106
:102570006D93B783A68381E090E008951F920F9238
:102580000FB60F9211242F933F934F935F936F9346
:102590007F938F939F93AF93BF93EF93FF9380911C
:1025A0006B078F5F80936B0780916B07803128F0FA
:1025B000E0916907F0916A070995FF91EF91BF914A
:1025C000AF919F918F917F916F915F914F913F91CB
:1025D0002F910F900FBE0F901F90189589E1809357
:1025E000290710922C07109240071092470710926B
:1025F000490710926407109263078EEF92E0909360
:102600006207809361070895EF92FF920F931F93E3
:102610008091AE01882309F44FC08091860782958E
:102620008F7009F049C08091850783FD45C0809176
:10263000C3079091C407A091C507B091C607009742
:10264000A105B10599F00E94C8492091C3073091B6
:10265000C4074091C5075091C607621B730B840BDA
:10266000950B615871458140904030F10E94C849F6
:102670006093C3077093C4078093C5079093C60700
:1026800080916C07882329F48CE790E061E00E9438
:1026900064200E94902D7B018C01611571058105DC
:1026A000910551F00E949B498091850784FF04C0E9
:1026B000C801B7010E94BB0C1F910F91FF90EF90D2
:1026C0000895AF92BF92CF92DF92EF92FF920F9355
:1026D0001F938091850783FDBDC08091CB079091AA
:1026E000CC07A091CD07B091CE070097A105B10509
:1026F00011F40E944A298091860782958F7091E09B
:10270000E92EF12C02C0EE0CFF1C8A95E2F700279F
:10271000F7FC0095102F0E94C8495B016C01809165
:10272000CB079091CC07A091CD07B091CE07A81A06
:10273000B90ACA0ADB0AC801B7012EE130E040E05D
:1027400050E00E947D6B6A157B058C059D0508F0A5
:1027500081C080916C07882359F481E598E06FE08F
:1027600041E00E94C81181E598E064E00E94841174
:102770000E94C8496093CB077093CC078093CD0724
:102780009093CE0782EC93E00E9494430E94674DA1
:102790007B018C010E94ED0D0E94E14382EC93E0ED
:1027A0000E945646882361F40E94674D6E197F0986
:1027B000800B910B683C71058105910558F336C07B
:1027C000809186078F7002C08F7080668093860725
:1027D0008091860782958F7090E003979CF40E9409
:1027E000C8492091CF073091D0074091D10750912F
:1027F000D207621B730B840B950B615C784A804097
:10280000904040F10E94C8496093CF077093D00771
:102810008093D1079093D2070E944A298823D1F050
:10282000809186078F708093860714C080918607F9
:10283000282F22952F702F5F2F70922F9295907FC7
:102840008F70892B8093860730E0273031050CF09C
:10285000BBCFBECF1F910F91FF90EF90DF90CF9035
:10286000BF90AF900895EF92FF920F931F938C014A
:1028700088E297E060E071E040E00E947F6026E43B
:10288000E22E28E0F22EC701B8010E94CB0608ED27
:1028900017E0C80163E971E00E94CB06C801B701E7
:1028A0000E94B506C8016EE970E00E9486061F917D
:1028B0000F91FF90EF900895CF93DF93EC018091FB
:1028C0007A02882361F18091850785FF28C0CE01B7
:1028D00062E071E043E050E00E94D206009771F49C
:1028E00088E297E063E971E040E00E947F6088231E
:1028F000B1F087E497E00E942B5911C0CE010E94ED
:10290000331488E297E068ED77E00E947B608823CB
:1029100031F088E297E068ED77E00E945860DF913F
:10292000CF9108959F92AF92BF92CF92DF92EF9294
:10293000FF920F931F93DF93CF93CDB7DEB76E97C0
:102940000FB6F894DEBF0FBECDBF982E5A016B01B3
:1029500080917A02882309F412C1CB01BA0120E8E0
:1029600031E541E050E00E94CF6BCA01B90148ED6A
:1029700057E02AE030E00E94650788ED97E00E946A
:1029800033148091850785FFFAC088E297E060E004
:1029900071E040E00E947F6088E297E063E971E0C7
:1029A00040E00E947F60882351F488E297E063E969
:1029B00071E041E00E945C60882309F4E0C01D8260
:1029C0001F821C821B8283E693E09A8389838E0197
:1029D0000B5F1F4F48EDE42E47E0F42EC801B7010E
:1029E00042E40E94C35E4F89588D698D7A8DC8017B
:1029F0000E944A54C7016CE970E00E949106992038
:102A0000D1F5F70101900020E9F73197EE19FF09A0
:102A1000EE0DFF1D80911B0A90E0BF014AE050E0DF
:102A20000E942707C7016AE970E00E948606F70145
:102A300001900020E9F73197EE19FF09EE0DFF1D17
:102A400080911A0A90E0BF014AE050E00E942707F7
:102A5000C70168E970E00E948606F7010190002036
:102A6000E9F73197EE19FF09EE0DFF1D80911C0A61
:102A700090911D0A5AC0C70164E970E00E94860661
:102A8000E92DF0E0EE0FFF1FE656FE4F60817181E9
:102A9000C7010E94B506C70161E970E00E94860681
:102AA00022E09216B9F033E0931699F141E09416C2
:102AB00009F040C0F70101900020E9F73197E85D87
:102AC000F7408091B7079091B807A091B907B091EE
:102AD000BA070FC0F70101900020E9F73197E85DD0
:102AE000F7408091BB079091BC07A091BD07B091C2
:102AF000BE07A6019501281B390B4A0B5B0BCA01C7
:102B0000B901E852F84FAF012AE030E00E946507B2
:102B100011C0F70101900020E9F73197E85DF74017
:102B2000E852F84F8091D70790E0BF014AE050E0AB
:102B30000E94270708ED17E0C8016FE870E00E94C7
:102B40008606F80101900020E9F73197E01BF10BB0
:102B5000E00FF11FC601B501AF012AE030E00E948D
:102B60006507C8016BE870E00E948606CE010196F9
:102B7000B8010E942061CE0105960E94B2566E9661
:102B80000FB6F894DEBF0FBECDBFCF91DF911F917E
:102B90000F91FF90EF90DF90CF90BF90AF909F90FC
:102BA0000895CF92DF92EF92FF921F936B017C0109
:102BB00080916D0790916E07A0916F07B09170079B
:102BC000A7019601281B390B4A0B5B0BDA01C901DF
:102BD00085589340A040B04078F1C0926D07D092E4
:102BE0006E07E0926F07F09270072091D70730E0F0
:102BF00040E050E010917107612F70E080E090E0BC
:102C00000E947D6B20912C02620F711D811D911D10
:102C10001F5F10937107212F30E040E050E00E94C9
:102C2000CF6B2093D707103639F483E0B701A601A4
:102C30000E949214109271071F91FF90EF90DF9005
:102C4000CF9008950E949B28AB01BC0190918C0706
:102C500020E014C0A22FB0E0FD01E651F64F8081C4
:102C6000882359F0AA0FBB1FAA0FBB1FA65DB64F42
:102C70004D935D936D937C9313972F5F291750F3BA
:102C800008950E948D1E0E94D9260E940E2A089542
:102C90002F923F924F925F926F927F928F929F926C
:102CA000AF92BF92CF92DF92EF92FF920F931F935A
:102CB000DF93CF93CDB7DEB72A970FB6F894DEBF78
:102CC0000FBECDBF7B018C014B015C010894811CC0
:102CD000911CA11CB11C809108020E94E74A6C0162
:102CE0002091220A3091230A4091240A5091250A0A
:102CF000E216F3060407150718F08501740109C0F0
:102D00007C010027F7FC0095102FE20EF31E041F34
:102D1000151F40908C0780918707282E33246091DF
:102D200085076695669566956170552481E0682EE5
:102D3000712CC601AA2797FDA095BA2F89839A8383
:102D4000AB83BC837AC0E52DF0E02614370409F488
:102D500070C0CF01880F991F880F991FAAE2CA2E51
:102D6000A9E0DA2EC80ED91ED6012D913D914D91C4
:102D70005C91211531054105510509F45AC0DC016A
:102D8000A659B74FBE83AD838D919D910D90BC9197
:102D9000A02D0097A105B10509F04BC0DF01F3E0BC
:102DA000B695A795FA95E1F7752D7770FD01E35774
:102DB000F84F808190E0072E02C0959587950A9480
:102DC000E2F780FD36C0AF54B84F8C9190E002C05E
:102DD000959587957A95E2F780FF1AC0ED81FE817F
:102DE000E082F18202831383DA01C9018E0D9F1DF7
:102DF000A01FB11FF60180839183A283B383E98072
:102E0000FA800B811C81E80EF91E0A1F1B1F10C0DF
:102E1000AD81BE818D929D92AD92BC921397280D8B
:102E2000391D4A1D5B1DF601208331834283538384
:102E300061E053940894611C711C541408F483CF0E
:102E40006170660F660F660F80918507877F862BFE
:102E5000809385072A960FB6F894DEBF0FBECDBFCC
:102E6000CF91DF911F910F91FF90EF90DF90CF9066
:102E7000BF90AF909F908F907F906F905F904F909A
:102E80003F902F900895AF92BF92CF92DF92EF9232
:102E9000FF920F931F93DF93CF93CDB7DEB7C75445
:102EA000D0400FB6F894DEBF0FBECDBFE82E0E9413
:102EB00041168E2D81508E3F28F4BE016F5F7F4FEB
:102EC0000E94062CDD24FF244EEFC42E3CE0A32EEE
:102ED000B12CAC0EBD1E3BC00F2D10E08FEFE816DD
:102EE00019F442E050E00BC0EE20E9F1F501E00FEB
:102EF000F11F80810E94074BAC01009739F1F80166
:102F000023E0F695E7952A95E1F7EB55F84F808198
:102F100090E02F2D277002C0959587952A95E2F7AE
:102F200080FD14C0F801EE0FFF1FEE0FFF1FE65DDE
:102F3000F64FCA01A0E0B0E080839183A283B383FF
:102F40000651164FF801C082DD24D394F39480918A
:102F50008C07F81608F4C0CFDD2041F00E949B28B2
:102F60000E94481603C04CE350E0C9CFC95BDF4F55
:102F70000FB6F894DEBF0FBECDBFCF91DF911F918A
:102F80000F91FF90EF90DF90CF90BF90AF9008959A
:102F9000CF92DF92EF92FF920F931F93CF93DF9325
:102FA000D82EC62E79018A01C82FD0E060E00E9499
:102FB000691EFE01EE0FFF1FEE0FFF1FE659F74FD0
:102FC000408151816281738141155105610571050F
:102FD00009F47BC04E155F056007710708F05FC0FC
:102FE0002C2D30E0CE01019628173907E1F0D09260
:102FF0001A0AFE01E651F64F808180931B0AC70131
:10300000841B950B90931D0A80931C0AE0921E0A64
:10301000F0921F0A0093200A1093210A80E0B80161
:10302000A7010E9492148E0173E0169507957A9578
:10303000E1F767E0F62EFD20F801E156F84F8081B8
:1030400090E00F2C02C0959587950A94E2F780FFD7
:1030500016C080915602882379F081E00E94D42620
:10306000609156022AE0629FB0011124882777FD03
:103070008095982F0E94754D80E00E94D4260555BA
:10308000184FF801808190E002C095958795FA94D9
:10309000E2F780FF04C08D2D60E00E949D26FE01B6
:1030A000EE0FFF1FEE0FFF1FDF01A659B74F1D9256
:1030B0001D921D921C921397E65DF64F10821182AD
:1030C00012821382C651D64F1882DF91CF911F9181
:1030D0000F91FF90EF90DF90CF9008954F925F9205
:1030E0006F927F928F929F92AF92BF92CF92DF9218
:1030F000EF92FF920F931F93CF93DF935B016C01CD
:103100009091850744244394492291FD0CC08091FD
:103110002002882311F4FF2408C0F92EF694F694B7
:1031200081E0F82211F0FF24F394EE245BC08E2D91
:1031300090E0FC01E756F84F3081FC01E357F84F6F
:1031400020815E2C550C550C550C00E010E0622ED1
:103150007724832E9924252D200FC22FD0E0FE0145
:10316000E651F64FE081E336B0F5442059F0FF20F8
:1031700091F1C401002E02C0959587950A94E2F75B
:1031800080FD29C0C301002E02C0959587950A9441
:10319000E2F780FF08C0822F60918707A6019501A2
:1031A0000E94C81718C0EE23B1F0FE01EE0FFF1FFA
:1031B000EE0FFF1FDF01A659B74F1D921D921D9202
:1031C0001C921397E65DF64F1082118212821382D1
:1031D000C651D64F18820F5F1F4F0830110509F0F6
:1031E000BACFE39480918B07E81608F4A0CFDF9163
:1031F000CF911F910F91FF90EF90DF90CF90BF90F4
:10320000AF909F908F907F906F905F904F900895B8
:10321000CF93DF938091860782958F70C9F5809157
:10322000850783FD35C086FF03C0C4E8D3E002C034
:10323000C4EBD0E08091C7079091C807A091C9075F
:10324000B091CA070097A105B105B1F00E94C84925
:103250002091C7073091C8074091C9075091CA070C
:10326000621B730B840B950B9E0140E050E0261708
:1032700037074807590760F40E94C8496093C70799
:103280007093C8078093C9079093CA070E94284B80
:10329000DF91CF91089584B7877F84BF0E9469270B
:1032A0000E94BE240E94E4296CE370E080E090E07C
:1032B0000E9492498091850784FD03C080E090E0E0
:1032C00002C08BED9CE00E943B4A64EF71E080E01D
:1032D00090E00E94754D80E00E94BF2880916000C0
:1032E00088618093600081E280936000809160003B
:1032F00080648093600083EA90E061E00E94642033
:1033000088E297E060E044E00E94DB60882329F0D7
:10331000809185078062809385070E944A298823CF
:1033200021F0809186078F7004C0809186078F708E
:1033300080618093860764EF71E080E090E00E94F6
:10334000754D0E94D9260E94C8496093BF077093AB
:10335000C0078093C1079093C2070895EF92FF9230
:103360000F931F93DF93CF93CDB7DEB7C754D040F1
:103370000FB6F894DEBF0FBECDBFE090BF07F09050
:10338000C0070091C1071091C207E114F1040105C3
:10339000110511F10E94C8492FE030E040E050E0F3
:1033A000E20EF31E041F151FE616F706080719079D
:1033B00098F4809150026FEF70E0681B71098CE007
:1033C0000E94B34C1092BF071092C0071092C10721
:1033D0001092C20710926C0782E00E94F91EF82E2C
:1033E000082F10E086FFD9C00E94C8496093BF072C
:1033F0007093C0078093C1079093C20780914A02DF
:103400006FEF70E0681B71098CE00E94B34C8091F3
:103410006C07833020F4813008F07BC004C0833017
:1034200009F0BBC06AC0C8018F70907082309105EE
:10343000A1F18430910509F441C0019709F0ADC0B4
:10344000F7FE0CC08EE10E94A64E892B21F48FEF6F
:103450000E944317A2C00E9422169FC081E598E0F7
:103460000E94F71186EB93E060E00E94362081E530
:1034700098E060E041E00E94C8118AEF90E00E946D
:10348000B31F609191017091920181E598E04AE04B
:1034900050E00E94015281E00EC0F7FE03C00E947E
:1034A000411E7BC081E598E00E94F71180EB93E01C
:1034B0000E94C31F82E080936C076FC0F7FE0CC0B0
:1034C0008BEE90E060E00E9464208AED90E061E085
:1034D0000E94642083E0EFCF20918607822F8F70B7
:1034E00090E060918B07019670E00E94BC6B8F703A
:1034F000207F282B2093860750C00F701070043057
:10350000110509F04AC0F7FE07C080917C070E94B0
:10351000431710926C0741C080917C0790E0609146
:10352000690870E06F5F7F4F01960E94BC6B8093CB
:103530007C0789EC90E060E00E94642080917C0729
:10354000882331F18150BE016F5F7F4F0E94062CAE
:1035500087EC90E061E00E94642081E598E060E003
:1035600041E00E94C81160917C0781E598E070E01D
:103570004AE050E00E94525284EC90E00E94B31F57
:1035800081E598E0BE01645C7F4F0E94655205C0F2
:1035900084EB90E061E00E946420C95BDF4F0FB6CE
:1035A000F894DEBF0FBECDBFCF91DF911F910F9179
:1035B000FF90EF9008952F923F924F925F926F92FB
:1035C0007F928F929F92AF92BF92CF92DF92EF92B3
:1035D000FF920F931F93DF93CF93CDB7DEB7C954FC
:1035E000D0400FB6F894DEBF0FBECDBF80910E0263
:1035F000809387070E949B285B016C010E94ED0D60
:103600000E94E1439093730780937207009721F023
:103610008A529C4F0E94B93EA89510926B070E9457
:10362000AE198091780790917907A0917A07B091AF
:103630007B078A159B05AC05BD0509F4F3C2A09272
:103640007807B0927907C0927A07D0927B07809171
:103650006C07882311F40E94BF288091850781FFA1
:1036600010C08091810790918207A0918307B0914B
:103670008407A816B906CA06DB0690F00E944B2301
:103680000FC08091810790918207A0918307B0912C
:103690008407A816B906CA06DB0610F40E945B234D
:1036A0000E94421F9091850796959170809188079E
:1036B000869581708917C9F0992349F0A092BB07BC
:1036C000B092BC07C092BD07D092BE0705C082E091
:1036D000B601A5010E949214909185079270809185
:1036E00088078D7F892B8093880790918507969511
:1036F0009695917080918807869586958170891737
:10370000C9F0992349F0A092B707B092B807C092C8
:10371000B907D092BA0705C081E0B601A5010E94A1
:103720009214909185079470809188078B7F892BE4
:1037300080938807C601B5012CE330E040E050E0FB
:103740000E94CF6B79018A0180917407909175076F
:10375000A0917607B0917707E816F9060A071B07CC
:1037600009F4AAC0E0927407F092750700937607F7
:1037700010937707662455241E010894211C311CE0
:1037800090C0862DB1010E94062CC101B601A50191
:103790000E94162B882309F483C07724462C439477
:1037A0007AC0872C99248091870790E094012F5F3D
:1037B0003F4F8217930709F46DC0D40163E0B695BB
:1037C000A7956A95E1F7272D2770FD01E357F84F7C
:1037D000808190E0022E02C0959587950A94E2F7C9
:1037E00080FD58C0AB55B84F8C9190E002C09595C4
:1037F00087952A95E2F780FD4DC0ECE0F0E0EC0FF4
:10380000FD1FE80DF91D2081222309F443C0F401B6
:10381000EE0FFF1FEE0FFF1FE65DF64F80819181D7
:10382000A281B3810097A105B105A1F5822F0E9465
:10383000074B7C0100E010E0898181FF13C02091DB
:103840002C0230E040E050E0C801B7010E947D6BDF
:1038500024E630E040E050E00E94CF6BC901DA017D
:103860007C018D01F401EE0FFF1FEE0FFF1FE65DDF
:10387000F64FE082F18202831383E114F104010523
:10388000110541F04AEE59E0840E951EF401408284
:1038900055245394739480918C07781608F481CF43
:1038A000639480916908681608F46BCF552021F065
:1038B000C601B5010E9448168091850783FF18C193
:1038C0007724ABC0872D90E0FC01E357F84F2081AF
:1038D000672C660C660C660CEE24FF24422F50E029
:1038E0002A965FAF4EAF2A973FE9432E37E0532E1B
:1038F000480E591E2BEA222E27E0322E280E391EA2
:10390000862C8E0C60918707082D10E0262F30E062
:10391000C80101962817390709F476C0F801E65165
:10392000F64F80818823A9F0F801EE0FFF1FEE0FFC
:10393000FF1FE65DF64F80819181A281B381A816B9
:10394000B906CA06DB0628F0882DA60195010E945B
:10395000C8179E2C2A968EAD9FAD2A970E2C02C0BA
:10396000959587950A94E2F780FD4EC09801220F45
:10397000331F220F331FF901E659F74F80819181E0
:10398000A281B381A816B906CA06DB06E8F1265D56
:10399000364FF90180819181A281B381A816B906C1
:1039A000CA06DB0688F5882D61E00E94691EF201D7
:1039B000808190E00E2C02C0959587950A94E2F7DD
:1039C00080FF14C081E00E94D42680915602882393
:1039D00069F0FAE08F9FB0011124882777FD809568
:1039E000982F0E94754D80E00E94D426F1018081BD
:1039F00090E002C0959587959A94E2F780FF04C005
:103A0000882D61E00E949D260894E11CF11CF8E0DD
:103A1000EF16F10409F074CF739480918B07781638
:103A200008F450CFC601B5010E946E180E94D92635
:103A30001092220A1092230A1092240A1092250A48
:103A400070918C0760E080E03FC0A62FB0E0FD01E0
:103A5000EE0FFF1FEE0FFF1FE65DF64FE080F180D7
:103A600002811381AE14BF04C006D10660F5F3E0F5
:103A7000B695A795FA95E1F7AF54B84F8C9190E0C1
:103A8000262F277002C0959587952A95E2F780FF2B
:103A900019C02091220A3091230A4091240A5091A2
:103AA000250AD801C701E216F3060407150710F42A
:103AB000DA01C9018093220A9093230AA093240A71
:103AC000B093250A81E06F5F671708F4BECF8823A3
:103AD00079F40E948D1E0E94D9260E940E2A8091A0
:103AE0008507877F8093850780910E0280938707E3
:103AF00050908707552009F470C08091140290916E
:103B00001A0240908C07FF2401E010E0252C33249A
:103B1000682E772488249924492F50E060E070E0D3
:103B20004C5350406040704050C02F2D30E0201664
:103B3000310609F447C0D901E3E0B695A795EA95A7
:103B4000E1F797E0E92EEF20FD01E357F84F808180
:103B500090E00E2C02C0959587950A94E2F780FFBD
:103B600031C0AD56B84F8C9190E002C095958795C5
:103B7000EA94E2F780FF26C0220F331F220F331F83
:103B8000F901E659F74F80819181A281B381860DB9
:103B9000971DA81DB91DA816B906CA06DB0690F028
:103BA000265D364FF90180819181A281B381840F16
:103BB000951FA61FB71F8A159B05AC05BD0510F004
:103BC00061E007C0F3940F5F1F4FF41408F4ADCF0A
:103BD00060E0852D81500E94691EC601B5010E94DA
:103BE0006E180E94D92680916C07882389F4C6013B
:103BF000B50123E030E040E050E00E94CF6B9B0134
:103C0000AC012E5F3C4F81E0F90160810E94B5213B
:103C10000E9461130E9408190E940413C601B50195
:103C20000E94D115C75BDF4F0FB6F894DEBF0FBE01
:103C3000CDBFCF91DF911F910F91FF90EF90DF905B
:103C4000CF90BF90AF909F908F907F906F905F903C
:103C50004F903F902F9008959C01F999FECF32BD6F
:103C600021BDF89A80B508959C01F999FECF1FBA3D
:103C700032BD21BD60BD0FB6F894FA9AF99A0FBE15
:103C80000895E0916608F091670809950895FC0190
:103C900024EF33E084E02431380711F440E009C018
:103CA000F999FECFC901019632BD21BDF89A40B500
:103CB0009C019081442331F0992349F0491739F44C
:103CC0003196E8CF80E0992319F481E0089580E0EF
:103CD0000895282F277086958695869590E066230F
:103CE00069F0FC01E357F84F81E090E002C0880FD3
:103CF000991F2A95E2F72081282B0DC0FC01E3577C
:103D0000F84F81E090E002C0880F991F2A95E2F7F2
:103D10008095208128232083089510928D0710928A
:103D20008E0710928F0710929007109291071092B1
:103D30009207089510925408109253088EEE92E064
:103D40009093520880935108089580914A026FEF32
:103D500070E0681B71098CE00E94B34C089560917B
:103D600044028DE070E00E94B34C0895EF92FF9200
:103D70000F931F93CF93DF93E82E162F042FF22E6D
:103D8000662321F0623081F4222371F08E2D0E948F
:103D9000A64E892B11F000E024C0FF2011F480E032
:103DA00001C080E8082B1DC0C0E0D0E08E2D0E942D
:103DB000A64E892B81F4113031F0123061F483E08A
:103DC000C83ED80744F461E070E080E090E00E94D3
:103DD000754D2196EBCFFF2019F4C85ED3400CF04F
:103DE0000068802FDF91CF911F910F91FF90EF908E
:103DF00008950F931F93082F10916808107861E0C1
:103E000070E080E090E00E94754D8FE10E94A64E28
:103E1000892B21F48FE1602F41E013C08EE10E94D5
:103E2000A64E892B21F48EE1602F42E00AC08DE17D
:103E30000E94A64E892B11F040E007C08DE1602F53
:103E400044E0212F0E94B61E482F8091680890E020
:103E50008F709070242F30E0892B39F42F703070E0
:103E6000232B71F0842F806406C02F703070232BB9
:103E700039F4842F8062409368081F910F91089550
:103E8000842FF9CF8BE00E94A64E40E020912602BD
:103E900030E08217930709F041E0440F440F80910E
:103EA00085078B7F842B8093850708951F93182F98
:103EB000843690F064E60E949C6B682F81E598E060
:103EC00070E04AE050E00E94525281E598E060E1E3
:103ED00071E00E94655202C08A30A0F0812F6AE032
:103EE0000E949C6B0E949C6B692F81E598E070E0BA
:103EF0004AE050E00E94525281E598E060E171E0B2
:103F00000E946552812F6AE00E949C6B692F81E5B7
:103F100098E070E04AE050E00E9452521F910895EC
:103F2000EF92FF920F931F938C0181E5E82E88E0BA
:103F3000F82EC8016AE070E00E94BC6BC7014AE03D
:103F400050E00E945252C8016AE070E00E94BC6BCF
:103F5000BC01C7014AE050E00E9452521F910F91EC
:103F6000FF90EF900895CF93DF93EC0104C081E5BB
:103F700098E00E947251FE01219664916623B9F780
:103F8000DF91CF910895FF920F931F93CF93DF930B
:103F90008C0181E598E060E040E00E94C81181EB6F
:103FA00093E00E94B31FE801FF24688170E034E0D1
:103FB000759567953A95E1F781E598E040E150E025
:103FC0000E945252699170E06F70707081E598E0C4
:103FD00040E150E00E9452528FEA93E00E94B31FEA
:103FE000F39484E0F81609F781E598E060E041E099
:103FF0000E94C811F801648170E024E0759567950E
:104000002A95E1F781E598E040E150E00E945252A4
:10401000F801648170E06F70707081E598E040E1B4
:1040200050E00E9452528DEA93E00E94B31FF801C3
:10403000658170E094E0759567959A95E1F781E563
:1040400098E040E150E00E945252F801658170E032
:104050006F70707081E598E040E150E00E9452522C
:10406000DF91CF911F910F91FF9008950F931F93B0
:10407000CF93DF938C01462F81E598E060E00E94AA
:10408000C811C0E0D0E0F801EC0FFD1F608181E5B0
:1040900098E070E04AE050E00E94525286EB93E0D4
:1040A0000E94B31F2196C330D10569F7F8016381DF
:1040B00081E598E070E04AE050E00E945252DF91C2
:1040C000CF911F910F9108950F931F93CF93DF937B
:1040D0008C01462F81E598E060E00E94C811E8015C
:1040E00004C081E598E00E9472519E01201B822F3E
:1040F000FE01219664916623A1F7992787FD90958B
:10410000C0E1D0E0C81BD90B05C081EC93E00E9450
:10411000B31F2197D7FFF9CFDF91CF911F910F9157
:1041200008950F931F93CF93DF938C01FC01EE0F43
:10413000FF1FE00FF11FEE0FFF1FEC55FE4F8081B8
:10414000918160E00E94642083E993E061E00E9435
:10415000642081E598E060E041E00E94C8110131EF
:10416000110509F4ACC0023111059CF401301105B0
:10417000E1F10230110524F40115110549F1B8C02F
:104180000C30110509F486C00E30110509F0B0C0DD
:1041900019C00B31110509F49AC00C3111054CF40A
:1041A0000331110509F461C00431110509F0A0C003
:1041B00063C00C31110509F496C00E31110509F0E8
:1041C00097C070C081E598E062E171E00E9465529D
:1041D000F801EE0FFF1FE00FF11FEE0FFF1FEE556E
:1041E000FE4F80810E94561FA1C08091A801C82F58
:1041F000D0E0E097D7FD05C081E993E00E94B31FAE
:1042000007C08FE893E00E94B31FD095C195DF4FA0
:10421000CE0164E070E00E94BC6B81E598E04AE06A
:1042200050E00E9452528DE893E00E94B31FCE01ED
:1042300064E070E00E94BC6BBC01E4E0660F771F95
:10424000EA95E1F7681B790B29F48AE893E00E946C
:10425000B31F06C081E598E04AE050E00E94525248
:1042600085E893E00E94B31F67C083E893E00E9453
:10427000B31F609114022FC080911A028C3320F07A
:1042800081E893E00E94B31F60911A0270E06C53C2
:1042900070401AC07091F00160E08091EA01680FEF
:1042A000711D06C0609156028AE0689FB00111241A
:1042B00081E598E04AE050E00E9401523DC08091C3
:1042C00008020E94E74ABC0181E598E007C00E940D
:1042D000AF1E6091440281E598E070E04AE050E052
:1042E0000E94525229C00E94A51E60914A02F3CF3B
:1042F000F801EE0FFF1FE00FF11FEE0FFF1FEE554D
:10430000FE4F81816081813051F4662319F48AE780
:1043100093E002C08DE793E00E94B31F07C081E5E0
:1043200098E070E04AE050E00E94525207311105D7
:1043300019F488E793E012C0C8014397029718F474
:1043400083E793E00BC00131110519F48EE693E089
:1043500005C00E31110521F48AE693E00E94B31FD7
:10436000DF91CF911F910F9108950F931F93CF93DA
:10437000DF93482F062F81E598E060E00E94C81186
:10438000809186078F7019F489EA93E010C087EA5C
:1043900093E00E94B31F609186076F7081E598E0FB
:1043A00070E04AE050E00E94525285EA93E00E9499
:1043B000B31F8091850780FD06C089E993E061E025
:1043C0000E94642026C0E0918607EF70F0E0E3577A
:1043D000F84F1081C1E0D0E0809186078F7051F4D2
:1043E00080910E0290E0C817D90721F410FD06C095
:1043F0006DE405C010FD02C06FE501C0602F81E5CE
:1044000098E00E9472512196C930D10511F016959D
:10441000E3CF84E993E00E94B31F81E598E06DE06B
:1044200041E00E94C8118091850781FD06C082FF8E
:1044300009C080912002882329F081E598E063E09B
:104440000E94841181E598E06EE041E00E94C8116D
:104450008091850785FF05C081E598E062E00E94B4
:10446000841181E598E06FE041E00E94C81160E0AE
:104470008091860782958F7090E003970CF061E041
:1044800081E598E00E948411DF91CF911F910F91F7
:104490000895E0E8F2E0ADEFB7E080818C933697C5
:1044A000119781E0EC39F807C1F782EC97E068EDED
:1044B00077E046E250E024E33EE10E940B07809162
:1044C000FC018F5F80938B0790E023E0880F991F9A
:1044D0002A95E1F780938C07909132029170809138
:1044E00085078E7F892B8093850708950F931F93EF
:1044F000CF93DF93EC010AEA82E00E94F91E482F75
:1045000050E09A012F7030702230310541F1243093
:10451000310509F443C02130310509F089C02097E5
:1045200009F489C0CE30D10509F485C0CC30D1055D
:1045300009F481C0CD30D10509F47DC0FE01EE0F34
:10454000FF1FEC0FFD1FEE0FFF1FEE55FE4F90817A
:104550008181891709F46FC09F5F90836CC0209799
:1045600009F466C0CE30D10509F462C0CC30D10563
:1045700009F45EC0CD30D10509F45AC0FE01EE0F3A
:10458000FF1FEC0FFD1FEE0FFF1FEE55FE4F90813A
:10459000992309F44DC0915090834AC086FF48C0CA
:1045A00087FF0AC080918002882311F00093800267
:1045B0000E94492211E040C0C330D10539F48091F6
:1045C000B4018823E9F0CCE0D0E021C0CC30D105A3
:1045D00019F4CEE0D0E01BC0C531D10539F480918B
:1045E0002002882369F4C7E1D0E011C0C231D105AF
:1045F00039F480910E02882319F4C5E1D0E007C098
:10460000CE01019666E270E00E94BC6BEC01FE01F7
:10461000EE0FFF1FEC0FFD1FEE0FFF1FEE55FE4FBD
:104620000480F581E02DE491EF3529F4219603C053
:10463000882309F461CF10E0CE010E94912011235C
:1046400009F45ACF81E598E00E94B611DF91CF912D
:104650001F910F910895809185078E7F8093850724
:10466000109232020E94492208958091850781604C
:104670008093850781E0809332020E944922089549
:104680008CEE93E06DE777E048E050E024E33EE114
:104690000E940B070895809185078D7F8093850781
:1046A000109281071092820710928307109284075C
:1046B0000E9440230895809185078260809385073A
:1046C0000E944023089546E050E024E33EE10E942A
:1046D0000B070895FB01108A90E0B4E0880F991F42
:1046E000BA95E1F78C559B4F40E150E024E33EE161
:1046F0000E940B07089588ED97E062EC77E046E2B0
:1047000050E02CE23EE10E94EF06A8EDB7E0E2EABD
:10471000F1E08D918083369687E0AE3FB807C9F708
:104720008091FC018F5F80938B0790E023E0880FDE
:10473000991F2A95E1F780938C079091320291702E
:10474000809185078E7F892B8093850708958DE75B
:1047500097E06CEE73E048E050E02CE23EE10E940E
:10476000EF06A8E8B7E0E5E8F7E083E001900D92F6
:104770008150E1F708959C01CB01B90146E050E07A
:104780002CE23EE10E94EF060895FB01108A682F9B
:1047900070E034E0660F771F3A95E1F76C557B4F78
:1047A000CF0140E150E02CE23EE10E94EF06089587
:1047B000DF92EF92FF920F931F939C01D62E88ED0C
:1047C00097E0B9014D2D50E02CE23EE10E94EF064A
:1047D000E8EDF7E020E030E040E050E060E038C095
:1047E000908179018A0144E0EE0CFF1C001F111F2B
:1047F0004A95D1F7892F80538A3030F4892F992731
:1048000087FD9095C09719C0892F8154863030F468
:10481000892F992787FD9095C7970FC0892F8156BB
:10482000863028F020E030E040E050E013C0892FCF
:10483000992787FD9095875590409C01442737FD27
:104840004095542F2E0D3F1D401F511F6F5F319615
:104850006D1530F2B901CA011F910F91FF90EF90D1
:10486000DF900895EF92FF920F931F93CF93DF9302
:104870008B017A01C82FD0E054E0CC0FDD1F5A9590
:10488000E1F7CC55DB4FCE0166E00E94D8236115DD
:1048900071058105910521F10115110529F0F80136
:1048A0006083718382839383CE01069666E00E94C3
:1048B000D823611571058105910591F0E114F1048A
:1048C00029F0F7016083718382839383CE010C9674
:1048D00064E00E94D823611571058105910511F4EA
:1048E00060E070E0CB01DF91CF911F910F91FF90BD
:1048F000EF900895AF92BF92DF92EF92FF920F93E5
:104900001F93CF93DF930BEA17E0EE24FF2461E0BF
:10491000A62EB12CF8011082DE2CDD0CDD0CDD0C96
:10492000C0E0D0E08D2D8C2B60E070E040E050E0E6
:104930000E943224892B59F095010C2E02C0220FBF
:10494000331F0A94E2F7F8018081822B808321963D
:10495000C830D10539F70894E11CF11C0F5F1F4FD7
:10496000F6E0EF16F104B1F6DF91CF911F910F91B0
:10497000FF90EF90DF90BF90AF900895EF92FF927D
:104980000F931F93CF93DF9364EF71E080E090E08B
:104990000E94754DF999FECF82EC97E092BD81BDE2
:1049A000F89A80B5853D59F4F999FECF87EE97E0E6
:1049B00092BD81BDF89A80B58A3A09F0B4C083E00F
:1049C00094E060E00E94642084EF93E061E00E9444
:1049D0006420E8EDF7E0119288E0E035F807D9F7B8
:1049E000C0E0D0E000E018E0A8014C1B5D0B4937A7
:1049F000510514F048E750E0CE0168ED77E024E37C
:104A00003EE10E940B07C858DF4F88E0C037D80747
:104A100059F70E94402384EF93E064E171E049E09C
:104A200050E024E33EE10E940B0784E194E06DE155
:104A300071E04AE050E024E33EE10E940B0784E489
:104A400094E067E271E04FE150E024E33EE10E9430
:104A50000B0784E894E066E471E041E050E024E371
:104A60003EE10E940B0783E58093D8071092DB0795
:104A700004EA14E0C1E0D0E078EDE72E77E0F72E0D
:104A8000CE016AE070E00E94BC6B605D6093D90764
:104A9000CE016AE070E00E94BC6B805D8093DA0713
:104AA000F70101900020E9F7E85DF740C80168EDE3
:104AB00077E0AF0124E33EE10E940B07005F1F4F48
:104AC000219687E0043A1807D9F68FEF8093D8072C
:104AD0008093D9078093DA078093DB078093DC0704
:104AE0008093DD0784EA97E068ED77E046E050E0E8
:104AF00024E33EE10E940B078CEB97E068ED77E042
:104B000046E050E024E33EE10E940B070E94492268
:104B100064EF71E080E090E00E94754DE0916608DE
:104B2000F091670809950E947B2384EA97E063E986
:104B300077E00E94BB238AEA97E069E977E00E9468
:104B4000BB2380EB97E06FE977E00E94BB2386EB05
:104B500097E065EA77E00E94BB238CEB97E061EB7E
:104B600077E00E94BB230E947A240E94A72380E062
:104B70000E94F91E90E08F7090708130910519F0BD
:104B8000049779F503C085E290E020C084EE93E0BD
:104B900060E00E94642060ED77E080E090E00E9499
:104BA000754D83ED93E060E00E94642083EC93E018
:104BB00061E00E94642080E00E94F91E86FFFBCF26
:104BC00081E598E00E94F71180E090E00E94762253
:104BD00080918002882329F0E0916608F0916708AF
:104BE00009958CE061E00E94134E8DE061E00E9427
:104BF000134E0E94A51E0E94AF1EDF91CF911F9100
:104C00000F91FF90EF900895EF92FF920F931F93F3
:104C1000DC01CB0179018A01139A0E94CE4D1398D1
:104C2000C7010E94CE4D1F910F91FF90EF90089504
:104C30002F923F924F925F926F927F928F929F92AC
:104C4000AF92BF92CF92DF92EF92FF920F931F939A
:104C5000DF93CF9300D00F92CDB7DEB74B015C014D
:104C600079018A01DA01C901880F991FAA1FBB1FA8
:104C7000820F931FA41FB51F582E692E7A2ECB2E9C
:104C8000DA01C901E5E0880F991FAA1FBB1FEA9549
:104C9000D1F7821B930BA40BB50B8983292E3A2ED7
:104CA0004B2EDD242FC0D501C4010A8004C0B69567
:104CB000A795979587950A94D2F780FF07C0652D31
:104CC000762D872D9C2DA801970106C0C801B7013C
:104CD000252D362D472D5C2D0E9404268A819B812F
:104CE00001979B838A838F5F9F4FE9F6C801B701C5
:104CF0002981322D432D542D0E940426D394F8E1AE
:104D0000DF1629F087E190E09B838A83CCCF0F9058
:104D10000F900F90CF91DF911F910F91FF90EF9027
:104D2000DF90CF90BF90AF909F908F907F906F90CB
:104D30005F904F903F902F9008951F93DF93CF93F4
:104D4000CDB7DEB728970FB6F894DEBF0FBECDBF44
:104D5000162FBE016F5F7F4FAE014B5F5F4F0E940A
:104D60003224AC01112329F069817A818B819C81E5
:104D700004C06D817E818F8198859A013695279533
:104D80005695479556954795240F351F40E050E0BE
:104D90000E94182628960FB6F894DEBF0FBECDBF2E
:104DA000CF91DF911F910895682F8EE00E94524E9F
:104DB0000895EF92FF920F931F93CF93DF9383E0B9
:104DC00060E00E94524E02E917E08091850780FD65
:104DD00002C060E002C0F8016081C7E0D0E0E62ECA
:104DE000FF2486E160E00E94524EB7010C2E02C003
:104DF000759567950A94E2F7617085E10E94524EBD
:104E000086E161E00E94524E2197FFEFCF3FDF071E
:104E100041F70150104087E00C381807B1F683E0E5
:104E200061E00E94524EDF91CF911F910F91FF9050
:104E3000EF900895DF93CF93CDB7DEB727970FB6E6
:104E4000F894DEBF0FBECDBFCE0101960E943C0C90
:104E50008C8190E0059667E070E00E94BC6B27961D
:104E60000FB6F894DEBF0FBECDBFCF91DF9108958E
:104E700084E00E94914C9C0183E02E3B380718F09F
:104E800020E030E024C083E02734380718F021E028
:104E900030E01DC082E02B3E380718F022E030E001
:104EA00016C082E0223A380718F023E030E00FC045
:104EB00082E02536380718F024E030E008C023539C
:104EC000324018F025E030E002C02FEF3FEFC9017B
:104ED00008958F92AF92CF92EF920F931F93DF932B
:104EE000CF93CDB7DEB7A0970FB6F894DEBF0FBE55
:104EF000CDBF81E061E00E94134E81E061E00E943D
:104F0000524E83E061E00E94134E83E061E00E9414
:104F1000524E86E161E00E94134E85E161E00E94FD
:104F2000134E10928D0710928E0710928F071092D9
:104F3000900710929107109292070E94D92681E063
:104F400060E00E94524E8BE060E00E94134E8BE0C6
:104F500061E00E94524E80918507816080938507B1
:104F6000A8E8B7E0E5E8F7E083E001900D92815012
:104F7000E1F788E691E090937E0780937D0788E3D0
:104F800094E09093800780937F0711E010938B0744
:104F900088E080938C078CE161E00E94134E8CE1E5
:104FA00060E00E94524E8EE061E00E94134E8EE05F
:104FB00060E00E94524E80E061E00E94134E80E06B
:104FC00061E00E94524E109381008CE061E00E94EB
:104FD000134E8DE061E00E94134E0E94A51E0E94B8
:104FE000AF1E00D000D0EDB7FEB73196ADB7BEB75B
:104FF00011961C9211821282138281E598E061E081
:1050000043E12FEF02E174E1E72E55E1C52E36E1D1
:10501000A32E17E1812E0E946E120F900F900F9019
:105020000F9081E598E060E142E020E00E94FF11EE
:105030008BE29CE00E944253DE011196EDE1F3E029
:1050400088E001900D928150E1F7DE011996E5E1CB
:10505000F3E088E001900D928150E1F7DE01519676
:10506000EDE0F3E088E001900D928150E1F7DE0180
:105070005996E5E0F3E088E001900D928150E1F768
:1050800081E598E061E08E010F5F1F4FA8010E944B
:105090008E111A821B8281E08C8381E598E060E0AA
:1050A000A8010E948E1181E598E062E0AE01475FA1
:1050B0005F4F0E948E1181E598E063E0AE014F5E84
:1050C0005F4F0E948E1181E598E064E0AE01475E7B
:1050D0005F4F0E948E118FE160E00E94134E8EE1BF
:1050E00060E00E94134E8DE160E00E94134E8FE15C
:1050F00061E00E94524E8EE161E00E94524E8DE1CD
:1051000061E00E94524E0E94090C882329F480918C
:105110008507806180938507A0960FB6F894DEBF5F
:105120000FBECDBFCF91DF911F910F91EF90CF9028
:10513000AF908F900895EF92FF920F931F930E946C
:10514000C8497B018C016091A80170E080E090E08B
:1051500024E833E040E050E00E947D6B9B01AC010D
:10516000205C384A404050402E0D3F1D401F511FCB
:10517000B901CA011F910F91FF90EF900895DF923E
:10518000EF92FF920F931F93D82E0E949B287B01D2
:105190008C0181E598E060E04D2D0E94C811C801A6
:1051A000B7010E94B5480E94901F8FEB93E00E94C8
:1051B000B31FC801B7010E94AF480E94901F8CEB3B
:1051C00093E00E94B31F0E941A27E82FF0E0EE0F31
:1051D000FF1FEA57FD4F808191810E94B31F8AEB28
:1051E00093E00E94B31FC801B7010E949D480E942E
:1051F000901F88EB93E00E94B31FC801B7010E9483
:10520000A9480E94901F1F910F91FF90EF90DF908F
:105210000895CF93DF938BE29CE060E570E00E94FD
:1052200068528BE29CE060E00E94EA528BE29CE0D4
:105230000E942D53882311F080E029C08BE29CE06E
:1052400060E570E00E9468528BE29CE06AEF0E9489
:10525000EA528BE29CE00E942D538BE29CE060E5D9
:1052600070E046E050E00E943E538BE29CE00E94DA
:105270007252892BD1F3C8EDD7E08BE29CE00E94FB
:105280007B52899387E0CE3DD807B9F781E0DF9163
:10529000CF910895DF93CF93CDB7DEB728970FB6A0
:1052A000F894DEBF0FBECDBF84E194E061E00E94C0
:1052B00064200E94C8496093CB077093CC07809309
:1052C000CD079093CE076093CF077093D00780935C
:1052D000D1079093D2070E940929882389F410925C
:1052E000D80789E68093D9078093DA078DE2809307
:1052F000DB0781E38093DC0780913E028093DD072A
:1053000082E593E068ED77E044E00E94AF0F8823E8
:1053100011F490E03AC09091F00180E02091EA0110
:10532000820F911D90939201809391018091B4011D
:10533000882319F00E942A0A22C08091BA01898329
:105340008091C0018A838091C6018B838091CC01BA
:105350008C838091D2018D838091D8018E8380913E
:10536000DE018F838091E4018887AE014B5F5F4F40
:10537000CE010196BA0120E030E00E94790F90E062
:10538000882309F491E081E09827892F28960FB6A9
:10539000F894DEBF0FBECDBFCF91DF9108959C0181
:1053A000F999FECF32BD21BDF89A80B508959C01D0
:1053B000F999FECF1FBA32BD21BD60BD0FB6F8947A
:1053C000FA9AF99A0FBE0895AAEEB9E080E090E04B
:1053D000FC01E659F74F1082118212821382FC0100
:1053E000E65DF64F10821182128213821D9204969E
:1053F000803C910569F71092220A1092230A1092BC
:10540000240A1092250AF999FECF89E090E092BD16
:1054100081BDF89A80B5809369080895AAEEB9E035
:1054200080E090E0FC01E659F74F10821182128271
:105430001382FC01E65DF64F108211821282138204
:105440001D920496803C910569F71092220A1092F1
:10545000230A1092240A1092250A089510926908CE
:10546000F999FECF1FBA89E090E092BD81BD10BCD2
:105470000FB6F894FA9AF99A0FBE0895982F809172
:105480006908981708F041C0992309F43EC0892F94
:1054900090E0019727E430E0AC01429FC001439FB8
:1054A000900D529F900D11249C01265F3F4F8F5A03
:1054B0009F4F24C0F999FECF32BD21BDF89A50B557
:1054C000F999FECF72BD61BDF89A40B5F999FECF4A
:1054D0001FBA32BD21BD40BD0FB6F894FA9AF99AB1
:1054E0000FBEF999FECF1FBA72BD61BD50BD0FB698
:1054F000F894FA9AF99A0FBE2F5F3F4FB901695B92
:105500007F4F2817390709F0D5CF089577FF03C0DB
:105510006FEF7FEF22C0CB01977074FF03C09095AF
:1055200081959F4F76FF0BC060917D0770917E073C
:10553000680F791F77FF11C060E070E00EC075FF43
:105540000CC060917F0770918007680F791F85E01C
:10555000603A780714F06FE975E0CB010895BF92C7
:10556000CF92DF92EF92FF920F931F936C01FC0199
:10557000B080E1800E949B2820E831E541E050E0C6
:105580000E94CF6B2B0D311D411D511DFF2400E0EA
:1055900010E0CA01B901A80197010E94CF6BF60182
:1055A00060831F910F91FF90EF90DF90CF90BF909D
:1055B00008958F929F92AF92BF92CF92DF92EF9217
:1055C000FF920F931F934C01FC01A180E080FF2408
:1055D000EA0CF11C0027F7FC0095102F0E949B2875
:1055E000BB24CC24DD2420E831E541E050E00E94DA
:1055F000CF6BCA01B901A60195010E94CF6BE61AD3
:10560000F70A080B190BC801B701A60195010E9402
:10561000CF6BF40160831F910F91FF90EF90DF90AB
:10562000CF90BF90AF909F908F9008957F928F9270
:105630009F92AF92BF92CF92DF92EF92FF920F9321
:105640001F93CF93DF936C017A018B01CB01BA01D9
:105650000E94B5484C01C801B7010E94AF48EC0157
:10566000C801B7010E94A348A82EC801B7010E9433
:10567000A948B82EC801B7010E949D48782ED601CE
:105680008C9180FFB4C08295837090E08230910548
:10569000B9F08330910509F1892BE1F5F6012181FB
:1056A00030E08A2D90E0059667E070E00E94BC6BC8
:1056B00002C0359527958A95E2F720FD2BC097C04B
:1056C0002B2D30E0D60111968C9190E08F71907067
:1056D0002817390709F08BC01DC0C801B70120E8A1
:1056E00031E541E050E00E94CF6BCA01B901F601FB
:1056F000228130E040E050E00E94CF6BD60111964D
:105700002C9130E040E050E0621773078407950762
:1057100009F06DC0F6018081869586958370A1F0B1
:10572000823019F4B0FE10C062C0813069F4FFE12C
:10573000BF1609F45CC08DE1B81621F492E0791629
:1057400009F455C0B0FE53C08CE390E0889E800100
:10575000899E100D989E100D11240C0F1D1FD6014F
:105760008C9186FD30C013966D917C911497C60183
:105770000E94862AF601C581D6810780F085E02D3A
:105780009C010817190798F1209729F480E0021767
:10579000130771F526C0309751F1C801821B930B96
:1057A0009C01BF010E94A86B6E9FC0016F9F900D6E
:1057B0007E9F900D112482179307C9F480E0C617CD
:1057C000D707B4F00EC0E60188E0E82EF12CEC0C0F
:1057D000FD1C6B817C81C6010E94862A081719076F
:1057E00011F481E005C02296CE15DF0591F780E027
:1057F000DF91CF911F910F91FF90EF90DF90CF90AD
:10580000BF90AF909F908F907F900895982F9B01AD
:1058100080916908981768F467E4969FB001112495
:10582000665F7F4FC90147E450E02FEC39E20E94E8
:10583000EF060895DF92EF92FF920F931F93DF938D
:10584000CF93CDB7DEB7C754D0400FB6F894DEBFC4
:105850000FBECDBF20916908821708F046C02223F1
:1058600009F443C090E0019627E430E0829F800174
:10587000839F100D929F100D1124065F1F4F97E418
:10588000D92E7E010894E11CF11C14C0C701B80197
:1058900047E450E02FEC39E20E94EF06C80187543C
:1058A0009040B70147E450E027ED39E20E940B0732
:1058B000095B1F4F209169082D9DC00111240A9694
:1058C0000817190718F3215020936908F999FECF9A
:1058D0001FBA89E090E092BD81BD20BD0FB6F8945B
:1058E000FA9AF99A0FBE81E001C080E0C95BDF4FF0
:1058F0000FB6F894DEBF0FBECDBFCF91DF911F91E1
:105900000F91FF90EF90DF900895982F8091690894
:10591000981710F080E0089587E4989FC001112443
:105920000A9647E450E027ED39E20E940B0781E038
:105930000895BC01909169089E3010F080E00895B0
:1059400087E4989FC00111240A9647E450E027EDB0
:1059500039E20E940B07209169082F5F20936908A4
:10596000F999FECF1FBA89E090E092BD81BD20BDBC
:105970000FB6F894FA9AF99A0FBE81E008959C0147
:10598000F999FECF1FBA32BD21BD60BD0FB6F894A4
:10599000FA9AF99A0FBE0895EF92FF920F93CF9360
:1059A000DF93DC01EB01722F532F002331F4822FA0
:1059B000932F9C01F90160E03EC0822F932FFC01E0
:1059C00060E019C08491332727FD309590E02817B7
:1059D000390769F431968491882361F411968C918A
:1059E0008D3329F4872F952FFC0161E003C0872FA9
:1059F000952FFC0111962C91222339F1203229F1A7
:105A00002A3019F16623F1F224C08081981771F4CD
:105A100031968081882371F411968C918D3331F405
:105A2000872F952F9C01F90161E004C0872F952FE6
:105A30009C01F90111969C91992339F0903229F03B
:105A40009A3019F0662309F304C0613011F030E098
:105A500018C07A2F50E04150504002C0299311964F
:105A60003A2F371B2C91222359F0203249F02A304B
:105A700039F0263229F0832F90E08417950774F3CC
:105A80001882E114F10411F0F7016083832FDF9194
:105A9000CF910F91FF90EF900895CF93DF93FC018A
:105AA000EC0137C08B3211F480E231C0853279F5D8
:105AB000DF0111969181392F30533A3070F0892FE0
:105AC0008156863010F4375208C0892F81548630B1
:105AD00010F030E002C0392F3753FD013196119696
