:100000000C94E4050C940C060C940C060C940C0651
:100010000C940C060C940C060C940C060C940C0618
:100020000C9484120C940C060C940C060C940C0684
:100030000C940C060C940C060C940C060C940C06F8
:100040000C940C060C940C060C94B84E0C940C06F4
:100050000C949F500C942D510C940C060C940C068F
:100060000C940C060C940C060C945D6B0C940C0612
:100070000C94D4500C9468510C940C064E5450209F
:1000800053796E63696E672E2E2E005D0D0A002C6B
:1000900000222C00302C22002C002C005B002E743F
:1000A000787400302E2054657374202831206D69D7
:1000B0006E29002E20002000486F6C6420423320FF
:1000C000746F20737461727400436C69636B2042B7
:1000D0003320746F206C6973740052756E20612038
:1000E00050726F6772616D3A00286C7377632900F4
:1000F00028656970290020286F73697029003A000B
:100100002867776970290077746F7074732E74781C
:100110007400207365630025004E6F0059657300FD
:100120002B002B0020474D54003030003A002D00AA
:100130002B000020202020002D44697361626C6533
:1001400064212D003A0045004D433A0020284D41DE
:100150004329002D002E002D0020002020003A0011
:10016000200020414300204C4100204443004857D8
:10017000207600204F70656E537072696E6B6C65EF
:100180007200486F6C6420423320746F2073617674
:10019000650042312F42323A2B2F2D2C2042333A28
:1001A0002D3E003D3D536574204F7074696F6E7332
:1001B0003D3D00506C6561736520576169742E2E5A
:1001C0002E00526573657474696E672E2E2E00437F
:1001D0006F6E6E656374696E672E2E2E0046573AF9
:1001E0000066777600545A6F6E653A00747A004E56
:1001F00054503F006E747000444843503F006468A0
:100200006370004F532E6970313A00697031002ECF
:100210006970323A00697032002E6970333A0069B1
:100220007033002E6970343A006970340047572EDD
:100230006970313A00677731002E6970323A006791
:100240007732002E6970333A00677733002E697079
:10025000343A0067773400506F72743A0068703037
:1002600000006870310048573A20006877760045F2
:1002700078702E20626F6172643A00657874005362
:10028000746E2064656C61793A00736474004D612A
:1002900073313A006D6173004D61733120206F6ED0
:1002A0002061646A3A006D746F6E004D6173312095
:1002B0006F66662061646A3A006D746F6600526111
:1002C000696E2073656E736F723A00757273004EBB
:1002D0006F726D616C6C79206F70656E3F00727328
:1002E0006F0025205761746572696E673A00776CFC
:1002F000004465762E20656E61626C653F00646522
:100300006E0049676E207077643F0069706173000A
:100310004465762E2049443A006465766964004C51
:10032000434420636F6E2E3A00636F6E004C43446B
:10033000206C69742E3A006C6974004C434420644C
:10034000696D2E3A0064696D00426F6F73743A00F4
:100350006273740055736520776561746865723FD8
:1003600000757774004E54502E6970313A006E74E7
:100370007031002E6970323A006E747032002E694E
:1003800070333A006E747033002E6970343A006E28
:10039000747034004C6F673F006C67004D617332BE
:1003A0003A006D617332004D61733220206F6E2010
:1003B00061646A3A006D746F6E32004D6173322071
:1003C0006F66662061646A3A006D746F663200463B
:1003D000576D3A0066776D00526573657420616CE5
:1003E0006C3F007265736574004D6F6E00547565E7
:1003F0000057656400546875004672690053617463
:100400000053756E0050726F6772616D20006376E5
:10041000006A6300647000637000637200757000AE
:100420006A7000636F006A6F007370006A73006324
:100430006D006373006A6E006A6C00646C00737513
:10044000006375003C7363726970743E77696E6413
:100450006F772E6C6F636174696F6E3D222F223B44
:100460003C2F7363726970743E0A007B227265735D
:10047000756C74223A24447D007B22726573756C1E
:1004800074223A24447D00244600222446223A2441
:10049000447D00646179005D002C245300245300E6
:1004A0005B007479706500656E64007374617274CA
:1004B0000068697374007400656E00736964005DA0
:1004C0002C226E73746174696F6E73223A24447DBA
:1004D000002C0024440022736E223A5B0063707784
:1004E000006E70770077746F007474740077746BAB
:1004F0006579006C6F63006A737000726400656EEA
:10050000007262740072736E003C6D657461206EDF
:10051000616D653D2276696577706F727422206324
:100520006F6E74656E743D2277696474683D6465AE
:10053000766963652D77696474682C696E6974697E
:10054000616C2D7363616C653D312E302C6D696E6D
:10055000696D756D2D7363616C653D312E302C7541
:100560007365722D7363616C61626C653D6E6F22A1
:100570003E0D0A003C736372697074207372633DB0
:100580002224452F686F6D652E6A73223E3C2F73BF
:1005900063726970743E0A3C2F626F64793E0A3C54
:1005A0002F68746D6C3E00766172207665723D2412
:1005B000442C697061733D24443B3C2F7363726922
:1005C00070743E0A003C21444F4354595045206802
:1005D000746D6C3E0A3C68746D6C3E0A3C686561E3
:1005E000643E0A24463C2F686561643E0A3C626FA3
:1005F00064793E0A3C7363726970743E007D002C1E
:100600002277746F223A7B24537D005D002C005BBF
:1006100024442C244C2C244C5D00305D2C2270731F
:10062000223A5B0024442C002264657674223A242A
:100630004C2C226E627264223A24442C22656E2273
:100640003A24442C227264223A24442C22727322CB
:100650003A24442C2272647374223A244C2C226C67
:100660006F63223A222445222C2277746B6579220B
:100670003A222445222C2273756E72697365223AE0
:1006800024442C2273756E736574223A24442C2200
:10069000656970223A244C2C226C7763223A244CF0
:1006A0002C226C737763223A244C2C226C72756E68
:1006B000223A5B24442C24442C24442C244C5D2CCE
:1006C000227362697473223A5B003C6872202F3E89
:1006D0003C666F726D206E616D653D6F6620616373
:1006E00074696F6E3D6375206D6574686F643D67F6
:1006F00065743E3C703E3C623E5363726970742088
:1007000055524C3A3C2F623E3C696E7075742074B1
:100710007970653D746578742073697A653D33320C
:10072000206D61786C656E6774683D313237207674
:10073000616C75653D22244522206E616D653D6AC0
:1007400073703E3C2F703E3C703E44656661756C34
:10075000742069732024533C6272202F3E49662026
:100760006C6F63616C206F6E2075534420636172FF
:10077000642C20757365202E2F3C2F703E3C703EFC
:100780003C623E50617373776F72643A3C2F623EF5
:100790003C696E70757420747970653D7061737317
:1007A000776F72642073697A653D3332206E616DB4
:1007B000653D70773E3C696E707574207479706524
:1007C0003D7375626D69743E3C2F703E3C687220CB
:1007D0002F3E3C2F666F726D3E3C7363726970747E
:1007E000207372633D68747470733A2F2F75692E8D
:1007F0006F70656E737072696E6B6C65722E636F6D
:100800006D2F6A732F6861736865722E6A733E3C40
:100810002F7363726970743E005D7D00225D00225B
:100820005D2C00245300244C5D2C2200244C2C0011
:1008300024445D2C5B0024442C005B24442C244481
:100840002C24442C5B00226E70726F6773223A2452
:10085000442C226E626F61726473223A24442C220B
:100860006D6E70223A24442C226D6E7374223A24E9
:10087000442C22706E73697A65223A24442C2270CB
:1008800064223A5B002C2264657870223A24442C5E
:10089000226D657870223A24442C22687774223ABB
:1008A00024447D002C00222446223A2444006E6118
:1008B0006D65007069640070696400706964005D52
:1008C0002C226D61786C656E223A24447D002C00E8
:1008D000222453220022736E616D6573223A5B00FD
:1008E00073746E5F73657100726673746E007374F7
:1008F0006E5F646973006D61736F70320069676E5B
:100900006F72655F7261696E006D61736F70005D1B
:100910002C002C00244400222446223A5B007077ED
:1009200000485454502F312E3120323030204F4B5C
:100930000D0A00436F6E74656E742D547970653ABC
:10094000206170706C69636174696F6E2F6A736F78
:100950006E0D0A436F6E6E656374696F6E3A206345
:100960006C6F73650D0A004163636573732D436F8C
:100970006E74726F6C2D416C6C6F772D4F7269675E
:10098000696E3A202A0D0A0043616368652D436F42
:100990006E74726F6C3A206D61782D6167653D30C1
:1009A0002C206E6F2D63616368652C206E6F2D7334
:1009B000746F72652C206D7573742D726576616C21
:1009C00069646174650D0A00244624462446244661
:1009D0000D0A7B0024462446244624460D0A004383
:1009E0006F6E74656E742D547970653A20746578F5
:1009F000742F68746D6C0D0A002446244624462426
:100A0000460D0A00000108000604000145000082AE
:100A1000000040002000504F5354202446204854EA
:100A200054502F312E300D0A486F73743A202446EB
:100A30000D0A244624534163636570743A202A2FBB
:100A40002A0D0A436F6E74656E742D4C656E677463
:100A5000683A2024440D0A436F6E74656E742D54F9
:100A60007970653A206170706C69636174696F6E4A
:100A70002F782D7777772D666F726D2D75726C6577
:100A80006E636F6465640D0A0D0A24530047455474
:100A9000202446245320485454502F312E300D0A20
:100AA000486F73743A2024460D0A24460D0A0D0A35
:100AB000004163636570743A20746578742F6874BC
:100AC0006D6C00E30004FA0001000000017765612D
:100AD000746865722E6F70656E737072696E6B6C80
:100AE00065722E636F6D002F7765617468657200A3
:100AF00024442E70793F6C6F633D2445266B6579E5
:100B00003D2445266677763D24442677746F3D2440
:100B1000530065697000747A007363616C650073DB
:100B2000756E7365740073756E726973650000008D
:100B30002100240027002A000000220025002800B0
:100B40002B000000200023002600290002020202E0
:100B50000202020204040404040404040303030361
:100B60000303030301010101010101010102040862
:100B70001020408001020408102040800102040877
:100B80001020408080402010080402010000000175
:100B9000020000000000000004030706000000003F
:100BA0000000000000000000000000007C3C3E5EF1
:100BB0002B3D3F2F5B5D3B2C2A225C00EA0CB412DC
:100BC000EA1E485247541D6711241FBECFEFD0E1E3
:100BD000DEBFCDBF13E0A0E0B1E0E4EBFBED02C06F
:100BE00005900D92A036B107D9F71EE0A0E6B3E05C
:100BF00001C01D92AB3AB107E1F71BE0C8ECDBE0A6
:100C000004C02297FE010E94D46DCC3BD107C9F7E6
:100C10000E94DE520C9453060C940000FC018827BD
:100C20009927E89421912032E9F3293010F02E30F1
:100C3000C8F32B3241F02D3239F4689404C00E947D
:100C40003607820F911D219120532A30C0F31EF4E4
:100C5000909581959F4F08951F93FC0199278827B0
:100C6000BC01E89411911032E9F3193010F01E30F4
:100C7000C8F31B3251F01D3249F4689406C00E943B
:100C80002107610F711D811D911D119110531A30A3
:100C9000B0F33EF490958095709561957F4F8F4F9E
:100CA0009F4F1F910895F8940C94D86DFB01DC01BF
:100CB00002C005900D9241505040D8F70895FB01B5
:100CC000DC010D900020E9F7119705900D920020AE
:100CD000E1F70895FB01DC0105900D920020E1F79A
:100CE0000895FB01DC0104C08D910190801921F46D
:100CF00041505040C8F7881B990B0895FB01DC0157
:100D000002C001900D9241505040D8F70895DC0187
:100D100001C06D9341505040E0F70895FB01DC01A4
:100D20000D900020E9F7119701900D920020E1F756
:100D30000895FC018191861721F08823D9F799271E
:100D400008953197CF010895FB01DC0101900D92C8
:100D50000020E1F70895FB01DC014150504030F0E4
:100D60008D910190801919F40020B9F7881B990B17
:100D70000895FB01DC014150504048F001900D9274
:100D80000020C9F701C01D9241505040E0F708957E
:100D9000A0E0B0E0EEECF6E00C94A56D7C01EB0178
:100DA0008A01690109C0CE012196F6010995F70172
:100DB00081937F010150104001151105A1F7CDB7B6
:100DC000DEB7E8E00C94C16DA0E0B0E0EAEEF6E03A
:100DD0000C94A56DEC017B018A01690109C0CE016B
:100DE0002196F70161917F01F601099501501040AC
:100DF00001151105A1F7CDB7DEB7E8E00C94C16D80
:100E0000FB019F01E8944230C4F04532B4F44A300B
:100E100029F497FB1EF4909581959F4F642F7727B7
:100E20000E94376D805D8A330CF0895D8193CB0120
:100E30000097A1F716F45DE251931082C9010C945A
:100E40006307592F482F372F262F660F771F881FCC
:100E5000991F660F771F881F991F620F731F841FCA
:100E6000951F660F771F881F991F08957AE0979F37
:100E7000902D879F802D910D11240895FA01CF9315
:100E8000FF93EF932230CCF02532BCF4C22F2C2FED
:100E9000332744275527FF93EF930E945E6DEF9110
:100EA000FF91605D6A330CF0695D6193B901CA011D
:100EB000605070408040904051F710828F919F9118
:100EC000CF910C946307DC01FC01672F71917723AC
:100ED000E1F7329704C07C916D9370836291AE17F5
:100EE000BF07C8F30895DF93CF9300D000D000D0A0
:100EF000CDB7DEB7DE011196E4EFF2E086E00190B7
:100F00000D928150E1F786E191E0E6ECF3E0DF013C
:100F10009C011D9221503040E1F7809160038330A5
:100F200019F466EB73E003C0BE016F5F7F4F84E48A
:100F300090E043E450E00E94C4418091600383301C
:100F400039F086EC93E0BE016F5F7F4F0E941C4E2C
:100F500081E08093F0038093F10386E08093F203B5
:100F600080916D0390916E03A0916F03B091700317
:100F70008093F4039093F503A093F603B093F703E3
:100F800080916003833039F480EF93E00C9666EA39
:100F900073E00E94244E8CE094E060EA73E00E94CB
:100FA0001C4EACEDB4E0E3E8F1E002C081918D931A
:100FB00031E0E938F307D1F790916003992311F0FC
:100FC00083E001C081E08093E2048DE38093E30439
:100FD00087E08093E40481E08093E504A6EEB4E02A
:100FE000E0EAF3E002C081918D9383E0E63AF807EE
:100FF000D1F78CE08093EC0485E08093ED04EDE77D
:10100000F1E0AEEEB4E002C081918D9321E0E238D0
:10101000F207D1F723EF34E0309375032093740384
:10102000913069F582E38093F30484E08093F404C3
:10103000D9011296E6EAF3E002C081918D9333E084
:10104000EA3AF307D1F786E38093F90484E08093CA
:10105000FA048BEF94E09093750380937403DC01A2
:10106000E6EBF3E002C081918D9383E0EA3BF80761
:10107000D1F78FEF94E090937503809374032091E0
:101080007303222311F094E001C093E0A091740354
:10109000B0917503FD0187E3819311969C93DF0165
:1010A000119681E08183FD01319683E011968C9346
:1010B000DF01119686E08183CD010196909375033F
:1010C00080937403222339F011962C930196909308
:1010D000750380937403E0917403F09175038FEFAF
:1010E0008193F0937503E0937403CF01805F934085
:1010F0000E94AA4326960FB6F894DEBF0FBECDBF5E
:10110000CF91DF910895BF92CF92DF92EF92FF923D
:101110000F931F93CF93DF938C01809160038230F4
:1011200009F401C1833030F4882351F1813009F092
:1011300076C14BC0833021F0843009F070C1F3C018
:101140000E945E4A209165033091660340916703D7
:1011500050916803E0906103F09062030091630393
:10116000109164032E0D3F1D401F511F2617370796
:101170004807590708F053C10E94730784E018C05C
:101180000E940C4F60936D0370936E0380936F0306
:10119000909370031092A6031092A7031092A803D5
:1011A0001092A9030E94730781E00E948C0D81E0D8
:1011B000809360030E940C4F6093690370936A03ED
:1011C00080936B0390936C032AC10634110508F4D5
:1011D000DEC08091E903833409F0D9C02091F40383
:1011E0003091F5034091F6035091F70380916D0320
:1011F00090916E03A0916F03B09170032817390787
:101200004A075B0709F0C3C0C0EED4E0FE01A801A5
:101210004A535C4FDF01119691819D012F5F3F4F33
:101220008081853329F411968C91823009F4CEC0E7
:10123000F901E90FF11DE417F50760F3A8C0FE01FD
:101240009191B980EF0121969333E1F0943340F40A
:10125000933091F0963099F0913009F04FC009C069
:101260009A3381F09F3F09F45AC0963309F046C083
:101270003FC08AEA93E03EC082EB93E03BC08AEB3A
:1012800093E038C0818190E0A0E0B0E0BA2FA92FB0
:10129000982F88272981820F911DA11DB11DBA2F7A
:1012A000A92F982F88272A81820F911DA11DB11D7A
:1012B000BA2FA92F982F88272B81820F911DA11D4E
:1012C000B11D8093650390936603A0936703B09369
:1012D000680381589145A140B04008F499C0C0927C
:1012E0006503D0926603E0926703F092680390C0B2
:1012F00086EB93E0BE010E94244E8AC0E091710308
:10130000F0917203309709F483C0809173039817AA
:1013100009F07EC0892FBE014B2D099579C00E942E
:10132000730782E045CF0634110588F18091E90307
:10133000833469F52091F4033091F5034091F6036D
:101340005091F70380916D0390916E03A0916F030C
:10135000B0917003281739074A075B07C1F4E0EE24
:10136000F4E0A8014A535C4FDF01119691819D0181
:101370002F5F3F4F8081853321F411968C9185300A
:10138000A9F1F901E90FF11DE417F50768F30E94CF
:101390000C4F2091690330916A0340916B03509187
:1013A0006C03205F384D4F4F5F4F261737074807B4
:1013B000590748F034C082EB93E00E942A4283E050
:1013C000809360032CC01092600329C086EA93E0EA
:1013D00060E074E00E94244E80E8C82E81E5D82E9B
:1013E00081E0E82EF12C0A531C4F29CF81E00E94A6
:1013F0007B0D0E945E4A6093610370936203809349
:101400006303909364038091B2038823C1F2D3CF26
:10141000CB0DD11DC017D10708F411CF80CFDF91BC
:10142000CF911F910F91FF90EF90DF90CF90BF90E1
:101430000895CF93DF9381E08093C2039091A50339
:10144000892F82958F708F5B809380019F709F5B47
:1014500090938101109260030E940C4FEB0104C035
:101460000E94DC0D0E94830880916003833061F04C
:101470000E940C4F6C1B7D0B6053754728F40E9433
:101480009D0D882389F3ECCF0E9440411092C50343
:101490001092C40390E080916003833009F491E0DE
:1014A000892FDF91CF910895FF920F931F93CF93D0
:1014B000DF938C01F62E0E940C4FEB010CC00E94B2
:1014C000DC0D0E9477440E940C4F6C1B7D0B605317
:1014D000754708F0EFC00E949D0D882381F30E949C
:1014E0000C4FEB010CC00E94DC0D0E9477440E945F
:1014F0000C4F6C1B7D0B6053754708F0DBC00E94DE
:101500003A41882381F71092BE031092BF031092D4
:10151000C0031092C103809176038F5F809376039E
:101520008091BA03882361F488E098E0A8E0B8E0ED
:101530008093BA039093BB03A093BC03B093BD0305
:101540008091760390E0906E6AEB73E045E350E0A3
:101550000E94C441E0EFF3E08CE0DF011D928A9528
:10156000E9F7DF011C9690E0FF2019F0F801808177
:1015700002C0F80184910F5F1F4F8E3241F0882323
:1015800031F09F5FFD01E90FF11D8083EDCFFD017B
:101590009193DF01A90FB11D882329F7FD01119255
:1015A00011961C92DF01119641E04183FD013196B5
:1015B00011961C92418386ED26EC33E0821B329615
:1015C0008E0F8093F003909176039093F1034093F4
:1015D000F2034093F50390E00E94AA430E940C4F4F
:1015E0008B0161C00E940C4F601B710B60537547EB
:1015F00008F060C00E94DC0DEC01009709F453C0B4
:101600000E947744892B09F04EC0C634D10508F4F6
:101610004AC08091E903853309F045C08091EA030F
:10162000803E09F040C09091EB03809176039817BB
:10163000D1F58091F1038917B1F58091F30390E022
:101640008F709070892BB1F58091F003E82FF0E056
:10165000E051FC4F9E012A533C4F8081807C39F041
:10166000329609C08081882311F4319604C03196E6
:10167000E217F307B8F3CF010E962817390798F051
:101680008181813051F48185843039F43A968EEB32
:1016900093E0BF010E94244E06C0818590E00A9627
:1016A000E80FF91FDACF8091BE03882309F49ACF9F
:1016B00081E001C080E0DF91CF911F910F91FF90F9
:1016C0000895482F6AE00E942B6D282F30E084E0B7
:1016D000220F331F8A95E1F7842F0E942B6D892FEB
:1016E000820F0895CF93DF93EC018091770390915F
:1016F00078038836910559F58CE19CE068E670E046
:101700000E940D548CE19CE060E00E948F5488811F
:101710000E94610B682F70E06F7770708CE19CE025
:101720000E948F5489810E94610B682F8CE19CE09C
:101730000E948F548A810E94610B682F8CE19CE08B
:101740000E948F548B810E94610B682F2DC08F36B1
:10175000910509F04AC08CE19CE06FE670E00E94C0
:101760000D548CE19CE060E00E948F5488810E94BF
:10177000610B682F60688CE19CE00E948F54898126
:101780000E94610B682F8CE19CE00E948F548A813B
:101790000E94610B682F8CE19CE00E948F548B812A
:1017A0000E94610B682F68608CE19CE00E948F545E
:1017B0008C810E94610B682F8CE19CE00E948F5409
:1017C0008D810E94610B682F8CE19CE00E948F54F8
:1017D0008E818E510E94610B682F8CE19CE00E94EB
:1017E0008F548CE19CE00E94D254DF91CF910895F8
:1017F00088E690E090937803809377038CE19CE0F7
:1018000068E670E00E940D548CE19CE060E00E946C
:101810008F548CE19CE00E94D2548823D9F08FE64B
:1018200090E090937803809377038CE19CE06FE6DF
:1018300070E00E940D548CE19CE060E00E948F54A7
:101840008CE19CE00E94D254882321F0109278030E
:101850001092770308951F93CF93DF93EC0160916B
:101860007703709178036115710509F46FC08CE1FD
:101870009CE00E940D548CE19CE060E00E948F543B
:101880008CE19CE00E94D2546091770370917803C0
:101890008CE19CE047E050E00E94E3548CE19CE046
:1018A0000E942054282F2F7722952F701AE0219F15
:1018B000900111248F70820F88838CE19CE00E943C
:1018C0002054282F22952F70219F900111248F7072
:1018D000820F89838CE19CE00E942054282F2F7373
:1018E00022952F70219F900111248F70820F8A837F
:1018F0008CE19CE00E94205487708B838CE19CE0FB
:101900000E942054282F22952F70219F900111248E
:101910008F70820F8C838CE19CE00E942054282FD2
:1019200022952F70219F900111248F70820F8D833B
:101930008CE19CE00E942054282F2F70225E82951B
:101940008F70819FC0011124280F2E83DF91CF91CA
:101950001F9108950F931F93DF93CF93CDB7DEB7F9
:1019600027970FB6F894DEBF0FBECDBF8E010F5F75
:101970001F4FA8010E940B48C8010E94720B2796B6
:101980000FB6F894DEBF0FBECDBFCF91DF911F9190
:101990000F9108950F931F93DF93CF93CDB7DEB7C9
:1019A00027970FB6F894DEBF0FBECDBF8E010F5F35
:1019B0001F4FC8010E942B0CC8010E945149279655
:1019C0000FB6F894DEBF0FBECDBFCF91DF911F9150
:1019D0000F9108958CE19CE00E94E7540895809156
:1019E0007C0361E00E94F74F78940895FF920F9373
:1019F0001F93082F162FF42EF89480917C0360E03B
:101A00000E94F74F1F71102B1EBD0DB407FEFDCFB6
:101A1000FEBC0DB407FEFDCF0E94EF0C1F910F918D
:101A2000FF9008951F93182F282F30E020763070F4
:101A300080917D0390E02817390799F080EA6FE1E3
:101A400043E00E94F60C412F407640937D0350E026
:101A500085E0559547958A95E1F780E86FE10E940A
:101A6000F60C1F9108950F931F93182F062F0E94B5
:101A7000120D80E4612F402F0E94F60C1F910F91F0
:101A800008950F931F93182F072F0E94330D812F56
:101A90008F5F602F0E94330D1F910F9108950F9358
:101AA0001F93182F062FF89480917C0360E00E940A
:101AB000F74F802F8F71812B8EBD0DB407FEFDCFA8
:101AC0001EBC0DB407FEFDCF07FF04C01EBC0DB445
:101AD00007FEFDCF1EB50E94EF0C812F1F910F91C5
:101AE00008951F93182F0E94120D80E0612F0E940D
:101AF0004F0D1F910895882311F410927B0380915C
:101B00007B03882341F488E30E94710D682F6E7F68
:101B100088E30E94330D08951F93182F88E30E94D5
:101B2000710D682F616088E30E94330D112319F451
:101B300081E080937B031F91089584ED61E10E9411
:101B4000330D82ED61E00E94330D8AEE0E94710D2B
:101B500080FDFBCF82ED60E00E94330D89ED0E9495
:101B6000710D90E09695879596958795817008956B
:101B70000F931F93CF93DF93EC018B01F894809127
:101B80007C0360E00E94F74F8AE38EBD0DB407FE30
:101B9000FDCF09C01EBC0DB407FEFDCF8EB5F80108
:101BA00081938F0121972097A9F70E94EF0CDF9175
:101BB000CF911F910F9108950F931F93DF93CF93B0
:101BC00000D000D000D0CDB7DEB789E30E94710D00
:101BD000882319F400E010E048C060917E03709102
:101BE0007F0380E00E94410D86E090E0BE016F5FC0
:101BF0007F4F0E94B80D89819A8190937F038093D3
:101C00007E032B813C81E0917903F0917A038D81F1
:101C100087FD03C000E010E00EC0245030408F016B
:101C2000015010402017310708F48901C80166EC03
:101C300073E00E94B80DF801EA53FC4F10826091E6
:101C40007E0370917F038CE06130780724F08CE094
:101C50006FEF7BE003C0615070408CE00E94410D4B
:101C600080E86EE140E40E94F60CC80126960FB6AB
:101C7000F894DEBF0FBECDBFCF91DF911F910F91C2
:101C800008950F931F93CF93DF938C01EB01F8948A
:101C900080917C0360E00E94F74F8AE78EBD0DB40F
:101CA00007FEFDCF08C088818EBD0DB407FEFDCFB5
:101CB00021960150104001151105A9F70E94EF0C63
:101CC000DF91CF911F910F910895CF93DF93EC0196
:101CD0008CE10E94710D81FF0FC080E86FE140E848
:101CE0000E94F60C80EA6FE140E80E94F60C80EA60
:101CF0006CE142E00E94F60C82E060E07CE00E9431
:101D0000410DBE016050744F86E00E94410D8AE78C
:101D100060E040E00E94F60CCE0166EC73E00E94A9
:101D2000410E80E86FE148E00E94F60CDF91CF9110
:101D3000089584E061E00E94B84F84E061E00E9471
:101D4000F74F85E061E00E94B84F87E061E00E94B4
:101D5000B84F86E060E00E94B84F85E061E00E94E5
:101D6000F74F85E060E00E94F74F87E060E00E9457
:101D7000F74F80E58CBD8DB581608DBD0895EF92E4
:101D8000FF920F931F93CF93DF93EB01142F909348
:101D90007A03809379030CB406FC02C00E94990E6A
:101DA00010937C03812F61E00E94B84F0E94EF0CDA
:101DB0008FEF60E04FEF0E94F60C62E070E080E091
:101DC00090E00E941A4F0E940C4F7B018C0180E32F
:101DD00095E7A0E0B0E0E80EF91E0A1F1B1F09C03E
:101DE0000E940C4FE616F7060807190710F480E06A
:101DF00084C080E06DE10E944F0D882389F310922A
:101E00007F0310927E0388E060E070E00E94410D45
:101E10008CE060E070E00E94410D8AE06FEF7BE0B3
:101E20000E94410D84E060E07CE00E94410D86E06C
:101E30006FEF71E10E94410D80E00E948C0D88E2FD
:101E40006FE370E30E94410D80E369EF77EF0E943A
:101E5000410D80EC6DE00E94330D81EC60E00E944A
:101E6000330D80E862EC42E30E94F60C86EC62E1FE
:101E70007CE00E94410D84EC62E10E94330D8AEC0B
:101E80006AEE75E00E94410D84EE68810E94330D78
:101E900085EE69810E94330D82EE6A810E94330DC6
:101EA00083EE6B810E94330D80EE6C810E94330DB6
:101EB00081EE6D810E94330D84ED60E10E94330D4F
:101EC00086ED60E071E00E94410D8AEE0E94710D86
:101ED00080FDFBCF8FE10E94120D80E86BE140ECAA
:101EE0000E94F60C80E86FE144E00E94F60C82E765
:101EF0000E94710D863008F08F5FDF91CF911F91A6
:101F00000F91FF90EF900895EF92FF920F931F9320
:101F1000CF93DF93FC01EB018A0179011092C20398
:101F2000009729F086EA93E0BF010E94244E209793
:101F300019F0CE010E942A420115110529F08AEB01
:101F400093E0B8010E94244EE114F10429F08AEADA
:101F500093E0B7010E94244E0E9440411092C503B5
:101F60001092C40381E0DF91CF911F910F91FF90F8
:101F7000EF900895AF92BF92CF92DF92FF920F93AE
:101F80001F93CF93DF938C01EB01F42E1092C203C9
:101F900038E341E050E060E070E018C0832F90E04B
:101FA000FC01B3E0F595E795BA95E1F7E058FC4FF1
:101FB000877090705A016B0104C0AA0CBB1CCC1C2A
:101FC000DD1C8A95D2F720812A292083315031F7F0
:101FD00080EA93E0BE010E941C4EC80160EA73E0F3
:101FE0004F2D0E94BF0EDF91CF911F910F91FF9057
:101FF000DF90CF90BF90AF900895CF92DF92EF9295
:10200000FF920F931F93DF93CF93CDB7DEB7EB848F
:10201000FC84CD84DE84DE011F9601C0D801F60168
:102020008491882309F4BCC00894C11CD11C84325B
:1020300009F099C0F6010894C11CD11C8491863422
:1020400009F45FC0873434F4843469F0853409F0CE
:102050008AC06EC08C34C9F1833509F445C0883418
:1020600009F081C00DC08D010E5F1F4FF701668121
:1020700077818D919C914AE050E00E9400077EC0DC
:102080002C91822F992787FD909514E0959587953F
:102090001A95E1F78F702F702A300CF0295F8A3083
:1020A0000CF0895F8D010E5F1F4FF701A681B7818C
:1020B000805DFD018193205D11962C933196D701AF
:1020C0001796FC93EE931697A9CF8D010C5F1F4FC7
:1020D0006D917D918D919C91F701468157812AE008
:1020E00030E00E943E074AC08D010E5F1F4F6D9188
:1020F0007C91D70116968D919C9117970E94A4060A
:102100003DC08D010E5F1F4F2D913C910AC0D7013C
:102110001696ED91FC91179781931796FC93EE9389
:102120001697F9012F5F3F4F8491882381F776CF6F
:102130008D010E5F1F4F2D913C910AC0D70116965D
:10214000ED91FC91179781931796FC93EE93169758
:10215000F999FECF32BD21BDF89A80B52F5F3F4F70
:10216000882361F75BCFF70126813781F9018193DD
:102170009F01F701378326838D0150CFD701169633
:102180008D919C911797FC0101900020E9F7319700
:10219000E81BF90B8E0F9F1FF701978386833ECFB5
:1021A000CF91DF911F910F91FF90EF90DF90CF9033
:1021B00008950F931F938C01FC01878160E00E94BA
:1021C000F74F81E090E00E94734FF801878161E052
:1021D0000E94F74F81E090E00E94734FF8018781E1
:1021E00060E00E94F74F84E690E00E94734F1F91D9
:1021F0000F910895CF92DF92EF92FF920F931F936A
:10220000CF93DF937C01FC0184818823F9F487015B
:10221000C0E0D0E0C62EDD24F801808561E00E9498
:10222000B84FB6010C2E02C0759567950A94E2F777
:102230006170F80180850E94F74F21960F5F1F4F54
:10224000C430D10549F7C7010E94D910DF91CF9161
:102250001F910F91FF90EF90DF90CF9008951F9303
:10226000CF93DF93EC01162F8C818823C1F48D81ED
:10227000642F0E94F74F8E818F3F19F060E00E941B
:10228000F74F612F70E084E0759567958A95E1F7C7
:10229000CE010E94FA10CE01612F0E94FA10DF9148
:1022A000CF911F91089541E00E942F1181E090E0AD
:1022B000089540E00E942F110895EF92FF920F932E
:1022C0001F93CF93DF938C017A016770660F660FBF
:1022D000660F60640E945911C0E0D0E0D801ED9112
:1022E000FC91D701AC0FBD1F0190F081E02DC8011A
:1022F0006C9109952196C830D10581F7DF91CF9176
:102300001F910F91FF90EF900895FC0161896E7FFE
:10231000618B68600E9459110895FC016189862FC4
:102320008460818B6C60CF010E9459110895DF9306
:10233000CF93CDB7DEB728970FB6F894DEBF0FBEA8
:10234000CDBF9C01FE013196A2E0B3E088E00D9084
:1023500001928150E1F7F9018481882329F484896D
:10236000481710F0482F4150E42FF0E0EE0FFF1F08
:10237000EC0FFD1F8181680F6068C9010E9459112F
:1023800028960FB6F894DEBF0FBECDBFCF91DF9178
:10239000089561E00E94591180ED97E00E94734F0B
:1023A0000895CF93DF93EC018C81882309F061C0FD
:1023B00088898860888B82E08C8B1D8A80E593EC0D
:1023C0000E94734F8D8160E00E94F74F8F8160E023
:1023D0000E94F74F8E818F3F19F060E00E94F74F07
:1023E000688964FD1DC0CE0163E00E94FA1084E993
:1023F00091E10E94734FCE0163E00E94FA1084E9DC
:1024000091E10E94734FCE0163E00E94FA1086E9C9
:1024100090E00E94734FCE0162E00E94FA1016C055
:102420006062CE010E94591184E991E10E94734FCC
:1024300068896062CE010E94591186E990E00E948D
:10244000734F68896062CE010E9459116889606289
:10245000CE010E94591184E0898BCE010E948D111A
:10246000CE010E94C91182E08A8BCE0166E00E94F3
:102470005911DF91CF9108956F927F928F92AF9211
:10248000CF92EF920F93DF93CF93CDB7DEB73C019E
:10249000FC01458326830783E086C186A286838666
:1024A0008C8584878D8585878E8586878F858787B0
:1024B0008CE19CE00E94E754F3011482858161E085
:1024C0000E94B84FF30186818F3F19F061E00E94AE
:1024D000B84FF301878161E00E94B84F88E0F301B3
:1024E000808BCF91DF910F91EF90CF90AF908F9035
:1024F0007F906F900895FC01A681B7816D93B7839B
:10250000A68381E090E008951F920F920FB60F927C
:1025100011242F933F934F935F936F937F938F93E8
:102520009F93AF93BF93EF93FF9380915B078F5F70
:1025300080935B0780915B07803128F0E091590719
:10254000F0915A070995FF91EF91BF91AF919F913B
:102550008F917F916F915F914F913F912F910F904C
:102560000FBE0F901F90189589E180931907109264
:102570001C071092300710923707109239071092FB
:102580005407109253078EE093E090935207809384
:10259000510708950E945A29AB01BC0190917F0711
:1025A00020E014C0A22FB0E0FD01E552F64F80817B
:1025B000882359F0AA0FBB1FAA0FBB1FA55EB64FF9
:1025C0004D935D936D937C9313972F5F291750F371
:1025D0000895EF92FF920F931F938091A601882395
:1025E00009F44FC08091760782958F7009F049C039
:1025F0008091750783FD45C08091B3079091B40722
:10260000A091B507B091B6070097A105B10599F063
:102610000E945A292091B3073091B4074091B50721
:102620005091B6072D573E4A4E4F5F4F261737073A
:102630004807590730F50E945A296093B3077093F1
:10264000B4078093B5079093B60780915C07882301
:1026500029F48CE790E061E00E946D200E94852EB5
:102660007B018C01611571058105910551F00E9476
:10267000314A8091750784FF04C0C801B7010E94E8
:10268000AA0C1F910F91FF90EF900895AF92BF9207
:10269000CF92DF92EF92FF920F931F938091750775
:1026A00083FD9AC08091760782958F7091E0E92E24
:1026B000F12C02C0EE0CFF1C8A95E2F70027F7FC14
:1026C0000095102F0E945E4A5B016C01C801B701A2
:1026D0002BE330E040E050E00E940C6D2091BF07FA
:1026E0003091C0074091C1075091C207260F371F94
:1026F000481F591F2A153B054C055D0508F06CC0A5
:102700000E945E4A6093BF077093C0078093C10721
:102710009093C20780915C07882359F481E498E084
:102720006FE041E00E94971181E498E064E00E942C
:10273000531182EB93E00E942A440E940C4F7B01CC
:102740008C010E94DC0D0E94774482EB93E00E9492
:10275000EC46882361F40E940C4F6E197F09800BB0
:10276000910B683C71058105910558F322C0809159
:1027700076078F7002C08F70806680937607809195
:10278000760782958F7090E08630910534F08091C5
:1027900075078064809375071FC00397ECF00E9453
:1027A0001A2A8823C9F0809176078F708093760764
:1027B00013C080917607282F22952F702F5F2F70DE
:1027C000922F9295907F8F70892B8093760730E0BF
:1027D0002730310584F6D3CF1F910F91FF90EF90F2
:1027E000DF90CF90BF90AF900895EF92FF920F933C
:1027F0001F938C0188E197E060E071E040E00E9467
:102800001E6226E3E22E28E0F22EC701B8010E94E4
:10281000A40608EC17E0C8016BE871E00E94A4066A
:10282000C801B7010E948E06C8016EE970E00E94DF
:102830005F061F910F91FF90EF900895CF93DF9364
:10284000EC0180917202882361F18091750785FF08
:1028500028C0CE0162E071E043E050E00E94AB0688
:10286000009771F488E197E06BE871E040E00E9426
:102870001E628823B1F087E397E00E94D05A11C00E
:10288000CE010E94F51388E197E068EC77E00E94A2
:102890001A62882331F088E197E068EC77E00E94C3
:1028A000F761DF91CF9108958F929F92AF92BF927F
:1028B000CF92DF92EF92FF920F931F93DF93CF930C
:1028C000CDB7DEB76E970FB6F894DEBF0FBECDBFA3
:1028D000E82E4A015B0180917202882309F416C137
:1028E000CB01BA0120E831E541E050E00E945E6D85
:1028F000CA01B90148EC57E02AE030E00E943E07E7
:1029000088EC97E00E94F5138091750785FFFEC063
:1029100088E197E060E071E040E00E941E6288E19B
:1029200097E06BE871E040E00E941E62882351F45A
:1029300088E197E06BE871E041E00E94FB61882349
:1029400009F4E4C01D821F821C821B8283E593E090
:102950009A8389838E010B5F1F4F48ECC42E47E09A
:10296000D42EC801B60142E40E946860F82E4F8957
:10297000588D698D7A8DC8010E94EF55FF2009F4AA
:10298000C5C0C6016CE970E00E946A06EE20D1F570
:10299000F60101900020E9F73197EC19FD09EC0DE3
:1029A000FD1D80910C0A90E0BF014AE050E00E94BA
:1029B0000007C6016AE970E00E945F06F601019017
:1029C0000020E9F73197EC19FD09EC0DFD1D809110
:1029D0000B0A90E0BF014AE050E00E940007C601E8
:1029E00068E970E00E945F06F60101900020E9F7B7
:1029F0003197EC19FD09EC0DFD1D80910D0A9091A8
:102A00000E0A5AC0C60164E970E00E945F06EE2D0E
:102A1000F0E0EE0FFF1FEE56FE4F60817181C601A0
:102A20000E948E06C60161E970E00E945F0622E006
:102A3000E216B9F033E0E31699F141E0E41609F04B
:102A400040C0F60101900020E9F73197E85CF740BB
:102A50008091AA079091AB07A091AC07B091AD0708
:102A60000FC0F60101900020E9F73197E85CF740CC
:102A70008091AE079091AF07A091B007B091B107D8
:102A8000A5019401281B390B4A0B5B0BCA01B90144
:102A9000E853F84FAF012AE030E00E943E0711C032
:102AA000F60101900020E9F73197E85CF740E85320
:102AB000F84F8091C70790E0BF014AE050E00E94C4
:102AC000000708EC17E0C8016FE870E00E945F069D
:102AD000F80101900020E9F73197E01BF10BE00FBE
:102AE000F11FC501B401AF012AE030E00E943E07AA
:102AF000C8016BE870E00E945F06CE010196B80144
:102B00000E94BF62CE0105960E9457586E960FB67E
:102B1000F894DEBF0FBECDBFCF91DF911F910F9113
:102B2000FF90EF90DF90CF90BF90AF909F908F90ED
:102B30000895CF92DF92EF92FF921F936B017C0179
:102B400080915D0790915E07A0915F07B09160074B
:102B50008C579C4FAF4FBF4F8C159D05AE05BF05E1
:102B600078F5C0925D07D0925E07E0925F07F09221
:102B700060072091C70730E040E050E01091610706
:102B8000612F70E080E090E00E940C6D20912402A3
:102B9000620F711D811D911D1F5F10936107212F11
:102BA00030E040E050E00E945E6D2093C707103691
:102BB00039F483E0B701A6010E9454141092610712
:102BC0001F91FF90EF90DF90CF9008950E94DD1E3F
:102BD0000E94CA270E94032B08952F923F924F9282
:102BE0005F926F927F928F929F92AF92BF92CF929D
:102BF000DF92EF92FF920F931F93DF93CF93CDB7A6
:102C0000DEB72C970FB6F894DEBF0FBECDBF7B01A9
:102C10008C014B015C010894811C911CA11CB11C0E
:102C2000809100020E94E14B6C012091130A3091C7
:102C3000140A4091150A5091160AE216F306040789
:102C4000150718F08501740109C07C010027F7FC05
:102C50000095102FE20EF31E041F151F40907F07F2
:102C600080917707282F30E03A8329838091780775
:102C7000282E332460917507669566956695617078
:102C8000552481E0682E712CC601AA2797FDA095D6
:102C9000BA2F8B839C83AD83BE8380C0E52DF0E08B
:102CA000A981BA81A615B70509F474C026143704A2
:102CB00009F470C0CF01880F991F880F991FABE1ED
:102CC000CA2EA9E0DA2EC80ED91ED6012D913D914B
:102CD0004D915C91211531054105510509F45AC00A
:102CE000DC01A55AB74FB887AF838D919D910D90A8
:102CF000BC91A02D0097A105B10509F04BC0DF01E3
:102D000073E0B695A7957A95E1F7752D7770FD017B
:102D1000E058F84F808190E0072E02C09595879586
:102D20000A94E2F780FD36C0AC55B84F8C9190E024
:102D300002C0959587957A95E2F780FF1AC0EF81DA
:102D4000F885E082F18202831383DA01C9018E0DD6
:102D50009F1DA01FB11FF60180839183A283B383BF
:102D6000EB80FC800D811E81E80EF91E0A1F1B1FDF
:102D700010C0AF81B8858D929D92AD92BC92139791
:102D8000280D391D4A1D5B1DF601208331834283C6
:102D9000538361E053940894611C711C541408F42B
:102DA0007DCF6170660F660F660F80917507877F14
:102DB000862B809375072C960FB6F894DEBF0FBE56
:102DC000CDBFCF91DF911F910F91FF90EF90DF90DA
:102DD000CF90BF90AF909F908F907F906F905F90BB
:102DE0004F903F902F900895AF92BF92CF92DF9275
:102DF000EF92FF920F931F93DF93CF93CDB7DEB780
:102E0000C754D0400FB6F894DEBF0FBECDBFE82E3A
:102E10000E94E6158E2D81508E3F28F4BE016F5F13
:102E20007F4F0E94FB2CDD24FF244EEFC42E3CE09C
:102E3000A32EB12CAC0EBD1E41C00F2D10E08FEFA4
:102E4000E81629F442E050E060E070E012C0EE20A5
:102E500009F440C0F501E00FF11F80810E94714B21
:102E60000E949E4BAB01BC014115510561057105E6
:102E700021F1F80123E0F695E7952A95E1F7E85668
:102E8000F84F808190E02F2D277002C0959587958F
:102E90002A95E2F780FD11C0F801EE0FFF1FEE0F3B
:102EA000FF1FE55EF64F40835183628373830552B3
:102EB000164FF801C082DD24D394F39480917F07EC
:102EC000F81608F4BACFDD2051F00E945A290E946A
:102ED000ED1505C04CE350E060E070E0CACFC95B7F
:102EE000DF4F0FB6F894DEBF0FBECDBFCF91DF919D
:102EF0001F910F91FF90EF90DF90CF90BF90AF9018
:102F00000895DF92EF92FF920F931F93CF93DF9379
:102F1000D82E7A018B01C82FD0E060E00E94B91E44
:102F2000FE01EE0FFF1FEE0FFF1FE55AF74F208146
:102F3000318142815381211531054105510509F443
:102F40005EC02E153F054007510708F042C0BE0184
:102F50006F5F7F4F8091770790E08617970711F199
:102F60008091780790E086179707E1F0D0920B0ADE
:102F7000FE01E552F64F808180930C0AC701821B47
:102F8000930B90930E0A80930D0AE0920F0AF09231
:102F9000100A0093110A1093120A80E0B801A701E9
:102FA0000E945414FE0163E0F695E7956A95E1F7F7
:102FB000E256F84F808190E02D2D277002C0959544
:102FC00087952A95E2F780FF04C08D2D60E00E946E
:102FD0006227FE01EE0FFF1FEE0FFF1FDF01A55A54
:102FE000B74F1D921D921D921C921397E55EF64FEE
:102FF0001082118212821382C552D64F1882DF913D
:10300000CF911F910F91FF90EF90DF9008954F9215
:103010005F926F927F928F929F92AF92BF92CF9268
:10302000DF92EF92FF920F931F93CF93DF935B0199
:103030006C019091750744244394492291FD0CC082
:1030400080911802882311F4FF2408C0F92EF69409
:10305000F69481E0F82211F0FF24F394EE2469C085
:103060008E2D90E0FC01E457F84F3081FC01E058D0
:10307000F84F20815E2C550C550C550C00E010E0EB
:10308000622E7724832E9924452D400FC42FD0E043
:103090009E012F5F3F4F8091770790E08217930743
:1030A00009F440C08091780790E082179307D1F12E
:1030B000FE01E552F64FE081E336A0F5442059F0D9
:1030C000FF2081F1C401002E02C0959587950A94D6
:1030D000E2F780FD27C0C301002E02C095958795B9
:1030E0000A94E2F780FF06C0842FB601A5010E9472
:1030F000811718C0EE23B1F0FE01EE0FFF1FEE0F97
:10310000FF1FDF01A55AB74F1D921D921D921C9201
:103110001397E55EF64F1082118212821382C55218
:10312000D64F18820F5F1F4F0830110509F0ACCF42
:10313000E39480917E07E81608F492CFDF91CF9157
:103140001F910F91FF90EF90DF90CF90BF90AF90C5
:103150009F908F907F906F905F904F900895809197
:10316000760782958F7009F04AC08091750783FDBC
:1031700046C00E945A292091BB073091BC0740915C
:10318000BD075091BE072115310541055105B9F024
:103190002F553E4A4E4F5F4F2617370748075907AE
:1031A00070F41092BB071092BC071092BD071092EA
:1031B000BE078091750780648093750708952091FC
:1031C000B7073091B8074091B9075091BA07211558
:1031D00031054105510549F02F5E314F4F4F5F4F8B
:1031E000261737074807590750F46093B7077093BD
:1031F000B8078093B9079093BA070E94BC4C089512
:1032000084B7877F84BF0E9445280E9441250E9481
:10321000D92A6CE370E080E090E00E94284A809117
:10322000750784FD03C080E090E002C08AEC9CE05A
:103230000E94D14A64EF71E080E090E00E941A4F52
:103240000E945A290E94942980916000886180938D
:10325000600081E2809360008091600080648093D0
:1032600060000E941A2A882321F0809176078F70CF
:1032700004C0809176078F7080618093760764EF39
:1032800071E080E090E00E941A4F0E94CA278FE010
:103290008093B2070895FF920F931F93DF93CF930C
:1032A000CDB7DEB7C754D0400FB6F894DEBF0FBE1F
:1032B000CDBF8091B207882321F40E94F51E1092A1
:1032C0005C0782E00E94611FF82E082F10E086FF45
:1032D0000FC18FE08093B20781E00E94F51E8091BC
:1032E0005C07833020F4813008F0BEC004C0833016
:1032F00009F0FEC0ADC0C8018F709070823091059A
:1033000009F449C08430910509F483C0019709F09C
:10331000EFC0F7FE1FC08DE10E944B50892B21F4B6
:103320008FEF0E94F416E4C08EE10E944B50892B6F
:1033300071F482EB93E060E00E94782281E498E0EF
:1033400060E041E00E94971180E091E01EC00E9481
:10335000CA12CEC086EA93E060E00E94782281E43F
:1033600098E060E041E00E9497118EEF90E00E94AB
:103370001B206091890170918A0181E498E04AE004
:1033800050E00E94A65386EF90E00E941B2081E04F
:1033900080935C07ADC0F7FE32C08FE10E944B50B6
:1033A000892B71F483EC97E061E00E94782281E43C
:1033B00098E060E041E00E94971180EF90E0E5CF57
:1033C0008DE10E944B50892BB9F481E498E00E9472
:1033D000C9116091BB077091BC078091BD079091A6
:1033E000BE070E94942981E498E060E041E00E94D9
:1033F000971189EE90E0C9CF0E94911E79C081E4B7
:1034000098E00E94C91180EA93E00E942B2082E09C
:10341000BFCFF7FE0CC08AED90E060E00E946D2007
:1034200089EC90E061E00E946D2083E0B1CF2091B3
:103430007607822F8F7090E060917E07019670E092
:103440000E944B6D8F70207F282B2093760750C0F1
:103450000F7010700430110509F04AC0F7FE07C064
:1034600080916C070E94F41610925C0741C0809115
:103470006C0790E060915A0870E06F5F7F4F019693
:103480000E944B6D80936C0788EB90E060E00E9497
:103490006D2080916C07882331F18150BE016F5FF0
:1034A0007F4F0E94FB2C86EB90E061E00E946D2034
:1034B00081E498E060E041E00E94971160916C0720
:1034C00081E498E070E04AE050E00E94F75383EB1B
:1034D00090E00E941B2081E498E0BE01645C7F4F75
:1034E0000E940A5405C083EA90E061E00E946D20CA
:1034F000C95BDF4F0FB6F894DEBF0FBECDBFCF91D3
:10350000DF911F910F91FF9008952F923F924F925C
:103510005F926F927F928F929F92AF92BF92CF9263
:10352000DF92EF92FF920F931F93DF93CF93CDB76C
:10353000DEB7C854D0400FB6F894DEBF0FBECDBF83
:1035400080910602809377078091780280937807B4
:103550000E945A294B015C010E94DC0D0E947744B5
:103560009093630780936207009721F08A539C4FE2
:103570000E947738A89510925B070E944B198091A2
:10358000680790916907A0916A07B0916B07881549
:103590009905AA05BB0509F495C380926807909226
:1035A0006907A0926A07B0926B078091B2078823DF
:1035B00019F081508093B20780915C07882321F431
:1035C0000E945A290E9494298091750781FF10C09A
:1035D0008091710790917207A0917307B091740761
:1035E00088169906AA06BB0690F00E94C4230FC055
:1035F0008091710790917207A0917307B091740741
:1036000088169906AA06BB0610F40E94D4230E94CD
:10361000AA1F90917507969591708091790786956C
:1036200081708917C9F0992349F08092AE07909272
:10363000AF07A092B007B092B10705C082E0B50114
:10364000A4010E945414909175079270809179079B
:103650008D7F892B80937907909175079695969524
:103660009170809179078695869581708917C9F048
:10367000992349F08092AA079092AB07A092AC07D9
:10368000B092AD0705C081E0B501A4010E945414B9
:10369000909175079470809179078B7F892B809327
:1036A0007907C501B4012CE330E040E050E00E940E
:1036B0005E6D79018A018091640790916507A09100
:1036C0006607B0916707E816F9060A071B0709F4B1
:1036D000C5C0E0926407F0926507009366071093F7
:1036E0006707552444241E010894211C311CABC0DB
:1036F000852DB1010E94FB2CC101B501A4010E94DE
:103700000B2C882309F49EC000E0852D8F5F29963D
:103710008FAF299792C0602E772493012F5F3F4F80
:103720008091770790E08217930709F485C0809114
:10373000780790E08217930709F47EC0D30113E065
:10374000B695A7951A95E1F7202F2770FD01E0584F
:10375000F84F808190E0022E02C0959587950A94DB
:10376000E2F780FD69C0A856B84F8C9190E002C086
:10377000959587952A95E2F780FD5EC0ECE0F0E034
:10378000EC0FFD1FE60DF71D2081222309F454C024
:10379000F301EE0FFF1FEE0FFF1FE55EF64F808176
:1037A0009181A281B3810097A105B10509F044C0C0
:1037B000822F0E94714B0E949E4B6B017C0189817C
:1037C00081FF1FC010912402212F30E040E050E023
:1037D000C701B6010E940C6D24E630E040E050E0E5
:1037E0000E945E6DC901DA016C017D01143148F45B
:1037F0009AE0C916D104E104F10418F4CC24DD24C4
:103800007601F301EE0FFF1FEE0FFF1FE55EF64F8F
:10381000C082D182E282F382C114D104E104F104B6
:1038200059F0EBEDF9E06E0E7F1E29968FAD2997CA
:10383000F3018083442443940F5F80917F0708172E
:1038400008F469CF539480915A08581608F450CF61
:10385000442021F0C501B4010E94ED158091750747
:1038600083FFF7C0772486C0872D90E0FC01E058E5
:10387000F84F2081672C660C660C660CEE24FF2442
:10388000222E33246EE9462E67E0562E480E591E2E
:10389000D62CDE0C0D2D10E098012F5F3F4F80914C
:1038A000770790E08217930709F45BC0809178074F
:1038B00090E08217930709F454C0F801E552F64FDF
:1038C00080818823A9F0F801EE0FFF1FEE0FFF1F84
:1038D000E55EF64F80819181A281B38188169906B9
:1038E000AA06BB0628F08D2DB501A4010E94811700
:1038F000C1010E2C02C0959587950A94E2F780FDD0
:1039000030C09801220F331F220F331FF901E55AEF
:10391000F74F80819181A281B38188169906AA060A
:10392000BB06F8F0255E364FF90180819181A281B6
:10393000B38188169906AA06BB0698F48D2D61E01E
:103940000E94B91EF201808190E00E2C02C0959574
:1039500087950A94E2F780FF04C08D2D61E00E94F4
:1039600062270894E11CF11CF8E0EF16F10409F05D
:103970008FCF739480917E07781608F475CFC501B8
:10398000B4010E9407180E94CA271092130A1092CD
:10399000140A1092150A1092160A70917F0760E0BF
:1039A00080E03FC0A62FB0E0FD01EE0FFF1FEE0F3D
:1039B000FF1FE55EF64FE080F180028113818E14D7
:1039C0009F04A006B10660F523E0B695A7952A9559
:1039D000E1F7AC55B84F8C9190E0262F277002C0CC
:1039E000959587952A95E2F780FF19C02091130AD3
:1039F0003091140A4091150A5091160AD801C70156
:103A0000E216F3060407150710F4DA01C9018093E2
:103A1000130A9093140AA093150AB093160A81E032
:103A20006F5F671708F4BECF882399F40E94DD1EEC
:103A30000E94CA270E94032B80917507877F80937D
:103A400075078091060280937707809178028093B2
:103A50007807D0907707DD2009F470C080910C02C0
:103A600090911202C0907F07FF2401E010E02D2CFE
:103A70003324482E552466247724492F50E060E0F3
:103A800070E04C5350406040704050C02F2D30E0EB
:103A90002016310609F447C0D90193E0B695A795E1
:103AA0009A95E1F787E0E82EEF20FD01E058F84F06
:103AB000808190E00E2C02C0959587950A94E2F7DC
:103AC00080FF31C0AA57B84F8C9190E002C0959505
:103AD0008795EA94E2F780FF26C0220F331F220F5A
:103AE000331FF901E55AF74F80819181A281B3819B
:103AF000840D951DA61DB71D88169906AA06BB063E
:103B000090F0255E364FF90180819181A281B381C9
:103B1000840F951FA61FB71F88159905AA05BB0519
:103B200010F061E007C0F3940F5F1F4FFC1408F41E
:103B3000ADCF60E08D2D81500E94B91ED0907807E6
:103B4000DD2009F470C080917E0290918402C090C3
:103B50007F07FF2401E010E02D2C3324482E55244C
:103B600066247724492F50E060E070E04C535040C9
:103B70006040704050C02F2D30E02016310609F40F
:103B800047C0D901E3E0B695A795EA95E1F797E03C
:103B9000E92EEF20FD01E058F84F808190E00E2CD7
:103BA00002C0959587950A94E2F780FF31C0AE5622
:103BB000B84F8C9190E002C095958795EA94E2F712
:103BC00080FF26C0220F331F220F331FF901E55A51
:103BD000F74F80819181A281B381840D951DA61D2F
:103BE000B71D88169906AA06BB0690F0255E364FCB
:103BF000F90180819181A281B381840F951FA61F55
:103C0000B71F88159905AA05BB0510F061E007C02C
:103C1000F3940F5F1F4FFC1408F4ADCF60E08D2DBF
:103C200081500E94B91EC501B4010E9407180E946C
:103C3000CA2780915C07882389F4C501B40123E079
:103C400030E040E050E00E945E6D9B01AC012E5ED2
:103C50003C4F81E0F90160810E94DE21809175076F
:103C600086FF22C083FD20C010E03E010894611C45
:103C7000711CBCE3CB2ED12CE12CF12CC80CD91C2F
:103C8000EA1CFB1C0CC0812FB3010E94FB2CC3015A
:103C9000B701A6010E940B2C882331F41F5F80918D
:103CA0005A08181780F30BC00E94E9120E944613AD
:103CB0000E94AF18C501B4010E94991503C00E946B
:103CC000911EF2CFC85BDF4F0FB6F894DEBF0FBE78
:103CD000CDBFCF91DF911F910F91FF90EF90DF90BB
:103CE000CF90BF90AF909F908F907F906F905F909C
:103CF0004F903F902F9008959C01F999FECF32BDCF
:103D000021BDF89A80B508959C01F999FECF1FBA9C
:103D100032BD21BD60BD0FB6F894FA9AF99A0FBE74
:103D20000895E0915708F091580809950895FC010D
:103D300024EF33E084E02431380711F440E009C077
:103D4000F999FECFC901019632BD21BDF89A40B55F
:103D50009C019081442331F0992349F0491739F4AB
:103D60003196E8CF80E0992319F481E0089580E04E
:103D70000895282F277086958695869590E066236E
:103D800069F0FC01E058F84F81E090E002C0880F34
:103D9000991F2A95E2F72081282B0DC0FC01E058DD
:103DA000F84F81E090E002C0880F991F2A95E2F752
:103DB00080952081282320830895109280071092F7
:103DC0008107109282071092830710928407109245
:103DD0008507089510924408109243088EEF92E0F0
:103DE000909342088093410808951F93182F809163
:103DF0004508882391F48CE061E00E94B84F1123BC
:103E000019F08091420202C0809148026FEF70E089
:103E1000681B71098CE00E94584E1F910895809193
:103E20004508882351F48DE061E00E94B84F60910D
:103E30003C028DE070E00E94584E0895EF92FF9290
:103E40000F931F93CF93DF93E82E162F042FF22E9C
:103E5000662321F0623081F4222371F08E2D0E94BE
:103E60004B50892B11F000E024C0FF2011F480E0BA
:103E700001C080E8082B1DC0C0E0D0E08E2D0E945C
:103E80004B50892B81F4113031F0123061F483E012
:103E9000C83ED80744F461E070E080E090E00E9402
:103EA0001A4F2196EBCFFF2019F4C85ED3400CF0D7
:103EB0000068802FDF91CF911F910F91FF90EF90BD
:103EC00008950F931F93082F10915908107861E0FF
:103ED00070E080E090E00E941A4F8FE10E944B500A
:103EE000892B21F48FE1602F41E013C08EE10E9405
:103EF0004B50892B21F48EE1602F42E00AC08DE106
:103F00000E944B50892B11F040E007C08DE1602FDB
:103F100044E0212F0E941E1F482F8091590890E0F5
:103F20008F709070242F30E0892B39F42F7030700F
:103F3000232B71F0842F806406C02F703070232BE8
:103F400039F4842F8062409359081F910F9108958E
:103F5000842FF9CF8BE00E944B5040E020911E024D
:103F600030E08217930709F041E0440F440F80913D
:103F700075078B7F842B8093750708951F93182FE7
:103F8000843690F064E60E942B6D682F81E498E0FF
:103F900070E04AE050E00E94F75381E498E060E16D
:103FA00071E00E940A5402C08A30A0F0812F6AE0BA
:103FB0000E942B6D0E942B6D692F81E498E070E0C8
:103FC0004AE050E00E94F75381E498E060E171E03C
:103FD0000E940A54812F6AE00E942B6D692F81E4B0
:103FE00098E070E04AE050E00E94F7531F91089576
:103FF000EF92FF920F931F938C0181E4E82E88E0EB
:10400000F82EC8016AE070E00E944B6DC7014AE0DB
:1040100050E00E94F753C8016AE070E00E944B6DC7
:10402000BC01C7014AE050E00E94F7531F910F9175
:10403000FF90EF900895CF93DF93EC0104C081E4EB
:1040400098E00E941753FE01219664916623B9F708
:10405000DF91CF9108950F931F93CF93DF93182F84
:10406000092F81E498E060E040E00E949711212F41
:10407000302FC901EC0110E005C083E591E00E94FA
:104080001B202196688170E094E0759567959A955C
:10409000E1F781E498E040E150E00E94F753688145
:1040A00070E06F70707081E498E040E150E00E9431
:1040B000F753143031F481E498E060E041E00E946D
:1040C00097111F5F1630C9F68CE491E00E941B2007
:1040D000DF91CF911F910F9108950F931F93CF936D
:1040E000DF938C01462F81E498E060E00E949711F5
:1040F000E80104C081E498E00E9417539E01201B50
:10410000822FFE01219664916623A1F7992787FDEE
:104110009095C0E1D0E0C81BD90B05C080E691E0C6
:104120000E941B202197D7FFF9CFDF91CF911F91DC
:104130000F9108950F931F93CF93DF938C01FC0190
:10414000EE0FFF1FE80FF91FEE0FFF1FE456FE4FA3
:104150008081918160E00E946D2082E391E061E0C6
:104160000E946D2081E498E060E041E00E94971198
:104170000331110509F48BC004311105BCF40C3076
:10418000110509F4B3C00D30110544F401151105F2
:1041900081F10130110509F0D7C038C00E3011058A
:1041A00011F10131110509F0CFC0AEC00C3111057C
:1041B00009F4B7C00D3111054CF40431110509F4AF
:1041C00075C00B31110509F0BFC0A6C0063211053C
:1041D00009F45DC00732110509F468C00E311105FC
:1041E00009F0B2C0ABC081E498E062E171E00E94E6
:1041F0000A54F801EE0FFF1FE00FF11FEE0FFF1F33
:10420000E656FE4F80810E94BE1FBCC08091A00177
:10421000C82FD0E0E097D7FD05C080E391E00E9471
:104220001B2007C08EE291E00E941B20D095C19513
:10423000DF4FCE0164E070E00E944B6D81E498E0B6
:104240004AE050E00E94F7538CE291E00E941B206C
:10425000CE0164E070E00E944B6D9C01BC0184E0E3
:10426000660F771F8A95E1F7621B730B29F489E2C9
:1042700091E00E941B2006C081E498E04AE050E0F3
:104280000E94F75384E291E00E941B2081C082E2E9
:1042900091E00E941B20F801EE0FFF1FE00FF11FBD
:1042A000EE0FFF1FE656FE4F608165C0F801EE0F6E
:1042B000FF1FE00FF11FEE0FFF1FE656FE4F80813C
:1042C0008C3320F080E291E00E941B20F801EE0F79
:1042D000FF1FE00FF11FEE0FFF1FE656FE4F60813C
:1042E00070E06C53704081E498E048C07091E80140
:1042F00060E08091E201680F711D81E498E04AE07E
:1043000050E00E94A65344C0809100020E94E14BFD
:10431000BC0181E498E00DC00E940F1F60913C0237
:1043200005C081E00E94F51E6091420281E498E0A0
:1043300070E04AE050E00E94F7532AC081E498E020
:104340006DE20E94175324C0F801EE0FFF1FE00F2B
:10435000F11FEE0FFF1FE656FE4F81816081813015
:1043600051F4662319F489E191E002C08CE191E0F7
:104370000E941B2007C081E498E070E04AE050E012
:104380000E94F7530731110519F487E191E00FC03E
:10439000C8014397029748F00632110531F0073201
:1043A000110519F00131110521F482E191E00E941B
:1043B0001B20DF91CF911F910F910895FF920F93D2
:1043C0001F93482FF62E81E498E060E00E94971139
:1043D000809176078F7019F488E491E010C086E42C
:1043E00091E00E941B20609176076F7081E498E055
:1043F00070E04AE050E00E94F75384E491E00E94AC
:104400001B208091750780FD06C088E391E061E084
:104410000E946D202EC0E0917607EF70F0E0E0582A
:10442000F84F008110E0909176079F70990F990FD7
:10443000990F9F5F910F80910602981721F400FD5C
:104440000EC06DE40DC080917802981721F400FD34
:1044500006C06EE405C000FD02C06FE501C06F2D0F
:1044600081E498E00E9417531F5F183011F0069501
:10447000DACF83E391E00E941B2081E498E06DE0B5
:1044800041E00E9497118091750781FD06C082FF6F
:1044900009C080911802882329F081E498E063E044
:1044A0000E94531181E498E06EE041E00E94971170
:1044B0008091750785FF05C081E498E062E00E9465
:1044C000531181E498E06FE041E00E94971160E0B1
:1044D0008091760782958F7090E003970CF061E0F1
:1044E00081E498E00E9453111F910F91FF9008956D
:1044F000DF92EF92FF920F931F93CF93DF937C0194
:10450000D62E81E498E00E94C91181E498E060E031
:1045100040E00E9497118701C0E0D0E0DD2019F053
:10452000F801638104C0F701EC0FFD1F608181E495
:1045300098E070E04AE050E00E94F753C33021F069
:1045400085E591E00E941B20219601501040C43067
:10455000D10521F7DF91CF911F910F91FF90EF903F
:10456000DF900895E0E9F2E0A1EFB7E080818C935D
:104570003697119781E0E439F807C1F782EC97E0AC
:1045800068EC77E04AE250E024E83EE10E94E4066D
:104590008091F4018F5F80937E0790E053E0880F55
:1045A000991F5A95E1F780937F0790912A029170A5
:1045B000809175078E7F892B8093750708950F93DF
:1045C0001F93CF93DF93EC010AEA82E00E94611F00
:1045D000482F50E09A012F7030702230310561F180
:1045E0002430310509F44BC02130310509F099C060
:1045F000209709F499C0CE30D10509F495C0C8328E
:10460000D10509F491C0CC30D10509F48DC0CD306D
:10461000D10509F489C0FE01EE0FFF1FEC0FFD1F4D
:10462000EE0FFF1FE656FE4F90818181891709F436
:104630007BC09F5F908378C0209709F472C0CE3012
:10464000D10509F46EC0C832D10509F46AC0CC3076
:10465000D10509F466C0CD30D10509F462C0FE0170
:10466000EE0FFF1FEC0FFD1FEE0FFF1FE656FE4F74
:104670009081992309F455C09150908352C086FFD0
:1046800050C087FF0AC080919002882311F00093E8
:1046900090020E94B22211E048C0C330D10539F423
:1046A0008091AC01882339F1CCE0D0E02BC0CC3034
:1046B000D10519F4CEE0D0E025C0C531D10539F4DB
:1046C000809118028823B9F4C7E1D0E01BC0C23141
:1046D000D10539F480910602882369F4C5E1D0E060
:1046E00011C0C532D10539F480917802882319F4BC
:1046F000C8E2D0E007C0CE0101966AE270E00E94F5
:104700004B6DEC01FE01EE0FFF1FEC0FFD1FEE0FD6
:10471000FF1FE656FE4F84819581892B29F421964F
:1047200003C0882309F451CF10E0CE010E949A20E3
:10473000112309F44ACF81E498E00E948511DF91AA
:10474000CF911F910F910895809175078E7F80936F
:10475000750710922A020E94B2220895809175076F
:1047600081608093750781E080932A020E94B222C3
:1047700008958CEE93E06DE677E048E050E024E8A1
:104780003EE10E94E4060895809175078D7F809335
:1047900075071092710710927207109273071092AA
:1047A00074070E94B92308958091750782608093F1
:1047B00075070E94B923089546E050E024E83EE1E1
:1047C0000E94E4060895FB01108A90E024E0880F1F
:1047D000991F2A95E1F78C559B4F40E150E024E862
:1047E0003EE10E94E406089588EC97E062EC77E0F1
:1047F0004AE250E02CE73EE10E94C806A8ECB7E090
:10480000EAE9F1E08D918083369687E0A23FB80710
:10481000C9F78091F4018F5F80937E0790E033E0C9
:10482000880F991F3A95E1F780937F0790912A02AC
:104830009170809175078E7F892B8093750781E039
:1048400080938A0208958DE697E06CEE73E048E06D
:1048500050E02CE73EE10E94C806809175079091D8
:104860007607A0917707B0917807809379079093A6
:104870007A07A0937B07B0937C0708959C01CB0136
:10488000B90146E050E02CE73EE10E94C8060895D9
:10489000FB01108A682F70E044E0660F771F4A958D
:1048A000E1F76C557B4FCF0140E150E02CE73EE152
:1048B0000E94C8060895DF92EF92FF920F931F9314
:1048C0009C01D62E88EC97E0B9014D2D50E02CE7E5
:1048D0003EE10E94C806E8ECF7E020E030E040E06E
:1048E00050E060E038C0908179018A0154E0EE0C1C
:1048F000FF1C001F111F5A95D1F7892F80538A3052
:1049000030F4892F992787FD9095C09719C0892F7A
:104910008154863030F4892F992787FD9095C79769
:104920000FC0892F8156863028F020E030E040E02B
:1049300050E013C0892F992787FD909587559040A7
:104940009C01442737FD4095542F2E0D3F1D401FDD
:10495000511F6F5F31966D1530F2B901CA011F9179
:104960000F91FF90EF90DF900895EF92FF920F93D9
:104970001F93CF93DF938B017A01C82FD0E064E0BF
:10498000CC0FDD1F6A95E1F7CC55DB4FCE0166E019
:104990000E945B24611571058105910521F10115C6
:1049A000110529F0F8016083718382839383CE011E
:1049B000069666E00E945B246115710581059105EC
:1049C00091F0E114F10429F0F7016083718382838F
:1049D0009383CE010C9664E00E945B2461157105FF
:1049E0008105910511F460E070E0CB01DF91CF917A
:1049F0001F910F91FF90EF900895AF92BF92DF92B9
:104A0000EF92FF920F931F93CF93DF930EE917E07E
:104A1000EE24FF2471E0A72EB12CF8011082DE2CC9
:104A2000DD0CDD0CDD0CC0E0D0E08D2D8C2B60E0CA
:104A300070E040E050E00E94B524892B59F09501C8
:104A40000C2E02C0220F331F0A94E2F7F801808176
:104A5000822B80832196C830D10539F70894E11C58
:104A6000F11C0F5F1F4FF6E0EF16F104B1F6DF9176
:104A7000CF911F910F91FF90EF90DF90BF90AF907B
:104A80000895EF92FF920F931F93CF93DF9364EFFC
:104A900071E080E090E00E941A4FF999FECF82EC1D
:104AA00097E092BD81BDF89A80B5873D59F4F99998
:104AB000FECF8BEE97E092BD81BDF89A80B58A3A21
:104AC00009F0B8C082EC91E060E00E946D2083EBB9
:104AD00091E061E00E946D20E8ECF7E0119288E03F
:104AE000E034F807D9F7C0E0D0E000E018E0A80112
:104AF0004C1B5D0B4937510514F048E750E0CE01DF
:104B000068EC77E024E83EE10E94E406C858DF4FF5
:104B100088E0C037D80759F70E94B92384EF93E0A3
:104B200064E171E049E050E024E83EE10E94E406DF
:104B300084E194E06DE171E04AE050E024E83EE178
:104B40000E94E40684E494E067E271E040E250E011
:104B500024E83EE10E94E40684E894E067E471E022
:104B600041E050E024E83EE10E94E40683E58093C2
:104B7000C8071092CB0704EA14E0C1E0D0E0E8ECEB
:104B8000EE2EE7E0FE2ECE016AE070E00E944B6D53
:104B9000605D6093C907CE016AE070E00E944B6DD2
:104BA000805D8093CA07F70101900020E9F7E85C77
:104BB000F740C80168EC77E0AF0124E83EE10E94CD
:104BC000E406005F1F4F219687E0043A1807D9F6E4
:104BD0008FEF8093C8078093C9078093CA0780939B
:104BE000CB078093CC078093CD0784EA97E068ECED
:104BF00077E046E050E024E83EE10E94E4068CEBDA
:104C000097E068EC77E046E050E024E83EE10E945F
:104C1000E4060E94B22287E091E00E94F64B64EF26
:104C200071E080E090E00E941A4FE0915708F09107
:104C3000580809950E94F42384EA97E066E877E033
:104C40000E943E248AEA97E06CE877E00E943E24C6
:104C500080EB97E062E977E00E943E2486EB97E0E4
:104C600068E977E00E943E248CEB97E064EA77E005
:104C70000E943E240E94FD240E94232480E00E9482
:104C8000611F182F90E08F7090708130910519F09E
:104C9000049781F503C089E290E021C083EA91E0A6
:104CA00060E00E946D2060ED77E080E090E00E947F
:104CB0001A4F82E991E060E00E946D2082E891E065
:104CC00061E00E946D2080E00E94611F182F86FF26
:104CD000FACF81E498E00E94C91180E090E00E9440
:104CE000DF2280919002882329F0E0915708F0910B
:104CF0005808099581E00E94F51E0E940F1F11239C
:104D000009F040C083E791E060E00E946D2081E4FB
:104D100098E062E041E00E9497118EE691E00E94E7
:104D20001B201091EE01812F6AE00E942B6D682FED
:104D3000605D81E498E00E94175381E498E06EE2A0
:104D40000E941753812F6AE00E942B6D692F605DCE
:104D500081E498E00E94175380917D078A3129F001
:104D60008C3D31F48AE691E005C086E691E002C010
:104D700082E691E00E941B2068EE73E080E090E004
:104D80000E941A4FDF91CF911F910F91FF90EF90EA
:104D90000895EF92FF920F931F93DC01CB017901ED
:104DA0008A01139A0E94734F1398C7010E94734F90
:104DB0001F910F91FF90EF9008952F923F924F9285
:104DC0005F926F927F928F929F92AF92BF92CF929B
:104DD000DF92EF92FF920F931F93DF93CF9300D058
:104DE0000F92CDB7DEB74B015C0179018A01DA0180
:104DF000C901880F991FAA1FBB1F8E0D9F1DA01FE1
:104E0000B11F582E692E7A2ECB2ED801C701F5E09E
:104E1000880F991FAA1FBB1FFA95D1F78E199F09FA
:104E2000A00BB10B8983292E3A2E4B2EDD242FC0E7
:104E3000D501C4010A8004C0B695A79597958795BA
:104E40000A94D2F780FF07C0652D762D872D9C2D03
:104E5000A801970106C0C801B701252D362D472DA1
:104E60005C2D0E94C9268A819B8101979B838A833E
:104E70008F5F9F4FE9F6C801B7012981322D432D7D
:104E8000542D0E94C926D394F8E1DF1629F087E15A
:104E900090E09B838A83CCCF0F900F900F90CF919F
:104EA000DF911F910F91FF90EF90DF90CF90BF9017
:104EB000AF909F908F907F906F905F904F903F90BA
:104EC0002F9008951F93DF93CF93CDB7DEB7289728
:104ED0000FB6F894DEBF0FBECDBF162FBE016F5FB9
:104EE0007F4FAE014B5F5F4F0E94B524AC01112391
:104EF00029F069817A818B819C8104C06D817E81DA
:104F00008F8198859A0136952795569547955695A0
:104F10004795240F351F40E050E00E94DD2628967B
:104F20000FB6F894DEBF0FBECDBFCF91DF911F91BA
:104F3000089584E00E94364E9C0183E02E3B3807A2
:104F400018F020E030E024C083E02734380718F060
:104F500021E030E01DC082E02B3E380718F022E04F
:104F600030E016C082E0223A380718F023E030E043
:104F70000FC082E02536380718F024E030E008C082
:104F80002353324018F025E030E002C02FEF3FEF0E
:104F9000C9010895EF92FF920F931F93CF93DF9370
:104FA00083E060E00E94F74F05E817E08091750705
:104FB00080FD02C060E002C0F8016081C7E0D0E07F
:104FC000E62EFF2486E160E00E94F74FB7010C2E29
:104FD00002C0759567950A94E2F7617085E10E94B9
:104FE000F74F86E161E00E94F74F2197FFEFCF3F37
:104FF000DF0741F70150104087E00F371807B1F67F
:1050000083E061E00E94F74FDF91CF911F910F91F4
:10501000FF90EF9008958F92AF92CF92EF920F93FF
:1050200000D000D0EDB7FEB73196ADB7BEB7119640
:105030001C9211821282138281E498E061E043E1C4
:105040002FEF02E154E1E52E35E1C32EB6E1AB2EA0
:10505000A7E18A2E0E943C120F900F900F900F90A4
:1050600081E498E00E94D11180914508882339F4A9
:1050700081E0809381000E94F51E0E940F1F0F9116
:10508000EF90CF90AF908F900895CF92DF92EF92F4
:10509000FF920F931F93DF93CF93CDB7DEB728977F
:1050A0000FB6F894DEBF0FBECDBF81E061E00E9475
:1050B000B84F81E061E00E94F74F83E061E00E9419
:1050C000B84F83E061E00E94F74F86E161E00E9403
:1050D000B84F85E161E00E94B84F109280071092AE
:1050E0008107109282071092830710928407109212
:1050F00085070E94CA2781E060E00E94F74F8BE09D
:1051000060E00E94B84F8BE061E00E94F74F809111
:10511000750781608F7B80937507809175079091EB
:105120007607A0917707B0917807809379079093DD
:105130007A07A0937B07B0937C0788E691E0909371
:105140006E0780936D0788E394E0909370078093D7
:105150006F07FF24F394F0927E07F8E0CF2EC09201
:105160007F078CE161E00E94B84F8CE160E00E9413
:10517000F74F8CEA80937D078CE19CE00E94E75416
:105180000E940B28198284E18A83CB82E5E1EE2E0E
:10519000EC82FD8275E0D72EDE82DF82E88681E434
:1051A00098E061E08E010F5F1F4FA8010E945D1122
:1051B0001A821B82FC8281E498E060E0A8010E94D0
:1051C0005D1119821A826FE1F62EFB8281E18C83D8
:1051D000FD828E8383E18F838EE1888781E498E06E
:1051E00062E0A8010E945D1119821A8286E08B8319
:1051F00089E08C83FD821E82EF82E88681E498E05C
:1052000063E0A8010E945D1119821A8287E08B83F6
:1052100083E08C83DD82CE8280E18F83188681E4F7
:1052200098E064E0A8010E945D1180E061E00E94C6
:10523000B84F80E061E00E94F74F88E197E060E0BE
:1052400044E00E947A62882329F080917507806289
:10525000809375078FE160E00E94B84F8EE160E0B7
:105260000E94B84F8DE160E00E94B84F8FE161E08D
:105270000E94F74F8EE161E00E94F74F8DE161E0FF
:105280000E94F74F0E94F80B882329F4809175073C
:1052900080618093750728960FB6F894DEBF0FBE25
:1052A000CDBFCF91DF911F910F91FF90EF90DF90D5
:1052B000CF900895EF92FF920F931F930E945E4A42
:1052C0007B018C016091A00170E080E090E024E817
:1052D00033E040E050E00E940C6D9B01AC01205C8B
:1052E000384A404050402E0D3F1D401F511FB9010C
:1052F000CA011F910F91FF90EF9008950E945A29C3
:1053000020E831E541E050E00E945E6D2D5F3F4FA7
:105310004F4F5F4FCA01B90127E030E040E050E055
:105320000E945E6D862F0895EF92FF920F931F9358
:105330007B018C0181E498E060E040E00E949711DD
:10534000C801B7010E944B490E94F81F8EE591E009
:105350000E941B20C801B7010E9445490E94F81F06
:105360008BE591E00E941B200E947E29E82FF0E04F
:10537000EE0FFF1FEA56FD4F808191810E941B2096
:1053800089E591E00E941B20C801B7010E943349C2
:105390000E94F81F87E591E00E941B20C801B70119
:1053A0000E943F490E94F81F1F910F91FF90EF90BC
:1053B0000895CF93DF938CE19CE060E570E00E945C
:1053C0000D548CE19CE060E00E948F548CE19CE0E5
:1053D0000E94D254882311F080E029C08CE19CE027
:1053E00060E570E00E940D548CE19CE06AEF0E9441
:1053F0008F548CE19CE00E94D2548CE19CE060E5EB
:1054000070E046E050E00E94E3548CE19CE00E9492
:105410001754892BD1F3C8ECD7E08CE19CE00E94B3
:105420002054899387E0CE3CD807B9F781E0DF911B
:10543000CF910895DF93CF93CDB7DEB728970FB6FE
:10544000F894DEBF0FBECDBF8FEC91E061E00E940B
:105450006D200E945E4A6093BF077093C0078093DF
:10546000C1079093C2070E94D929882391F4109212
:10547000C80789E68093C9078093CA078DE28093A5
:10548000CB0781E38093CC07809136028093CD07D0
:1054900005C08091750780688093750782E593E069
:1054A00068EC77E044E00E94BA0F882309F461C0F9
:1054B0009091E80180E02091E201820F911D90938C
:1054C0008A01809389018091AC01882349F10E946F
:1054D000190A882309F44DC08091A6038093B20174
:1054E0008091A7038093B8018091A8038093BE01A7
:1054F0008091A9038093C4018091B2038093CA0173
:105500008091B3038093D0018091B4038093D6013E
:105510008091B5038093DC010E94B22291E02AC001
:105520008091B20189838091B8018A838091BE0104
:105530008B838091C4018C838091CA018D8380917B
:10554000D0018E838091D6018F838091DC01888782
:10555000AE014B5F5F4FCE010196BA0120E030E013
:105560000E94840F90E0882309F491E081E098275D
:1055700001C090E0892F28960FB6F894DEBF0FBEC9
:10558000CDBFCF91DF9108959C01F999FECF32BD37
:1055900021BDF89A80B508959C01F999FECF1FBAF4
:1055A00032BD21BD60BD0FB6F894FA9AF99A0FBECC
:1055B0000895ABEDB9E080E090E0FC01E55AF74FCB
:1055C0001082118212821382FC01E55EF64F108276
:1055D0001182128213821D920496803C910569F714
:1055E0001092130A1092140A1092150A1092160AB9
:1055F000F999FECF89E090E092BD81BDF89A80B51F
:1056000080935A080895ABEDB9E080E090E0FC018A
:10561000E55AF74F1082118212821382FC01E55E77
:10562000F64F10821182128213821D920496803CE2
:10563000910569F71092130A1092140A1092150A34
:105640001092160A089510925A08F999FECF1FBABF
:1056500089E090E092BD81BD10BC0FB6F894FA9A33
:10566000F99A0FBE0895982F80915A08981708F05C
:1056700041C0992309F43EC0892F90E0019727E4A7
:1056800030E0AC01429FC001439F900D529F900DAE
:1056900011249C01265F3F4F8F5A9F4F24C0F999D8
:1056A000FECF32BD21BDF89A50B5F999FECF72BD3B
:1056B00061BDF89A40B5F999FECF1FBA32BD21BD40
:1056C00040BD0FB6F894FA9AF99A0FBEF999FECF39
:1056D0001FBA72BD61BD50BD0FB6F894FA9AF99A1F
:1056E0000FBE2F5F3F4FB901695B7F4F2817390706
:1056F00009F0D5CF089577FF03C06FEF7FEF22C089
:10570000CB01977074FF03C0909581959F4F76FFF2
:105710000BC060916D0770916E07680F791F77FF5E
:1057200011C060E070E00EC075FF0CC060916F07A3
:1057300070917007680F791F85E0603A780714F060
:105740006FE975E0CB010895BF92CF92DF92EF929F
:10575000FF920F931F936C01FC01B080E1800E94C7
:105760005A2920E831E541E050E00E945E6D2B0DA2
:10577000311D411D511DFF2400E010E0CA01B90197
:10578000A80197010E945E6DF60160831F910F9141
:10579000FF90EF90DF90CF90BF9008958F929F92EF
:1057A000AF92BF92CF92DF92EF92FF920F931F932F
:1057B0004C01FC01A180E080FF24EA0CF11C0027D1
:1057C000F7FC0095102F0E945A29BB24CC24DD241D
:1057D00020E831E541E050E00E945E6DCA01B90168
:1057E000A60195010E945E6DE61AF70A080B190BD7
:1057F000C801B701A60195010E945E6DF4016083A6
:105800001F910F91FF90EF90DF90CF90BF90AF90DE
:105810009F908F9008957F928F929F92AF92BF92A8
:10582000CF92DF92EF92FF920F931F93CF93DF936C
:105830006C017A018B01CB01BA010E944B494C01EA
:10584000C801B7010E944549EC01C801B7010E9497
:105850003949A82EC801B7010E943F49B82EC80196
:10586000B7010E943349782ED6018C9180FFB4C0D5
:105870008295837090E082309105B9F08330910574
:1058800009F1892BE1F5F601218130E08A2D90E0C4
:10589000059667E070E00E944B6D02C03595279534
:1058A0008A95E2F720FD2BC097C02B2D30E0D60162
:1058B00011968C9190E08F7190702817390709F03C
:1058C0008BC01DC0C801B70120E831E541E050E0C0
:1058D0000E945E6DCA01B901F601228130E040E00C
:1058E00050E00E945E6DD60111962C9130E040E0B0
:1058F00050E0621773078407950709F06DC0F60141
:105900008081869586958370A1F0823019F4B0FE6F
:1059100010C062C0813069F4FFE1BF1609F45CC0B9
:105920008DE1B81621F492E0791609F455C0B0FE65
:1059300053C08CE390E0889E8001899E100D989E54
:10594000100D11240C0F1D1FD6018C9186FD30C047
:1059500013966D917C911497C6010E947B2BF601E2
:10596000C581D6810780F085E02D9C0108171907B5
:1059700098F1209729F480E00217130771F526C0EB
:10598000309751F1C801821B930B9C01BF010E940B
:10599000376D6E9FC0016F9F900D7E9F900D1124FB
:1059A00082179307C9F480E0C617D707B4F00EC07A
:1059B000E60188E0E82EF12CEC0CFD1C6B817C816B
:1059C000C6010E947B2B0817190711F481E005C05E
:1059D0002296CE15DF0591F780E0DF91CF911F91E0
:1059E0000F91FF90EF90DF90CF90BF90AF909F907E
:1059F0008F907F900895982F9B0180915A08981757
:105A000068F467E4969FB0011124665F7F4FC90177
:105A100047E450E024EC3AE20E94C8060895DF9281
:105A2000EF92FF920F931F93DF93CF93CDB7DEB723
:105A3000C754D0400FB6F894DEBF0FBECDBF209143
:105A40005A08821708F046C0222309F443C090E0A8
:105A5000019627E430E0829F8001839F100D929F82
:105A6000100D1124065F1F4F97E4D92E7E01089474
:105A7000E11CF11C14C0C701B80147E450E024EC5C
:105A80003AE20E94C806C80187549040B70147E433
:105A900050E02CEC3AE20E94E406095B1F4F209193
:105AA0005A082D9DC00111240A960817190718F3EA
:105AB000215020935A08F999FECF1FBA89E090E04F
:105AC00092BD81BD20BD0FB6F894FA9AF99A0FBE27
:105AD00081E001C080E0C95BDF4F0FB6F894DEBF04
